:020000040800F2
:200000000040002099010008A1010008A3010008A3010008A5010008A7010008000000007E
:20002000FFFFFFFF0000000000000000A9010008AB01000800000000AD010008AF010008F0
:20004000B1010008B1010008B1010008B1010008B1010008B1010008B1010008B1010008D0
:20006000B1010008B1010008B1010008B1010008B1010008B1010008B1010008B1010008B0
:20008000B1010008B1010008B1010008B1010008B1010008B1010008B1010008B101000890
:2000A000B1010008B1010008B1010008B1010008B1010008B1010008B1010008B101000870
:2000C000B1010008B1010008B1010008B1010008B1010008B1010008B1010008B101000850
:2000E000B1010008B1010008B1010008B1010008B1010008B1010008B1010008B101000830
:20010000B1010008B1010008B1010008B1010008B1010008B1010008B1010008B10100080F
:20012000B1010008B1010008B1010008B1010008B1010008B1010008B1010008B1010008EF
:20014000B1010008B1010008B1010008B1010008B1010008B1010008B1010008B1010008CF
:20016000B1010008B1010008B1010008B1010008B1010008B1010008B1010008B1010008AF
:20018000B1010008DFF80CD000F018F800480047110400080040002006488047064800473C
:2001A000FEE7FEE7FEE7FEE7FEE7FEE7FEE7FEE7FEE70000A103000885010008064C074D52
:2001C00006E0E06840F0010394E8070098471034AC42F6D3FFF7DAFF5C0400086C040008B1
:2001E00070B50646002529B1012927D0022928D04FF4407500F07AF808281ED1124C2068EC
:2002000020F440702060206828432060206820F0F8002060206846F0020108432060206803
:2002200040F48030206000F061F8216821F002012160216821F0F801216070BD4FF480757A
:20024000D8E74FF40075D5E7103C02400B4908200A68D20301D5012070470A68D20601D54C
:20026000052070470A6812F0EF0F01D00620704709688907FBD50720704700000C3C024049
:200280000248016841F0004101607047103C024070B50D46064600F029F8082811D1094C57
:2002A000206820F44070206020682060206840F001002060357000F019F8216821F00101EF
:2002C000216070BD103C024005480068002805DA034804490C380160034901607047000085
:2002E000103C024023016745AB89EFCD08B508208DF80000FFF7AAFF8DF800009DF800008D
:200300000128F7D09DF8000008BD00000CB50022204900920192086840F4803008600868F6
:2003200000F400300190009800F10100009001980028F4D00868800329D501200190154869
:20034000083002680260026842F400420260026842F4A0520260031F0F4A1A600A6842F0C8
:2003600080720A600A689201FCD50C4940F203720A60016821F003010160016841F0020169
:2003800001600168C1F381010229FAD10CBD0192FEE7000000380240193C4005003C024094
:2003A0000E4810B5016841F0010101600B4A00210832116002680A4B1A400260031D094A16
:2003C0001A60026822F48022026004480C300160FFF79CFF05490448086010BD003802405C
:2003E000FFFFF6FE103000240000060808ED00E002E008C8121F08C1002AFAD170477047B5
:20040000002001E001C1121F002AFBD17047000070B50D4E0D49306888420FD00C4DFFF7D5
:2004200053FF00213820FFF7DBFE0A4CA019295DFFF72EFF641EF9D5FFF722FF064806604F
:2004400070688047002070BD00000608414E4B4900000408FFFF010008ED00E06C04000827
:0C04600000000020004000000004000824
:020000040806EC
:20000000414E4B49AD030608A33B06089F3B0608A13B0608733606081943060811111111DC
:20002000000000000000000000000000D93C06082D38060800000000B13B0608DB3C06080B
:20004000C5030608C5030608C5030608C5030608C5030608C5030608C5030608C5030608F0
:20006000C5030608C5030608C5030608C5030608C5030608C5030608C5030608C5030608D0
:20008000C5030608C5030608C5030608C5030608C5030608C5030608C5030608C5030608B0
:2000A000C5030608C5030608C5030608C5030608C5030608C5030608C5030608C503060890
:2000C000C5030608C5030608C5030608C5030608C5030608C50306084D410608C5030608AA
:2000E000C5030608C5030608C5030608C5030608C5030608C5030608C5030608C503060850
:20010000C5030608C5030608C5030608C5030608C5030608C5030608C5030608C50306082F
:20012000C5030608C5030608C5030608C5030608C5030608C5030608C5030608C50306080F
:20014000C5030608C5030608C5030608C5030608C5030608C5030608C5030608A1410608D5
:20016000C5030608C5030608C5030608C5030608C5030608C5030608C5030608C5030608CF
:20018000C503060800F002F800F096F80AA090E8000C82448344AAF10107DA4501D100F0E2
:2001A0008BF8AFF2090EBAE80F0013F0010F18BFFB1A43F001031847CCB00000ECB00000A6
:2001C000103A24BF78C878C1FAD8520724BF30C830C144BF04680C607047000000230024A9
:2001E00000250026103A28BF78C1FBD8520728BF30C148BF0B6070476E2900F0C1877029B5
:2002000000F0F88166290AF0BB8265290AF0B88267290AF0B5826129AFF3008003681B0AF0
:2002200028BF41F08001692900F06681642900F06381752900F060816F2901F0B38078298F
:2002400000F0C481E92901F04B80E42901F04880F52901F04580EF2901F0B080F82900F0B7
:20026000C3810368DB0928BF41F08001632900F0CC87732900F0D187E32902F04282F329C1
:2002800002F04782002070471FB59DE8030001F073FF00F094FB01F04FFF0400002000210A
:2002A0000AF042FA401C6060002000210AF052FAE0601FBD10B510BD02F04EFC1146FFF72E
:2002C000E3FF0AF0F9F802F039FD03B4FFF7F2FF03BC00F099FE00000B49D1F800C04A68B6
:2002E0005CF8043B1068184442F8040B8C4528BFA1F1DC0C8A4228BFA1F1DC02C1F800C080
:200300004A6020F000407047E4530020FEB442464B4654465D463EB400F065FD3EBC9046B9
:200320009946A246AB46FEBC00F030F880EC200B7047C0EC200B704790EC200B7047D0EC3D
:20034000200B704785460D98DDF838E00F9B5DF8042B20E90C009DE8FE1F854601BD4DF8AB
:2003600008ED0DF1080E4DF804ED2DE9FF1F002102B4694681B001F028FADDF840E012B089
:20038000704700004CB000007CB800004DF808ED0DF1080E4DF804ED2DE9FF1F002102B4E7
:2003A000694681B001F079BA704700BF0948804709480047FEE7FEE7FEE7FEE7FEE7FEE7B5
:2003C000FEE7FEE7FEE7000004480549054A064B70470000DD3C06088501060850540020FE
:2003E00050960020505600205056002000487047EC5300207CB51D4616460C00009001D0B0
:200400002044401E074B7B442A4669460190304600F0D1FE05461CB10020694600F0DEFE71
:2004200028467CBDDD0D00000FB41CB5084B06AA7B4469460090059800F0BDFE04460020E4
:20044000694600F0CBFE20461CBC5DF814FB0000A90D000070B5044685690068C10601D57A
:20046000302600E02026C00708D070BDD4E9012130469047206A00F1010020626D1EF5D5B5
:2004800070BD70B5044685690078C00708D170BDD4E9012120209047206A00F10100206299
:2004A0006D1EF5D570BD70B50C460546012A05D02878800600D5EA69002302E0012305E09C
:2004C0005B1C934202D2E05C0028F9D1A869E618C01AA861286A184428622846FFF7BAFF47
:2004E00004E0D5E9012114F8010B9047B442F8D32846FFF7C6FF70BD2DE9F041064600247B
:2005000010687529314616A511D000F0CBFD002803DAC0F1000013A507E031688A0701D5A5
:2005200011A502E0490704D510A5012401E000F0C2FD00210A2306F1240707E0B0FBF3F2A9
:2005400003FB1200303078541046491C0028F5D123462A463046BDE8F04100F0B5BD00002F
:20056000000000002D0000002B00000020000000F0B40D460188090502D5234C7C4402E08D
:20058000214C7C440E34002100F124060BE002F00F074FEA1212E75D42EA03724FEA13131C
:2005A000775401F1010152EA0307F0D102780023120704D5702D06D009B1113402232246E7
:2005C000F0BC00F081BD10340123F8E770B504460D462146106800F06EFD024629462046E1
:2005E000BDE870400023C3E7D21D22F00703D3E90023BDE70368126843F020030360082382
:20060000C3610023B4E70000A8A800002DE9F05F894604464FF0000ADFF878B1FB44C0F8EA
:2006200020A02046E1688847002875D0252806D0D4E901219047206A401C2062F1E70026D0
:200640005F462046E16888472028054608DB312D06D207EB050010F8200C08B10643F0E7C7
:20066000B00701D526F00406C4F81CA00027C4F818A02A2D09D0284609F0BCFB38B304EB92
:200680008708303DC8F8185019E059F8041B204604EB87029161E1688847012F054618D181
:2006A000E069002820DA26F020061DE0D8F8180000EB800005EB40003038C8F8180020466D
:2006C000E1688847054609F095FB0028EED1012F0AD02E2D08D12046E16888477F1C0546A5
:2006E000022F46F02006C4DBA069002803DA404246F00106A061F00701D026F010066C2D73
:200700000BD0682D09D04C2D39D06A2D35D0742D35D07A2D33D016E038E0E1682F462046F0
:200720008847B842054609D16C2F26D04FF48060E168064320468847054604E06C2F1AD09C
:200740004FF4807006430DB3A5F14100192802D8203546F400664A462946204626604E46F7
:20076000FFF74AFD80B101280BD0F61D26F0070000F1080955E74020E4E78020D8E70020EF
:20078000D6E706F104094CE7284651E7206ABDE8F09F000030A800000FB400B58DB010A9BB
:2007A000099000910B904FF0FF300A9000200C90064878440690064878446A4607900F9917
:2007C00009A800F019FE0DB05DF814FB630C00007B0C00002DE9FF5F1D464FF0FF3B914623
:2007E0004FF000085F46D5E90146A96901987F1C8847296A824688470028F6D11AF10100CE
:200800000CD0002E24F4C06419DD600614D5BAF12B0F09D0BAF12D0F0ED103E0584604B094
:20082000BDE8F09F44F48064A96901987F1C8847761E8246002E02DDBAF1300F03D0B9F183
:20084000000F26D032E0A969761E01987F1C44F400748847002E824605DDBAF1780F06D04C
:20086000BAF1580F03D0B9F1000F10D01EE0B9F1000F02D0B9F1100F18D1A969761E019880
:200880007F1C24F4007488478246102002E0082000E00A20814609E0A96908FB0908761EEC
:2008A00001987F1C44F4007488478246002E05DD4946504600F08CFD0028EDDAE969019839
:2008C0008847A00502D46FF00100A8E7E00727D1600614D5600502D5C8F1000000E0404656
:2008E000296801F104022A600968220501D5087016E0220701D5088012E0086010E02868A8
:2009000000F1040129600068210502D580F8008006E0210702D5A0F8008001E0C0F80080E5
:2009200038467CE72DE9F04791460F4680460446002614F8015B2DB100F070FB0068405D81
:20094000C007F6D12B2D02D02D2D18D0641E4A463946204600F080FD27B13968A14201D10B
:20096000C7F800804FF0020471050BD54042002803DDFFF73BFD0460A007BDE8F08746F484
:200980008066E4E70028F8DAFFF730FD04606FF00040F2E70B4910B5A1F17C020A4CC2E983
:2009A0003712372106E000EB104342F82130074B00FB03400B1EA1F10101F4DC10BD0120DC
:2009C000E8E7000084530020E119D666CD0D0100002000F090FDFFF76DFC012000F014FB24
:2009E00040EA0103024630B59B0710D14FF0013400E008C208C91D1B9D4315EAC41FF8D068
:200A000013F0FF0102F8011B0DD01B0AF8E711F8013B002B02F8013B05D011F8013B002BF1
:200A200002F8013BF3D130BD2DE9F0410E460546002400E0641C285D00F027FB0746305DF4
:200A400000F023FB381A02D1295D0029F2D1BDE8F08110B5431C02E010F8011B71B1810707
:200A6000FAD14FF0013202C88C1A8C4314EAC211F9D0C01A0A0603D0C01E10BDC01A10BD51
:200A80000A0401D0801E10BD0902FCD0401E10BD40EA010370B59B072ED14FF00136042A72
:200AA0002AD308C810C9121F9D1B9D4315EAC61517D0D8B2E1B2401A50EA056110D198B2C4
:200AC000A1B2401A50EA05410AD123F07F4024F07F41401A50EA052102D1180EA0EB1460B6
:200AE00070BDA342DBD018BA21BA884201D9012070BD4FF0FF3070BD0AB9002070BD10F8E7
:200B0000013B11F8014B63B1A3420AD1521E08D010F8013B11F8014B1BB1A34201D1521E9C
:200B2000EDD1181B70BD032A40F2308010F0030C00F0158011F8013BBCF1020F624498BFF4
:200B400011F801CB00F8013B38BF11F8013BA2F1040298BF00F801CB38BF00F8013B11F070
:200B6000030300F02580083AC0F0088051F8043B083A51F804CBA0E80810F5E7121D5CBFB8
:200B800051F8043B40F8043BAFF30080D20724BF11F8013B11F801CB48BF11F8012B24BF3F
:200BA00000F8013B00F801CB48BF00F8012B704710B5203AC0F00B80B1E81850203AA0E81E
:200BC0001850B1E81850A0E81850BFF4F5AF5FEA027C24BFB1E81850A0E8185044BF18C9E6
:200BE00018C0BDE810405FEA827C24BF51F8043B40F8043B08BF7047D20728BF31F8023B5B
:200C000048BF11F8012B28BF20F8023B48BF00F8012B704702F0FF0343EA032242EA0242C4
:200C200000F072BC4FF0000200B5134694469646203922BFA0E80C50A0E80C50B1F12001CC
:200C4000BFF4F7AF090728BFA0E80C5048BF0CC05DF804EB890028BF40F8042B08BF7047F4
:200C600048BF20F8022B11F0804F18BF00F8012B704700004FF0013C50F8042B51F8043B2B
:200C80009A4221D1A2EB0C03934313EACC1317D150F8042B51F8043B9A4215D1A2EB0C03F3
:200CA000934313EACC130BD150F8042B51F8043B9A4209D1A2EB0C03934313EACC13DBD0F8
:200CC0004FF00000704700BFD01A01BAB1FA81F101F0180122FA01F0CB40C1F12001DBB21B
:200CE000C0B2C01A2CFA01F3D11A914311EAC311E6D17047704770477047002300F032BE6A
:200D0000012300F02FBE000070B5044601F07FF9783405462646204600F088F9040007D1E4
:200D20003146E86901F0A1F9040001D101F01EF90AA104F12000D1E90021C0E900210021FC
:200D4000A162E16261612161A161E161A868E0606868A06004F1780070BD000041524D002B
:200D6000432B2B000000000070B50546466A01F04EF90446284601F0C3F920B12946606914
:200D800001F012F907E0A5F12000C169491EC1612168491E21604169491C4161016911B9B1
:200DA000616901616061284600F08DFD304670BD70B5054601F02BF90446284601F0A0F9F4
:200DC00038B12946A06901F0EFF8C169491CC16102E0A5F12000C169012902D1A16981617E
:200DE000A061012070BD70B501F011F9846905460CB901F08FF904F12006304601F080F913
:200E000068B1E0692668012802D0401EE0610BE0A16904F17800A96101F0E4F804E0E069E2
:200E2000012801D1A069A861304670BD70B501F0EEF8446905460CB901F06CF96069401ECC
:200E4000606117D104F12006304601F059F921696961E56928B104F17800266801F0C2F8F4
:200E600001E000202061002D04D13046BDE8704000F058BD70BD000073B50C4601F0C7F8C7
:200E8000203C616931B1E169491EE1610168491E01607CBD616804F1780509B128468847BB
:200EA0002846BDE87C4001F09DB8FFF75DFF284601F098F801F0EEF870B578380D464D4947
:200EC00081620121C161C0E9005200F1200401F09EF801682A46491C016000212046FFF738
:200EE00063FA2046FFF73BFA204601F054F82DE9FF4D9A4693460E46804601F001F9002819
:200F000075D1A8F12000012708F1580805680024CDF808803146284608F06CFE10B1CAF8A9
:200F2000008062E0284608F0B1FE0190304608F0ADFE00903049019808F05CFE20B92E49EC
:200F4000009808F057FE20B1DDE9001008F062FE08BB2949019808F04DFEC0B1307A297ADE
:200F6000641C00F0030001F0030131EA00023ED130EA010100D077B1C00700D10027029870
:200F8000ED68F6680028C5D000680290C2E7012C02D06CB109D02AE01849304608F02AFE48
:200FA00018B1BBF1000F22D1B9E7BBF1000F1ED11349019808F01EFE20B91249019808F0A2
:200FC00019FEA0B100200090019033462A4603A902A808F07FFE002804D00399CAF800104A
:200FE0001CB1022004B0BDE8F08D0120FAE70020F8E70000790E060824AF060878AF060880
:2010000030AF06083CAF060801491820ABBEFEE72600020000487047EC53002010B501F0DE
:201020008BF8001D10BD00BF0197000070B5064601F07EF8056806F10B0020F00704B44294
:201040009CBF002070BD2B466A68BAB11068A04210D304F1080188423CBF5068586007D3F0
:201060005168101941601168091B016058601460101D70BD13465268002AE7D1214628469F
:2010800001F066F80028DED170BD10B50446FFF7C5FF0068005DC00602D504F1200010BDF0
:2010A000204610BD09684A0501D540B27047C905FCD500B2704709684A0501D5C0B27047F7
:2010C000C905FCD580B270472DE9F0470D4699469246044600F124080168880604D5E069B1
:2010E00021F01001216000E00120A84202DDA0EB050700E00027A16907EB050202EB0900EC
:20110000A1EB0000A0612078C00602D42046FFF7A1F9002608E0D4E901211AF8060090473C
:20112000206A401C761C20624E45F4DB2078C0060AD52046FFF78EF906E0D4E9012130201E
:201140009047206A401C2062381EA7F10107F4DC07E0D4E9012118F805009047206A401CF2
:201160002062281EA5F10105F3DC2046FFF789F92078000602D50220BDE8F0870120FBE7A8
:2011800011680268006A530501D508700BE0D30501D5088007E0130603D5C217C1E90002DE
:2011A00001E05206086001207047000001694A1C02610878704700B58FB0CDE9013100214F
:2011C000059105497944CDE9031011466846FFF71DFA0FB000BD0000E5FFFFFF0A6802F8C9
:2011E000010B0A607047D1E900239A4202D2531C0B601070704710B5436913B1AFF30080CD
:2012000001E0FFF750F9012010BD127800F124010A7000224A700122EDE711684FF0FF32EA
:20122000E9E700002DE9FF5F15468A460446DFF8AC80F8440027D8E900103E46CDE9001074
:2012400011E03AF816106A4602A801F01FFC411C07D02178890603D5E269391891420ED856
:20126000074406F101062078800602D5E069B84205DDAE42E5DB3AF816000028E1D1A06930
:20128000C01BA0612046FFF7E5F8D8E90010CDE90010002016E03AF818106A4602A801F0E7
:2012A000F5FB8146401C0BD000250DF1080B05E0D4E901211BF8050090476D1C4D45F7D372
:2012C00008F10100B0428046E5DB206A384420622046FFF7D6F8BDE8FF9F00002E9C0000DD
:2012E0002DE9F0418046D21D22F007020025D2E90002F52914A612D0002A06DA0023D0EB53
:20130000030063EB020211A608E0D8F800108B0701D50FA602E0490701D50EA601251146A3
:20132000002408F1240704E000F083FF30323A55641C50EA0102F7D12B46324621464046C3
:20134000BDE8F041FFF7C0BE000000002D0000002B0000002000000030B4002100F12404AD
:201360000CE002F0070505F130054FEAD20242EA4372655401F101014FEAD30352EA03056A
:20138000EFD10468002310A2250708D504F020040C4304D0C46901230CA2641EC46130BC76
:2013A000FFF792BE10B5044621461068FFF783FE02462046BDE810400023CDE7D21D22F007
:2013C0000701D1E90023C7E700000000300000003A2800D2303820F02002412A01D3A2F1AA
:2013E0003700884201D34FF0FF307047026811441378016018467047D16005497944516145
:2014000004497944116200211161114601F086B9EDFFFFFFB70E0000426842B1016811F877
:20142000013B23B1521EC0E90012184670470121C160881E704742685AB1C368016843B977
:2014400083688B4205D0491E521CC0E90012002070474FF0FF3070472DE9F05F82461546EB
:201460008B4600270AF10104B9460078302801D09DB113E014F8010B0127782803D0582860
:2014800001D045B10AE00DB1102D07D1002714F8010B102502E0082500E00A250026B0461A
:2014A0000EE005FB080005FB06F101271FFA80F801EB1046B6F5803F00D3B94614F8010BF0
:2014C0002946FFF785FF0028EBDABBF1000F05D00FB1641E00E05446CBF80040B9F1000F2E
:2014E00006D0FEF783FF02210160C81EBDE8F09F48EA0640FAE710B501F016FBBDE81040EC
:2015000001F00CBB4FF000020429C0F0128010F0030C3FF489ABCCF1040CBCF1020F18BF8B
:2015200000F8012BA8BF20F8022BA1EB0C01FFF77BBB5FEAC17C24BF00F8012B00F8012B65
:2015400048BF00F8012B704710B5029C31B101290DD003290BD004290BD108E04BB90F2A28
:2015600007D8216800EB82004160002010BD012010BD022010BD10B5029C31B101290DD0DF
:2015800003290BD004290BD108E04BB90F2A07D800EB820040682060002010BD012010BDC7
:2015A000022010BD2DE9F04798460446C0B031B1012918D0032979D0042979D176E0B8F178
:2015C000000F75D190B2A16B231D00F4005205E0C50701D020C91D601B1D40080028F7D18A
:2015E000F2BBA1635EE0150C96B2102D01D2012000E000208146A819102801D9012700E0C0
:201600000027B8F1010F03D0B8F1050F50D101E03FBB01E020284BD84FF0000AB9F1000F10
:2016200008D02078012805D104F1480084F800A080EC200B47B16078012805D104F1C800BF
:2016400084F801A0C0EC200BB9F1000F02D0684680EC200B20A882460FB1C0EC200B01E0BE
:2016600020E025E0A06B6B4608E0014603EBC5026D1CD1E900C10830C2E900C1761EF4D2C3
:201680004146B8F1010F00D00021B9F1000F00EB8100A06302D0184690EC200B17B15046BC
:2016A000D0EC200B002040B0BDE8F0870120FAE70220F8E710B50468944801F1080278444F
:2016C000436803444FF0FF30934204D0136843F31E03134400E003460A6842F31E02114493
:2016E000A14202D89C4201D3012010BD002010BD13B50446854882B078443A38016842684E
:2017000001441044401AC2100398801E0390804878440090082303A801F0D8F97D490023A3
:2017200078B1026842F31E020244A2644268012A0AD0002A00F1040009DAE06401202065DA
:201740000AE00422636114E00222636111E042F31E021044C4E91303E26C1068002819DA9B
:20176000C0F3036058B101280CD002280FD0012263612046FEF718FE092004B010BD66488C
:20178000784401E06548784460610020F5E764487844F9E740F31E001044F5E70C46054620
:2017A0002846216CFFF7A4FF50B9206C2246294628616B6901209847072803D00828EFD0DB
:2017C000FFF706F9201DFEF7BDFDF0B504460E460127C068D3B068B35820FFF727FC050061
:2017E0002AD0142204F10C0105F10C00FFF7E0F9182204F1200105F12000FFF7D9F904F1C3
:20180000380005F1380C0FC8ACE80F00E560F06B4022311D306401A8FFF7CAF98DF80070A1
:201820008DF8017012AF32AD20461099FFF760FFD0B910E0E760EAE7364920460522FEF71C
:20184000B3FD05E09DF8010010B92846D0EC200B53B00920F0BD63696A4621460020984784
:20186000062809D00828DFD09DF800000028E9D1384690EC200BE5E79DF8000000B102E0F2
:20188000384690EC200B9DF8010010B92846D0EC200B31462046FFF781FF054600690C4616
:2018A0000A46086429466B6902209847072803D0082804D0FFF78CF8201DFEF743FD2146CF
:2018C0002846FFF76BFF70B50546C168C9B1012919D00C4614220C3105F10C00FFF768F9F6
:2018E000182204F1200105F12000FFF761F904F1380038350FC80FC52046BDE8704000F042
:2019000071BCFFF765F80020E86070BDC2ECFFFFA1FFFFFF010000FF77F5FFFF77F5FFFF94
:201920008C0100008268002A02D001460120104770470000017A51B9417A89B1491E41722A
:2019400041680A1D42600968016004210172C9B2491E017201680A0E09020160104670475C
:20196000B02070472DE9FF4F16460D468BB05FEA000A4FF0000006900890049007900CD0CB
:20198000BAF1010F09D0BAF1020F01D0002202E2A86BA864D5E90FB40EE095F85000D5F8E8
:2019A0004CB0C00776D10E9818B1DBF80000C0F307400BEB800441E00E98022811D02788E6
:2019C000002F67D06088241D394600F0010262F35F0161B1012933D002297DD00329EBD1B2
:2019E0002FE12768002FECD060680834ECE7BAF1000F23D0A96C0F22002301EB0008304606
:201A000005A900911946FFF7B6FD0598804515D808EB0701814211D9A96C201DA963C5E97C
:201A20000FB02846FFF7C4F90028AFD020680F2240F31E0004443046049423E0241DBBE7D9
:201A4000BAF1000F27D0304605A90D22002300911946FFF790FD0598296A88426ED1E86A61
:201A6000A0426BD1206804A90F22002340F31E0004443046049400911946FFF765FD0022AE
:201A80003046049504A9002300911946FFF75CFD224647E2D7E0A96C0F22002301EB000883
:201AA000304609A900911946FFF765FD09987F1E804543D808EB070181423FD96768B81C1F
:201AC0000ED0781C0ED03946206805ABC20F2846FFF70DFA88B300E032E002281DD004E09B
:201AE000022258E105F158000590304604A90D22002300911946FFF73EFD0498EC6228629C
:201B0000059802216862206840F31E0002192846FEF74AFC80213A4660E004A930460D22EB
:201B2000002300911946FFF726FD0498EC6228620598A86205F12800E3E7FFE708343BE732
:201B40002168BAF1000F21F00048059110D0304609A90D22002300911946FFF70CFD099869
:201B6000296A884241D1E86AA0423ED101203DE0A96C401E0F2201EB0009304609A9002391
:201B800000911946FFF7F7FC099881453BD809EB0701814237D9002704F104090AE0D9F83F
:201BA00000106B4628460022FFF7A1F920B97F1C09F104094745F2D3474524D1304604A9D4
:201BC0000D22002300911946FFF7D5FC0498D94AEC62286200207A44022168622846FEF737
:201BE000E3FB06200FB0BDE8F08F002058B10020C5E90A8004202863201D686305984045A4
:201C000006D1012006900598404515D1002014E004EB8800002250F8041F1346049541F3F0
:201C20001E010C18304604A900911146FFF78CFC0F22304604946CE1042000EB880004446D
:201C4000FCE60122A7E0DBF8000001900BF1040002900E9810B30198000C8DF80D000198C9
:201C60000004019002208DF80C0001A8FFF762FEB02804461AD03F2C41D800F03F01042039
:201C800000EB8107304609A90D240023224600911946FFF770FC0998384442E000208DF8B7
:201CA0000D000198000201900320DCE70898B0B904980028C5D005A800230E2219460090B4
:201CC0003046FFF758FC059930460F220023049104A900911946FFF737FC0120079006982B
:201CE000002875D0304604A900220495134600911146FFF729FC079800286AD004E17F2CAC
:201D000019D800F03F01042000EB8107304609A90D240023224600911946FFF72CFC099878
:201D2000C01B2246059005A80023009019463046FFF70AFC99E78F2C1AD80007040C01A8AD
:201D4000FFF7F8FD54EA00143FF4CAAE2246304600231946FFF726FC08B103221BE0200426
:201D600001D5012008906004E4D5012004907CE79F2C16D800F00F020D2A0BD00F2A09D0C1
:201D8000304609A90D24002300911946FFF7F3FB0998C6E7042228460121FEF705FB0920D1
:201DA00020E7AF2C16D84FF0010104F0070000F1010001FA00F14FEA01122007A2F1100221
:201DC00003D5012042F4804204900023194659E0AEE087E0B72C35D8B12C0ED0B22C14D061
:201DE000B328D7D101A8FFF7A5FD00F00F0100F0F000491C41EA00322BE001A8FFF79AFD3C
:201E00000200C7D00F2AE0D9C4E700273C4601A8FFF790FD00F07F0101FA04F10F430006FF
:201E200001D5E41DF3E709A930460D240023224600911946FFF79FFB099800EB870000F585
:201E400001706EE7BF2C07D800F00700401C40F400220123012115E0C72C25D809D101A89B
:201E6000FFF768FD020095D00F2A93D80023042108E0C62C0DD000F00700401C40F4202234
:201E8000032319463046FFF78DFB00283FF452AF63E701A8FFF74EFD00F00F0100F0F00059
:201EA000491C41EA0032EBE7C82C0BD0C92C09D0CF2CA9D9D72CA7D800F00700401C40F46B
:201EC00000220DE001A8FFF735FD00F00F01491C00F0F000C82C41EA003201D102F5801231
:201EE0000523B7E704A800230F22194600903046FFF741FB049930460E220023059105A9DB
:201F000000911946FFF720FB0B4930460F227944049104A9002300911946FFF715FB064A5D
:201F20007A44123A28460321FEF73EFA072059E6082057E65A0300002600000038B56846EF
:201F400007F080FE0420FEF7DFFE694607F072FE0446684607F085FE024A03492046FEF79B
:201F6000ABFF0000639C060854AF060870B5054600F04DF804461DB1284600F0C1F808B10C
:201F8000A06801E055F8140C206101202073BDE8704000F0BFB810B5040001D0FEF7E4FE89
:201FA0002046BDE81040E1E770B504000D4609D004F1200000F098F820B12068A84201D1FF
:201FC000204670BD0020FEF79FFE7838D5E9002300F12001C1E900230022C26142610560FF
:201FE000026170BD10B5044600F011F8783CC069214600F045F8002804D12046BDE8104080
:2020000000F0F0B810BD000010B5FEF7E1FC70B500F096F804680546A4B92020FFF706F8D9
:20202000040011D0094900202C60C4E900010849A1602073206160610649A06109B100F0EE
:202040000BF8E061204670BDFEF7C2FC00000000092006080000000010B58820FEF7E6FF78
:20206000002801D00021017010BD802902D808B1017809B100207047012100F8081B7047CE
:2020800018B100F10802914201D00020704700210170704770B5FFF7BAFF4469054614B91F
:2020A0000020FFF763FFE06904F12006401CE061304600F025F8002801D0266803E028682A
:2020C00000F10100286002D04FF0000200E022684FF000013046FEF767F93046FEF73FF95B
:2020E0003046FFF758FF000002680B689A4205D140684968884201D10120704700207047EA
:2021000010B50349FFF7F0FF80F0010010BD00006CAE060810B5FFF77AFF016919B10022D9
:202120000261884701E080688047FEF751FC704700487047F4530020004870470C540020FF
:202140000048704728540020704770477047704738B504460A4600206946AFF30080002868
:2021600008BF38BD02460099204600F01AFD012038BD012000F001BEF8B5AFF30080054655
:2021800000200C46102000BF0646A819A0420DD9324669460020AFF30080070008BF00F0E2
:2021A000ECFD0098A04218BF0546C419FFF7C0FF05600746F01D20F007004619284600F075
:2021C0000AF8B44208BFF8BDA21B31463868BDE8F84000F0E6BC00210160C0E90110704755
:2021E0001020704770B50446051FFFF7A1FF0068002C14BF446870BD002C18BFAC423CBFA3
:2022000020466468F8D301680A18AA4218BF456003D12A6805461144016028684119A1429A
:202220001CBF6C6070BD6168696021680844286070BD30B5B0F10A024FEA900E71F10003E0
:202240004EEA817EB0EB0E0061EB91014FEA101E4EEA017E10EB0E0041EB11114FEA102ED4
:202260004EEA016E10EB0E0041EB11214FEA104E4EEA014E10EB0E0041EB1141401841F121
:2022800000014FEAD00040EA41704FEAD10110EB80054FEA810444EA907444EB01046D1924
:2022A00044EB0404521BA3414FF0000348BF0A3200D530BD401C41F1000130BD10B50446C4
:2022C000FEF7ACFE0068005D00F0010010BD70472DE9FF4F0C461E464FF0FF378BB0D2E9A0
:2022E0000001DDF860800A908A46C1F30A5505B93D46002108464FF00000BAF1000F00F40E
:20230000400005DA00EB80004FF4400101EA50004FEA9059B9F1010F00DDB9460A9850EAE0
:202320004A000ED044F61050A5F2FF3545432F14B8F1000F1ED07542291E1EDDC9F10002EA
:202340001CE0B8F1010F4FF0000001D0302103E0F24305E02154401CB042FBDB3046002239
:20236000002121540B99C1F80880C1E900200FB0BDE8F08FBD1B6D1CDEE74A4600DA6942FA
:2023800006A800F069FC06AB07CB03AB07C350460A9900F02DFD8DE80700A0F500501F3834
:2023A00000900398002D09DD42F21F014A46084403A90390684600F08CFF08E0A0F500507A
:2023C0004A461F3803A90390684600F096FF8DE807000004000C03D04FF0FF30410800E0AE
:2023E0001046B8F1000F03D00022009215461FE0751E06D4FFF71DFF02F1300262556D1E08
:20240000F8D5B3460122084302D000227F1C04E02078302801D100227F1E002A099787D073
:202420001DE0112D07DAFFF704FF303262556D1C50EA0102F5D108430FD10021681E05E02B
:20244000235C625C6354491C2254401E8142F7DBAB46A81B401E099001E0009848B100207D
:2024600004F80B000B98099AC0F80880C0E9002B7DE711264FF000085AE72DE9F04F8846B5
:202480000446D21D22F0070191B0D1E90001CDE90A0107F00BFC02460B98C00F01D02D2056
:2024A00007E02068810701D52B2002E0202101EAC000032A099001D0072A05DB03464146BE
:2024C000204600F089FB0FE12078800601D5E06900E00620B8F1650F814606D0B8F1660F17
:2024E00018D0B8F1670F72D132E00020B9F1110F009001DB112301E009F101030AAA01A9B9
:202500000CA8FFF7E5FEDDE90C70002609F10105834648E001204B4600904FF000470AAA59
:2025200001A90CA8FFF7D4FEDDE90DB00C995D46002618B909F1010001EB0005B9EB05001E
:2025400003D4C0F1FF3609F10105A5EB09002BE0B9F1010F01DA4FF001090020B9F1110F52
:202560000090484601DD112300E003460AAA01A90CA8FFF7ADFEDDE90C704D46002683468B
:20258000207800070AD4AB4500DA5D4601A8012D04DD411911F8011C302907D04F4502DA79
:2025A00017F1040F04DA0120824610E06D1EEEE7002F02DCED1B3E4403E0781CA84200DD14
:2025C0000546A7EB060000F1010A4FF000472078000703D4AA4501DB4FF0FF3A0021B7F114
:2025E000004F0DF143088DF8431023D002202B23002F01DA7F422D234FF00A0C011EA0F1E8
:20260000010000DC4FB197FBFCF10CFB11720F4602F1300208F8012DF0E7A8F10100037048
:202620002188090501D5452100E06521A0F1010800F8011C09980FA9A1EB080707F1070798
:2026400000B1012000EB050101EBEA70A1693844A1EB0000A0F10100A0612078C00602D498
:202660002046FDF7F7FE099830B1D4E901219047206A00F1010020622078C00620D520461C
:20268000FDF7E8FE1CE0002E04DBB34502DD01A8805D00E03020D4E901219047206A761CF8
:2026A000401CBAF1010A20620AD1FFF745FDC0680168405CD4E901219047206A401C206228
:2026C000281EA5F10105DEDC07E0D4E9012118F8010B9047206A401C2062381EA7F1010747
:2026E000F3DC2046FDF7CDFE022011B040E610B5436913B1AFF3008001E0FEF793FD0120FF
:2027000010BD128800F1240182840022C2840122EDE711684FF0FF32E9E700002DE9F34FC6
:202720004FF0000A0C4656468DB001200C9001F10C000B9062690B980121904705002DD066
:20274000252D2CD0216A8847C0B162690B9801219047216A88470028F7D16269411E0B98E2
:20276000904700E0761CA1690D988847216A88470028F7D1E1690D988847DBE7A1690D9819
:202780008847A842074601D1761CD3E7E1690D9888477F1C02D1BAF1000F6FD06AE16269DA
:2027A0000B9800273D46394690472A2804D162690B98012190470125DFF8CC8262690B982F
:2027C00001219047A0F130010A290AD24745E5DC07EB870100EB4107303FDFD445F01005C9
:2027E000ECE7E90601D46FF000476C280AD04C2814D0682815D06A280DD074281CD07A28C8
:202800001AD01DE062690B98012190476C2802D045F0040514E045F002050DE045F020054F
:202820000AE062690B9801219047682802D045F0080505E045F4006562690B9801219047B9
:20284000C4E9015765283DD019DC582879D00CDC452837D004DC252826D041289ED131E0B3
:2028600046282FD0472899D12CE05B287FD0612828D063287BD0642890D159E0F5E06F284B
:2028800047D008DC66281DD067281BD0692821D06E2816D127E0702844D0732867D0752827
:2028A00046D078280DD14CE0A1690D988847252805463FF469AFE1690D9888476D1C3FF47D
:2028C0006AAFD7E00D9923466A466FF00100AFF30080C4E045F0400023464FF00002606064
:2028E000A80735D43DE0206800F1040121600068290501D506701DE7290701D5068019E792
:20290000A90704D54FEAE671C0E9006112E7066010E745F0400023464FF008026060A807A8
:2029200016D41EE040F60E0125EA0100606016E045F0400023464FF00A026060A80707D431
:202940000FE045F040006060A80708D5234610220D996FF00100AFF3008080E007E010228B
:2029600023460D996FF00100FDF734FF77E04FF0000963284F46C8464B46CB4602D05B28FD
:2029800006D038E0E80601D40120A060012732E06269D4F80CB00B98012190475E2807D1DE
:2029A0004FF0010949466269D4F80CB00B989047216939B900210B4603AA42F82130491CE7
:2029C0000829FADBD8B3216949B308F1010862690B98012190475D28F4D1B9F1000F09D09B
:2029E000002003A951F82020D24341F82020401C0828F7DB03AB2069002820794FEA4070B5
:202A00001ED05B462246CDF80080CDE901970D9900286FF0010020DAAFF300801FE0C1170B
:202A200000EBD16203A9531122F01F0201EB8301821A0B680120904003430B60C7E719E06D
:202A40000D99224600286FF00100009702DAAFF3008004E0AFF3008001E0AFF3008000281A
:202A60000ADA401C06D10C9820B14FF0FF300FB0BDE8F08F5046FAE7E90701D10AF1010A3A
:202A8000064400200C9055E6CCCCCC0C70B516460C460546FEF7C2FA036893F80101012895
:202AA00006D0FF2C0FD8185D68B101202C7070BDD3F807013246214603442846BDE87040FA
:202AC00003F2071318474FF0FF3070BD2DE9F047984614460F468246DDF8209094B1012C54
:202AE0000BD04A465046650805FB08763146904700280CD00DDA2C46F0E74A4639465046C3
:202B0000904710B10020BDE8F0873846FBE73046F9E7641B641E06EB0807DFE7002801D06B
:202B2000FEF772BA7047000010B5002102A000F00BF9012010BD0000534947414252543A0D
:202B40002041626E6F726D616C207465726D696E6174696F6E0000007546FEF75BFAAE4666
:202B600005006946534620F00700854618B020B5FDF72AFCBDE820404FF000064FF00007DF
:202B80004FF000084FF0000B21F00701AC46ACE8C009ACE8C009ACE8C009ACE8C0098D4652
:202BA0007047034640688C46002818BF88423CBF03464068F8D318681844884207D00CF1A1
:202BC000030020F00700001D411A521A0146081D0A60FFF707BB00002DE9F0411F46044673
:202BE00003260168072A01F4006004DB08B116A505E016A503E008B115A500E015A521F0C9
:202C000010002060A069C01EA0610FB1401EA0612046FDF71FFC4FB1D4E901213846904774
:202C2000206A401C2062C01C206206E0206AFAE7D4E9012115F8010B9047761EF8D22046EA
:202C4000FDF71FFCBDE8F0814E414E006E616E00494E4600696E66002DE9F04781461646AB
:202C60008AB035487844D0E9002380680092CDE90130314878440C38D0E90223006903924F
:202C80004FF03702CDE9043041F69B30014491FBF2F0A0F1800502FB10141B3C02D5644212
:202CA000012000E00020DFF890A080460027FA44AAF1C60A0DE0E00709D03246684607EB91
:202CC00047010AEB810100F018FB8DE8070064107F1C002CEFD1184F7F44B43F17E0E807B8
:202CE00013D007EB04100DF1180A90E80E00AAE80E00C068F04201D198190890324606A909
:202D000003A800F0FAFA03AB07C36D10641C002DE5D132466946B8F1000F03A802D000F080
:202D2000D8FA01E000F0E9FAC9E90001C9F808200AB0BDE8F08700008C8200000446AFF3A1
:202D400000802046FDF7C1FA70B505460C460A2000E06D1C00F018F835B128780028F8D112
:202D600002E0641C00F010F814B120780028F8D1BDE870400A2000F007B810B500F00CF8C4
:202D8000BDE81040FFF7CABE08B569468DF800000320ABBE08BD000010B5012805D000219A
:202DA00003A0FFF7D1FF012010BD09A1F8E7000053494752544D454D3A204F7574206F6644
:202DC0002068656170206D656D6F7279000000003A2048656170206D656D6F727920636FF9
:202DE0007272757074656400FEF720F8FDF78EFA5FEA400C08BF91F0000F4FEA8C234FEA37
:202E0000C12243EA51514FEA1C5018BF00F5F0404FEA300018BF41F000415FEA6C5C00F0AC
:202E20002980BCF1FF3F08BF40F080407047130C06BF12044FF0100C4FF0000C130E04BF0C
:202E400012020CF1080C130F04BF12010CF1040C930F04BF92000CF1020CD30F04BF52004F
:202E60000CF1010C11464FF00002A0F11F00A0EB0C00704711F0004F08BF704731F0004182
:202E80003FF4D5AF0B0C06BF09044FF0100C4FF0000C0B0E04BF09020CF1080C0B0F04BF17
:202EA00009010CF1040C8B0F04BF89000CF1020CCB0F04BF49000CF1010CCCF12003A0EBAF
:202EC0000C0022FA03F302FA0CF241EA030100F10100704720F07F4C80EA030023F07F47E1
:202EE000ACEB070303F57C5300F0004003F1FF032DE980494FEA154B09B44FEA144325EA70
:202F00000B4E24EA03480FF2042606EB132749083E785FEA320203FB0667C7F5000707FBF5
:202F200006F64FEA54374FEAD64606F1020607FB066CCCF1005C4FEA1C472CEA074C07FBE9
:202F400006F40CFB06F504EB15464FEA961634BF00204FF000404FEAD13706FB07FC4FEA36
:202F60001C4C0CFB0BF7D21B03FB0CF761EB07010CFB0EF7B0EB074072EB17420CFB08F7F4
:202F800034BFA2EB0742B2EB074261EB17414FEA0C444FEA910706FB07FC4FEA1C4C0CFBD8
:202FA0000BF7B0EBC74072EB573203FB0CF734BFA2EBC742B2EBC74261EB57310CFB0EF777
:202FC000B0EBC70072EB57720CFB08F734BFA2EBC702B2EBC70261EB5771039F4FEA8161E3
:202FE00041EA921104EBCC044FEAD1374FEA826206FB07FC42EA90124FEA80604FEA1C4C5A
:203000000CFB0BF7D21B03FB0CF761EB07010CFB0EF7B0EB074072EB17420CFB08F734BFC8
:20302000A2EB0742B2EB074261EB17414FEA8C554FEA910704EB9C2406FB07FC4FEA1C4CF1
:203040000CFB0BF7B0EBC74072EB573203FB0CF734BFA2EBC742B2EBC74261EB57310CFBD4
:203060000EF7B0EBC70072EB57720CFB08F734BFA2EBC702B2EBC70261EB577115EB4C2589
:203080004FEA816141EA92114FEA82624FEAD13742EA901206FB07FC44F100044FEA8060C5
:2030A0004FEA1C4C0CFB0BF7D21B03FB0CF761EB07010CFB0EF7B0EB074072EB17420CFB79
:2030C00008F734BFA2EB0742B2EB074261EB174115EB1C154FEA813141EA92414FEA823297
:2030E00042EA90424FEA80304FEA0C7644F1000448EA03434EEA0B484FF0000EB2EB080CF4
:2031000071EB030724BF624639464EEB0E0E4FF0000B0018524149414BEB0B0BB2EB080C6E
:2031200071EB03077BF1000B24BF624639464EEB0E0E4FF0000B0018524149414BEB0B0B88
:20314000B2EB080C71EB03077BF1000B24BF624639464EEB0E0E51EA020718BF46F001062A
:2031600016EB0E7655F1000254F1000103D5BDE88901BDE80088BDE88901BDE80048B6191D
:20318000524141EB0101A3F10103704780807F7E7D7C7B7A797877767675747372717170C0
:2031A0006F6E6E6D6C6C6B6A6A696868676666656464636362616160605F5F5E5E5D5D5C6D
:2031C0005C5B5B5A5A59595858575756565555555454535352525251515050504F4F4F4E5D
:2031E0004E4D4D4D4C4C4C4B4B4B4A4A4A49494948484847474747464646454545444444BB
:20320000444343434342424242414141002B26D4770021D01CB54FEA370703B44FF01000B8
:203220004FF010014FF000000FBCBDE810400BF1010BBBF1010F08BF5FEA170722BF12F169
:20324000010211F101014FF0004143F1000300F0004043EA00007047F9D35708DAE746EA80
:20326000064613F1400F4FEA16461FDD13F1200FDFBF16430A46002120335B42C8D0C3F147
:20328000200746EA064602FA07F74FEA164646EA0706C3F1200722FA03F201FA07F721FABF
:2032A00003F14FF0000342EA0702B1E746EA020646EA06464FEA164646EA0106BCBF46EAE0
:2032C0000646360C4FF000034FF000024FF000019EE72DE9C048934630B491E8380007C8BD
:2032E00031EA400C48BF34EA430C03D5FFF7F2FDFFF78CFFF0BCBDE800882DE9C0489346E5
:2033000030B491E8380007C810F0804F08BF13F0804F03D100F005F8FFF778FFF0BCBDE862
:20332000008820F07F4780EA030023F07F4C07EB0C03A3F57C5300F00040A3F1FE0392F035
:20334000000F00F0B38095F0000F00F077802DE901494FEA11404FEA144621EA004800FBF5
:2033600006FC24EA064708FB06F607FB08F800FB07F718EB06484CEB164C4FEA124B18EB73
:2033800007484FEA15464CEB174022EA0B4E0BFB06FC25EA06470EFB06F607FB0EFE0BFBDA
:2033A00007F71EEB064E4CEB164C4FF000061EEB074E4CEB174B18EB0B0840F1000018EB93
:2033C0000E0B58EB000840F100008F1A4FF000013CBFC943661B14BFB5EB040C00213CBF48
:2033E000C943F61B4FEA17444EEA8E0E27EA04454FEA1C4704FB07622CEA074C05FB07F783
:203400000CFB05F604FB0CFC16EB074642EB174216EB0C4642EB1C421BEB060658EB020298
:20342000414146EA9E0601D5BDE80189B619524141EB0101A3F10103BDE801894FEA144548
:203440004FEA114724EA054621EA074C05FB07F406FB07F70CFB06F105FB0CFC11EB0741E0
:2034600044EB17444FEA124711EB0C4144EB1C4422EA074C05FB07F206FB07F70CFB06F6FE
:2034800005FB0CFC16EB074642EB174216EB0C4642EB1C456A1854F1000148BF7047B6191A
:2034A000524141EB0101A3F10103704795F0000F37D04FEA11424FEA144721EA024624EAE0
:2034C000074C02FB07F106FB07F70CFB06F402FB0CFC14EB074441EB17414FEA154714EB3D
:2034E0000C4441EB1C4125EA074C02FB07F506FB07F70CFB06F602FB0CFC16EB074645EB13
:20350000174516EB0C4645EB1C42121951F1000148BF7047B619524141EB0101A3F101031A
:2035200070474FEA14454FEA114724EA054621EA074C05FB07F106FB07F70CFB06F24FF0C5
:20354000000605FB0CFC12EB074241EB174112EB0C4251EB1C4148BF7047921841EB010119
:20356000A3F1010370470029816802D041F0010101E021F001018160704710B501210C0264
:20358000204600F053FB2046BDE81040002100F04DBBC06C80B270470246002012680A42D0
:2035A00000D001207047000030B542680F4B0C791A400B6842EA04221343436082680C4B9C
:2035C0004D791A40D1E9034323438C6844EA4504234313438360C26A097D22F47002491EBA
:2035E000C9B242EA0151C16230BD0000FFFEFFFCFDF7FFC070B5072609290AD9C568A1F1F1
:203600000A0404EB4404A640B543A3401D43C56007E0056901EB4104A640B543A3401D4378
:2036200005611F23072A09D2446B521E02EB820293409C4391400C43446370BD0D2A09D28E
:20364000046BD21F02EB820293409C4391400C43046370BDC46A0D3A02EB820293409C439B
:2036600091400C43C46270BD816841F0804181607047FEE70029016802D041F0010101E007
:2036800021F00101016070472DE9F043016821F0010101600021016041608160C160016152
:2036A000212141613C493C4A3D251039904202D18D60BDE8F083384A4FF47466183290420B
:2036C00001D18E60F5E7344A4FF474173032904201D18F60EDE7304A4FF0746C4832904254
:2036E00002D1C1F808C0E4E72B4B2C4A6033984201D1CA60DDE7284C294B7834A04201D14A
:20370000CB60D6E7DFF89080264C08F19008404501D1CC60CDE7DFF880804FF03D5908F1FB
:20372000A808404502D1C1F80C90C2E71E49DFF878800839404501D10D60BAE71A4D1835F3
:20374000A84201D10E60B4E7174D3035A84201D10F60AEE7144D4835A84202D1C1F800C007
:20376000A7E7114D10496035091FA84201D10A609FE70D4A7832904201D10B6099E70A4AB7
:203780009032904201D10C6093E7074AA83290428FD1C1F800908CE7106002403D000020B5
:2037A000400F002000003D20106402400B0607D5436912B143F0800301E023F0800343615A
:2037C000802908D0002A026801F01E0101D00A4300E08A430260704730B50368124ACC6800
:2037E00013400A682243D1E905452C432243CC6922430C6A22434C6A22438C6A22434C6B25
:2038000022438C6B22431A430260426922F00703D1E90B2422431A4342610A6942604A684C
:2038200082608968C16030BD3F801CF07047000030B50446002500F047F92CB1012C1CD0AB
:20384000022C1DD04FF44075082815D10E4C206820F440702060206828432060206840F0EE
:2038600004002060206840F48030206000F02CF9216821F00401216030BD4FF48075E3E7B4
:203880004FF40075E0E70000103C024070B50646002529B1012927D0022928D04FF440756F
:2038A00000F012F908281ED1124C206820F440702060206828432060206820F0F800206041
:2038C000206846F0020108432060206840F48030206000F0F9F8216821F0020121602168E8
:2038E00021F0F801216070BD4FF48075D8E74FF40075D5E7103C02400B4908200A68D20354
:2039000001D5012070470A68D20601D5052070470A6812F0EF0F01D00620704709688907DC
:20392000FBD50720704700000C3C02400248016841F0004101607047103C024003480178C0
:2039400041F00201017000F0BFB80000143C024010B5044600F0B8F8082801D1014804705B
:2039600010BD0000153C024070B515460C46064600F0AAF8082807D10449087800F00F0063
:2039800004432C4334430C7070BD0000143C024030B50D46044600F097F8082806D104486B
:2039A00001880DB1A14300E02143018030BD0000163C024070B50D46064600F085F8082835
:2039C00011D1094C206820F44070206020682060206840F001002060357000F075F8216818
:2039E00021F00101216070BD103C0240F0B515461E46074600F068F8082814D10A4C206884
:203A000020F440702060206840F440702060206840F0010020603D607E6000F055F82168FC
:203A200021F001012160F0BD103C024070B50D46064600F049F8082813D10A4C206820F4BC
:203A400040702060206840F480702060206840F001002060358000F037F8216821F0010161
:203A6000216070BD103C024070B50D46064600F02BF8082813D10A4C206820F440702060FD
:203A8000206840F400702060206840F001002060356000F019F8216821F00101216070BD61
:203AA000103C024005480068002805DA034804490C3801600349016070470000103C02408D
:203AC00023016745AB89EFCD08B508208DF80000FFF712FF8DF800009DF800000128F7D0AB
:203AE0009DF8000008BDF0B5002201274FF0030C0B6807FA02F52B40AB422CD106685300AE
:203B00000CFA03F4A64306600E79D0F800E09E4046EA0E0606600E79012E01D0022E12D108
:203B20008668A64386604E79D0F808E09E4046EA0E0686604668AE43466045688E7996407A
:203B4000B6B235434560C568A543C560CC799C40C3681C43C460521C102AC9D3F0BD4B0794
:203B6000DB0E9A40C90810B500EB8100016A0F249C40A1430162016A1143016210BD024688
:203B8000002012690A4200D0012070474FF6FF7101600021017141718171C1717047FEE77B
:203BA000FEE77047014908627047000000000E4270470000044A0029116801D0014300E012
:203BC000814311607047000030380240044A0029116801D0014300E081431160704700007E
:203BE00034380240044A0029116801D0014300E0814311607047000040380240044A002915
:203C0000116801D0014300E0814311607047000020380240044A0029116801D0014300E0CB
:203C2000814311607047000044380240044A0029116801D0014300E0814311607047000009
:203C40002438024070B5204B1968204C11F00C0104D01F4E042903D0082903D004601BE097
:203C6000066019E0184A121F1168C1F38055116801F03F0115B1B6FBF1F101E0B4FBF1F1DB
:203C800014681268C4F388146143C2F30142521C5200B1FBF2F1016019680F2202EA1111CF
:203CA0000C4A545C0168E14041601C68072505EA9424145D21FA04F484601B6805EA53331C
:203CC000D25CD140C16070BD083802400024F40040787D0140020020704770470E4810B59C
:203CE000016841F0010101600B4A00210832116002680A4B1A400260031D094A1A600268D4
:203D000022F48022026004480C30016000F01EFF05490448086010BD00380240FFFFF6FE58
:203D2000103000240000060808ED00E00029018802D041F0010101E021F001010180704759
:203D4000002930F8441F02D041F4004101E0C1F30E0101807047000030B5028C22F0010203
:203D60000284028C8388048B22F0020224F073050C882C438D8915434A882A430C4DA84200
:203D800002D00C4DA8420DD122F00805CA8923F440732A4322F004058A882A430D8A1D43F6
:203DA0004B8A2B438380048389684163028430BD00000140000401404163704730B50288DE
:203DC000164C174DA0420DD0A8420BD0B0F1804F08D0144B984205D0134B984202D0134BDB
:203DE000984203D122F070034A881A43104B984206D0104B984203D022F440730A891A4395
:203E000002804A68C2620A880285A04201D0A84201D1897A01860121818230BD00000140E5
:203E2000000401400004004000080040000C00400010004000140040004870477000002032
:203E400010B504F0C7FB06F0C3F9002005F03CFD0B480121418342F2107005F07BF9002071
:203E600005F0FEFA002203231146104605F0FCF903230022BDE810401146104605F0A6B938
:203E80000004024010B504F0A5FB002203231146104605F0C9FA002203230121104605F021
:203EA0004BFA642005F056F9064800680022C0F3802080F0010403231146104605F03CFA57
:203EC000204610BD10040240004870473C0000200048704738000020004870474C0000203C
:203EE00001F0B4BD10B504F075FB0121322005F061FC002203230121104605F073FA6420CB
:203F000005F028F9064800680022C0F3003080F0010403231146104605F064FA204610BD02
:203F200010080240004870479C000020004870479400002010B504F0F1FB0121322004F0AC
:203F400003FC1048016821F0030101600D480C30016821F0030101600A48001D016821F0D2
:203F600001010160001D016841F00301016005F01DFD03230022BDE810401146104605F0D4
:203F8000EBBD00000004024010B5FFF7D3FF002203230121104605F037F9642005F0DAF876
:203FA000064800690022C0F3800080F0010403231146104605F028F9204610BD0000024022
:203FC00000487047840000200048704788000020004870478C000020002070470048704716
:203FE000900000207047000010B5084CA06805F0C8F8616801EB4102C2EBC111B0EBC10FA2
:2040000001D2012010BD002010BD0000F4000020004870470001002010B5044605F068F85A
:2040200001460248C0E9014110BD0000F4000020004870475800002000487047600000202D
:2040400010B50121322005F0B5FB002203231146104605F05FFD03230022BDE810401146A8
:20406000104605F095B8000010B50121322005F0A1FB04F0AFFA002203231146104605F057
:2040800087F8002203230121104605F043FD642005F060F8064800680022C0F3401080F090
:2040A000010403231146104605F034FD204610BD1008024000487047E00000200048704777
:2040C000DC00002000487047E800002000487047E400002000487047F000002000487047CC
:2040E000EC000020704700207047000000487047B000002000487047B400002070470020AD
:204100007047000000487047D800002000487047D400002000487047AC0000200048704734
:20412000C400002000487047C000002000487047BC00002000487047C800002000487047FB
:20414000CC00002000487047D0000020124908B5088810F00A0F01F1040003D001880088E9
:20416000009008BD09888906FBD500880B49C0B2CA6C002AF5D00A6C402AF2DA4A6C885449
:20418000486C401C4864402801DB00204864086C401C086408BD00000044004084520020D8
:2041A000124908B5088810F00A0F01F1040003D001880088009008BD09888906FBD5008897
:2041C0000B49C0B249680429F5D10A490A6C402AF1DA4A6C8854486C401C4864402801DBE5
:2041E00000204864086C401C086408BD0014014028010020384700200029818902D041F47B
:20420000005101E021F4005181817047002A828A01D00A4300E08A438282704710B5C1F318
:20422000421301F01F040121A140012B07D0022B07D01430002A026805D00A4304E00C30F1
:20424000F8E71030F6E78A43026010BD7FB50446008A0D46C98820F4405001432182A08906
:2042600041F20C618843A9882A8911436A8902431143A181A08A20F44071A8890843A08260
:204280006846FFF7DFFC1D48844202D01C48844201D1039800E00298A1890904002900EB46
:2042A000C00101EB0010296802DA4FEA410101E04FEA8101B0FBF1F06422B0FBF2F14FEAE4
:2042C00001114FEA11136FF018056B4300EB8300A3891D044FF0320306D503EBC000B0FBE2
:2042E000F2F000F0070005E003EB0010B0FBF2F000F00F00084320817FBD000000100140FD
:20430000001401400029818902D041F4004101E0C1F30E0181817047FEE700000149012020
:20432000087070470200002010B501214020FFF74DFC0348016841F00401016010BD00008E
:204340000008065010B50024012000F03DFB00221146FCF7E7FA044603E0FCF705FDFCF76B
:2043600065FD24B12046BDE81040FFF755BE4FF47A70F8E710B5012000F026FB0446FCF762
:2043800068FB0F280CD30AA000F096FE0420FCF7BBFC40F28D31016000220B49FCF78CFD65
:2043A00021460A48FCF71CFBBDE8104001F0AAB94C6F7420636F646520697320746F6F2079
:2043C0006C6F6E670A00000070AF0608500200202DE9FC410026322405F006FF0022032373
:2043E0000221104604F040FF002203231146012004F0ECFE284804210183012000F05EFCEF
:2044000026A000F059FE009604F072FE0546294F0FE00021684600F0F5FD002000F04EFCD8
:2044200004F066FE401BB84203D923A000F044FE02E00098A042ECD328A000F03DFE019659
:2044400004F056FE0546294E0FE001A9002000F0D9FD002000F032FC04F04AFE401BB0420C
:2044600003D923A000F028FE02E00198A042ECD328A000F021FE05F0ABFE00220323114657
:20448000104604F0F1FE002203231146104604F09DFEBDE8FC810000000002405761697466
:2044A000696E6720666F7220627574746F6E2E2E2E0A0000404B4C004552524F525F4241C4
:2044C000434B5041434B5F42544E5F50524553535F54494D454F55540A00000062746E200C
:2044E000707265737365640A00000000E06735004552524F525F4241434B5041434B5F4286
:20450000544E5F52454C454153455F54494D454F55540A0062746E2072656C656173656460
:204520000A00000010B506A000F0C6FD40F2EE2004F01CFEBDE8104007A000F0BDBD0000FF
:204540004465627567207465737420737461676520322E2E2E0000006F6B0A0070B50CA0CF
:2045600000F0AAFD0FA000F0A7FD0024012505FA04F113A000F0A0FD642004F0F7FD641CF7
:20458000082CF4DBBDE8704015A000F095BD000044656275672074657374207374616765D1
:2045A00020330A003E636F6D6D616E6420746F2063756265206F7220626F64790A000000E6
:2045C00020616472202530357820736F6D652070616765206F7065726174696F6E3F0A0097
:2045E0003C726573706F6E736520300A0000000070B58CB000252826244800F05DFD42F2F8
:2046000016034FF4FA7222A10120009503F0ACF803F070FE002829D004F06AFDFCF7BAF93F
:2046200021A000F049FDFBF757FE00F00704E41C234628A2314601A803F06FFD0146641DC7
:204640004FF47A7004FB00F242F217030120009503F08AF803F04EFE002805D003F04AFE4C
:20466000014622A000F028FD0CB070BD03F042FE014625A000F020FD0420FCF745FB40F25E
:204680009311016000222D49FCF716FC80AD06086E6F745F7265616C5F636F6D6D616E64AB
:2046A000203132333400000044454255473A20746573742068656C706572277320736865F5
:2046C0006C6C2074696D656F757420666561747572650A007368656C6C5F74696D656F75BB
:2046E000745F746573742025750000007368656C6C2072657475726E6564206572726F7282
:204700002025690A00000000756E6B6E6F776E20636F6D6D616E6473204D555354204E4F39
:20472000542072657475726E2073756363657373212028653D2569290A00000070AF060853
:204740002DE9F04180461E48069D1C46007816460F4610B91BA000F0AFFC404600F0ACFC7B
:204760000C2100F07BFA384600F0A6FC102100F075FA002E04DD314613A000F09DFC05E060
:2047800001D113A000E013A000F096FC0A2100F065FA0CB1204600E010A000F08DFC0F21A9
:2047A00000F05CFA1DB1284600F086FC00E00020002100F053FABDE8F04109A000F0C0BABE
:2047C000200000202020000030782530365800003000000053495A45000000006E61000094
:2047E0000A00000010B586B0002810D081780DF1040C44790379C278ACE81E004178009136
:20480000037804A212210B4803F087FC094806B010BD0000253032782D253032782D2530FA
:2048200032782D253032782D253032782D25303278000000D452002070B50546007800F02C
:20484000BFFD80F0010400E0641C284603F03EFC0500F9D1204670BD70B50D46064600F016
:20486000E1FD041E0ADD4EB1A54201DA294600E001460A4602493046FCF755F9204670BD15
:20488000044002400F4810B52021418344F6206004F060FC002203231146104604F06EFD13
:2048A000002203231146104604F014FD002203231146104605F072F9BDE81040C82004F0D8
:2048C00049BC00000008024008B502460421012003F052FD6A460C21012003F04DFC6A4612
:2048E0000C21002003F048FC009808BD17B5084381B0812141EA4000009000F01E0000F0F4
:20490000C5F9C00703D0009840F0200000906946082001F0C1FE02F073FC0446012804D098
:2049200002F0F4FB204604B010BD03A9202001F0B3FE00200090039800F0A8F9C00701D0AD
:20494000012000906946012001F0A6FE0120EAE710B50024012000F037F800221146FBF7BB
:20496000E1FF044603E0FCF7FFF9FCF75FFA24B1022003F0C1FE05A004E00121322003F05A
:20498000E3FE07A0BDE8104000F096BB4455545F50524F4720656E61626C65640A000000E0
:2049A0004455545F50524F472064697361626C65640A0000034902480968016070470000F2
:2049C000400100200040000802460D4810B50078824209D30420FCF797F940F285310160C4
:2049E00000220849FCF768FA0021074804E003780BB9491CC9B2401C9142F8D110BD0000B7
:204A00004401002070AF0608845100202DE9F041012196B003253F4E00243F4FDFF8FC80A6
:204A20000846FFF7C7F80121C804FFF7DBF801214805FFF7BFF802208DF850008DF8524092
:204A40008DF8510013958DF8534013A93046FFF74AF8082200213046FFF781F808220121DA
:204A60003046FFF77CF800213846FFF7C5FB2C480F90ADF844400C20ADF84040ADF8460089
:204A8000ADF84240ADF8484001213846FFF73AFC0FA93846FFF7DAFB01213846FFF7ACFBB8
:204AA00046464046FEF7F0FD4FF000600090381D01901C48CDE902048020CDE90404C000AF
:204AC000CDE906048010CDE908400AA9280431C10D94694630460E94FEF77EFE012240215A
:204AE0003846FFF793FB002210213046FEF75EFE01213046FEF7BEFD0B48017819B1407804
:204B000008B1012000E000200849487016B0BDE8F081000000000240004C00404060024026
:204B200040420F0004510020040000204401002010B50120FFF748FFBDE81040014A02A1E0
:204B4000FBF72ABE1C000020256900000CB50022204900920192086840F480300860086814
:204B600000F400300190009800F10100009001980028F4D00868800329D5012001901548E1
:204B8000083002680260026842F400420260026842F4A0520260031F0F4A1A600A6842F040
:204BA00080720A600A689201FCD50C4940F203720A60016821F003010160016841F00201E1
:204BC00001600168C1F381010229FAD10CBD0192FEE7000000380240193C4005003C02400C
:204BE00070B5FEF75FFF00210820FEF74FFE074D074E0024A019295DFEF7DCFE641C042C27
:204C0000F8D3BDE87040FEF791BE0000400100200040000810B5002005F0FCFB0146024627
:204C2000BDE8104001A000F047BA000049203D2025692C2025580A0010B5002005F0EDFB04
:204C400001460246BDE8104001A000F035BA000056203D2025692C2025580A0070B50446AD
:204C600008480D46007848B1BDE87040064800F067B80548001D00F063F8641CAC42F8DB78
:204C800070BD00002000002068A806080849094A01EA5001411A02EA9000081A064900EB76
:204CA000D00008403F21B0FBF1F201FB12007047DBB66DDB49922449C7711CC710B5124CCA
:204CC00028B105F0F1FC00202060606010BD206830B104F00DFA2168401A0C4988420AD9A3
:204CE00004F006FA20606068401C062190FBF1F201FB120060600648616850F82100BDE894
:204D00001040962105F0F1BC6800002090D0030060AD060838B50C4602460421012003F024
:204D20002BFB054622460C21012003F025FB40EA05046A460C21002003F01EFA204338BDA6
:204D400010B50146074C0020221F06E0238001F1010113881B06FCD5401C0B78002BF5D1B9
:204D600010BD0000044C004010B505F0CFFA0246074808490068884202D10748C36900E00B
:204D8000064B07480168BDE8104006A000F094B9F4A908081E0DB0CA00000608DEC0AD0B7C
:204DA000FC3F000873657269616C2C25692C25732C25690A000000002DE9F041374C38A14B
:204DC0002046FBF731FE384D002678B137A12046FBF72AFE05F1100758B136A12046FBF7DB
:204DE00023FE30B10120287020461CE06E70BDE8F08131A0FFF7A4FF002404EB440057F892
:204E0000201033A000F058F9641C132CF5D3BDE8F04130A0FFF794BF202903D106702978A4
:204E2000491C2970401C01780029F5D100263546B84605EB450108EB810721463868FBF767
:204E4000F3FDD0B97868C0B1387A012610B12248007818B178680025804709E0BDE8F041B8
:204E60001EA000F029B9FBF77FFF0568FBF7DEFF29461FA000F020F902E06D1C132DD8D369
:204E8000002EB4D107A12046FBF7F4FE0028AED02146BDE8F04119A000F00EB98451002025
:204EA00065786974000000004401002068656C70000000003F000000417661696C61626CCF
:204EC0006520636F6D6D616E64733A0A00000000202025730A000000010000204E6F206473
:204EE00065766963652070726573656E740A00007374617475732C25690A0000556E6B6E77
:204F00006F776E20636F6D6D616E643A2025730A000000003EB504460A25002003F0DAFEEB
:204F20004FF47A70B4FBF0F100FB114307A22946684603F0F2F8034601217222084600F085
:204F40000BF9044804F006F93EBD00002530336900000000400D030010B540F6B834214684
:204F60000BA000F0A9F82046FFF756F80F49087890F00100087009D00420FBF7C5FE40F296
:204F8000B731016000220A49FBF796FF10BD0000646973706C617920726573756C742066C4
:204FA0006F72207E25756D730A000000F400002070AF0608A0B141790322B2EB911F0FD150
:204FC00001684A1C01D031B108E080880549B1EB804F05D002E08088800401D001207047BA
:204FE000002070470000FCFF04490548091A132901DB006970474FF0FF30704718E70708B7
:20500000F4CA070830B50E4A12694FF6FF75C2F3C00330B153B104682A46944200DA621CEB
:20502000026000290AD01BB1002206E00022F7E708682A46904200DA421C0A6030BD0000F6
:20504000000002402DE9F041054614460E46506904F0D0FD012718B1E7602562BDE8F0817F
:20506000206A0028FAD0E069A842F7D13046A16904F0C0FD0028F1D0606A18B10020276164
:205080006062EBE7206A6062E8E7000001490120087070472C00002010B50120FFF794FC0F
:2050A000002404E0FBF760FE0124FBF7BFFE2046BDE8104004F0A6BE0FB4802110B5A0B098
:2050C00023AB6846229AFBF795F904466846FFF737FE20B0204610BC5DF814FB10B508A022
:2050E000FFF72EFE42F2107004F034F8054901204870BDE810400221024802F0D9BC0000AA
:205100000A00000004000020F8B50F4DE86858B100240E4E03E0305D01F028FB641CE8682B
:205120008442F8DB0020E86000F0D0FB00280ADB074909880649091D09880091BDE8F84051
:20514000C0B201F013BBF8BD4401002004520020004C00407047000030B50D46322191B07F
:20516000722A06D0672A04D0622A02D0772A00D077221C460DB10BA300E00BA3CDE90032AC
:205180000346029409A203A802F0C7FF01460020009042F206034FF4FA72012002F0E4FA4E
:2051A00011B030BD69000000000000006C636473686F772025752025732563202573000032
:2051C00070B503F095FF0446074D03F091FF001BA84205D903F08CFF0446002003F016FE30
:2051E000FFF792FFF1E7000090D0030070B50025314C4FF47A7605F06FF8A06005F060F84A
:20520000E060FFF781FF03F073FF6570304605F035F840B12069401C2061B0F5967F03D31F
:205220000121256101E025610021A07801430ED0A570002003F060FD012003F05DFD0020F1
:20524000E16801F00FF90120607002F051FD0124E0B23222314603F0EDF9051E27D001DD88
:2052600016A200E017A2214619A0FFF725FF012C06D0022C08D0032C0CD0042C0ED016E08B
:20528000002D14DD012002E0002D10DD002003F0BDFD0CE0002D0ADD0220F8E7002D06DDF5
:2052A0000025E8B203F028FD6D1C032DF9DB641C052CCDDB70BD000000000020707265732A
:2052C0007365640072656C65617365640000000062746E2025752025730A000030B52B4835
:2052E0002B498DB0411A002428252AA2284801F025FDFA2003F03AFF4FF4614004F0FEFACC
:2053000042F20703642226A10220009402F02CFA2548017889B3002101A800F04BFB9DF87D
:20532000040040F003008DF80400022003F0E4F901A8FFF757FA03461CA2294603A802F0B8
:20534000ECFE014642F216034EF660220220009402F00AFA02F0CEFF04460121322003F0ED
:20536000F3F9002C10D00420FBF7CEFC40F2BE21016000221149FBF79FFD0121017003F053
:20538000B7FE69460090C7E70DB030BDB4A80708B42F070863756265206F74700000000052
:2053A0006765747665727300800000206F74702077726974652025730000000070AF0608CA
:2053C000202801D97E2801D90120704700207047124810B50068082801DA03F0E7F81048C0
:2053E00020214183016821F4406141F4806101600B480C30016821F4406101600848001D96
:20540000016821F020010160001D016841F440610160BDE810400A2004F09CB92400002027
:205420000008024010B501F07DFA0C480C49006888420FD10B4C2188B1F5806F0AD8074874
:205440000022001D04F076FEA11C0988884201D1208810BD4FF0FF3010BD00000040024089
:20546000EFBEADDE0444024038B50024651E69462020009401F010F96946202001F00CF974
:205480006946202001F008F96946202001F004F969462020009501F0FFF86946202001F002
:2054A000FBF86946202001F0F7F86946202001F0F3F84EF29E7000906946102001F0ECF8CD
:2054C00069462020009501F0E7F86946202001F0E3F86946202001F0DFF86946202001F026
:2054E000DBF869462020009401F0D6F86946202001F0D2F86946202001F0CEF86946202058
:2055000001F0CAF838BD000008B500F0DFF90028FBDB044909880349091D0988C0B200917C
:2055200008BD0000004C00402DE9F0470F468046002403F0DDFD8146124E134D00F0C6F98B
:20554000002809DD0D2809D00A2807D0E9687F2902DA7054491CE96014B106E0012404E02B
:20556000484603F00EFE4045E8D3E8680021315407B138601CB10348E960BDE8F08700207B
:20558000FBE70000045200204401002003490880081F01880906FCD570470000044C0040A3
:2055A0002DE9F05F3B494FF402623B48FBF7BBFA3A48394F416809B9B9680160B989C1F344
:2055C0000805B5F5A07F63DADFF8D49019F8051000295DD18046B9680068814258D1384647
:2055E00001F046FB002853D1E802B0F5003F01D32C4900E02C49461872B6FEF753FADFF822
:2056000098A000244FF4006B0AEB0400016A3046FEF72AFA241D361D5C45F5D3FEF786F91C
:2056200062B63120FFF7B2FFB889400428D572B6FEF738FA00211B48FEF7BCF919480021D9
:20564000401CFEF7B7F917480021801CFEF7B2F914480021C01CFEF7ADF9FEF767F962B62C
:2056600012494FF000600860BFF34F8F081D01680F4A01F4E06111430160BFF34F8FFEE7F1
:20568000012109F80510D8F80410491CC8F80410BDE8F09F60020020E4480020380100205A
:2056A000A4470020000006080000040808ED00E00400FA0510B50649002000F0CDFB772268
:2056C0000021BDE81040024B0846FFF745BD000054A8060800F01F020121914040094FF08B
:2056E000E02202EB8000C0F80011704700F01F020121914040094FF0E02202EB8000C0F808
:205700000011704730B5204C8FB03225E07868B9FFF7D0FFE07848B91CA1012000F09CFBDE
:20572000E07818B91FA1022000F096FB2348006820280ED1E078D0B9214822A229460078EE
:2057400000F03F0301A802F0E8FC0146072000F083FBE07858B9207800901FA320A2294638
:2057600001A802F0DAFC0146082000F075FB04F0CDFD0346002162220846FFF7EDFC0120EF
:20578000E0700FB030BD0000000000204445562D4E4F5420464F5220464143544F52592190
:2057A000000000004E6F7620323120323031372031343A30323A3038000000002400002042
:2057C000FC3F0008202020535349443A204166697820253032750000566963746F7200007E
:2057E000252D3135732076253033750001A0FFF763BC000044656275672E2053696D756CF6
:20580000617465207465737420666C6F7720666F722068656C7065722068656164206465F4
:2058200076656C6F706D656E740A00002DE9F041194E306860BB02F07BFC00F05BFF174910
:20584000174C40F28635C8B188462046FFF762FA074614482021018341462046FFF75AFA54
:2058600040EA07040E481049E438FFF753FA40EA040101290AD00DA0FFF71EFC0420FBF7DF
:2058800043FA002210490560FBF716FB012030600020BDE8F08100001C01002003005FA0C2
:2058A000F0ED00E0000802400400FA0565786974207265736574204641494C454420287262
:2058C0003D2575293E0A000070AF06080848406C084A9168C1F18003984202D14FF0FF30BC
:2058E00070470548405C491C01F07F01916070470060024044010020045100202DE9F047C1
:20590000074601F10F00924688464FEA1019002526E02E010AEB051113A0FFF7CDFB002437
:205920003019395C12A0FFF7C7FB641C102CF7D311A0FFF705FA00240BE0395CA1F120009D
:205940005E2800D32E210DA0FFF7B6FB641C102C02D230194045F0D309A0FFF7F1F96D1C18
:205960004D45D6D3BDE8F087253034783A20000025303278200000007C2000002563000032
:205980000A00000000F01F020121914040094FF0E02202EB8000C0F88011704700F01F02F1
:2059A0000121914040094FF0E02202EB8000C0F88011704770B5050013D011B10868FAF7CD
:2059C000E9FF0024FAF788FC2855641C062CF9DB687940F0C00068712846FFF7EBFA002828
:2059E000EFD070BDF0B5184A96145683136823F0407343F08073136073005383146824F07E
:205A0000406444F0806414605F005783146824F0405444F0805414609C005483D2F800C080
:205A2000012565F39F7CC2F800C0012802D0022801D107E01383012902D0022901D117834C
:205A40001483F0BD1683F5E70004024010B50121322003F0AFFE02F0BDFD642003F086FBCA
:205A6000BDE8104000F010BB2DE9F04717460E460446456C23E0144905F0070904F13000F3
:205A800051F829200021824602F05EF805F0030004EB8008216CD8F8200025F007020844ED
:205AA00031684140316054F829000244504602F04BF8216C3F1F6D1C361DC8F82010002FCF
:205AC000D9D16564BDE8F087E85200202DE9F04735A0FFF7F1FA3848384E384D00680C36A5
:205AE00008B303F005FB074635492846FFF712F9044634492846FFF70DF940EA04054FF417
:205B000001713046FFF706F940EA05044FF41171B0463046FFF7FEF840EA040540F2863637
:205B2000012D38D109E00420FBF7EEF84FF46571016000222449FBF7BFF9DFF880A0322449
:205B400042F210790AF1080A04E003F0D1FA484603F000FB5046FEF7B7FEC00703D0201E45
:205B6000A4F10104F1DC4FF400714046FFF7D2F840EA0508B8F1010F0DD103F0B9FAC01B75
:205B80004FF47A71B0FBF1F210A1434612A0FFF793FA012C04DA0420FBF7B6F80660C8E7F6
:205BA0000020BDE8F087000065726173696E67206D63750A000000001C01002004200240AE
:205BC00023016745AB89EFCD70AF0608636F6D706C65746564000000657261736520257353
:205BE00020696E2025756D732028723D2575290A000000002DE9FF4F81B00F46D41B0199DD
:205C000004F2FF302144491E0091C11700EB9150934682124FF0000A214645A0019BFFF7CA
:205C20004BFA5048006880B12FB1BBF1000F02D04D4EBB450FD80420FBF766F840F2953193
:205C4000016000224949FBF737F90420FBF75CF84FF46571F4E703F04BFA009044493046E4
:205C6000FFF758F8054643493046FFF753F840EA050600254FF4806926E003F039FA07EBAC
:205C800085214A463C48FAF74EFF4C4506DA3A48C4F580612044FF22FAF7BCFF0198364936
:205CA00000EB8520804601F00DF80643012824D032A34A46944200DC2246414631A0FFF765
:205CC000FBF96D1CA4F58064002CD6DC03F010FA0099401A4FF47A71B0FBF1F2012E0ED033
:205CE00034A1334635A0FFF7E7F9012E09D00420FBF70AF840F28631A2E738A3D9E738A1A5
:205D0000EFE70A2003F032FA049828B15A463946019800F0DBF982465FEA0A0005D004205F
:205D2000FAF7F2FFC0F800A08BE705B0BDE8F08F666C6173682077726974652C202575207F
:205D4000627974657320282575207061676573292040203078253038782D307825303878DA
:205D60000A0000001C0100200420024070AF060823016745AB89EFCDF8420020204641493F
:205D80004C4544002E7377645F73746D33325F666C6173685F706167652030782530387864
:205DA00020776974682025752062797465733A2025730A004641494C45440000666C6173BF
:205DC0006820777269746520257320696E2025756D732028723D2575290A00006F6B000029
:205DE000636F6D706C6574656400000002490022C868CA60704700004401002008B50DA099
:205E0000FFF75AF94FF4E1710022642004F05EFC0020009042F2160364220DA1022001F06C
:205E2000A3FC0022BDE8084042F21071104604F0CFB80000706F776572206F6E20616E64B1
:205E4000207761697420286465627567290A00006563686F206F6E0000B58FB00A460346C2
:205E60000092322107A201A802F057F901460020009042F206034FF4FA72012001F074FC44
:205E80000FB000BD6C63647365742025752025730000000010B512A0FFF70EF9164C206837
:205EA00008280ADA4FF4E1710222642004F017FC02F090FBFA2003F059F9206808280BD01B
:205EC0004FF4AF710222642004F00CFC0121BDE81040322003F06EBC40F2DC51F2E70000FD
:205EE00073686F727420636972637569742074657374730A000000002400002010B506A053
:205F0000FFF7DAF84FF4E1710022642004F0DEFBBDE8104002F002BC73686F7274206369F0
:205F200072637569742074657374730A000000002DE9F05F8A4680460121322003F03AFC45
:205F400002F048FB02F0EAFB0121322002F0FCFB0026354634464FF47A7BB1461E4F2FE012
:205F6000B8F1000F08D0200604F10104E4B203D5002002F0AFFE05E0002002F0BDFEB8F1E9
:205F8000000F07D0280605F10105EDB202D502F0C5FE01E002F036FF584604F06FF948B1CB
:205FA0000026FFF7B1F8B87850B187F8029087F8019008E0761C5645F3D387F80190F0E708
:205FC00078780028CCD1002002F096FE02F01AFFBDE8F05FFFF796BB000000202DE9F04FAB
:205FE00095B089460446202225490CA8FAF7E0FD2449206B656C4840206304F130000DF11A
:20600000200800260DF1300B149005F0070700215BF82720149801F097FD05F0030004EB7F
:20602000800A216CDAF8200001444DF8261054F8270000212844C21B149801F085FD216C0E
:20604000761C6D1CCAF820100C2EDED3D9F80000D8F80010D8F804204840D9F804105140A5
:206060000843D9F80810D8F8082051400843D9F80C10D8F80C2015B051400843BDE8F08F6A
:2060800008AE0608F1942D9110B5FEF7FBFB02490020086010BD00001C01002038B50C462D
:2060A00005466A460021012002F066F86A460C21002002F061F80099012021F0FF0242EA13
:2060C00005122243002102F057F938BD2DE9F74F84B089461446A2EB0908049A08F2FF30CE
:2060E00002EB0801491E0091C11700EB91508212414655A0049BFEF7DFFF6048006878B153
:20610000B9F1000F02D00CB14C450FD80420FAF7FBFD40F29531016000225949FAF7CCFEDA
:206120000420FAF7F1FD4FF46571F4E74FF0000B5F46CDF800B002F0DBFF002402905EE044
:2061400004F128000190404501DA282601E0A8EB04060498002500EB040A08E002F0C8FF0A
:206160000AEB0500FEF7B0FB464948512D1DB542F4DBE017009904EB9050B1EBA02F05DAA4
:206180008012009040A0FEF797FF07440021084608E03C4A2518135C19F80520934200D0C3
:2061A000491C401CB042F4DB41B317B137A0FEF783FF0027514636A0FEF77EFF002506E042
:2061C000611938A019F80110FEF776FF6D1CB542F6DB36A0FEF770FF00242A4D04E0295D51
:2061E00030A0FEF769FF641CB442F8DB27A0FEF763FF0BF1010BBBF10A0F02DC019C44453A
:206200009EDB17B121A0FEF757FF02F071FF0299401A4FF47A71B0FBF1F2BBF1000F0CD087
:2062200028A12AA0FEF748FFBBF1000F07DD0420FAF76AFD4FF464716DE72BA1F1E707B0AD
:206240000020BDE8F08F0000666C617368207665726966792C2025752062797465732028C2
:206260002575207061676573292040203078253038782D3078253038780A00001C010020DD
:2062800070AF0608F84200202E0000000A000000657272204020253038782062696E203ABE
:2062A0002000000025303278000000000A2020202020202020202020202020207265616439
:2062C0003A2000004641494C45440000666C6173682076657269667920257320696E202508
:2062E000756D730A00000000636F6D706C6574656400000010B52620FFF750FB00BF00BFB8
:206300000B4A106C00280BDD916C545C491C9164402901DB00209064106C401E106401E00D
:206320004FF0FF342620FFF7E1F9204610BD0000845200202DE9F8430D460646002400F0A8
:2063400067FF002028600F27DFF83C8018E000970098411E00910028FAD1D8F800002968FB
:20636000C0F38020A04008432860641C02F0ACFF00970098411E00910028FAD102F0D6FF21
:20638000761EE4D2BDE8F8831004024010B51446506903F02FFC002802D000202062E0606B
:2063A00010BD0000F8B50D4905460888000703D50888081D008800904FF0FF3602F098FE8A
:2063C000044603E0FFF782FA061E04DA02F090FE001BA842F6D33046F8BD0000004C004017
:2063E00070B50024094D0A4E0BE004EB840055F820202AB105EB8000016906A0FEF75CFE11
:20640000641C30688442F0DB70BD000070A806085CAD06082020253032692025730A000077
:2064200008B50120FEF7D0FA6A460CA1FAF7B4F90098B0F5003F09D30420FAF765FC40F2C4
:206440008A31016000220649FAF736FD00F1006000224FF48061FFF751FA08BD2578000051
:2064600070AF06081FB50A46034600920A21054A01A801F052FE0346622200210120FEF788
:206480006BFE1FBD58A8060830B58BB0282502F02FFEFAF77FFAF9F71FFF0446F9F71CFF50
:2064A00064F31F4004460121322003F083F94FF47A7002F05BFE1F481021418300220323DD
