:020000040800F2
:200000000040002099010008A1010008A3010008A3010008A5010008A7010008000000007E
:20002000FFFFFFFF0000000000000000A9010008AB01000800000000AD010008AF010008F0
:20004000B1010008B1010008B1010008B1010008B1010008B1010008B1010008B1010008D0
:20006000B1010008B1010008B1010008B1010008B1010008B1010008B1010008B1010008B0
:20008000B1010008B1010008B1010008B1010008B1010008B1010008B1010008B101000890
:2000A000B1010008B1010008B1010008B1010008B1010008B1010008B1010008B101000870
:2000C000B1010008B1010008B1010008B1010008B1010008B1010008B1010008B101000850
:2000E000B1010008B1010008B1010008B1010008B1010008B1010008B1010008B101000830
:20010000B1010008B1010008B1010008B1010008B1010008B1010008B1010008B10100080F
:20012000B1010008B1010008B1010008B1010008B1010008B1010008B1010008B1010008EF
:20014000B1010008B1010008B1010008B1010008B1010008B1010008B1010008B1010008CF
:20016000B1010008B1010008B1010008B1010008B1010008B1010008B1010008B1010008AF
:20018000B1010008DFF80CD000F018F800480047110400080040002006488047064800473C
:2001A000FEE7FEE7FEE7FEE7FEE7FEE7FEE7FEE7FEE70000A103000885010008064C074D52
:2001C00006E0E06840F0010394E8070098471034AC42F6D3FFF7DAFF5C0400086C040008B1
:2001E00070B50646002529B1012927D0022928D04FF4407500F07AF808281ED1124C2068EC
:2002000020F440702060206828432060206820F0F8002060206846F0020108432060206803
:2002200040F48030206000F061F8216821F002012160216821F0F801216070BD4FF480757A
:20024000D8E74FF40075D5E7103C02400B4908200A68D20301D5012070470A68D20601D54C
:20026000052070470A6812F0EF0F01D00620704709688907FBD50720704700000C3C024049
:200280000248016841F0004101607047103C024070B50D46064600F029F8082811D1094C57
:2002A000206820F44070206020682060206840F001002060357000F019F8216821F00101EF
:2002C000216070BD103C024005480068002805DA034804490C380160034901607047000085
:2002E000103C024023016745AB89EFCD08B508208DF80000FFF7AAFF8DF800009DF800008D
:200300000128F7D09DF8000008BD00000CB50022204900920192086840F4803008600868F6
:2003200000F400300190009800F10100009001980028F4D00868800329D501200190154869
:20034000083002680260026842F400420260026842F4A0520260031F0F4A1A600A6842F0C8
:2003600080720A600A689201FCD50C4940F203720A60016821F003010160016841F0020169
:2003800001600168C1F381010229FAD10CBD0192FEE7000000380240193C4005003C024094
:2003A0000E4810B5016841F0010101600B4A00210832116002680A4B1A400260031D094A16
:2003C0001A60026822F48022026004480C300160FFF79CFF05490448086010BD003802405C
:2003E000FFFFF6FE103000240000060808ED00E002E008C8121F08C1002AFAD170477047B5
:20040000002001E001C1121F002AFBD17047000070B50D4E0D49306888420FD00C4DFFF7D5
:2004200053FF00213820FFF7DBFE0A4CA019295DFFF72EFF641EF9D5FFF722FF064806604F
:2004400070688047002070BD00000608414E4B4900000408FFFF010008ED00E06C04000827
:0C04600000000020004000000004000824
:020000040806EC
:20000000414E4B49B50306084F4306084B4306084D4306081F3E0608755206081111111199
:20002000000000000000000000000000114B0608D93F0608000000005D430608134B060816
:20004000CD030608CD030608CD030608CD030608CD030608CD030608CD030608CD030608B0
:20006000CD030608CD030608CD030608CD030608CD030608CD030608CD030608CD03060890
:20008000CD030608CD030608CD030608CD030608CD030608CD030608CD030608CD03060870
:2000A000CD030608CD030608CD030608CD030608CD030608CD030608CD030608CD03060850
:2000C000CD030608CD030608CD030608CD030608CD030608CD03060845500608CD0306086B
:2000E000CD030608CD030608CD030608CD030608CD030608CD030608CD030608CD03060810
:20010000CD030608CD030608CD030608CD030608CD030608CD030608CD030608CD030608EF
:20012000CD030608CD030608CD030608CD030608CD030608CD030608CD030608CD030608CF
:20014000CD030608CD030608CD030608CD030608CD030608CD030608CD030608DD50060852
:20016000CD030608CD030608CD030608CD030608CD030608CD030608CD030608CD0306088F
:20018000CD03060800F002F800F09BF80AA090E8000C82448344AAF10107DA4501D100F0D5
:2001A00090F8AFF2090EBAE80F0013F0010F18BFFB1A43F001031847A4320100C4320100EB
:2001C000103A24BF78C878C1FAD8520724BF30C830C144BF04680C607047000000230024A9
:2001E00000250026103A28BF78C1FBD8520728BF30C148BF0B6070476E2901F09B817029E0
:2002000000F02082662911F05087652911F04D87672911F04A87612911F0498703681B0A35
:2002200028BF41F08001692900F08E81642900F08B81752900F088816F2901F08D8278293B
:2002400000F0EC81E92901F02582E42901F02282F52901F01F82EF2901F08A82F82900F01F
:20026000EB810368DB0928BF41F08001632901F0A681732901F0AB81E32902F04E84F329E1
:2002800002F05384002070471FB59DE8030002F07FF900F0BCFB01F09FF804000020002184
:2002A00011F04AFE401C60600020002111F05AFEE0600020002111F06BFE20611FBD10B532
:2002C00010BD02F089FE1146FFF7DEFF11F0EAFC02F08AFF03B4FFF7F2FF03BC01F072F894
:2002E0000B49D1F800C04A685CF8043B1068184442F8040B8C4528BFA1F1DC0C8A4228BFDA
:20030000A1F1DC02C1F800C04A6020F0004070477C6C0020FEB442464B4654465D463EB441
:2003200000F03FFF3EBC90469946A246AB46FEBC00F030F880EC200B7047C0EC200B704759
:2003400090EC200B7047D0EC200B704785460D98DDF838E00F9B5DF8042B20E90C009DE87C
:20036000FE1F854601BD4DF808ED0DF1080E4DF804ED2DE9FF1F002102B4694681B001F077
:2003800034FCDDF840E012B07047000094330100FC3F01004DF808ED0DF1080E4DF804ED37
:2003A0002DE9FF1F002102B4694681B001F085BC704700BF0948804709480047FEE7FEE730
:2003C000FEE7FEE7FEE7FEE7FEE7FEE7FEE7000004480549054A064B70470000154B06087B
:2003E00085010608586D002058AF0020586F0020586F002010B500F0EFFF001D10BD00BF43
:20040000391B010000487047B06C00207CB51D4616460C00009001D02044401E074B7B441C
:200420002A4669460190304601F09FF805461CB10020694601F0ACF828467CBD7911000061
:200440000FB41CB5084B06AA7B4469460090059801F08BF804460020694601F099F82046F5
:200460001CBC5DF814FB0000451100000FB47CB50C0009AA009001D02044401E084B7B4402
:2004800069460190089801F070F805461CB10020694601F07DF828467CBC5DF814FB0000CC
:2004A0001911000070B5044685690068C10601D5302600E02026C00708D070BDD4E9012189
:2004C00030469047206A00F1010020626D1EF5D570BD70B5044685690078C00708D170BDAD
:2004E000D4E9012120209047206A00F1010020626D1EF5D570BD70B50C460546012A05D0C4
:200500002878800600D5EA69002302E0012305E05B1C934202D2E05C0028F9D1A869E61822
:20052000C01AA861286A184428622846FFF7BAFF04E0D5E9012114F8010B9047B442F8D3CF
:200540002846FFF7C6FF70BD2DE9F0410646002410687529314616A511D000F07DFF0028D1
:2005600003DAC0F1000013A507E031688A0701D511A502E0490704D510A5012401E000F0E2
:2005800074FF00210A2306F1240707E0B0FBF3F203FB1200303078541046491C0028F5D11C
:2005A00023462A463046BDE8F04100F067BF0000000000002D0000002B0000002000000088
:2005C000F0B40D460188090502D5234C7C4402E0214C7C440E34002100F124060BE002F01D
:2005E0000F074FEA1212E75D42EA03724FEA1313775401F1010152EA0307F0D102780023E1
:20060000120704D5702D06D009B1113402232246F0BC00F033BF10340123F8E770B50446A5
:200620000D462146106800F020FF024629462046BDE870400023C3E7D21D22F00703D3E973
:200640000023BDE70368126843F0200303600823C3610023B4E700002C2901002DE9F05F6D
:20066000894604464FF0000ADFF878B1FB44C0F820A02046E1688847002875D0252806D053
:20068000D4E901219047206A401C2062F1E700265F462046E16888472028054608DB312D47
:2006A00006D207EB050010F8200C08B10643F0E7B00701D526F00406C4F81CA00027C4F856
:2006C00018A02A2D09D0284610F0A6FA38B304EB8708303DC8F8185019E059F8041B204657
:2006E00004EB87029161E1688847012F054618D1E069002820DA26F020061DE0D8F8180088
:2007000000EB800005EB40003038C8F818002046E1688847054610F07FFA0028EED1012FA5
:200720000AD02E2D08D12046E16888477F1C0546022F46F02006C4DBA069002803DA40428B
:2007400046F00106A061F00701D026F010066C2D0BD0682D09D04C2D39D06A2D35D0742DC6
:2007600035D07A2D33D016E038E0E1682F4620468847B842054609D16C2F26D04FF48060F6
:20078000E168064320468847054604E06C2F1AD04FF4807006430DB3A5F14100192802D8B0
:2007A000203546F400664A462946204626604E46FFF722FD80B101280BD0F61D26F007004B
:2007C00000F1080955E74020E4E78020D8E70020D6E706F104094CE7284651E7206ABDE868
:2007E000F09F0000B42801000FB400B58DB010A9099000910B904FF0FF300A9000200C9096
:20080000064878440690064878446A4607900F9909A800F0CBFF0DB05DF814FBC70F0000DD
:20082000DF0F00002DE9FF5F1D464FF0FF3B91464FF000085F46D5E90146A96901987F1C6C
:200840008847296A824688470028F6D11AF101000CD0002E24F4C06419DD600614D5BAF16E
:200860002B0F09D0BAF12D0F0ED103E0584604B0BDE8F09F44F48064A96901987F1C884705
:20088000761E8246002E02DDBAF1300F03D0B9F1000F26D032E0A969761E01987F1C44F45F
:2008A00000748847002E824605DDBAF1780F06D0BAF1580F03D0B9F1000F10D01EE0B9F1EF
:2008C000000F02D0B9F1100F18D1A969761E01987F1C24F4007488478246102002E008204E
:2008E00000E00A20814609E0A96908FB0908761E01987F1C44F4007488478246002E05DDFD
:200900004946504600F03EFF0028EDDAE96901988847A00502D46FF00100A8E7E00727D193
:20092000600614D5600502D5C8F1000000E04046296801F104022A600968220501D5087014
:2009400016E0220701D5088012E0086010E0286800F1040129600068210502D580F8008064
:2009600006E0210702D5A0F8008001E0C0F8008038467CE72DE9F04791460F4680460446F7
:20098000002614F8015B2DB1FFF734FD0068405DC007F6D12B2D02D02D2D18D0641E4A46B3
:2009A0003946204600F032FF27B13968A14201D1C7F800804FF0020471050BD5404200287F
:2009C00003DDFFF71FFD0460A007BDE8F08746F48066E4E70028F8DAFFF714FD04606FF04F
:2009E0000040F2E70B4910B5A1F17C020A4CC2E93712372106E000EB104342F82130074B12
:200A000000FB03400B1EA1F10101F4DC10BD0120E8E700001C6C0020E119D666CD0D010095
:200A2000002000F042FFFFF74AFC012000F0CAFC401ECAB210F8011F8A4202D00029F9D1BF
:200A40000020704740EA0103024630B59B0710D14FF0013400E008C208C91D1B9D4315EADB
:200A6000C41FF8D013F0FF0102F8011B0DD01B0AF8E711F8013B002B02F8013B05D011F84D
:200A8000013B002B02F8013BF3D130BD2DE9F0410E460546002400E0641C285D00F0CFFC5E
:200AA0000746305D00F0CBFC381A02D1295D0029F2D1BDE8F08110B5431C02E010F8011BCE
:200AC00071B18107FAD14FF0013202C88C1A8C4314EAC211F9D0C01A0A0603D0C01E10BDEE
:200AE000C01A10BD0A0401D0801E10BD0902FCD0401E10BD40EA010370B59B072ED14FF0D0
:200B00000136042A2AD308C810C9121F9D1B9D4315EAC61517D0D8B2E1B2401A50EA056129
:200B200010D198B2A1B2401A50EA05410AD123F07F4024F07F41401A50EA052102D1180E29
:200B4000A0EB146070BDA342DBD018BA21BA884201D9012070BD4FF0FF3070BD0AB90020BC
:200B600070BD10F8013B11F8014B63B1A3420AD1521E08D010F8013B11F8014B1BB1A34249
:200B800001D1521EEDD1181B70BD032A40F2308010F0030C00F0158011F8013BBCF1020F4F
:200BA000624498BF11F801CB00F8013B38BF11F8013BA2F1040298BF00F801CB38BF00F850
:200BC000013B11F0030300F06780083AC0F0088051F8043B083A51F804CBA0E80810F5E723
:200BE000121D5CBF51F8043B40F8043BAFF30080D20724BF11F8013B11F801CB48BF11F8A4
:200C0000012B24BF00F8013B00F801CB48BF00F8012B7047431A28BF9A427FF6B6AF032AC4
:200C20001044114440F2268010F0030F1EBF11F8013D521E00F8013D10F0030F7FF4F6AF2D
:200C400011F0030300F06D80083AC0F00B8051F8043D083A51F804CD40F8043D40F804CDCB
:200C6000FFF7F3BF121D5CBF51F8043D40F8043DAFF30080D20724BF11F8013D11F801CD83
:200C800048BF11F8012C24BF00F8013D00F801CD48BF00F8012C704710B5203AC0F00B80FB
:200CA000B1E81850203AA0E81850B1E81850A0E81850BFF4F5AF5FEA027C24BFB1E81850F6
:200CC000A0E8185044BF18C918C0BDE810405FEA827C24BF51F8043B40F8043B08BF7047CC
:200CE000D20728BF31F8023B48BF11F8012B28BF20F8023B48BF00F8012B7047431A28BF30
:200D00009A427FF6C9AF104410F0030F11441EBF11F8013D521E00F8013D10F0030F7FF400
:200D2000F6AF103AC0F00A8010B531E91850103A20E91850BFF4F9AFBDE81040530724BFFB
:200D400031E9081020E9081044BF51F8043D40F8043D12F0030F08BF7047D20728BF31F8BF
:200D6000023D48BF11F8012C28BF20F8023D48BF00F8012C704702F0FF0343EA032242EA64
:200D8000024200F002B84FF000020429C0F0128010F0030C00F01B80CCF1040CBCF1020F90
:200DA00018BF00F8012BA8BF20F8022BA1EB0C0100F00DB85FEAC17C24BF00F8012B00F8B9
:200DC000012B48BF00F8012B70474FF0000200B5134694469646203922BFA0E80C50A0E85A
:200DE0000C50B1F12001BFF4F7AF090728BFA0E80C5048BF0CC05DF804EB890028BF40F8E1
:200E0000042B08BF704748BF20F8022B11F0804F18BF00F8012B704710B5044610F0030F36
:200E200008BF11F0030F40F015804FF0013E121FC0F20E8051F8043BA3EB0E0C2CEA030CCF
:200E40001CEACE1C08BF40F8043BF0D0A1F1040102F10402521E08DB11F8013B002B00F859
:200E6000013BF7D11146FFF78EFF204610BD00004FF0013C50F8042B51F8043B9A4221D118
:200E8000A2EB0C03934313EACC1317D150F8042B51F8043B9A4215D1A2EB0C03934313EAEC
:200EA000CC130BD150F8042B51F8043B9A4209D1A2EB0C03934313EACC13DBD04FF000008A
:200EC000704700BFD01A01BAB1FA81F101F0180122FA01F0CB40C1F12001DBB2C0B2C01A0C
:200EE0002CFA01F3D11A914311EAC311E6D1704710B500F005F8BDE8104000F0DDBC0000AC
:200F0000014900F0DFBC0000846C002030B503681C1404EB21459BB289B2194495FBF2F4BC
:200F200002FB145301EB034191FBF2F302FB131101E05B1E11440029FBDB016003EB04404A
:200F400030BD2DE9F04704464FF0FF3A86B00068029060680390A0680490E068019020690C
:200F600000906569B5F1804F7EDCB5F1404F7BDB3C22002102A8FFF7C9FF3C22014603A882
:200F8000FFF7C4FF1822014604A8FFF7BFFF411E40F2B55201A8FFF7B9FF0C2206466846A0
:200FA0000021FFF7B3FF00EB860028443E4D00267D440FE09A1A491CCDE90012022902D04C
:200FC0000C2907D104E0810704D0521C019201E0401C00960099019B6A5C9A42EADD012928
:200FE00006D11C2B04D1810702D00221CDE90016A0F146018B2940D20199009B00220F466B
:2010000002E0AE5C521C31449A42FADB012B02DD820700D0491E40F2B55540F26D16C217BB
:2010200000EB927292106A4300F0030505FB062285070A4400D1521E049D02EB4206DDF88C
:201040000C80A94605EBC605184EC5EB0515DDF808C008EB850535442E14ADB2C6EB061629
:20106000C5EB0515B60000E007E00CEB850506EB154666F31F45360C03D0504606B0BDE899
:20108000F0877F1CC4E90430521C072092FBF0F304F1180600FB1320A6E803042846C4E967
:2010A0000297C4E900C8E9E78C1F0100A039CEFD704770477047002300F064BE012300F094
:2010C00061BE000070B5044601F0B1F9783405462646204600F084F9040007D13146E8690D
:2010E00001F0D3F9040001D101F050F90AA104F12000D1E90021C0E900210021A162E16257
:2011000061612161A161E161A868E0606868A06004F1780070BD000041524D00432B2B0014
:201120000000000070B50546466A01F080F90446284601F0F5F920B12946606901F044F957
:2011400007E0A5F12000C169491EC1612168491E21604169491C4161016911B961690161BD
:201160006061284600F0BFFD304670BD70B5054601F05DF90446284601F0D2F938B129466E
:20118000A06901F021F9C169491CC16102E0A5F12000C169012902D1A1698161A0610120BD
:2011A00070BD70B501F043F9846905460CB901F0C1F904F12006304601F0B2F968B1E06979
:2011C0002668012802D0401EE0610BE0A16904F17800A96101F016F904E0E069012801D153
:2011E000A069A861304670BD70B501F020F9446905460CB901F09EF96069401E606117D1F6
:2012000004F12006304601F08BF921696961E56928B104F17800266801F0F4F801E0002074
:201220002061002D04D13046BDE8704000F08ABD70BD000073B50C4601F0F9F8203C61697A
:2012400031B1E169491EE1610168491E01607CBD616804F1780509B1284688472846BDE80A
:201260007C4001F0CFB8FFF75DFF284601F0CAF801F020F970B578380D464D4981620121FA
:20128000C161C0E9005200F1200401F0D0F801682A46491C016000212046FFF789F8204660
:2012A000FFF761F8204601F086F82DE9FF4D9A4693460E46804601F033F9002875D1A8F1B1
:2012C0002000012708F1580805680024CDF80880314628460FF0A0FB10B1CAF8008062E0CB
:2012E00028460FF0E5FB019030460FF0E1FB0090304901980FF090FB20B92E4900980FF0AC
:201300008BFB20B1DDE900100FF096FB08BB294901980FF081FBC0B1307A297A641C00F099
:20132000030001F0030131EA00023ED130EA010100D077B1C00700D100270298ED68F66869
:201340000028C5D000680290C2E7012C02D06CB109D02AE0184930460FF05EFB18B1BBF18A
:20136000000F22D1B9E7BBF1000F1ED1134901980FF052FB20B9124901980FF04DFBA0B17B
:2013800000200090019033462A4603A902A80FF0B3FB002804D00399CAF800101CB10220C7
:2013A00004B0BDE8F08D0120FAE70020F8E70000351206082C300708803007083830070860
:2013C0004430070801491820ABBEFEE72600020000487047B06C002000487047D06C0020FC
:2013E00070B5064601F0B4F8056806F10B0020F00704B4429CBF002070BD2B466A68BAB109
:201400001068A04210D304F1080188423CBF5068586007D35168101941601168091B016001
:2014200058601460101D70BD13465268002AE7D12146284601F098F80028DED170BD10B512
:201440000446FEF7D7FF0068005DC00602D504F1200010BD204610BD09684A0501D540B278
:201460007047C905FCD500B2704709684A0501D5C0B27047C905FCD580B270472DE9F04719
:201480000D4699469246044600F124080168880604D5E06921F01001216000E00120A84234
:2014A00002DDA0EB050700E00027A16907EB050202EB0900A1EB0000A0612078C00602D4F5
:2014C0002046FEF7EFFF002608E0D4E901211AF806009047206A401C761C20624E45F4DB8B
:2014E0002078C0060AD52046FEF7DCFF06E0D4E9012130209047206A401C2062381EA7F137
:201500000107F4DC07E0D4E9012118F805009047206A401C2062281EA5F10105F3DC2046C2
:20152000FEF7D7FF2078000602D50220BDE8F0870120FBE711680268006A530501D5087037
:201540000BE0D30501D5088007E0130603D5C217C1E9000201E05206086001207047000094
:2015600001694A1C02610878704700B58FB0CDE901310021059105497944CDE90310114643
:201580006846FFF76BF80FB000BD0000E5FFFFFF0A6802F8010B0A607047D1E900239A4294
:2015A00002D2531C0B601070704710B5436913B1AFF3008001E0FEF79EFF012010BD127804
:2015C00000F124010A7000224A700122EDE711684FF0FF32E9E700002DE9FF5F15468A4650
:2015E0000446DFF8AC80F8440027D8E900103E46CDE9001011E03AF816106A4602A801F08C
:2016000051FC411C07D02178890603D5E269391891420ED8074406F101062078800602D5B6
:20162000E069B84205DDAE42E5DB3AF816000028E1D1A069C01BA0612046FEF733FFD8E980
:201640000010CDE90010002016E03AF818106A4602A801F027FC8146401C0BD000250DF1B5
:20166000080B05E0D4E901211BF8050090476D1C4D45F7D308F10100B0428046E5DB206AC3
:20168000384420622046FEF724FFBDE8FF9F00004E1901002DE9F0418046D21D22F007020C
:2016A0000025D2E90002F52914A612D0002A06DA0023D0EB030063EB020211A608E0D8F8E2
:2016C00000108B0701D50FA602E0490701D50EA601251146002408F1240704E000F0B5FFD4
:2016E00030323A55641C50EA0102F7D12B46324621464046BDE8F041FFF7C0BE0000000054
:201700002D0000002B0000002000000030B4002100F124040CE002F0070505F130054FEAE5
:20172000D20242EA4372655401F101014FEAD30352EA0305EFD10468002310A2250708D5EA
:2017400004F020040C4304D0C46901230CA2641EC46130BCFFF792BE10B504462146106888
:20176000FFF783FE02462046BDE810400023CDE7D21D22F00701D1E90023C7E700000000E4
:20178000300000003A2800D2303820F02002412A01D3A2F13700884201D34FF0FF3070477F
:2017A000026811441378016018467047D16005497944516104497944116200211161114614
:2017C00001F0B8B9EDFFFFFF1B0F0000426842B1016811F8013B23B1521EC0E900121846EB
:2017E00070470121C160881E704742685AB1C368016843B983688B4205D0491E521CC0E942
:201800000012002070474FF0FF3070472DE9F05F824615468B4600270AF10104B9460078C3
:20182000302801D09DB113E014F8010B0127782803D0582801D045B10AE00DB1102D07D187
:20184000002714F8010B102502E0082500E00A250026B0460EE005FB080005FB06F10127C5
:201860001FFA80F801EB1046B6F5803F00D3B94614F8010B2946FFF785FF0028EBDABBF1BF
:20188000000F05D00FB1641E00E05446CBF80040B9F1000F06D0FEF7B5FD02210160C81E05
:2018A000BDE8F09F48EA0640FAE710B501F048FBBDE8104001F03EBB014901F059BB000074
:2018C000106D002070B50C46016800204A1C34D040F2B5553C23B1FBF3F203FB1211216033
:2018E000B2FBF3F103FB112218236260B1FBF3F203FB1211A16046F2E0310A440721B2FB0A
:20190000F1F301FB1321B2FBF5F305FB1322A1619900B2F5B77F06D3521EAD10B2FBF5F3D6
:20192000194405FB13220F4BE261616189077B440CD03B2A0AD3521C08E02C212046FFF74A
:2019400044FA0120E0600AE0521A401C195C9142FAD9521CC4E903204FF0FF302062204687
:2019600070BD00000E16010010B5029C31B101290DD003290BD004290BD108E04BB90F2A94
:2019800007D8216800EB82004160002010BD012010BD022010BD10B5029C31B101290DD0BB
:2019A00003290BD004290BD108E04BB90F2A07D800EB820040682060002010BD012010BDA3
:2019C000022010BD2DE9F04798460446C0B031B1012918D0032979D0042979D176E0B8F154
:2019E000000F75D190B2A16B231D00F4005205E0C50701D020C91D601B1D40080028F7D166
:201A0000F2BBA1635EE0150C96B2102D01D2012000E000208146A819102801D9012700E09B
:201A20000027B8F1010F03D0B8F1050F50D101E03FBB01E020284BD84FF0000AB9F1000FEC
:201A400008D02078012805D104F1480084F800A080EC200B47B16078012805D104F1C8009B
:201A600084F801A0C0EC200BB9F1000F02D0684680EC200B20A882460FB1C0EC200B01E09A
:201A800020E025E0A06B6B4608E0014603EBC5026D1CD1E900C10830C2E900C1761EF4D29F
:201AA0004146B8F1010F00D00021B9F1000F00EB8100A06302D0184690EC200B17B1504698
:201AC000D0EC200B002040B0BDE8F0870120FAE70220F8E710B50468944801F1080278442B
:201AE000436803444FF0FF30934204D0136843F31E03134400E003460A6842F31E0211446F
:201B0000A14202D89C4201D3012010BD002010BD13B50446854882B078443A380168426829
:201B200001441044401AC2100398801E0390804878440090082303A801F0D4F97D49002383
:201B400078B1026842F31E020244A2644268012A0AD0002A00F1040009DAE06401202065B6
:201B60000AE00422636114E00222636111E042F31E021044C4E91303E26C1068002819DA77
:201B8000C0F3036058B101280CD002280FD0012263612046FEF70CFC092004B010BD664876
:201BA000784401E06548784460610020F5E764487844F9E740F31E001044F5E70C460546FC
:201BC0002846216CFFF7A4FF50B9206C2246294628616B6901209847072803D00828EFD0B7
:201BE000FEF71EFF201DFEF7B1FBF0B504460E460127C068D3B068B35820FFF7F1FB050065
:201C00002AD0142204F10C0105F10C00FFF744F8182204F1200105F12000FFF73DF804F1D8
:201C2000380005F1380C0FC8ACE80F00E560F06B4022311D306401A8FFF72EF88DF800701A
:201C40008DF8017012AF32AD20461099FFF760FFD0B910E0E760EAE7364920460522FEF7F8
:201C6000A7FB05E09DF8010010B92846D0EC200B53B00920F0BD63696A462146002098476E
:201C8000062809D00828DFD09DF800000028E9D1384690EC200BE5E79DF8000000B102E0CE
:201CA000384690EC200B9DF8010010B92846D0EC200B31462046FFF781FF054600690C46F2
:201CC0000A46086429466B6902209847072803D0082804D0FEF7A4FE201DFEF737FB21469C
:201CE0002846FFF76BFF70B50546C168C9B1012919D00C4614220C3105F10C00FEF7CCFF69
:201D0000182204F1200105F12000FEF7C5FF04F1380038350FC80FC52046BDE8704000F0B4
:201D20006DBCFEF77DFE0020E86070BDAAE8FFFFA1FFFFFF010000FF13F5FFFF13F5FFFF3B
:201D40008C0100008268002A02D001460120104770470000017A51B9417A89B1491E417206
:201D600041680A1D42600968016004210172C9B2491E017201680A0E090201601046704738
:201D8000B02070472DE9FF4F16460D468BB05FEA000A4FF0000006900890049007900CD0A7
:201DA000BAF1010F09D0BAF1020F01D0002202E2A86BA864D5E90FB40EE095F85000D5F8C4
:201DC0004CB0C00776D10E9818B1DBF80000C0F307400BEB800441E00E98022811D02788C2
:201DE000002F67D06088241D394600F0010262F35F0161B1012933D002297DD00329EBD18E
:201E00002FE12768002FECD060680834ECE7BAF1000F23D0A96C0F22002301EB00083046E1
:201E200005A900911946FFF7B6FD0598804515D808EB0701814211D9A96C201DA963C5E958
:201E40000FB02846FFF792F90028AFD020680F2240F31E0004443046049423E0241DBBE7E7
:201E6000BAF1000F27D0304605A90D22002300911946FFF790FD0598296A88426ED1E86A3D
:201E8000A0426BD1206804A90F22002340F31E0004443046049400911946FFF765FD00228A
:201EA0003046049504A9002300911946FFF75CFD224647E2D7E0A96C0F22002301EB00085F
:201EC000304609A900911946FFF765FD09987F1E804543D808EB070181423FD96768B81CFB
:201EE0000ED0781C0ED03946206805ABC20F2846FFF7DBF988B300E032E002281DD004E0AA
:201F0000022258E105F158000590304604A90D22002300911946FFF73EFD0498EC62286277
:201F2000059802216862206840F31E0002192846FEF73EFA80213A4660E004A930460D22D5
:201F4000002300911946FFF726FD0498EC6228620598A86205F12800E3E7FFE708343BE70E
:201F60002168BAF1000F21F00048059110D0304609A90D22002300911946FFF70CFD099845
:201F8000296A884241D1E86AA0423ED101203DE0A96C401E0F2201EB0009304609A900236D
:201FA00000911946FFF7F7FC099881453BD809EB0701814237D9002704F104090AE0D9F81B
:201FC00000106B4628460022FFF76FF920B97F1C09F104094745F2D3474524D1304604A9E2
:201FE0000D22002300911946FFF7D5FC0498D94AEC62286200207A44022168622846FEF713
:20200000D7F906200FB0BDE8F08F002058B10020C5E90A8004202863201D6863059840458D
:2020200006D1012006900598404515D1002014E004EB8800002250F8041F1346049541F3CC
:202040001E010C18304604A900911146FFF78CFC0F22304604946CE1042000EB8800044449
:20206000FCE60122A7E0DBF8000001900BF1040002900E9810B30198000C8DF80D000198A5
:202080000004019002208DF80C0001A8FFF762FEB02804461AD03F2C41D800F03F01042015
:2020A00000EB8107304609A90D240023224600911946FFF770FC0998384442E000208DF893
:2020C0000D000198000201900320DCE70898B0B904980028C5D005A800230E221946009090
:2020E0003046FFF758FC059930460F220023049104A900911946FFF737FC01200790069807
:20210000002875D0304604A900220495134600911146FFF729FC079800286AD004E17F2C87
:2021200019D800F03F01042000EB8107304609A90D240023224600911946FFF72CFC099854
:20214000C01B2246059005A80023009019463046FFF70AFC99E78F2C1AD80007040C01A889
:20216000FFF7F8FD54EA00143FF4CAAE2246304600231946FFF726FC08B103221BE0200402
:2021800001D5012008906004E4D5012004907CE79F2C16D800F00F020D2A0BD00F2A09D09D
:2021A000304609A90D24002300911946FFF7F3FB0998C6E7042228460121FEF7F9F80920BC
:2021C00020E7AF2C16D84FF0010104F0070000F1010001FA00F14FEA01122007A2F11002FD
:2021E00003D5012042F4804204900023194659E0AEE087E0B72C35D8B12C0ED0B22C14D03D
:20220000B328D7D101A8FFF7A5FD00F00F0100F0F000491C41EA00322BE001A8FFF79AFD17
:202220000200C7D00F2AE0D9C4E700273C4601A8FFF790FD00F07F0101FA04F10F430006DB
:2022400001D5E41DF3E709A930460D240023224600911946FFF79FFB099800EB870000F561
:2022600001706EE7BF2C07D800F00700401C40F400220123012115E0C72C25D809D101A877
:20228000FFF768FD020095D00F2A93D80023042108E0C62C0DD000F00700401C40F4202210
:2022A000032319463046FFF78DFB00283FF452AF63E701A8FFF74EFD00F00F0100F0F00035
:2022C000491C41EA0032EBE7C82C0BD0C92C09D0CF2CA9D9D72CA7D800F00700401C40F447
:2022E00000220DE001A8FFF735FD00F00F01491C00F0F000C82C41EA003201D102F580120D
:202300000523B7E704A800230F22194600903046FFF741FB049930460E220023059105A9B6
:2023200000911946FFF720FB0B4930460F227944049104A9002300911946FFF715FB064A39
:202340007A44123A28460321FEF732F8072059E6082057E65A0300002600000038B56846D9
:202360000EF082FB0420FEF7ADFE69460EF074FB044668460EF087FB024A03492046FEF797
:2023800079FF0000870A07085C30070870B5054600F04DF804461DB1284600F0C1F808B1FD
:2023A000A06801E055F8140C206101202073BDE8704000F0BFB810B5040001D0FEF7B2FE97
:2023C0002046BDE81040E1E770B504000D4609D004F1200000F098F820B12068A84201D1DB
:2023E000204670BD0020FEF76DFE7838D5E9002300F12001C1E900230022C261426105600D
:20240000026170BD10B5044600F011F8783CC069214600F045F8002804D12046BDE810405B
:2024200000F0ECB810BD000010B5FEF7F9FA70B500F092F804680546A4B92020FEF7D0FFD7
:20244000040011D0094900202C60C4E900010849A1602073206160610649A06109B100F0CA
:202460000BF8E061204670BDFEF7DAFA00000000292406080000000010B58820FEF7B0FF50
:20248000002801D00021017010BD802902D808B1017809B100207047012100F8081B7047AA
:2024A00018B100F10802914201D00020704700210170704770B5FFF7BAFF4469054614B9FB
:2024C0000020FFF763FFE06904F12006401CE061304600F025F8002801D0266803E0286806
:2024E00000F10100286002D04FF0000200E022684FF000013046FDF75BFF3046FDF733FF45
:202500003046FFF758FF000002680B689A4205D140684968884201D10120704700207047C5
:2025200010B50349FFF7F0FF80F0010010BD00004C2F070810B5FFF77AFF016919B1002253
:202540000261884701E080688047FEF769FA704700487047B86C002000487047EC6C0020F0
:20256000704770477047704738B504460A4600206946AFF30080002808BF38BD0246009942
:20258000204600F04EFD012038BD012000F04BBEF8B5AFF30080054600200C46102000BFEF
:2025A0000646A819A0420DD9324669460020AFF30080070008BF00F036FE0098A04218BF9A
:2025C0000546C419FFF7C4FF05600746F01D20F007004619284600F00AF8B44208BFF8BD13
:2025E000A21B31463868BDE8F84000F01ABD00210160C0E9011070471020704770B504461A
:20260000051FFFF7A5FF0068002C14BF446870BD002C18BFAC423CBF20466468F8D301686A
:202620000A18AA4218BF456003D12A6805461144016028684119A1421CBF6C6070BD61683F
:20264000696021680844286070BD30B5B0F10A024FEA900E71F100034EEA817EB0EB0E0079
:2026600061EB91014FEA101E4EEA017E10EB0E0041EB11114FEA102E4EEA016E10EB0E00E0
:2026800041EB11214FEA104E4EEA014E10EB0E0041EB1141401841F100014FEAD00040EA79
:2026A00041704FEAD10110EB80054FEA810444EA907444EB01046D1944EB0404521BA341AC
:2026C0004FF0000348BF0A3200D530BD401C41F1000130BD10B50446FDF78CFE0068005DE5
:2026E00000F0010010BD70472DE9FF4F0C461E464FF0FF378BB0D2E90001DDF860800A9090
:202700008A46C1F30A5505B93D46002108464FF00000BAF1000F00F4400005DA00EB8000AF
:202720004FF4400101EA50004FEA9059B9F1010F00DDB9460A9850EA4A000ED044F6105084
:20274000A5F2FF3545432F14B8F1000F1ED07542291E1EDDC9F100021CE0B8F1010F4FF094
:20276000000001D0302103E0F24305E02154401CB042FBDB30460022002121540B99C1F816
:202780000880C1E900200FB0BDE8F08FBD1B6D1CDEE74A4600DA694206A800F0B3FC06ABCB
:2027A00007CB03AB07C350460A9900F0F7FE8DE80700A0F500501F3800900398002D09DDBB
:2027C00042F21F014A46084403A90390684601F056F908E0A0F500504A461F3803A90390A9
:2027E000684601F060F98DE807000004000C03D04FF0FF30410800E01046B8F1000F03D00A
:202800000022009215461FE0751E06D4FFF71DFF02F1300262556D1EF8D5B3460122084390
:2028200002D000227F1C04E02078302801D100227F1E002A099787D01DE0112D07DAFFF771
:2028400004FF303262556D1C50EA0102F5D108430FD10021681E05E0235C625C6354491CC0
:202860002254401E8142F7DBAB46A81B401E099001E0009848B1002004F80B000B98099A65
:20288000C0F80880C0E9002B7DE711264FF000085AE72DE9F04F88460446D21D22F007018B
:2028A00091B0D1E90001CDE90A010EF011F902460B98C00F01D02D2007E02068810701D5AE
:2028C0002B2002E0202101EAC000032A099001D0072A05DB03464146204600F0D3FB0FE153
:2028E0002078800601D5E06900E00620B8F1650F814606D0B8F1660F18D0B8F1670F72D173
:2029000032E00020B9F1110F009001DB112301E009F101030AAA01A90CA8FFF7E5FEDDE98B
:202920000C70002609F10105834648E001204B4600904FF000470AAA01A90CA8FFF7D4FE62
:20294000DDE90DB00C995D46002618B909F1010001EB0005B9EB050003D4C0F1FF3609F169
:202960000105A5EB09002BE0B9F1010F01DA4FF001090020B9F1110F0090484601DD1123B5
:2029800000E003460AAA01A90CA8FFF7ADFEDDE90C704D4600268346207800070AD4AB452A
:2029A00000DA5D4601A8012D04DD411911F8011C302907D04F4502DA17F1040F04DA0120A8
:2029C000824610E06D1EEEE7002F02DCED1B3E4403E0781CA84200DD0546A7EB060000F136
:2029E000010A4FF000472078000703D4AA4501DB4FF0FF3A0021B7F1004F0DF143088DF8A7
:202A0000431023D002202B23002F01DA7F422D234FF00A0C011EA0F1010000DC4FB197FB71
:202A2000FCF10CFB11720F4602F1300208F8012DF0E7A8F1010003702188090501D54521A0
:202A400000E06521A0F1010800F8011C09980FA9A1EB080707F1070700B1012000EB0501A4
:202A600001EBEA70A1693844A1EB0000A0F10100A0612078C00602D42046FDF713FD09982C
:202A800030B1D4E901219047206A00F1010020622078C00620D52046FDF704FD1CE0002EC9
:202AA00004DBB34502DD01A8805D00E03020D4E901219047206A761C401CBAF1010A206244
:202AC0000AD1FEF789FCC0680168405CD4E901219047206A401C2062281EA5F10105DEDCBA
:202AE00007E0D4E9012118F8010B9047206A401C2062381EA7F10107F3DC2046FDF7E9FCB1
:202B0000022011B040E610B5436913B1AFF3008001E0FEF761FD012010BD128800F1240183
:202B200082840022C2840122EDE711684FF0FF32E9E700002DE9F34F4FF0000A0C465646E8
:202B40008DB001200C9001F10C000B9062690B980121904705002DD0252D2CD0216A8847D1
:202B6000C0B162690B9801219047216A88470028F7D16269411E0B98904700E0761CA16913
:202B80000D988847216A88470028F7D1E1690D988847DBE7A1690D988847A842074601D170
:202BA000761CD3E7E1690D9888477F1C02D1BAF1000F6FD06AE162690B9800273D463946C2
:202BC00090472A2804D162690B98012190470125DFF8CC8262690B9801219047A0F130011C
:202BE0000A290AD24745E5DC07EB870100EB4107303FDFD445F01005ECE7E90601D46FF06A
:202C000000476C280AD04C2814D0682815D06A280DD074281CD07A281AD01DE062690B9844
:202C2000012190476C2802D045F0040514E045F002050DE045F020050AE062690B98012106
:202C40009047682802D045F0080505E045F4006562690B9801219047C4E9015765283DD070
:202C600019DC582879D00CDC452837D004DC252826D041289ED131E046282FD0472899D1E8
:202C80002CE05B287FD0612828D063287BD0642890D159E0F5E06F2847D008DC66281DD0F7
:202CA00067281BD0692821D06E2816D127E0702844D0732867D0752846D078280DD14CE0B9
:202CC000A1690D988847252805463FF469AFE1690D9888476D1C3FF46AAFD7E00D9923463A
:202CE0006A466FF00100AFF30080C4E045F0400023464FF000026060A80735D43DE02068C2
:202D000000F1040121600068290501D506701DE7290701D5068019E7A90704D54FEAE671B1
:202D2000C0E9006112E7066010E745F0400023464FF008026060A80716D41EE040F60E0170
:202D400025EA0100606016E045F0400023464FF00A026060A80707D40FE045F04000606016
:202D6000A80708D5234610220D996FF00100AFF3008080E007E0102223460D996FF001001C
:202D8000FDF750FD77E04FF0000963284F46C8464B46CB4602D05B2806D038E0E80601D47D
:202DA0000120A060012732E06269D4F80CB00B98012190475E2807D14FF0010949466269C8
:202DC000D4F80CB00B989047216939B900210B4603AA42F82130491C0829FADBD8B321694B
:202DE00049B308F1010862690B98012190475D28F4D1B9F1000F09D0002003A951F820203D
:202E0000D24341F82020401C0828F7DB03AB2069002820794FEA40701ED05B462246CDF829
:202E20000080CDE901970D9900286FF0010020DAAFF300801FE0C11700EBD16203A9531175
:202E400022F01F0201EB8301821A0B680120904003430B60C7E719E00D99224600286FF0E2
:202E60000100009702DAAFF3008004E0AFF3008001E0AFF3008000280ADA401C06D10C98D0
:202E800020B14FF0FF300FB0BDE8F08F5046FAE7E90701D10AF1010A064400200C9055E690
:202EA000CCCCCC0C70B516460C460546FDF7A2FA036893F80101012806D0FF2C0FD8185D76
:202EC00068B101202C7070BDD3F807013246214603442846BDE8704003F2071318474FF086
:202EE000FF3070BD2DE9F047984614460F468246DDF8209094B1012C0BD04A46504665086F
:202F000005FB08763146904700280CD00DDA2C46F0E74A4639465046904710B10020BDE8AF
:202F2000F0873846FBE73046F9E7641B641E06EB0807DFE7002801D0FEF744BA70470000FA
:202F400010B5002102A000F055F9012010BD0000534947414252543A2041626E6F726D6197
:202F60006C207465726D696E6174696F6E000000F0B50D46044685B0FEF72EFA0069636952
:202F800094E8C010016803F26C730A188168CDE90363CDE901C7E36801440093C66A236924
:202FA000406A03FB0613A16901FB0022284603A100F052F805B02846F0BD0000257320252F
:202FC0007325336420252E32643A252E32643A252E32642025640A007546FEF7F9F9AE462A
:202FE00005006946534620F00700854618B020B5FDF7EEF9BDE820404FF000064FF000079A
:203000004FF000084FF0000B21F00701AC46ACE8C009ACE8C009ACE8C009ACE8C0098D46CD
:203020007047034640688C46002818BF88423CBF03464068F8D318681844884207D00CF11C
:20304000030020F00700001D411A521A0146081D0A60FFF7D3BA00000FB41CB5084B06AA82
:203060007B44694600900598FEF77FFA044600206946FEF78DFA20461CBC5DF814FB000010
:203080002DE5FFFF2DE9F0411F46044603260168072A01F4006004DB08B116A505E016A51F
:2030A00003E008B115A500E015A521F010002060A069C01EA0610FB1401EA0612046FDF71E
:2030C000F1F94FB1D4E9012138469047206A401C2062C01C206206E0206AFAE7D4E90121DC
:2030E00015F8010B9047761EF8D22046FDF7F1F9BDE8F0814E414E006E616E00494E460031
:20310000696E66002DE9F047814616468AB035487844D0E9002380680092CDE901303148D9
:2031200078440C38D0E90223006903924FF03702CDE9043041F69B30014491FBF2F0A0F10B
:20314000800502FB10141B3C02D56442012000E00020DFF890A080460027FA44AAF1C60A37
:203160000DE0E00709D03246684607EB47010AEB810100F098FC8DE8070064107F1C002C90
:20318000EFD1184F7F44B43F17E0E80713D007EB04100DF1180A90E80E00AAE80E00C06815
:2031A000F04201D198190890324606A903A800F07AFC03AB07C36D10641C002DE5D13246BA
:2031C0006946B8F1000F03A802D000F058FC01E000F069FCC9E90001C9F808200AB0BDE896
:2031E000F0870000C0FE00000446AFF300802046FDF770F870B505460C460A2000E06D1C17
:2032000000F018F835B128780028F8D102E0641C00F010F814B120780028F8D1BDE870403A
:203220000A2000F007B810B500F00CF8BDE81040FFF780BE08B569468DF800000320ABBE56
:2032400008BD000010B5012805D0002103A0FFF7D1FF012010BD09A1F8E7000053494752B0
:20326000544D454D3A204F7574206F662068656170206D656D6F7279000000003A20486516
:203280006170206D656D6F727920636F72727570746564002DE9F04F04460D46D21D22F0B9
:2032A000070089B0D0E900924846174639460DF00FFC0246F80F01D02D2307E020688107AA
:2032C00001D52B2302E0202101EAC0038DF82030D8B200B10120032A824601D0072A04DBF2
:2032E00029462046FFF7CEFE41E12078800601D40D2500E0E569C7F30A560D2D4ADA002129
:203300004FEA175B08464FF00000002F00F4400007DA00EB800000EBD0714FF4400000EA2D
:2033200061008115012901DD4FF0FF3100224FEA850CBCF1180F06D31346ACF118004FF039
:203340008052C24003E04FF4801323FA0CF30CF10C0CBCF1200F04D3ACF1200C09FA0CF034
:2033600001E007FA0CF000294FF0004801DD18B910E00FD140450DD319EB02095F4121B952
:20338000404502D19F4329EA0209BBEB175F01D006F101062088000502D57C48784402E004
:2033A0007A487844193808AA302302F80A30037C0AF10101002E0AF1020A53546A4602DC1F
:2033C0004FF0300101E04FF031014FF001088DF8001002D0A6F2FF3603E059EA470100D071
:2033E0006B4E002D02DC2178090704D54FF002082E218DF80110C44600210BE0C7F3034343
:203400003F01C35C491C6D1E02F80830052908F1010801DA002DF1DC00210CE000EB1973A2
:20342000491C1B786D1E082902F8083008F101084FEA091901DA002DF0DC2178890602D576
:2034400014E0A8F10108E04505DD02EB080111F8011C3029F5D0B8F1000F07DD02EB080103
:2034600011F8011C2E2901D1A8F10108002D05DD3E2102F808106D1E08F10108407C002E64
:2034800002F8080008F1010806DA2D2002F80800764208F1010804E02B2002F8080008F115
:2034A00001080A214FF47A739E420ADB96FBF3F000F1300703FB106602F8087008F101085F
:2034C00001E0642E0BDB642796FBF7F000F1300307FB106602F8083008F1010801E00A2EA7
:2034E00007DB96FBF1F000F1300002F8080008F1010896FBF1F001FB106000F1300002F85A
:203500000800A16908F1010808EB050202EB0A00A1EB0000A0612078C00602D42046FCF78C
:20352000C1FF216A08AE01EB0A00206204E0D4E9012116F8010B9047BAF1010AF7D2207847
:20354000C00602D52046FCF7ADFF6E4609E016F8010B3E280FD0D4E901219047206A401C31
:203560002062B8F10108F2D22046FCF7B2FF09B00220BDE8F08F206A2844206203E0D4E932
:203580000121302090476D1EEBD3F8E75FFC000002FCFFFFFDF728FEFCF7BCFE5FEA400C07
:2035A00008BF91F0000F4FEA8C234FEAC12243EA51514FEA1C5018BF00F5F0404FEA3000D7
:2035C00018BF41F000415FEA6C5C00F02980BCF1FF3F08BF40F080407047130C06BF1204A5
:2035E0004FF0100C4FF0000C130E04BF12020CF1080C130F04BF12010CF1040C930F04BFB2
:2036000092000CF1020CD30F04BF52000CF1010C11464FF00002A0F11F00A0EB0C00704776
:2036200011F0004F08BF704731F000413FF4D5AF0B0C06BF09044FF0100C4FF0000C0B0EFB
:2036400004BF09020CF1080C0B0F04BF09010CF1040C8B0F04BF89000CF1020CCB0F04BF09
:2036600049000CF1010CCCF12003A0EB0C0022FA03F302FA0CF241EA030100F1010070479C
:2036800020F07F4C80EA030023F07F47ACEB070303F57C5300F0004003F1FF032DE980499C
:2036A0004FEA154B09B44FEA144325EA0B4E24EA03480FF2042606EB132749083E785FEABD
:2036C000320203FB0667C7F5000707FB06F64FEA54374FEAD64606F1020607FB066CCCF141
:2036E000005C4FEA1C472CEA074C07FB06F40CFB06F504EB15464FEA961634BF00204FF0EA
:2037000000404FEAD13706FB07FC4FEA1C4C0CFB0BF7D21B03FB0CF761EB07010CFB0EF72C
:20372000B0EB074072EB17420CFB08F734BFA2EB0742B2EB074261EB17414FEA0C444FEAD6
:20374000910706FB07FC4FEA1C4C0CFB0BF7B0EBC74072EB573203FB0CF734BFA2EBC74211
:20376000B2EBC74261EB57310CFB0EF7B0EBC70072EB57720CFB08F734BFA2EBC702B2EB4F
:20378000C70261EB5771039F4FEA816141EA921104EBCC044FEAD1374FEA826206FB07FCA0
:2037A00042EA90124FEA80604FEA1C4C0CFB0BF7D21B03FB0CF761EB07010CFB0EF7B0EB8F
:2037C000074072EB17420CFB08F734BFA2EB0742B2EB074261EB17414FEA8C554FEA9107A8
:2037E00004EB9C2406FB07FC4FEA1C4C0CFB0BF7B0EBC74072EB573203FB0CF734BFA2EB63
:20380000C742B2EBC74261EB57310CFB0EF7B0EBC70072EB57720CFB08F734BFA2EBC70242
:20382000B2EBC70261EB577115EB4C254FEA816141EA92114FEA82624FEAD13742EA901288
:2038400006FB07FC44F100044FEA80604FEA1C4C0CFB0BF7D21B03FB0CF761EB07010CFB1F
:203860000EF7B0EB074072EB17420CFB08F734BFA2EB0742B2EB074261EB174115EB1C1521
:203880004FEA813141EA92414FEA823242EA90424FEA80304FEA0C7644F1000448EA0343FF
:2038A0004EEA0B484FF0000EB2EB080C71EB030724BF624639464EEB0E0E4FF0000B001858
:2038C000524149414BEB0B0BB2EB080C71EB03077BF1000B24BF624639464EEB0E0E4FF053
:2038E000000B0018524149414BEB0B0BB2EB080C71EB03077BF1000B24BF624639464EEB6B
:203900000E0E51EA020718BF46F0010616EB0E7655F1000254F1000103D5BDE88901BDE874
:203920000088BDE88901BDE80048B619524141EB0101A3F10103704780807F7E7D7C7B7A19
:203940007978777676757473727171706F6E6E6D6C6C6B6A6A6968686766666564646363C5
:2039600062616160605F5F5E5E5D5D5C5C5B5B5A5A59595858575756565555555454535304
:2039800052525251515050504F4F4F4E4E4D4D4D4C4C4C4B4B4B4A4A4A4949494848484792
:2039A000474747464646454545444444444343434342424242414141002B26D4770021D01D
:2039C0001CB54FEA370703B44FF010004FF010014FF000000FBCBDE810400BF1010BBBF196
:2039E000010F08BF5FEA170722BF12F1010211F101014FF0004143F1000300F0004043EA8A
:203A000000007047F9D35708DAE746EA064613F1400F4FEA16461FDD13F1200FDFBF164379
:203A20000A46002120335B42C8D0C3F1200746EA064602FA07F74FEA164646EA0706C3F1B6
:203A4000200722FA03F201FA07F721FA03F14FF0000342EA0702B1E746EA020646EA064663
:203A60004FEA164646EA0106BCBF46EA0646360C4FF000034FF000024FF000019EE72DE9E3
:203A8000C048934630B491E8380007C831EA400C48BF34EA430C03D5FFF7F2FDFFF78CFFC8
:203AA000F0BCBDE800882DE9C048934630B491E8380007C810F0804F08BF13F0804F03D196
:203AC00000F005F8FFF778FFF0BCBDE8008820F07F4780EA030023F07F4C07EB0C03A3F5F9
:203AE0007C5300F00040A3F1FE0392F0000F00F0B38095F0000F00F077802DE901494FEA6A
:203B000011404FEA144621EA004800FB06FC24EA064708FB06F607FB08F800FB07F718EB19
:203B200006484CEB164C4FEA124B18EB07484FEA15464CEB174022EA0B4E0BFB06FC25EA18
:203B400006470EFB06F607FB0EFE0BFB07F71EEB064E4CEB164C4FF000061EEB074E4CEB31
:203B6000174B18EB0B0840F1000018EB0E0B58EB000840F100008F1A4FF000013CBFC94314
:203B8000661B14BFB5EB040C00213CBFC943F61B4FEA17444EEA8E0E27EA04454FEA1C478A
:203BA00004FB07622CEA074C05FB07F70CFB05F604FB0CFC16EB074642EB174216EB0C4606
:203BC00042EB1C421BEB060658EB0202414146EA9E0601D5BDE80189B619524141EB010116
:203BE000A3F10103BDE801894FEA14454FEA114724EA054621EA074C05FB07F406FB07F72A
:203C00000CFB06F105FB0CFC11EB074144EB17444FEA124711EB0C4144EB1C4422EA074C07
:203C200005FB07F206FB07F70CFB06F605FB0CFC16EB074642EB174216EB0C4642EB1C45CC
:203C40006A1854F1000148BF7047B619524141EB0101A3F10103704795F0000F37D04FEA2B
:203C600011424FEA144721EA024624EA074C02FB07F106FB07F70CFB06F402FB0CFC14EBB0
:203C8000074441EB17414FEA154714EB0C4441EB1C4125EA074C02FB07F506FB07F70CFB87
:203CA00006F602FB0CFC16EB074645EB174516EB0C4645EB1C42121951F1000148BF70471C
:203CC000B619524141EB0101A3F1010370474FEA14454FEA114724EA054621EA074C05FB2B
:203CE00007F106FB07F70CFB06F24FF0000605FB0CFC12EB074241EB174112EB0C4251EB30
:203D00001C4148BF7047921841EB0101A3F1010370470029816802D041F0010101E021F058
:203D200001018160704710B501210C02204600F053FB2046BDE81040002100F04DBBC06CB0
:203D400080B270470246002012680A4200D001207047000030B542680F4B0C791A400B6869
:203D600042EA04221343436082680C4B4D791A40D1E9034323438C6844EA4504234313430A
:203D80008360C26A097D22F47002491EC9B242EA0151C16230BD0000FFFEFFFCFDF7FFC0EB
:203DA00070B5072609290AD9C568A1F10A0404EB4404A640B543A3401D43C56007E00569FD
:203DC00001EB4104A640B543A3401D4305611F23072A09D2446B521E02EB820293409C439B
:203DE00091400C43446370BD0D2A09D2046BD21F02EB820293409C4391400C43046370BD86
:203E0000C46A0D3A02EB820293409C4391400C43C46270BD816841F0804181607047FEE73F
:203E20000029016802D041F0010101E021F00101016070472DE9F043016821F001010160B9
:203E40000021016041608160C1600161212141613C493C4A3D251039904202D18D60BDE80A
:203E6000F083384A4FF474661832904201D18E60F5E7344A4FF474173032904201D18F6037
:203E8000EDE7304A4FF0746C4832904202D1C1F808C0E4E72B4B2C4A6033984201D1CA60F5
:203EA000DDE7284C294B7834A04201D1CB60D6E7DFF89080264C08F19008404501D1CC60A1
:203EC000CDE7DFF880804FF03D5908F1A808404502D1C1F80C90C2E71E49DFF8788008390C
:203EE000404501D10D60BAE71A4D1835A84201D10E60B4E7174D3035A84201D10F60AEE75B
:203F0000144D4835A84202D1C1F800C0A7E7114D10496035091FA84201D10A609FE70D4A88
:203F20007832904201D10B6099E70A4A9032904201D10C6093E7074AA83290428FD1C1F892
:203F400000908CE7106002403D000020400F002000003D20106402400B0607D5436912B171
:203F600043F0800301E023F080034361802908D0002A026801F01E0101D00A4300E08A4380
:203F80000260704730B50368124ACC6813400A682243D1E905452C432243CC6922430C6A16
:203FA00022434C6A22438C6A22434C6B22438C6B22431A430260426922F00703D1E90B243F
:203FC00022431A4342610A6942604A6882608968C16030BD3F801CF07047000030B5044623
:203FE000002500F047F92CB1012C1CD0022C1DD04FF44075082815D10E4C206820F44070A7
:204000002060206828432060206840F004002060206840F48030206000F02CF9216821F0D6
:204020000401216030BD4FF48075E3E74FF40075E0E70000103C024070B50646002529B18E
:20404000012927D0022928D04FF4407500F012F908281ED1124C206820F440702060206858
:2040600028432060206820F0F8002060206846F0020108432060206840F48030206000F0DD
:20408000F9F8216821F002012160216821F0F801216070BD4FF48075D8E74FF40075D5E765
:2040A000103C02400B4908200A68D20301D5012070470A68D20601D5052070470A6812F091
:2040C000EF0F01D00620704709688907FBD50720704700000C3C02400248016841F00041D6
:2040E00001607047103C02400348017841F00201017000F0BFB80000143C024010B50446A9
:2041000000F0B8F8082801D10148047010BD0000153C024070B515460C46064600F0AAF830
:20412000082807D10449087800F00F0004432C4334430C7070BD0000143C024030B50D460B
:20414000044600F097F8082806D1044801880DB1A14300E02143018030BD0000163C0240D2
:2041600070B50D46064600F085F8082811D1094C206820F44070206020682060206840F01B
:2041800001002060357000F075F8216821F00101216070BD103C0240F0B515461E46074613
:2041A00000F068F8082814D10A4C206820F440702060206840F440702060206840F00100D3
:2041C00020603D607E6000F055F8216821F001012160F0BD103C024070B50D46064600F09B
:2041E00049F8082813D10A4C206820F440702060206840F480702060206840F001002060E3
:20420000358000F037F8216821F00101216070BD103C024070B50D46064600F02BF80828EB
:2042200013D10A4C206820F440702060206840F400702060206840F001002060356000F00E
:2042400019F8216821F00101216070BD103C024005480068002805DA034804490C3801607C
:204260000349016070470000103C024023016745AB89EFCD08B508208DF80000FFF712FF1B
:204280008DF800009DF800000128F7D09DF8000008BDF0B5002201274FF0030C0B6807FA09
:2042A00002F52B40AB422CD1066853000CFA03F4A64306600E79D0F800E09E4046EA0E0654
:2042C00006600E79012E01D0022E12D18668A64386604E79D0F808E09E4046EA0E068660A2
:2042E0004668AE43466045688E799640B6B235434560C568A543C560CC799C40C3681C4385
:20430000C460521C102AC9D3F0BD4B07DB0E9A40C90810B500EB8100016A0F249C40A14313
:204320000162016A1143016210BD0246002012690A4200D0012070474FF6FF71016000211D
:20434000017141718171C1717047FEE7FEE77047014908627047000000000E42704700006B
:20436000044A0029116801D0014300E0814311607047000030380240044A0029116801D001
:20438000014300E0814311607047000034380240044A0029116801D0014300E08143116045
:2043A0007047000040380240044A0029116801D0014300E081431160704700002038024021
:2043C000044A0029116801D0014300E0814311607047000044380240044A0029116801D08D
:2043E000014300E081431160704700002438024070B5204B1968204C11F00C0104D01F4E43
:20440000042903D0082903D004601BE0066019E0184A121F1168C1F38055116801F03F019B
:2044200015B1B6FBF1F101E0B4FBF1F114681268C4F388146143C2F30142521C5200B1FB60
:20444000F2F1016019680F2202EA11110C4A545C0168E14041601C68072505EA9424145D5F
:2044600021FA04F484601B6805EA5333D25CD140C16070BD083802400024F40040787D01F0
:20448000E409002002460020510901290BD002290CD00849096802F01F02012393400B4228
:2044A00000D00120704703497439F3E70149091FF0E7000074380240054900220A700A70E6
:2044C000012802D0042801D105200870704700007038024001490860704700003C0E474269
:2044E000C0F30121032907D1074B1968074A21F4F81102400A431A60034968310A68C0F38E
:204500000B0002430A60704708380240FFFCFF0F18B500204FF4A06400903120FFF7B2FFE3
:204520000099491C0091A14201D00028F5D03120FFF7A8FF002800D0012018BD010901EB79
:20454000810100F00F0000EB4100C0B27047002103E0491C0A38C9B2C0B20A28F9D20907E0
:2045600040EA11607047000070B50D4D06460024CA2028605320286000F07AF860B10848CA
:204580001C38016816B141F0800101E021F08001016000F08BF80124FF202860204670BD3F
:2045A00024280040F0B50B4D06460024CA200F4628605320286000F05BF830B105483E434E
:2045C0000C38066000F072F80124FF2028602046F0BD00002428004078B50025224ECA20C0
:2045E00000952C4630605320306000F041F8A0B31D48243805601C4942F201102039086014
:204600000B1D186800F0070018608C13191D0868009A00F00400521C0092A24201D00028D3
:20462000F5D0086840071CD518681D600E4A4FF6FF70103A1060121F0C4810600A480C38BF
:204640000560001D0560001D05600D6006481C30056000F02FFA20B10124FF203060204661
:2046600078BD0024F9E7000024280040FF007F0008B50D49002000900868400612D44FF059
:20468000FF3008608B130868009A00F04000521C00929A4201D00028F5D00868400601D486
:2046A000002008BD012008BD0C2800400248016821F08001016070470C28004010B51446CB
:2046C0000246B1F5807F29D016480168C1F305402070C1F30623637001F07F03A37040230B
:2046E00003EA1143E370C1F30563237301F0804301F08031C4E90113002A0ED1FFF71EFF41
:2047000020706078FFF71AFF6070A078FFF716FFA070207BFFF712FF207310BD0148001FB5
:20472000D3E7000020280040020010B50F480C4601680F4801EA00014FEA1140E070C1F38D
:204740000423637001F03F03A370C1F3423121700AD1FFF7F3FEE0706078FFF7EFFE6070C4
:20476000A078FFF7EBFEA07010BD0000042800403FFFFF00020010B510480C46016810488A
:2047800001EA0001C1F305402070C1F30623637001F07F03A3704FF0400303EA1141E1705C
:2047A0000AD1FFF7CBFE20706078FFF7C7FE6070A078FFF7C3FEA07010BD00000028004058
:2047C0007F7F7F0070B50D461E49144609681E4A11401C4A121D12684FF63F731A40C1F3E5
:2047E00005432B70C1F306236B7001F07F03AB70402303EA1141E9700021E170C2F3042149
:20480000617002F03F01A170C2F342312170002817D12878FFF792FE28706878FFF78EFE9B
:204820006870A878FFF78AFEA8706078FFF786FE6070A078FFF782FEA0702078FFF77EFE20
:20484000207070BD302800407F7F7F0070B5124D04460026CA20286053202860FFF708FF28
:20486000A8B10D481C38016821F04001016001682268114301600848A16814380160016803
:20488000A28841EA02410160FFF710FF0126FF202860304670BD00002428004008B5034914
:2048A00001EB80000090006808BD00005028004070B50D4D06460024CA20286053202860BB
:2048C000FFF7D6FE60B108481C38016816B141F0100101E021F010010160FFF7E7FE012483
:2048E000FF202860204670BD2428004070B514460D46264A0021002810684FEA406005D041
:2049000000281CDA2078FFF719FE19E0002800DBE1702078FFF71BFE06046078FFF717FEF3
:2049200046EA0026A078FFF712FE0643E07846EA0046207BFFF70BFE46EA006010E0E17081
:20494000207BFFF7FBFDA0782178E27840EA01406178090241EA02410843217B40EA016094
:20496000A168CA2208436168084308491C310A6053220A60B5F5807F04D00A1F1060FF20C7
:20498000086070BD014A1432F8E700000828004070B50C4600260100607810D0FFF7CEFD8B
:2049A000A078FFF7CBFDA078E17840EA0145607821784FEA002040EA4130054315E0C106D7
:2049C00003D520F010000A306070E078FFF7BFFD05046078FFF7BBFD45EA0025A078FFF7DA
:2049E000B6FD0543207845EA40350B4CCA20206053202060FFF73CFE50B1084805400648B8
:204A000020380560FFF752FE00F054F800B10126FF202060304670BD242800403FFFFF0074
:204A200070B50C460026214B01002078196832464FEA416104D000292CDAFFF77FFD2AE081
:204A4000002900DBE270FFF782FD05046078FFF77EFD45EA0025A078FFF779FD0543E078C1
:204A600045EA0045114CCA201C34206053202060FFF7FEFD50B10E4805400C480838056032
:204A8000FFF714FE00F016F800B10126FF202060304670BDE270A078217840EA01456078AB
:204AA000E178000240EA01400543DBE7082800407F7F7F0018B500200F4B0090CA20186000
:204AC000532018600C491839086820F0A0000860CC130868009A00F02000521C0092A242E0
:204AE00001D00028F5D00868800601D5012000E00020FF21196018BD2428004008B5034A07
:204B000002EB80000090016008BD000050280040704770470E4810B5016841F00101016034
:204B20000B4A00210832116002680A4B1A400260031D094A1A60026822F48022026004481C
:204B40000C30016001F0BEF805490448086010BD00380240FFFFF6FE103000240000060864
:204B600008ED00E00029018802D041F0010101E021F0010101807047002930F8441F02D0F7
:204B800041F4004101E0C1F30E0101807047000030B5028C22F001020284028C8388048B8D
:204BA00022F0020224F073050C882C438D8915434A882A430C4DA84202D00C4DA8420DD16D
:204BC00022F00805CA8923F440732A4322F004058A882A430D8A1D434B8A2B4383800483CE
:204BE00089684163028430BD00000140000401404163704730B50288164C174DA0420DD0D8
:204C0000A8420BD0B0F1804F08D0144B984205D0134B984202D0134B984203D122F07003DE
:204C20004A881A43104B984206D0104B984203D022F440730A891A4302804A68C2620A888F
:204C40000285A04201D0A84201D1897A01860121818230BD000001400004014000040040F8
:204C600000080040000C00400010004000140040004870474001002010B50CF0D7FC0020E8
:204C80000BF064FC00220323114610460BF040FC00220323114610460BF092F801220A21C5
:204CA00004200AF01DFD00220323114610460BF027F803230022BDE81040114610460BF0C8
:204CC0004FB800207047000000487047540100200048704754010020704700207047000080
:204CE00004480068042801D0034870470248143870470000340000209400002000487047AD
:204D0000B400002000487047D400002000487047F000002010B503F0C7FD012232210020AB
:204D20000AF0DEFC0122322110460AF0D9FCBDE81040002002F076BA144810B54FF6FF71F7
:204D40008180C1804FF0FF3101600122322110460AF0C6FC0122322100200AF0C1FC00224A
:204D60000323012110460BF0D7F864200AF06AFF074800680022C0F3003080F0010403238D
:204D8000114610460BF0C8F8204610BD780000201008024000487047140300200048704751
:204DA000240300200048704724030020154810B5016821F00301016012480C30016821F055
:204DC000030101600F48001D016821F001010160001D016841F0030101600BF045FC0022A3
:204DE0000323114610460BF0C9FD0122642102200AF076FC01223221BDE8104003200AF061
:204E00006FBC0000000402400E4810B5002101614161FFF7CBFF00220323012110460AF067
:204E2000F3FF64200AF00EFF074800680022C0F3C02080F001040323114610460AF0E4FF64
:204E4000204610BD480100201004024000487047040300200048704724030020704700201D
:204E60007047000000487047480400207047000000487047140100200048704714010020F1
:204E800010B50122322100200AF02AFC0122322110460AF025FC00220323114610460BF0C0
:204EA0004BFD03230022BDE81040114610460AF009BF0000154810B50021416001223221A4
:204EC00000200AF00DFC0122322110460AF008FC00220323114610460AF0F4FE00220323BC
:204EE000012110460BF028FD64200AF0ABFE084800680022C0F3401080F001040323114624
:204F000010460BF019FD204610BD00000C0100201008024010B5084C2068002809DA0CF0C8
:204F2000F1FC20600CF0EAFC002802DD2068401E2060206810BD00000C0100200048704734
:204F4000140100200048704738040020004870473C04002000487047400400207047002028
:204F60007047000000487047680300200048704774030020004870479C030020004870479D
:204F8000AC03002070B50D4C0025502125600C486560FBF71AFFA06820B90122322100200E
:204FA0000AF09EFB012232211046A5600AF098FBBDE87040002002F035B900003803002050
:204FC0002053002070B5114D114C287818B100200AF076FCB0B1002100200AF0B1FA002002
:204FE0000146A0600CF0ACFD2168C1EB8111014489112160642803DC0A2805DD287818B1B6
:20500000012070BDFA21E7E7002070BD0100002038030020004870472C0400200048704742
:2050200058030020004870472004002000487047D803002000487047140400200048704782
:205040006003002038B5224B1888224910F00A0F03F104020FD0030703D58B6803F10103A9
:205060008B60800703D5486800F10100486010881088009038BD18888006FBD51088C3B2E4
:205080001548D0F80C080028F4D0134800F50062D0F800084FF40064A04215DA0E490E4D3F
:2050A00001F60400D1F804186B540168491C0160A14203DB29460020C1F804080648D0F8F7
:2050C0000008401C106038BDC868401CC86038BD00440040D00900205C63002018B51A4BD0
:2050E00018881A4A10F00A0F03F104010FD0030703D5D36803F10103D360800703D590681C
:2051000000F10100906008880888009018BD18888006FBD508885168C0B20429F6D10C492E
:205120000B6C402B0CDA4A6C8854486C401C4864402801DB00204864086C401C086418BD38
:205140001069401C106118BD0014014064080020B05700200029818902D041F4005101E0C0
:2051600021F4005181817047002A828A01D00A4300E08A438282704710B5C1F3421301F095
:205180001F040121A140012B07D0022B07D01430002A026805D00A4304E00C30F8E71030A9
:2051A000F6E78A43026010BD7FB50446008A0D46C98820F4405001432182A08941F20C6116
:2051C0008843A9882A8911436A8902431143A181A08A20F44071A8890843A0826846FFF7ED
:2051E00007F91D48844202D01C48844201D1039800E00298A1890904002900EBC00101EBA9
:205200000010296802DA4FEA410101E04FEA8101B0FBF1F06422B0FBF2F14FEA01114FEAD6
:2052200011136FF018056B4300EB8300A3891D044FF0320306D503EBC000B0FBF2F000F0EB
:20524000070005E003EB0010B0FBF2F000F00F00084320817FBD000000100140001401400A
:205260000029818902D041F4004101E0C1F30E0181817047FEE700000748016840F2A910CE
:205280001A2905D0192903D041F2040102F0BEBE4FF47A61FAE7000034000020014901207D
:2052A000087070470200002010B5084C207800280AD101214020FFF75FF80548016841F033
:2052C000040101600120207010BD0000CC0900200008065010B50024012000F001FB00227F
:2052E0001146FBF747FB044603E0FBF71BFFFBF77BFF24B12046BDE81040FFF7B7BD4FF4A1
:205300007A70F8E710B5012000F0EAFA0446FBF7D2FB0F280CD30BA001F098FA0420FBF7A7
:20532000D1FE40F2F521016000220C49FBF7A2FF21460B48FBF786FBBDE81040002002F0B7
:205340008BBA00004C6F7420636F646520697320746F6F206C6F6E670A000000783007081F
:20536000F40900202DE9FC41002632240CF070F900220323022110460AF0C2FC002203231B
:20538000114601200AF0ECFC284808210183012000F010FE26A001F059FA00960AF020FCC1
:2053A0000546294F0FE00021684601F0A3F8002000F000FE0AF014FC401BB84203D923A0D4
:2053C00001F044FA02E00098A042ECD328A001F03DFA01960AF004FC0546294E0FE001A9A7
:2053E000002001F087F8002000F0E4FD0AF0F8FB401BB04203D923A001F028FA02E00198C5
:20540000A042ECD328A001F021FA0CF00FF900220323114610460AF073FC00220323114616
:2054200010460AF09DFCBDE8FC8100000000024057616974696E6720666F72206275747406
:205440006F6E2E2E2E0A0000404B4C004552524F525F4241434B5041434B5F42544E5F50F9
:20546000524553535F54494D454F55540A00000062746E20707265737365640A00000000FB
:20548000E06735004552524F525F4241434B5041434B5F42544E5F52454C454153455F5421
:2054A000494D454F55540A0062746E2072656C65617365640A0000002DE9F04180461E48E9
:2054C000069D1C46007816460F4610B91BA001F0BDF9404601F0BAF90C2100F03BFD384676
:2054E00001F0B4F9102100F035FD002E04DD314613A001F0ABF905E001D113A000E013A0F0
:2055000001F0A4F90A2100F025FD0CB1204600E010A001F09BF90F2100F01CFD1DB1284613
:2055200001F094F900E00020002100F013FDBDE8F04109A000F060BE3000002020200000AF
:2055400030782530365800003000000053495A45000000006E6100000A00000010B586B081
:20556000002810D081780DF1040C44790379C278ACE81E0041780091037804A212210B4806
:2055800008F057FF094806B010BD0000253032783A253032783A253032783A253032783A05
:2055A000253032783A253032780000006C6B002070B5050005D0287801F096FD80F0010424
:2055C00002E0002070BD641C284608F00BFF0500F9D1204670BD00002DE9FF5F0546034642
:2055E0000C464FF4FA7624A0029A01F02FF90AF035FFB04630460AF031FB07220121002002
:2056000004F0F6FC07460AF0EBFA824643F6095005FB00F64FEA8019C34627E04DB15046B2
:205620000AF027FBB0EB861F03D3022004B0BDE8F09FDDE902125A2008F0F2FD8046504697
:205640000AF017FBB0FBF9F112A001F0FFF80AF005FF58460AF002FB07220121002004F01D
:20566000C7FC07464046B8F1020FDFD1002CD5D0A742D3DB0020D9E77265636861726765A1
:205680002C256463562C25646D412C2564730D0A00000000746F74616C206368617267654C
:2056A0002074696D653A202564730A0070B50D46064601F065FD041E0ADD4EB1A54201DADA
:2056C000294600E001460A4602493046FBF75DFA204670BD04400240F8B50D0006461ED0CD
:2056E00000272F60AF80D6B13046FBF7E4F9112815D330462C46113607E010226946FBF7EF
:2057000039F904F8010B0098401CB04202D2611B0629F2DB601B062801D02F60AF80284677
:20572000F8BD00000F4810B52021418344F620600AF088FA00220323114610460AF0B8FBBB
:2057400000220323114610460AF080FB00220323114610460BF034F9BDE81040C8200AF0EB
:2057600071BA00000008024038B502460421012009F0C4FA04466A460C21012008F080FFC3
:2057800004436A460C21002008F07AFF2043012809D00420FBF796FC4FF4D371016000223D
:2057A0000249FBF767FD009838BD00007830070817B5084381B0812141EA4000009000F02F
:2057C0001E0000F0DFFBC00703D0009840F0200000906946082005F061F906F0A3FC0446CA
:2057E000012804D006F00CFC204604B010BD03A9202005F053F900200090039800F0C2FBA2
:20580000C00701D0012000906946012005F046F90120EAE777B583B00646144604A8FBF7A6
:2058200067FB0546002028760CF0FCF8024604B906A4CDE900540EB1304600E003A0014655
:2058400003A0049B01F002F806B070BD0000000025732C25692C25303130752C25732C257A
:20586000732C0A0010B50024012000F039F800221146FBF77FF8044603E0FBF753FCFBF712
:20588000B3FC2CB10221032009F05AFE05A005E001223221032009F023FF07A0BDE810400B
:2058A00000F0D4BF4455545F50524F4720656E61626C65640A0000004455545F50524F4768
:2058C0002064697361626C65640A000003490248096801607047000088080020004000084F
:2058E00002460D4810B50078824209D30420FBF7E9FB40F2EF21016000220849FBF7BAFC76
:205900000021074804E003780BB9491CC9B2401C9142F8D110BD00008C08002078300708E4
:205920005C6200202DE9F041DFF888800546002041464FF4002317E00830984214D31EA05D
:2059400000F084FF21A000F081FF4DB10420FBF7B9FB40F2F621016000222249FBF78AFC2C
:205960004FF0FF30BDE8F08101EBD0021278002AE2D008EBD00100240978012601E0641C8E
:20598000E4B206FA04F20A42F9D0071985B1FEF75FFCA640F043C1B208EBD700FEF7E0FB9A
:2059A000FEF79AFB10483A46016810A000F04EFF3846D7E700000108666978747572655390
:2059C000657175656E63652C2D310A004552524F525F4F55545F4F465F53455249414C5306
:2059E0000A00000078300708FC3F00086669787475726553657175656E63652C25692C2558
:205A0000690A00002DE9F041012196B003253F4E00243F4FDFF8FC800846FEF7A1FC0121A8
:205A2000C804FEF7B5FC01214805FEF799FC02208DF850008DF852408DF8510013958DF8EA
:205A4000534013A93046FEF724FC082200213046FEF75BFC082201213046FEF756FC002135
:205A60003846FFF777FB2C480F90ADF844400C20ADF84040ADF84600ADF84240ADF8484074
:205A800001213846FFF7ECFB0FA93846FFF78CFB01213846FFF75EFB46464046FEF7CAF91D
:205AA0004FF000600090381D01901C48CDE902048020CDE90404C000CDE906048010CDE98D
:205AC00008400AA9280431C10D94694630460E94FEF758FA012240213846FFF745FB0022A4
:205AE00010213046FEF738FA01213046FEF798F90B48017819B1407808B1012000E0002092
:205B00000849487016B0BDE8F081000000000240004C00404060024040420F00DC61002002
:205B2000050000208C0800202DE9F0470027DFF8C0803E4631462FA00AF0D4FE00240F2315
:205B4000F0B243F6FF72D8F8001007F047FF05462BE0FBF7E7FA00250468FBF745FB24B319
:205B6000B4F5BA7F21D0214631A000F06FFE02F0D9F90028FBDA0AF033F88246DFF8E090C8
:205B800005E002F0CFF9002801DB00240DE050460AF06FF84845F4D33CB10420FBF792FA77
:205BA000002230490460FBF765FB002D10DDD8F800000021324641552B4801682BA00AF0DA
:205BC00091FE3CB132A00AF043FE34A00AF08AFE2CB902E0D8F80000F5E7002D04DC7F1CCB
:205BE000012F01DB012E01DC761CA3E7BDE8F087982907082A2A2A2A2A2A2A2A2A2A2A2A8D
:205C00002A2A2A2A2A2A2A2A2A2A2A2A206C6F672569202A2A2A2A2A2A2A2A2A2A2A2A2A5A
:205C20002A2A2A2A2A2A2A2A2A2A2A0A000000004C4F472052454144204552524F523A206A
:205C40002569202D2D2070726573732061206B657920746F20617070726F76650A000000DB
:205C6000C0C62D0078300708205300203C666C65783E206C6F67206C6F67646C5F2530387E
:205C8000785F6C6F6725752E6C6F670A000000006E6F7420666F756E640000000A3C2F666F
:205CA0006C65783E0A00000010B50120FFF718FEBDE81040014A02A1FAF796BD2C000020EE
:205CC000256900000CB50022204900920192086840F480300860086800F40030019000984C
:205CE00000F10100009001980028F4D00868800329D501200190154808300268026002682F
:205D000042F400420260026842F4A0520260031F0F4A1A600A6842F080720A600A689201BB
:205D2000FCD50C4940F203720A60016821F003010160016841F0020101600168C1F38101B0
:205D40000229FAD10CBD0192FEE7000000380240193C4005003C024070B5FEF779FA0021CC
:205D60000820FEF769F9074D074E0024A019295DFEF7F6F9641C042CF8D3BDE87040FEF7EF
:205D8000ABB90000880800200040000810B5002108460BF0D5FE01460246BDE8104001A080
:205DA00000F054BD49203D2025692C2025580A0010B5002108460BF0F7FE01460246BDE863
:205DC000104001A000F042BD56203D2025692C2025580A00FF2140F2EE22012000F026BA5C
:205DE00070B5174E05460C46F06909F042FF47F23051884223D909F0F3FEF06100220821E3
:205E0000012007F089FD4068002801DD012000E000204FF6FF7335B150B129681A469142B3
:205E200000DA4A1C2A60002C09D018B1002305E00022F7E72068984200DA431C236070BD77
:205E400038030020F0B58DB004460D46DDE91210DDE91476C0B200940590C9B2DBB2CDE9D7
:205E60000331D2B2CDE90152334621A2162106A808F0DFFA34212748FAF7A7FF264E21017E
:205E800010317068FAF77FFF2448224950F8250088600CB1302D0FD330232A46214620A068
:205EA00000F0D4FC0420FBF70DF940F2FB21016000222649FBF7DEF9384603F035FC034612
:205EC00000212348CDE9000104EB84004FF4FA7101EB400206A9032007F008F9204603F00D
:205EE00051FA10B100200DB0F0BD7068FBE7000025732025303278202530327820253032D5
:205F00007820253032782025303278202530327800000000984E0020540000205C2807089F
:205F20004241445F4152473A206363635F4D6F744765745F2829204E4E3D25692073656E92
:205F4000736F723D25693E3D25690A0078300708818A060870B5044608480D46007848B1BC
:205F6000BDE87040064800F047B90548001D00F043F9641CAC42F8DB70BD0000300000203A
:205F8000642307080849094A01EA5001411A02EA9000081A064900EBD00008403F21B0FB35
:205FA000F1F201FB12007047DBB66DDB49922449C7711CC710B5124C28B10BF01FFF0020C8
:205FC0002060606010BD206830B109F009FE2168401A0C4988420AD909F002FE2060606825
:205FE000401C062190FBF1F201FB120060600648616850F82100BDE8104096210BF082BF7A
:206000002801002090D003003C2907082DE9F041254C264F16460D46C00717D020681A280C
:2060200004D0192802D00125002407E00A25FBE754B100211E4807F095FC641CAC42F7DBE3
:206040000020386178612BE03146F3E7386928B109F00FFEA84201D878690AE009F0C0FD8E
:2060600038617869411C042901D3012000E0401C7861B9690E4A884205D000EB400002EBE1
:206080008000314609E021681A2901D0192906D100EB400002EB8000002107F063FC78697A
:2060A000B861BDE8F081000034000020380300201C2A070838B50C4602460421012008F0E8
:2060C0001DFE054622460C21012008F017FE40EA05046A460C21002008F0D2FA204338BD4B
:2060E00070B540F6746540F6D27416A000F0AEFB0AF0B4F94FF4FA7009F0B0FD072201215C
:20610000144803F075FF13494C39A842886405DA0420FAF7D7FF40F26D210CE00E490968C7
:20612000212901D022290BD1A04209DD0420FAF7C9FF40F26F21016000220849FBF79AF85E
:2061400070BD00006261747465727920636865636B0A00006C530020340000207830070805
:2061600070B50220FFF7BCFB072211A1FAF7C2FC68B90120FFF7B4FB00221146FAF7FAFB5B
:20618000051E04DB08E0FAF7CDFFFBF72DF8BDE8704009A000F05ABB014610A000F056FB06
:2061A000002402E00BF0CEFA641CAC42FADB70BD73657269616C7300696E76616C696420AC
:2061C000666F726D61743A20226275726E20232073657269616C73220A0000006275726ECA
:2061E000696E672025692073657269616C206E756D626572730A000010B50146074C00206E
:20620000221F06E0238001F1010113881B06FCD5401C0B78002BF5D110BD0000044C004006
:2062200000F0DEBD0021084600F084BE10B514460A460146022007F051FB2046BDE81040BC
:2062400009F00CBD10B50BF043FB0246074808490068884202D10748C36900E0064B074896
:206260000168BDE8104006A000F0F0BA3C310A081E0DB0CA00000608DEC0AD0BFC3F0008B5
:2062800073657269616C2C25692C25732C25690A000000002DE9F041374C38A12046FAF742
:2062A000F5FB384D002678B137A12046FAF7EEFB05F1100758B136A12046FAF7E7FB30B1FB
:2062C0000120287020461CE06E70BDE8F08131A0FFF792FF002404EB440057F8201033A0AE
:2062E00000F0B4FA641C192CF5D3BDE8F04130A0FFF782BF202903D106702978491C297064
:20630000401C01780029F5D100263546B84605EB450108EB810721463868FAF7B7FBD0B936
:206320007868C0B1387A012610B12248007818B178680025804709E0BDE8F0411EA000F08E
:2063400085BAFAF7EFFE0568FAF74EFF29461FA000F07CFA02E06D1C192DD8D3002EB4D1D2
:2063600007A12046FAF784FD0028AED02146BDE8F04119A000F06ABA5C6200206578697455
:20638000000000008C08002068656C70000000003F000000417661696C61626C6520636FEE
:2063A0006D6D616E64733A0A00000000202025730A000000010000204E6F2064657669632E
:2063C000652070726573656E740A00007374617475732C25690A0000556E6B6E6F776E20B5
:2063E000636F6D6D616E643A2025730A0000000004F0DABD3EB504460A25002009F07CF83E
:206400004FF47A70B4FBF0F100FB114307A22946684608F00EF8034601217222084600F06F
:2064200031FE044809F00EFC3EBD00002530336900000000400D0300A0B141790322B2EBD5
:20644000911F0FD101684A1C01D031B108E080880549B1EB804F05D002E08088800401D06D
:2064600001207047002070470000FCFF04490548091A132901DB006970474FF0FF30704758
:2064800038720908685209082DE9F041184C8046A4F10C056868082825DC00231A4619467C
:2064A000404608F0F7FA00F003FC696844F82100F9F7A8FF0746006840F2931608B13046FA
