:020000040000FA
:1000000028090020F5000000070100000901000098
:1000100000000000000000000000000000000000E0
:100020000000000000000000000000000B010000C4
:1000300000000000000000000D0100000F010000A2
:100040001101000011010000110100001101000068
:1000500011010000000000008902000011010000F1
:100060001101000011010000110100001101000048
:100070001101000011010000110100001101000038
:100080001101000011010000110100001101000028
:100090001101000011010000110100001101000018
:1000A000110100001101000000000000000000002C
:1000B0000000000000000000000000000000000040
:1000C0000348854600F0ACF800480047750D000075
:1000D00028090020401E00BF00BF00BF00BF00BFB6
:1000E00000BF00BF00BF00BF00BF00BF00BFF1D115
:1000F00070470000074802680F210A430260064863
:10010000804706480047FEE7FEE7FEE7FEE7FEE71A
:10011000FEE700002405004081030000C10000004C
:1001200030B50B46014600202022012409E00D468F
:10013000D5409D4205D31D469540491B2546954017
:1001400040191546521E002DF1DC30BD70B500245B
:100150002546002801DA01244042002901DA012560
:100160004942FFF7DDFFAC4200D04042002C00D0F6
:10017000494270BDF8B500242546A14204DA0E4676
:10018000012400214042B141002B04DA1E46002325
:1001900052420125B34100F013F88C4617461E4623
:1001A000AC4203D0002540428D41AC46002C02D029
:1001B000002657429E4161463A46334601B0F0BDA3
:1001C000F0B51FB40646002082B0054640240191D8
:1001D00000901BE0019922460F46304600F042F89D
:1001E000049A059B801A994110D31046194622465D
:1001F00000F028F8361A8F4101972246012000218D
:10020000009F00F01FF838184D4100902046641EF2
:100210000028DFDC019B00982946324607B0F0BD7C
:10022000064C0125064E05E02046E36807C82B432F
:1002300098471034B442F7D3FFF746FFA40E0000EE
:10024000C40E000010B5202A04DB0146203A91407C
:10025000002010BD914020239C1A0346E34019431F
:10026000904010BD10B5202A04DB0846203AD0404B
:10027000002110BD0B46D340D0402024A21A91404B
:100280000843194610BD000036490020C8633649AE
:100290000869364A1368984263D0F0B5354B344F3D
:1002A0009C68A6469C6AA446304A044611681060C1
:1002B000314A4140526812020E0509D55A670605B7
:1002C00011D401267604FE62460514D410E0DE66E1
:1002D000CE0614D55A65C6061ED4012676043E61A4
:1002E000C60021D41DE003263604FE62460502D571
:1002F000DE6E4F3EEBE7DE6E4F36E8E7DE64CE02A1
:1003000019D55A61DE687644DE60C6020FD4012634
:100310001A4D76042E610EE0032636043E61C600B7
:1003200002D5DE6C463EE9E7DE6C4636E6E703269C
:10033000124D36042E61C9010ED55A63D96AC00127
:100340006144D96204D401200C494004086203E0EE
:1003500003200A490004086203480069A042A3D1AF
:10036000F0BD7047406100400005005018000020BB
:1003700000070050200000200015014040070050F9
:10038000044903484860C813034988617047000066
:10039000DFFF07C000050040006C0040F8B5334D9A
:1003A00000221146284600F01BFB314C042202219A
:1003B000204600F015FB2F49FF20086001222A602B
:1003C00022602D4D901EA8602C49402008602C4BC7
:1003D0001968FF242404A143040421431960294916
:1003E000086029490020C863284B1C6949066960D8
:1003F000014627484A011018027801231D46234E62
:100400009540F56045781F46AF40F76085781F46F8
:10041000AF40F7601F4D920052191360427892006E
:10042000521913608278920052191360427926465D
:1004300093401E4209D003263604920052191660DA
:10044000154E32681A43326004E001235B049200C7
:10045000521913608079FF2803D0002280004019D0
:100460000260491C0429C4DBF8BD00000090004074
:1004700000A0004000F501400063004080E200E081
:1004800004E400E000E100E04061004000050050AD
:10049000200000200007005018000020F8B50127B8
:1004A000484D0820A86048490C200F603903E960D6
:1004B00046490F603902A960454A20211760121D84
:1004C00010600806E86043480760A960424807607A
:1004D0000026001D066041480660001D0660404879
:1004E000C76340480A2141600760802000F004FB98
:1004F0003D4C20680028FCD03C4847603948806863
:10050000E121090148433A49FFF70AFE0104081AAC
:10051000010C0004374A0023FFF72CFE364900F097
:1005200001FC0904000C354E08437062012000F004
:10053000E3FA20680028FCD02C4901204860294FAC
:10054000B868E121090148432949FFF7E9FD0104A1
:10055000081A010C0004274A0023FFF70BFE284964
:1005600000F0E0FB0904000C0843B062022000F038
:10057000C3FA20680028FCD01C4901204860B868F4
:10058000E121090148431A49FFF7CAFD0104081A8D
:100590000024010C0004174A2346FFF7EBFD18491D
:1005A00000F0C0FB0904000C0843F06228691549FB
:1005B0008005C00F08741448C470802000F09CFAB5
:1005C000F8BD0000000500500C0700503007005037
:1005D00020070050740700501407005068070050AF
:1005E000C07F004000750040007100400070004076
:1005F000FF03000018FCE703F4E80000A40000205B
:10060000C1200300C4000020A000002001480078A1
:1006100070470000A000002070B5274D1C201E214F
:10062000285E695E0124884205D13C203E21285E77
:10063000695E88420BD0214E7460F460204900202E
:1006400000F00AF91F49012000F006F934601E4845
:100650001C211E22415E825E914206D11B481C2154
:100660001E22415E825E91420BD0194E7460F4608E
:100670001849022000F0F0F81749032000F0ECF8C8
:100680003460002000F0E4F9144C6060012000F0B8
:10069000DFF9A060022000F0DBF9E060032000F049
:1006A000D7F92061E8686061E86AA061E86CE06100
:1006B000E86E206270BD0000200000200090004025
:1006C00040950040449500406000002080000020DC
:1006D00000A0004040A5004044A50040A400002028
:1006E000F8B550480068504D00280CD04F4C504A87
:1006F000E0785049504F002600280AD0012822D027
:10070000022850D0E67028694C498005C00F087453
:10071000F8BD9068E12212015043FFF701FD01048A
:10072000081A010C0004464A0023FFF723FD45493F
:1007300000F0F8FA0904000C08437862012000F088
:10074000DBF901202DE09068E12212015043FFF710
:10075000E7FC0104081A010C0004394A0023FFF7E2
:1007600009FD394900F0DEFA0904000C0843B862BB
:100770002178002910D1354988420DDA60783C286B
:1007800002D2401C607008E001200003E860001104
:10079000E8600820E86000E06670022000F0ACF934
:1007A0000220E070AFE79068E12212015043FFF7AA
:1007B000B7FC0104081A010C0004214A0023FFF7CA
:1007C000D9FC214900F0AEFA0904000C0843204985
:1007D000F862884201DD012000E000202178884293
:1007E00001D1A67018E0A1781E2902D2491CA1707F
:1007F00012E020212070002805D0C801E860001117
:10080000A860E96008E0A9601248FFF763FCFF20D8
:100810000130E8600001A860802000F06DF9E6700A
:1008200071E700000071004000050050A0000020AA
:1008300000750040FF030000A4000020C400002059
:1008400018FCE703F4E80000C1200300636603001E
:100850006266040010270000F0B48C46484A41014B
:100860008A181C21484D515E8300464C5B190126B5
:10087000002902D00BDD01250AE0444818611078F8
:1008800031468140E16050788640E6605CE00025BA
:100890003F4FD1788000C0198D4229D03B49196162
:1008A000177801263546374CBD40E560547831460F
:1008B000A140344CE16091788E40E66011790029C6
:1008C00003D000201071F0BC70472E4C0121A560B0
:1008D000304C1C6100BF00BF00BF01603802C01C6B
:1008E000132109040843186100BF00BF00BF2BE0BB
:1008F0009168002901DD4942916024491961157808
:1009000037462049AF40CF6055783446AC40CC6084
:1009100097783146B9401B4FB9601179012902D04F
:100920001671F0BC704717498C601A49196100BFF5
:1009300000BF00BF06602802C01C13210904084341
:10094000186100BF00BF00BF9068002805DD1C21B2
:10095000515E002909DA40429060002805DA1C2126
:10096000515E002901DD40429060908BD08300B23F
:10097000002800DA404261460860F0BC7047000081
:10098000200000200005005000650040001F03000B
:1009900000600040031F0100F8B5044600780028FD
:1009A00016D00C4E0C4D27783078641C00280CD0E3
:1009B0007078002802D1012000F0B6F80748C7611E
:1009C000E8690128FCD10020E86120780028EAD1FC
:1009D000F8BD00000200002000210040002500407A
:1009E00030B401254560052300241B02C3185C6058
:1009F0009C601C61C56015239B01C3181C605C6072
:100A00000F4C9C60DC600C246B021C500346D4002D
:100A1000FF330C4A4133A21813610B4B8900CB18EA
:100A200053610446FF3449349461D361231F136238
:100A3000064BC9185162201D9062D16230BC7047CC
:100A40001F03000000F5014000600040046000400A
:100A5000184970B54001401817494968174B0A02F8
:100A60004169521A9A4202D98161C168016145699E
:100A700081690369691ACA09C168CB1A002A03D0BF
:100A8000002B03DA5C4202E0002070BD1C46816846
:100A9000002900DA49428C4202DD8561C1680161AA
:100AA000D81701041C0C18042143D317FFF762FB6D
:100AB00070BD00002000002000150140E8991900D9
:100AC00010B50A46044629211046FFF73FFB0749A7
:100AD00000B2884201DB481E03E00549884200DC81
:100AE000481C044A61018918888310BD1F03000057
:100AF000E1FCFFFF2000002008494A68FF231B0299
:100B00009A434A604A68000202434A60044900204E
:100B1000086004490120086070470000007500402B
:100B2000007100400070004070B5044601200C497F
:100B3000821E0C4B0C4D002C04D0C8604A6198609A
:100B4000286007E00C262E601860084D0023AB607B
:100B50004861CA601420FFF7BDFA0548447070BDB3
:100B60000025004000200040040700500021004004
:100B700002000020F8B504463948002700781546E1
:100B80000E46002817D05020FFF7A4FA354A781EE9
:100B900050610220D0603448012101600020002C07
:100BA00009DD324B315CD161D9690129FCD1DF61AA
:100BB000401CA042F6DB2C4807600020294EC043B1
:100BC000F0600A20FFF786FA02207061284840682A
:100BD00006022648876000212F70002C22DD204A63
:100BE000244B12780746B86801280AD0002A05D09D
:100BF0001F4840680002801B98421ED8B868012830
:100C0000F4D10020B860174880690029C0B215D01F
:100C1000012917D0022919D003291BD06854491C77
:100C2000A142E0DB48200E4C28702078002804D137
:100C30001148FFF74FFA01202070F8BD48280BD16A
:100C40000121EDE7FA2807D10221E9E7F32803D1D2
:100C50000321E5E7202801D00021E1E70421DFE7B7
:100C6000010000200025004008070050002100403E
:100C700000150140844501008813000010B50548A7
:100C8000FFF728FAFF2104480131C16009018160A2
:100C900010BD000010270000000500500849012089
:100CA000C863094A07495162084B0021D9620423ED
:100CB0001360074A9060106006488160704700002A
:100CC000C02F00409999990500250040402500401B
:100CD000002000400021004010B40C4800230360B5
:100CE00001228405226001680029FCD00848826343
:100CF000084902208861A2600748C2630748426031
:100D0000826007498B60026010BC704700010040A0
:100D10004000004000050040C01F0140001001409D
:100D200000150140F0B404148BB2264682B25E4333
:100D30000D141046371458433604801900217941A8
:100D400016466E43371436048019794126466E43A1
:100D50008919F0BC704702E008C8121F08C1002AB8
:100D6000FAD170477047002001E001C1121F002A2C
:100D7000FBD170470025FFF791FBFFF7ADFFFFF7B1
:100D80000DFB37A0FFF708FE3A4F786801023A489A
:100D90007A681202521A8242FAD338A0FFF7FCFD99
:100DA000FFF77CFFFFF76AFF37494220087037489A
:100DB0008421C177364901200860091D0860354942
:100DC000C004C86042108A607868334C0602002074
:100DD0002070FFF71BFC002804D122462A4940203E
:100DE000FFF7C8FE2178482911D00121294889043C
:100DF00081604900C1606D1C0A2D25D90024E0B234
:100E00000021FFF75DFE641C042CF8DB1CE00025CC
:100E10002C462148610008180421415EE0B2FFF72A
:100E20004FFE641C042CF4DB01201A498004C860C6
:100E30004300CB60194A1078401CC0B210702828BB
:100E400002D98B6000201070FFF7E6FBFFF748FC2B
:100E5000134879680902891B8142FAD3B4E700007C
:100E60000D0A556E627269636B206D65206E6F7737
:100E70002E2E2E0000150140C4004000746F6F201C
:100E80006C617465210D0A00A4000020C4000020DC
:100E90004807005000050050E4000020000000203A
:100EA000C2A20000C40E000000000020A400000048
:100EB000560D0000680F0000A40000208408000008
:100EC000660D000000000000303132333435363713
:100ED000383941424344454600000000000000000C
:100EE00000000000161517000014FF0004000000A9
:100EF00000000000000000000000000000000000F2
:100F000000000000100F11010018FF000400000095
:100F100000000000000000000000000000000000D1
:100F2000000000001E19000100041C004600000023
:100F300000000000000000000000000000000000B1
:100F4000000000000D0E0700000B0A004F0000001B
:100F50000000000000000000000000000000000091
:080F6000000000000000000089
:04000005000000C136
:00000001FF
