:020000040800F2
:100000000040002099010008A1010008A301000898
:10001000A3010008A5010008A701000800000000D6
:10002000FFFFFFFF0000000000000000A901000822
:10003000AB01000800000000AD010008AF0100089E
:10004000B1010008B1010008B1010008B1010008C8
:10005000B1010008B1010008B1010008B1010008B8
:10006000B1010008B1010008B1010008B1010008A8
:10007000B1010008B1010008B1010008B101000898
:10008000B1010008B1010008B1010008B101000888
:10009000B1010008B1010008B1010008B101000878
:1000A000B1010008B1010008B1010008B101000868
:1000B000B1010008B1010008B1010008B101000858
:1000C000B1010008B1010008B1010008B101000848
:1000D000B1010008B1010008B1010008B101000838
:1000E000B1010008B1010008B1010008B101000828
:1000F000B1010008B1010008B1010008B101000818
:10010000B1010008B1010008B1010008B101000807
:10011000B1010008B1010008B1010008B1010008F7
:10012000B1010008B1010008B1010008B1010008E7
:10013000B1010008B1010008B1010008B1010008D7
:10014000B1010008B1010008B1010008B1010008C7
:10015000B1010008B1010008B1010008B1010008B7
:10016000B1010008B1010008B1010008B1010008A7
:10017000B1010008B1010008B1010008B101000897
:10018000B1010008DFF80CD000F018F80048004773
:100190001104000800400020064880470648004738
:1001A000FEE7FEE7FEE7FEE7FEE7FEE7FEE7FEE727
:1001B000FEE70000A103000885010008064C074D7A
:1001C00006E0E06840F0010394E807009847103427
:1001D000AC42F6D3FFF7DAFF5C0400086C040008B9
:1001E00070B50646002529B1012927D0022928D05B
:1001F0004FF4407500F07AF808281ED1124C2068A0
:1002000020F440702060206828432060206820F09F
:10021000F8002060206846F0020108432060206852
:1002200040F48030206000F061F8216821F0020184
:100230002160216821F0F801216070BD4FF48075C4
:10024000D8E74FF40075D5E7103C02400B49082071
:100250000A68D20301D5012070470A68D20601D589
:10026000052070470A6812F0EF0F01D00620704792
:1002700009688907FBD50720704700000C3C024045
:100280000248016841F0004101607047103C0240A3
:1002900070B50D46064600F029F8082811D1094C22
:1002A000206820F44070206020682060206840F0C2
:1002B00001002060357000F019F8216821F001017B
:1002C000216070BD103C024005480068002805DA36
:1002D000034804490C38016003490160704700007D
:1002E000103C024023016745AB89EFCD08B50820DB
:1002F0008DF80000FFF7AAFF8DF800009DF80000C0
:100300000128F7D09DF8000008BD00000CB50022C0
:10031000204900920192086840F480300860086823
:1003200000F400300190009800F101000090019865
:100330000028F4D00868800329D5012001901548D1
:10034000083002680260026842F4004202600268FB
:1003500042F4A0520260031F0F4A1A600A6842F07A
:1003600080720A600A689201FCD50C4940F203725F
:100370000A60016821F003010160016841F0020197
:1003800001600168C1F381010229FAD10CBD01921B
:10039000FEE7000000380240193C4005003C0240E6
:1003A0000E4810B5016841F0010101600B4A0021BF
:1003B0000832116002680A4B1A400260031D094AA4
:1003C0001A60026822F48022026004480C30016046
:1003D000FFF79CFF05490448086010BD0038024043
:1003E000FFFFF6FE103000240000060808ED00E0D4
:1003F00002E008C8121F08C1002AFAD170477047EE
:10040000002001E001C1121F002AFBD1704700004B
:1004100070B50D4E0D49306888420FD00C4DFFF776
:1004200053FF00213820FFF7DBFE0A4CA019295D9D
:10043000FFF72EFF641EF9D5FFF722FF064806607E
:1004400070688047002070BD00000608414E4B498F
:1004500000000408FFFF010008ED00E06C04000844
:0C04600000000020004000000004000824
:040000050800018569
:00000001FF
