:020000040800F2
:200000000040002099010008A1010008A3010008A3010008A5010008A7010008000000007E
:20002000FFFFFFFF0000000000000000A9010008AB01000800000000AD010008AF010008F0
:20004000B1010008B1010008B1010008B1010008B1010008B1010008B1010008B1010008D0
:20006000B1010008B1010008B1010008B1010008B1010008B1010008B1010008B1010008B0
:20008000B1010008B1010008B1010008B1010008B1010008B1010008B1010008B101000890
:2000A000B1010008B1010008B1010008B1010008B1010008B1010008B1010008B101000870
:2000C000B1010008B1010008B1010008B1010008B1010008B1010008B1010008B101000850
:2000E000B1010008B1010008B1010008B1010008B1010008B1010008B1010008B101000830
:20010000B1010008B1010008B1010008B1010008B1010008B1010008B1010008B10100080F
:20012000B1010008B1010008B1010008B1010008B1010008B1010008B1010008B1010008EF
:20014000B1010008B1010008B1010008B1010008B1010008B1010008B1010008B1010008CF
:20016000B1010008B1010008B1010008B1010008B1010008B1010008B1010008B1010008AF
:20018000B1010008DFF80CD000F018F800480047110400080040002006488047064800473C
:2001A000FEE7FEE7FEE7FEE7FEE7FEE7FEE7FEE7FEE70000A103000885010008064C074D52
:2001C00006E0E06840F0010394E8070098471034AC42F6D3FFF7DAFF5C0400086C040008B1
:2001E00070B50646002529B1012927D0022928D04FF4407500F07AF808281ED1124C2068EC
:2002000020F440702060206828432060206820F0F8002060206846F0020108432060206803
:2002200040F48030206000F061F8216821F002012160216821F0F801216070BD4FF480757A
:20024000D8E74FF40075D5E7103C02400B4908200A68D20301D5012070470A68D20601D54C
:20026000052070470A6812F0EF0F01D00620704709688907FBD50720704700000C3C024049
:200280000248016841F0004101607047103C024070B50D46064600F029F8082811D1094C57
:2002A000206820F44070206020682060206840F001002060357000F019F8216821F00101EF
:2002C000216070BD103C024005480068002805DA034804490C380160034901607047000085
:2002E000103C024023016745AB89EFCD08B508208DF80000FFF7AAFF8DF800009DF800008D
:200300000128F7D09DF8000008BD00000CB50022204900920192086840F4803008600868F6
:2003200000F400300190009800F10100009001980028F4D00868800329D501200190154869
:20034000083002680260026842F400420260026842F4A0520260031F0F4A1A600A6842F0C8
:2003600080720A600A689201FCD50C4940F203720A60016821F003010160016841F0020169
:2003800001600168C1F381010229FAD10CBD0192FEE7000000380240193C4005003C024094
:2003A0000E4810B5016841F0010101600B4A00210832116002680A4B1A400260031D094A16
:2003C0001A60026822F48022026004480C300160FFF79CFF05490448086010BD003802405C
:2003E000FFFFF6FE103000240000060808ED00E002E008C8121F08C1002AFAD170477047B5
:20040000002001E001C1121F002AFBD17047000070B50D4E0D49306888420FD00C4DFFF7D5
:2004200053FF00213820FFF7DBFE0A4CA019295DFFF72EFF641EF9D5FFF722FF064806604F
:2004400070688047002070BD00000608414E4B4900000408FFFF010008ED00E06C04000827
:0C04600000000020004000000004000824
:020000040806EC
:20000000414E4B4979030608D7390608D3390608D53906089F340608113E0608111111115D
:20002000000000000000000000000000A93B06085936060800000000E5390608AB3B060811
:20004000910306089103060891030608910306089103060891030608910306089103060890
:20006000910306089103060891030608910306089103060891030608910306089103060870
:20008000910306089103060891030608910306089103060891030608910306089103060850
:2000A000910306089103060891030608910306089103060891030608910306089103060830
:2000C000910306089103060891030608910306089103060891030608910306089103060810
:2000E0009103060891030608910306089103060891030608910306089103060891030608F0
:200100009103060891030608910306089103060891030608910306089103060891030608CF
:200120009103060891030608910306089103060891030608910306089103060891030608AF
:2001400091030608910306089103060891030608910306089103060891030608910306088F
:2001600091030608910306089103060891030608910306089103060891030608910306086F
:200180009103060800F002F800F096F80AA090E8000C82448344AAF10107DA4501D100F016
:2001A0008BF8AFF2090EBAE80F0013F0010F18BFFB1A43F001031847DCD60000FCD600003A
:2001C000103A24BF78C878C1FAD8520724BF30C830C144BF04680C607047000000230024A9
:2001E00000250026103A28BF78C1FBD8520728BF30C148BF0B6070476E2900F04487702932
:2002000000F0C68166290CF0378165290CF0348167290CF031816129AFF3008003681B0AAB
:2002200028BF41F08001692900F03481642900F03181752900F02E816F2901F01F807829B9
:2002400000F09281E92900F0B787E42900F0B487F52900F0B187EF2901F01C80F82900F027
:2002600091810368DB0928BF41F08001632902F04081732902F04581E32902F05081F32906
:2002800002F05581002070471FB59DE8030001F06BFE02F099FB0400002000210CF0C0F88A
:2002A000401C6060002000210CF0D0F8E06000F051FC1FBD10B510BD02F060FB1146FFF798
:2002C000E3FF0BF071FF02F04FFC03B4FFF7F2FF03BC00F0FFFD0000FEB442464B465446E6
:2002E0005D463EB400F0BDFC3EBC90469946A246AB46FEBC00F030F880EC200B7047C0EC6C
:20030000200B704790EC200B7047D0EC200B704785460D98DDF838E00F9B5DF8042B20E96B
:200320000C009DE8FE1F854601BD4DF808ED0DF1080E4DF804ED2DE9FF1F002102B4694648
:2003400081B001F060F9DDF840E012B07047000094D600008CDF00004DF808ED0DF1080E91
:200360004DF804ED2DE9FF1F002102B4694681B001F0B1B9704700BF0948804709480047DB
:20038000FEE7FEE7FEE7FEE7FEE7FEE7FEE7FEE7FEE7000004480549054A064B704700005F
:2003A000AD3B06088501060890530020909500209055002090550020B2F120030AD5C2F109
:2003C000200301FA02F120FA03F300FA02F041EA0301704700FA03F14FF000007047000046
:2003E0007CB51D4616460C00009001D02044401E074B7B442A4669460190304600F05DFE5C
:2004000005461CB10020694600F06AFE28467CBDF50C00000FB41CB5084B06AA7B446946F0
:200420000090059800F049FE04460020694600F057FE20461CBC5DF814FB0000C10C00008B
:2004400070B5044685690068C10601D5302600E02026C00708D070BDD4E9012130469047C6
:20046000206A00F1010020626D1EF5D570BD70B5044685690078C00708D170BDD4E901217B
:2004800020209047206A00F1010020626D1EF5D570BD00002DE9F0410646002410687529F8
:2004A000314616A511D000F057FD002803DAC0F1000013A507E031688A0701D511A502E0F8
:2004C000490704D510A5012401E000F04EFD00210A2306F1240707E0B0FBF3F203FB120006
:2004E000303078541046491C0028F5D123462A463046BDE8F04100F06ABD000000000000EB
:200500002D0000002B00000020000000F0B40D460188090502D5234C7C4402E0214C7C44C0
:200520000E34002100F124060BE002F00F074FEA1212E75D42EA03724FEA1313775401F1EC
:20054000010152EA0307F0D102780023120704D5702D06D009B1113402232246F0BC00F068
:2005600036BD10340123F8E770B504460D462146106800F0FAFC024629462046BDE8704048
:200580000023C3E7D21D22F00703D3E90023BDE70368126843F0200303600823C3610023F0
:2005A000B4E7000078CA00002DE9F05F894604464FF0000ADFF878B1FB44C0F820A020467A
:2005C000E1688847002875D0252806D0D4E901219047206A401C2062F1E700265F4620464C
:2005E000E16888472028054608DB312D06D207EB050010F8200C08B10643F0E7B00701D5A6
:2006000026F00406C4F81CA00027C4F818A02A2D09D028460BF0E4FB38B304EB8708303D59
:20062000C8F8185019E059F8041B204604EB87029161E1688847012F054618D1E06900286C
:2006400020DA26F020061DE0D8F8180000EB800005EB40003038C8F818002046E168884726
:2006600005460BF0BDFB0028EED1012F0AD02E2D08D12046E16888477F1C0546022F46F08C
:200680002006C4DBA069002803DA404246F00106A061F00701D026F010066C2D0BD0682DCA
:2006A00009D04C2D39D06A2D35D0742D35D07A2D33D016E038E0E1682F4620468847B842F8
:2006C000054609D16C2F26D04FF48060E168064320468847054604E06C2F1AD04FF4807093
:2006E00006430DB3A5F14100192802D8203546F400664A462946204626604E46FFF77CFD1C
:2007000080B101280BD0F61D26F0070000F1080955E74020E4E78020D8E70020D6E706F1D8
:2007200004094CE7284651E7206ABDE8F09F000000CA00000FB400B58DB010A909900091B3
:200740000B904FF0FF300A9000200C90064878440690064878446A4607900F9909A800F000
:20076000B7FD0DB05DF814FB9F0B0000B70B00002DE9FF5F1D464FF0FF3B91464FF00008CA
:200780005F46D5E90146A96901987F1C8847296A824688470028F6D11AF101000CD0002E6B
:2007A00024F4C06419DD600614D5BAF12B0F09D0BAF12D0F0ED103E0584604B0BDE8F09FCB
:2007C00044F48064A96901987F1C8847761E8246002E02DDBAF1300F03D0B9F1000F26D013
:2007E00032E0A969761E01987F1C44F400748847002E824605DDBAF1780F06D0BAF1580FA0
:2008000003D0B9F1000F10D01EE0B9F1000F02D0B9F1100F18D1A969761E01987F1C24F43F
:20082000007488478246102002E0082000E00A20814609E0A96908FB0908761E01987F1CCB
:2008400044F4007488478246002E05DD4946504600F02AFD0028EDDAE96901988847A005BB
:2008600002D46FF00100A8E7E00727D1600614D5600502D5C8F1000000E04046296801F1A7
:2008800004022A600968220501D5087016E0220701D5088012E0086010E0286800F1040195
:2008A00029600068210502D580F8008006E0210702D5A0F8008001E0C0F8008038467CE75B
:2008C000002000F035FDFFF7F5FC012000F002FB40EA0103024630B59B0710D14FF001348F
:2008E00000E008C208C91D1B9D4315EAC41FF8D013F0FF0102F8011B0DD01B0AF8E711F8B8
:20090000013B002B02F8013B05D011F8013B002B02F8013BF3D130BD2DE9F0410E46054628
:20092000002400E0641C285D00F009FB0746305D00F005FB381A02D1295D0029F2D1BDE8B4
:20094000F08110B5431C02E010F8011B71B18107FAD14FF0013202C88C1A8C4314EAC21105
:20096000F9D0C01A0A0603D0C01E10BDC01A10BD0A0401D0801E10BD0902FCD0401E10BD53
:20098000032A40F2308010F0030C00F0158011F8013BBCF1020F624498BF11F801CB00F8E7
:2009A000013B38BF11F8013BA2F1040298BF00F801CB38BF00F8013B11F0030300F0258044
:2009C000083AC0F0088051F8043B083A51F804CBA0E80810F5E7121D5CBF51F8043B40F835
:2009E000043BAFF30080D20724BF11F8013B11F801CB48BF11F8012B24BF00F8013B00F875
:200A000001CB48BF00F8012B704710B5203AC0F00B80B1E81850203AA0E81850B1E8185082
:200A2000A0E81850BFF4F5AF5FEA027C24BFB1E81850A0E8185044BF18C918C0BDE8104023
:200A40005FEA827C24BF51F8043B40F8043B08BF7047D20728BF31F8023B48BF11F8012B8D
:200A600028BF20F8023B48BF00F8012B704702F0FF0343EA032242EA024200F062BC4FF055
:200A8000000200B5134694469646203922BFA0E80C50A0E80C50B1F12001BFF4F7AF090762
:200AA00028BFA0E80C5048BF0CC05DF804EB890028BF40F8042B08BF704748BF20F8022BB3
:200AC00011F0804F18BF00F8012B70474FF0013C50F8042B51F8043B9A4221D1A2EB0C03AF
:200AE000934313EACC1317D150F8042B51F8043B9A4215D1A2EB0C03934313EACC130BD171
:200B000050F8042B51F8043B9A4209D1A2EB0C03934313EACC13DBD04FF00000704700BF72
:200B2000D01A01BAB1FA81F101F0180122FA01F0CB40C1F12001DBB2C0B2C01A2CFA01F30B
:200B4000D11A914311EAC311E6D17047704770477047000070B5064C7C44064D7D4403E046
:200B6000206820448047241DAC42F9D170BD000084CE000084CE0000002300F011BE0123F2
:200B800000F00EBE70B5044601F05FF9783405462646204600F0A4F9040007D13146E869E7
:200BA00001F081F9040001D101F0FEF80AA104F12000D1E90021C0E900210021A162E16241
:200BC00061612161A161E161A868E0606868A06004F1780070BD000041524D00432B2B005A
:200BE0000000000070B50546466A01F02EF90446284601F079F920B12946606901F0F2F8BE
:200C000007E0A5F12000C169491EC1612168491E21604169491C4161016911B96169016102
:200C20006061284600F06DFD304670BD70B5054601F00BF90446284601F056F938B12946D3
:200C4000A06901F0CFF8C169491CC16102E0A5F12000C169012902D1A1698161A061012055
:200C600070BD70B501F0F1F8846905460CB901F045F904F12006304601F036F968B1E06909
:200C80002668012802D0401EE0610BE0A16904F17800A96101F0C4F804E0E069012801D1EB
:200CA000A069A861304670BD70B501F0CEF8446905460CB901F022F96069401E606117D10A
:200CC00004F12006304601F00FF921696961E56928B104F17800266801F0A2F801E0002088
:200CE0002061002D04D13046BDE8704000F038BD70BD70B501F0A9F84469054614B90020F8
:200D000001F052F8E06904F12006401CE061304601F0EAF8002801D0266803E0286800F163
:200D20000100286002D04FF0000200E022684FF000013046FFF71EFB3046FFF7F6FA304616
:200D400001F047F873B50C4601F07FF8203C616931B1E169491EE1610168491E01607CBD1C
:200D6000616804F1780509B1284688472846BDE87C4001F055B8FFF735FF284601F050F8A3
:200D8000FFF7B7FF70B578380D464D4981620121C161C0E9005200F1200401F056F801680A
:200DA0002A46491C016000212046FFF7E3FA2046FFF7BBFA204601F00CF82DE9FF4D9A46F5
:200DC00093460E46804601F08FF8002875D1A8F12000012708F1580805680024CDF8088022
:200DE000314628460AF0D8FE10B1CAF8008062E028460AF01DFF019030460AF019FF0090CC
:200E0000304901980AF0C8FE20B92E4900980AF0C3FE20B1DDE900100AF0CEFE08BB2949BB
:200E200001980AF0B9FEC0B1307A297A641C00F0030001F0030131EA00023ED130EA0101FA
:200E400000D077B1C00700D100270298ED68F6680028C5D000680290C2E7012C02D06CB112
:200E600009D02AE0184930460AF096FE18B1BBF1000F22D1B9E7BBF1000F1ED11349019874
:200E80000AF08AFE20B9124901980AF085FEA0B100200090019033462A4603A902A80AF0BB
:200EA000EBFE002804D00399CAF800101CB1022004B0BDE8F08D0120FAE70020F8E7000019
:200EC000450D060890D00608E4D006089CD00608A8D0060801491820ABBEFEE7260002008A
:200EE00070B5064601F020F8056806F10B0020F00704B4429CBF002070BD2B466A68BAB1A2
:200F00001068A04210D304F1080188423CBF5068586007D35168101941601168091B016006
:200F200058601460101D70BD13465268002AE7D12146284601F004F80028DED170BD10B5AB
:200F4000044600F0E9FF0068005DC00602D504F1200010BD204610BD09684A0501D540B270
:200F60007047C905FCD500B2704709684A0501D5C0B27047C905FCD580B2704770B50C46F4
:200F80000546012A05D02878800600D5EA69002302E0012305E05B1C934202D2E05C002826
:200FA000F9D1A869E618C01AA861286A184428622846FFF745FA04E0D5E9012114F8010B7E
:200FC0009047B442F8D32846FFF751FA70BD2DE9F0470D4699469246044600F12408016876
:200FE000880604D5E06921F01001216000E00120A84202DDA0EB050700E00027A16907EB3A
:20100000050202EB0900A1EB0000A0612078C00602D42046FFF714FA002608E0D4E90121BB
:201020001AF806009047206A401C761C20624E45F4DB2078C0060AD52046FFF701FA06E0EB
:20104000D4E9012130209047206A401C2062381EA7F10107F4DC07E0D4E9012118F8050081
:201060009047206A401C2062281EA5F10105F3DC2046FFF7FCF92078000602D50220BDE8F3
:20108000F0870120FBE711680268006A530501D508700BE0D30501D5088007E0130603D5EA
:2010A000C217C1E9000201E0520608600120704701694A1C02610878704700B58FB0CDE91E
:2010C00001310021059105497944CDE9031011466846FFF769FA0FB000BD0000E5FFFFFF97
:2010E0000A6802F8010B0A607047D1E900239A4202D2531C0B601070704700002DE9FF5F45
:2011000015468A460446DFF8AC80F8440027D8E900103E46CDE9001011E03AF816106A46E0
:2011200002A801F0C1FB411C07D02178890603D5E269391891420ED8074406F101062078EE
:20114000800602D5E069B84205DDAE42E5DB3AF816000028E1D1A069C01BA0612046FFF7FA
:201160006FF9D8E90010CDE90010002016E03AF818106A4602A801F097FB8146401C0BD025
:2011800000250DF1080B05E0D4E901211BF8050090476D1C4D45F7D308F10100B0428046CF
:2011A000E5DB206A384420622046FFF760F9BDE8FF9F0000C2BE00002DE9F0418046D21D73
:2011C00022F007020025D2E90002F52914A612D0002A06DA0023D0EB030063EB020211A664
:2011E00008E0D8F800108B0701D50FA602E0490701D50EA601251146002408F1240704E0A5
:2012000000F00FFF30323A55641C50EA0102F7D12B46324621464046BDE8F041FFF7D7BE23
:20122000000000002D0000002B0000002000000030B4002100F124040CE002F0070505F138
:2012400030054FEAD20242EA4372655401F101014FEAD30352EA0305EFD10468002310A26A
:20126000250708D504F020040C4304D0C46901230CA2641EC46130BCFFF7A9BE10B504462C
:2012800021461068FFF771FE02462046BDE810400023CDE7D21D22F00701D1E90023C7E7FC
:2012A00000000000300000003A2800D2303820F02002412A01D3A2F13700884201D34FF04A
:2012C000FF307047026811441378016018467047D1600549794451610449794411620021DC
:2012E0001161114601F028B9EDFFFFFFCF0D0000426842B1016811F8013B23B1521EC0E955
:201300000012184670470121C160881E704742685AB1C368016843B983688B4205D0491ECD
:20132000521CC0E90012002070474FF0FF30704710B501F007FBBDE8104001F0FDBA4FF0F4
:2013400000020429C0F0128010F0030C3FF499ABCCF1040CBCF1020F18BF00F8012BA8BFA9
:2013600020F8022BA1EB0C01FFF78BBB5FEAC17C24BF00F8012B00F8012B48BF00F8012B77
:201380007047000010B5029C31B101290DD003290BD004290BD108E04BB90F2A07D82168AD
:2013A00000EB82004160002010BD012010BD022010BD10B5029C31B101290DD003290BD002
:2013C00004290BD108E04BB90F2A07D800EB820040682060002010BD012010BD022010BDA1
:2013E0002DE9F04798460446C0B031B1012918D0032979D0042979D176E0B8F1000F75D1D4
:2014000090B2A16B231D00F4005205E0C50701D020C91D601B1D40080028F7D1F2BBA163EF
:201420005EE0150C96B2102D01D2012000E000208146A819102801D9012700E00027B8F162
:20144000010F03D0B8F1050F50D101E03FBB01E020284BD84FF0000AB9F1000F08D0207832
:20146000012805D104F1480084F800A080EC200B47B16078012805D104F1C80084F801A0D4
:20148000C0EC200BB9F1000F02D0684680EC200B20A882460FB1C0EC200B01E020E025E098
:2014A000A06B6B4608E0014603EBC5026D1CD1E900C10830C2E900C1761EF4D24146B8F15A
:2014C000010F00D00021B9F1000F00EB8100A06302D0184690EC200B17B15046D0EC200BC7
:2014E000002040B0BDE8F0870120FAE70220F8E710B50468944801F1080278444368034406
:201500004FF0FF30934204D0136843F31E03134400E003460A6842F31E021144A14202D889
:201520009C4201D3012010BD002010BD13B50446854882B078443A38016842680144104433
:20154000401AC2100398801E0390804878440090082303A801F0C8F97D49002378B102687B
:2015600042F31E020244A2644268012A0AD0002A00F1040009DAE064012020650AE004221F
:20158000636114E00222636111E042F31E021044C4E91303E26C1068002819DAC0F3036057
:2015A00058B101280CD002280FD0012263612046FEF7E0FE092004B010BD6648784401E0FF
:2015C0006548784460610020F5E764487844F9E740F31E001044F5E70C4605462846216C84
:2015E000FFF7A4FF50B9206C2246294628616B6901209847072803D00828EFD0FFF760F949
:20160000201DFEF785FEF0B504460E460127C068D3B068B35820FFF763FC05002AD01422E2
:2016200004F10C0105F10C00FFF7EFF9182204F1200105F12000FFF7E8F904F1380005F168
:20164000380C0FC8ACE80F00E560F06B4022311D306401A8FFF7D9F98DF800708DF801708C
:2016600012AF32AD20461099FFF760FFD0B910E0E760EAE7364920460522FEF77BFE05E076
:201680009DF8010010B92846D0EC200B53B00920F0BD63696A46214600209847062809D0D4
:2016A0000828DFD09DF800000028E9D1384690EC200BE5E79DF8000000B102E0384690ECC1
:2016C000200B9DF8010010B92846D0EC200B31462046FFF781FF054600690C460A46086416
:2016E00029466B6902209847072803D0082804D0FFF7E6F8201DFEF70BFE21462846FFF7C6
:201700006BFF70B50546C168C9B1012919D00C4614220C3105F10C00FFF777F9182204F1DD
:20172000200105F12000FFF770F904F1380038350FC80FC52046BDE8704000F04BBCFFF726
:20174000BFF80020E86070BD52EEFFFFA1FFFFFF010000FFB9F5FFFFB9F5FFFF8C0100007C
:201760008268002A02D001460120104770470000017A51B9417A89B1491E417241680A1DA9
:2017800042600968016004210172C9B2491E017201680A0E0902016010467047B020704767
:2017A0002DE9FF4F16460D468BB05FEA000A4FF0000006900890049007900CD0BAF1010F59
:2017C00009D0BAF1020F01D0002202E2A86BA864D5E90FB40EE095F85000D5F84CB0C007A2
:2017E00076D10E9818B1DBF80000C0F307400BEB800441E00E98022811D02788002F67D005
:201800006088241D394600F0010262F35F0161B1012933D002297DD00329EBD12FE127683A
:20182000002FECD060680834ECE7BAF1000F23D0A96C0F22002301EB0008304605A9009127
:201840001946FFF7B6FD0598804515D808EB0701814211D9A96C201DA963C5E90FB0284650
:20186000FFF7E4F90028AFD020680F2240F31E0004443046049423E0241DBBE7BAF1000FEE
:2018800027D0304605A90D22002300911946FFF790FD0598296A88426ED1E86AA0426BD1BF
:2018A000206804A90F22002340F31E0004443046049400911946FFF765FD0022304604957F
:2018C00004A9002300911946FFF75CFD224647E2D7E0A96C0F22002301EB0008304609A92C
:2018E00000911946FFF765FD09987F1E804543D808EB070181423FD96768B81C0ED0781C97
:201900000ED03946206805ABC20F2846FFF755FA88B300E032E002281DD004E0022258E129
:2019200005F158000590304604A90D22002300911946FFF73EFD0498EC62286205980221FA
:201940006862206840F31E0002192846FEF712FD80213A4660E004A930460D2200230091F0
:201960001946FFF726FD0498EC6228620598A86205F12800E3E7FFE708343BE72168BAF174
:20198000000F21F00048059110D0304609A90D22002300911946FFF70CFD0998296A884202
:2019A00041D1E86AA0423ED101203DE0A96C401E0F2201EB0009304609A9002300911946C0
:2019C000FFF7F7FC099881453BD809EB0701814237D9002704F104090AE0D9F800106B4630
:2019E00028460022FFF7E9F920B97F1C09F104094745F2D3474524D1304604A90D220023BD
:201A000000911946FFF7D5FC0498D94AEC62286200207A44022168622846FEF7ABFC06207D
:201A20000FB0BDE8F08F002058B10020C5E90A8004202863201D68630598404506D1012071
:201A400006900598404515D1002014E004EB8800002250F8041F1346049541F31E010C1867
:201A6000304604A900911146FFF78CFC0F22304604946CE1042000EB88000444FCE601226D
:201A8000A7E0DBF8000001900BF1040002900E9810B30198000C8DF80D00019800040190FB
:201AA00002208DF80C0001A8FFF762FEB02804461AD03F2C41D800F03F01042000EB81071D
:201AC000304609A90D240023224600911946FFF770FC0998384442E000208DF80D00019846
:201AE000000201900320DCE70898B0B904980028C5D005A800230E22194600903046FFF7B0
:201B000058FC059930460F220023049104A900911946FFF737FC012007900698002875D0EB
:201B2000304604A900220495134600911146FFF729FC079800286AD004E17F2C19D800F0F9
:201B40003F01042000EB8107304609A90D240023224600911946FFF72CFC0998C01B2246D8
:201B6000059005A80023009019463046FFF70AFC99E78F2C1AD80007040C01A8FFF7F8FDC7
:201B800054EA00143FF4CAAE2246304600231946FFF726FC08B103221BE0200401D50120DC
:201BA00008906004E4D5012004907CE79F2C16D800F00F020D2A0BD00F2A09D0304609A952
:201BC0000D24002300911946FFF7F3FB0998C6E7042228460121FEF7CDFB092020E7AF2C11
:201BE00016D84FF0010104F0070000F1010001FA00F14FEA01122007A2F1100203D50120CC
:201C000042F4804204900023194659E0AEE087E0B72C35D8B12C0ED0B22C14D0B328D7D198
:201C200001A8FFF7A5FD00F00F0100F0F000491C41EA00322BE001A8FFF79AFD0200C7D0E7
:201C40000F2AE0D9C4E700273C4601A8FFF790FD00F07F0101FA04F10F43000601D5E41D83
:201C6000F3E709A930460D240023224600911946FFF79FFB099800EB870000F501706EE758
:201C8000BF2C07D800F00700401C40F400220123012115E0C72C25D809D101A8FFF768FDC8
:201CA000020095D00F2A93D80023042108E0C62C0DD000F00700401C40F4202203231946CC
:201CC0003046FFF78DFB00283FF452AF63E701A8FFF74EFD00F00F0100F0F000491C41EA10
:201CE0000032EBE7C82C0BD0C92C09D0CF2CA9D9D72CA7D800F00700401C40F400220DE0AE
:201D000001A8FFF735FD00F00F01491C00F0F000C82C41EA003201D102F580120523B7E73B
:201D200004A800230F22194600903046FFF741FB049930460E220023059105A90091194672
:201D4000FFF720FB0B4930460F227944049104A9002300911946FFF715FB064A7A44123A05
:201D600028460321FEF706FB072059E6082057E65A0300002600000038B5684609F034FFC6
:201D80000420FEF7FFFE694609F026FF0446684609F039FF024A03492046FEF7F3FF000052
:201DA00007BC0608C0D0060870B5054600F04DF804461DB1284600F097F808B1A06801E068
:201DC00055F8140C206101202073BDE8704000F095B810B5040001D0FEF704FF2046BDE832
:201DE0001040E1E770B504000D4609D004F1200000F06EF820B12068A84201D1204670BD63
:201E00000020FEF7BFFE7838D5E9002300F12001C1E900230022C26142610560026170BDA3
:201E200010B5044600F011F8783CC069214600F045F8002804D12046BDE8104000F0CAB85F
:201E400010BD000010B5FEF73BFD70B500F070F804680546A4B92020FFF742F8040011D0DD
:201E6000094900202C60C4E900010849A1602073206160610649A06109B100F00BF8E06151
:201E8000204670BDFEF71CFD00000000451E06080000000010B58820FFF722F8002801D0BA
:201EA0000021017010BD802902D808B1017809B100207047012100F8081B704718B100F1CF
:201EC0000802914201D00020704700210170704702680B689A4205D140684968884201D1B0
:201EE000012070470020704710B50349FFF7F0FF80F0010010BD0000D8CF060810B5FFF78F
:201F0000A4FF016919B100220261884701E080688047FEF7D5FC704710B500F055FD001D65
:201F200010BD00BFFDA4000000487047345300200048704768530020704770477047704718
:201F400038B504460A4600206946AFF30080002808BF38BD02460099204600F039FD012097
:201F600038BD012000F01FBEF8B5AFF30080054600200C46102000BF0646A819A0420DD92E
:201F8000324669460020AFF30080070008BF00F00AFE0098A04218BF0546C419FFF7C4FFE0
:201FA00005600746F01D20F007004619284600F00AF8B44208BFF8BDA21B31463868BDE8A1
:201FC000F84000F005BD00210160C0E9011070471020704770B50446051FFFF7A5FF0068A8
:201FE000002C14BF446870BD002C18BFAC423CBF20466468F8D301680A18AA4218BF45602D
:2020000003D12A6805461144016028684119A1421CBF6C6070BD61686960216808442860C9
:2020200070BD30B5B0F10A024FEA900E71F100034EEA817EB0EB0E0061EB91014FEA101E80
:202040004EEA017E10EB0E0041EB11114FEA102E4EEA016E10EB0E0041EB11214FEA104E56
:202060004EEA014E10EB0E0041EB1141401841F100014FEAD00040EA41704FEAD10110EBDD
:2020800080054FEA810444EA907444EB01046D1944EB0404521BA3414FF0000348BF0A3204
:2020A00000D530BD401C41F1000130BD10B50446FFF732FF0068005D00F0010010BD704772
:2020C0002DE9FF4F0C461E464FF0FF378BB0D2E90001DDF860800A908A46C1F30A5505B98A
:2020E0003D46002108464FF00000BAF1000F00F4400005DA00EB80004FF4400101EA5000B8
:202100004FEA9059B9F1010F00DDB9460A9850EA4A000ED044F61050A5F2FF3545432F14D3
:20212000B8F1000F1ED07542291E1EDDC9F100021CE0B8F1010F4FF0000001D0302103E04B
:20214000F24305E02154401CB042FBDB30460022002121540B99C1F80880C1E900200FB030
:20216000BDE8F08FBD1B6D1CDEE74A4600DA694206A800F087FC06AB07CB03AB07C350464E
:202180000A9900F04BFD8DE80700A0F500501F3800900398002D09DD42F21F014A4608443E
:2021A00003A90390684600F0AAFF08E0A0F500504A461F3803A90390684600F0B4FF8DE8E0
:2021C00007000004000C03D04FF0FF30410800E01046B8F1000F03D00022009215461FE08F
:2021E000751E06D4FFF71DFF02F1300262556D1EF8D5B3460122084302D000227F1C04E052
:202200002078302801D100227F1E002A099787D01DE0112D07DAFFF704FF303262556D1C65
:2022200050EA0102F5D108430FD10021681E05E0235C625C6354491C2254401E8142F7DB22
:20224000AB46A81B401E099001E0009848B1002004F80B000B98099AC0F80880C0E9002BE0
:202260007DE711264FF000085AE72DE9F04F88460446D21D22F0070191B0D1E90001CDE913
:202280000A0109F0E5FC02460B98C00F01D02D2007E02068810701D52B2002E0202101EA5B
:2022A000C000032A099001D0072A05DB03464146204600F0A7FB0FE12078800601D5E069C1
:2022C00000E00620B8F1650F814606D0B8F1660F18D0B8F1670F72D132E00020B9F1110FDA
:2022E000009001DB112301E009F101030AAA01A90CA8FFF7E5FEDDE90C70002609F101050C
:20230000834648E001204B4600904FF000470AAA01A90CA8FFF7D4FEDDE90DB00C995D465F
:20232000002618B909F1010001EB0005B9EB050003D4C0F1FF3609F10105A5EB09002BE0B0
:20234000B9F1010F01DA4FF001090020B9F1110F0090484601DD112300E003460AAA01A9FE
:202360000CA8FFF7ADFEDDE90C704D4600268346207800070AD4AB4500DA5D4601A8012D83
:2023800004DD411911F8011C302907D04F4502DA17F1040F04DA0120824610E06D1EEEE70A
:2023A000002F02DCED1B3E4403E0781CA84200DD0546A7EB060000F1010A4FF0004720784B
:2023C000000703D4AA4501DB4FF0FF3A0021B7F1004F0DF143088DF8431023D002202B2340
:2023E000002F01DA7F422D234FF00A0C011EA0F1010000DC4FB197FBFCF10CFB11720F4682
:2024000002F1300208F8012DF0E7A8F1010003702188090501D5452100E06521A0F1010892
:2024200000F8011C09980FA9A1EB080707F1070700B1012000EB050101EBEA70A1693844FE
:20244000A1EB0000A0F10100A0612078C00602D42046FDF7F5FF099830B1D4E901219047A3
:20246000206A00F1010020622078C00620D52046FDF7E6FF1CE0002E04DBB34502DD01A843
:20248000805D00E03020D4E901219047206A761C401CBAF1010A20620AD100F095FAC06847
:2024A0000168405CD4E901219047206A401C2062281EA5F10105DEDC07E0D4E9012118F887
:2024C000010B9047206A401C2062381EA7F10107F3DC2046FDF7CBFF022011B040E610B5FA
:2024E000436913B1AFF3008001E0FEF747FD012010BD127800F124010A7000224A70012229
:20250000EDE711684FF0FF32E9E710B5436913B1AFF3008001E0FEF7F1FD012010BD12888B
:2025200000F1240182840022C2840122EDE711684FF0FF32E9E700002DE9F34F4FF0000AC6
:202540000C4656468DB001200C9001F10C000B9062690B980121904705002DD0252D2CD043
:20256000216A8847C0B162690B9801219047216A88470028F7D16269411E0B98904700E05B
:20258000761CA1690D988847216A88470028F7D1E1690D988847DBE7A1690D988847A842F9
:2025A000074601D1761CD3E7E1690D9888477F1C02D1BAF1000F6FD06AE162690B980027AB
:2025C0003D46394690472A2804D162690B98012190470125DFF8CC8262690B9801219047E2
:2025E000A0F130010A290AD24745E5DC07EB870100EB4107303FDFD445F01005ECE7E906E2
:2026000001D46FF000476C280AD04C2814D0682815D06A280DD074281CD07A281AD01DE084
:2026200062690B98012190476C2802D045F0040514E045F002050DE045F020050AE0626963
:202640000B9801219047682802D045F0080505E045F4006562690B9801219047C4E901574B
:2026600065283DD019DC582879D00CDC452837D004DC252826D041289ED131E046282FD02D
:20268000472899D12CE05B287FD0612828D063287BD0642890D159E0F5E06F2847D008DC9F
:2026A00066281DD067281BD0692821D06E2816D127E0702844D0732867D0752846D078284E
:2026C0000DD14CE0A1690D988847252805463FF469AFE1690D9888476D1C3FF46AAFD7E045
:2026E0000D9923466A466FF00100AFF30080C4E045F0400023464FF000026060A80735D45E
:202700003DE0206800F1040121600068290501D506701DE7290701D5068019E7A90704D5A2
:202720004FEAE671C0E9006112E7066010E745F0400023464FF008026060A80716D41EE02B
:2027400040F60E0125EA0100606016E045F0400023464FF00A026060A80707D40FE045F0D7
:2027600040006060A80708D5234610220D996FF00100AFF3008080E007E0102223460D9982
:202780006FF00100FDF7F4FF77E04FF0000963284F46C8464B46CB4602D05B2806D038E040
:2027A000E80601D40120A060012732E06269D4F80CB00B98012190475E2807D14FF0010965
:2027C00049466269D4F80CB00B989047216939B900210B4603AA42F82130491C0829FADB0C
:2027E000D8B3216949B308F1010862690B98012190475D28F4D1B9F1000F09D0002003A9B7
:2028000051F82020D24341F82020401C0828F7DB03AB2069002820794FEA40701ED05B46D3
:202820002246CDF80080CDE901970D9900286FF0010020DAAFF300801FE0C11700EBD1625E
:2028400003A9531122F01F0201EB8301821A0B680120904003430B60C7E719E00D9922465F
:2028600000286FF00100009702DAAFF3008004E0AFF3008001E0AFF3008000280ADA401CCA
:2028800006D10C9820B14FF0FF300FB0BDE8F08F5046FAE7E90701D10AF1010A06440020F2
:2028A0000C9055E6CCCCCC0C70B516460C460546FFF732FB036893F80101012806D0FF2C6E
:2028C0000FD8185D68B101202C7070BDD3F807013246214603442846BDE8704003F20713CE
:2028E00018474FF0FF3070BD2DE9F047984614460F468246DDF8209094B1012C0BD04A46DA
:202900005046650805FB08763146904700280CD00DDA2C46F0E74A4639465046904710B177
:202920000020BDE8F0873846FBE73046F9E7641B641E06EB0807DFE7002801D0FEF7CABA6C
:202940007047000010B5002102A000F013F9012010BD0000534947414252543A2041626ED7
:202960006F726D616C207465726D696E6174696F6E000000004870472C5300207546FFF723
:20298000F9FFAE4605006946534620F00700854618B020B5FDF7FEFCBDE820404FF0000647
:2029A0004FF000074FF000084FF0000B21F00701AC46ACE8C009ACE8C009ACE8C009ACE88A
:2029C000C0098D4670470000004870474C530020034640688C46002818BF88423CBF034616
:2029E0004068F8D318681844884207D00CF1030020F00700001D411A521A0146081D0A6016
:202A0000FFF7E8BA2DE9F0411F46044603260168072A01F4006004DB08B116A505E016A51D
:202A200003E008B115A500E015A521F010002060A069C01EA0610FB1401EA0612046FDF7A4
:202A4000FFFC4FB1D4E9012138469047206A401C2062C01C206206E0206AFAE7D4E9012151
:202A600015F8010B9047761EF8D22046FDF7FFFCBDE8F0814E414E006E616E00494E4600A6
:202A8000696E66002DE9F047814616468AB035487844D0E9002380680092CDE90130314860
:202AA00078440C38D0E90223006903924FF03702CDE9043041F69B30014491FBF2F0A0F192
:202AC000800502FB10141B3C02D56442012000E00020DFF890A080460027FA44AAF1C60ABE
:202AE0000DE0E00709D03246684607EB47010AEB810100F018FB8DE8070064107F1C002C98
:202B0000EFD1184F7F44B43F17E0E80713D007EB04100DF1180A90E80E00AAE80E00C0689B
:202B2000F04201D198190890324606A903A800F0FAFA03AB07C36D10641C002DE5D13246C2
:202B40006946B8F1000F03A802D000F0D8FA01E000F0E9FAC9E90001C9F808200AB0BDE820
:202B6000F0870000CCA500000446AFF300802046FDF7ABFB70B505460C460A2000E06D1CAC
:202B800000F018F835B128780028F8D102E0641C00F010F814B120780028F8D1BDE87040C1
:202BA0000A2000F007B810B500F00CF8BDE81040FFF7C2BE08B569468DF800000320ABBE9B
:202BC00008BD000010B5012805D0002103A0FFF7D1FF012010BD09A1F8E700005349475237
:202BE000544D454D3A204F7574206F662068656170206D656D6F7279000000003A2048659D
:202C00006170206D656D6F727920636F7272757074656400FEF748F8FDF75EFB5FEA400C1B
:202C200008BF91F0000F4FEA8C234FEAC12243EA51514FEA1C5018BF00F5F0404FEA300060
:202C400018BF41F000415FEA6C5C00F02980BCF1FF3F08BF40F080407047130C06BF12042E
:202C60004FF0100C4FF0000C130E04BF12020CF1080C130F04BF12010CF1040C930F04BF3B
:202C800092000CF1020CD30F04BF52000CF1010C11464FF00002A0F11F00A0EB0C00704700
:202CA00011F0004F08BF704731F000413FF4D5AF0B0C06BF09044FF0100C4FF0000C0B0E85
:202CC00004BF09020CF1080C0B0F04BF09010CF1040C8B0F04BF89000CF1020CCB0F04BF93
:202CE00049000CF1010CCCF12003A0EB0C0022FA03F302FA0CF241EA030100F10100704726
:202D000020F07F4C80EA030023F07F47ACEB070303F57C5300F0004003F1FF032DE9804925
:202D20004FEA154B09B44FEA144325EA0B4E24EA03480FF2042606EB132749083E785FEA46
:202D4000320203FB0667C7F5000707FB06F64FEA54374FEAD64606F1020607FB066CCCF1CA
:202D6000005C4FEA1C472CEA074C07FB06F40CFB06F504EB15464FEA961634BF00204FF073
:202D800000404FEAD13706FB07FC4FEA1C4C0CFB0BF7D21B03FB0CF761EB07010CFB0EF7B6
:202DA000B0EB074072EB17420CFB08F734BFA2EB0742B2EB074261EB17414FEA0C444FEA60
:202DC000910706FB07FC4FEA1C4C0CFB0BF7B0EBC74072EB573203FB0CF734BFA2EBC7429B
:202DE000B2EBC74261EB57310CFB0EF7B0EBC70072EB57720CFB08F734BFA2EBC702B2EBD9
:202E0000C70261EB5771039F4FEA816141EA921104EBCC044FEAD1374FEA826206FB07FC29
:202E200042EA90124FEA80604FEA1C4C0CFB0BF7D21B03FB0CF761EB07010CFB0EF7B0EB18
:202E4000074072EB17420CFB08F734BFA2EB0742B2EB074261EB17414FEA8C554FEA910731
:202E600004EB9C2406FB07FC4FEA1C4C0CFB0BF7B0EBC74072EB573203FB0CF734BFA2EBEC
:202E8000C742B2EBC74261EB57310CFB0EF7B0EBC70072EB57720CFB08F734BFA2EBC702CC
:202EA000B2EBC70261EB577115EB4C254FEA816141EA92114FEA82624FEAD13742EA901212
:202EC00006FB07FC44F100044FEA80604FEA1C4C0CFB0BF7D21B03FB0CF761EB07010CFBA9
:202EE0000EF7B0EB074072EB17420CFB08F734BFA2EB0742B2EB074261EB174115EB1C15AB
:202F00004FEA813141EA92414FEA823242EA90424FEA80304FEA0C7644F1000448EA034388
:202F20004EEA0B484FF0000EB2EB080C71EB030724BF624639464EEB0E0E4FF0000B0018E1
:202F4000524149414BEB0B0BB2EB080C71EB03077BF1000B24BF624639464EEB0E0E4FF0DC
:202F6000000B0018524149414BEB0B0BB2EB080C71EB03077BF1000B24BF624639464EEBF4
:202F80000E0E51EA020718BF46F0010616EB0E7655F1000254F1000103D5BDE88901BDE8FE
:202FA0000088BDE88901BDE80048B619524141EB0101A3F10103704780807F7E7D7C7B7AA3
:202FC0007978777676757473727171706F6E6E6D6C6C6B6A6A69686867666665646463634F
:202FE00062616160605F5F5E5E5D5D5C5C5B5B5A5A5959585857575656555555545453538E
:2030000052525251515050504F4F4F4E4E4D4D4D4C4C4C4B4B4B4A4A4A494949484848471B
:20302000474747464646454545444444444343434342424242414141002B26D4770021D0A6
:203040001CB54FEA370703B44FF010004FF010014FF000000FBCBDE810400BF1010BBBF11F
:20306000010F08BF5FEA170722BF12F1010211F101014FF0004143F1000300F0004043EA13
:2030800000007047F9D35708DAE746EA064613F1400F4FEA16461FDD13F1200FDFBF164303
:2030A0000A46002120335B42C8D0C3F1200746EA064602FA07F74FEA164646EA0706C3F140
:2030C000200722FA03F201FA07F721FA03F14FF0000342EA0702B1E746EA020646EA0646ED
:2030E0004FEA164646EA0106BCBF46EA0646360C4FF000034FF000024FF000019EE72DE96D
:20310000C048934630B491E8380007C831EA400C48BF34EA430C03D5FFF7F2FDFFF78CFF51
:20312000F0BCBDE800882DE9C048934630B491E8380007C810F0804F08BF13F0804F03D11F
:2031400000F005F8FFF778FFF0BCBDE8008820F07F4780EA030023F07F4C07EB0C03A3F582
:203160007C5300F00040A3F1FE0392F0000F00F0B38095F0000F00F077802DE901494FEAF3
:2031800011404FEA144621EA004800FB06FC24EA064708FB06F607FB08F800FB07F718EBA3
:2031A00006484CEB164C4FEA124B18EB07484FEA15464CEB174022EA0B4E0BFB06FC25EAA2
:2031C00006470EFB06F607FB0EFE0BFB07F71EEB064E4CEB164C4FF000061EEB074E4CEBBB
:2031E000174B18EB0B0840F1000018EB0E0B58EB000840F100008F1A4FF000013CBFC9439E
:20320000661B14BFB5EB040C00213CBFC943F61B4FEA17444EEA8E0E27EA04454FEA1C4713
:2032200004FB07622CEA074C05FB07F70CFB05F604FB0CFC16EB074642EB174216EB0C468F
:2032400042EB1C421BEB060658EB0202414146EA9E0601D5BDE80189B619524141EB01019F
:20326000A3F10103BDE801894FEA14454FEA114724EA054621EA074C05FB07F406FB07F7B3
:203280000CFB06F105FB0CFC11EB074144EB17444FEA124711EB0C4144EB1C4422EA074C91
:2032A00005FB07F206FB07F70CFB06F605FB0CFC16EB074642EB174216EB0C4642EB1C4556
:2032C0006A1854F1000148BF7047B619524141EB0101A3F10103704795F0000F37D04FEAB5
:2032E00011424FEA144721EA024624EA074C02FB07F106FB07F70CFB06F402FB0CFC14EB3A
:20330000074441EB17414FEA154714EB0C4441EB1C4125EA074C02FB07F506FB07F70CFB10
:2033200006F602FB0CFC16EB074645EB174516EB0C4645EB1C42121951F1000148BF7047A5
:20334000B619524141EB0101A3F1010370474FEA14454FEA114724EA054621EA074C05FBB4
:2033600007F106FB07F70CFB06F24FF0000605FB0CFC12EB074241EB174112EB0C4251EBB9
:203380001C4148BF7047921841EB0101A3F1010370470029816802D041F0010101E021F0E2
:2033A00001018160704710B54FF480740121204600F056FB2046BDE81040002100F050BB37
:2033C000C06C80B270470246002012680A4200D00120704730B542680F4B0C791A400B68C7
:2033E00042EA04221343436082680C4B4D791A40D1E9034323438C6844EA45042343134394
:203400008360C26A097D22F47002491EC9B242EA0151C16230BD0000FFFEFFFCFDF7FFC074
:2034200070B5072609290AD9C568A1F10A0404EB4404A640B543A3401D43C56007E0056986
:2034400001EB4104A640B543A3401D4305611F23072A09D2446B521E02EB820293409C4324
:2034600091400C43446370BD0D2A09D2046BD21F02EB820293409C4391400C43046370BD0F
:20348000C46A0D3A02EB820293409C4391400C43C46270BD816841F0804181607047FEE7C9
:2034A0000029016802D041F0010101E021F00101016070472DE9F043016821F00101016043
:2034C0000021016041608160C1600161212141613C493C4A3D251039904202D18D60BDE894
:2034E000F083384A4FF474661832904201D18E60F5E7344A4FF474173032904201D18F60C1
:20350000EDE7304A4FF0746C4832904202D1C1F808C0E4E72B4B2C4A6033984201D1CA607E
:20352000DDE7284C294B7834A04201D1CB60D6E7DFF89080264C08F19008404501D1CC602A
:20354000CDE7DFF880804FF03D5908F1A808404502D1C1F80C90C2E71E49DFF87880083995
:20356000404501D10D60BAE71A4D1835A84201D10E60B4E7174D3035A84201D10F60AEE7E4
:20358000144D4835A84202D1C1F800C0A7E7114D10496035091FA84201D10A609FE70D4A12
:2035A0007832904201D10B6099E70A4A9032904201D10C6093E7074AA83290428FD1C1F81C
:2035C00000908CE7106002403D000020400F002000003D20106402400B0607D5436912B1FB
:2035E00043F0800301E023F080034361802908D0002A026801F01E0101D00A4300E08A430A
:203600000260704730B50368124ACC6813400A682243D1E905452C432243CC6922430C6A9F
:2036200022434C6A22438C6A22434C6B22438C6B22431A430260426922F00703D1E90B24C8
:2036400022431A4342610A6942604A6882608968C16030BD3F801CF07047000030B50546AB
:20366000002400F047F92DB1012D1CD0022D1DD04FF440740F4D082814D1286820F4407026
:203680002860286820432860286840F004002860286840F48030286000F02CF9296821F028
:2036A0000401296030BD4FF48074E3E74FF40074E0E70000103C024070B50646002529B112
:2036C000012927D0022928D04FF4407500F012F9134C08281DD1206820F4407020602068E2
:2036E00028432060206820F0F8002060206846F0020108432060206840F48030206000F067
:20370000F9F8216821F002012160216821F0F801216070BD4FF48075D8E74FF40075D5E7EE
:20372000103C02400B4908200A68D20301D5012070470A68D20601D5052070470A6812F01A
:20374000EF0F01D00620704709688907FBD50720704700000C3C02400248016841F000415F
:2037600001607047103C02400348017841F00201017000F0BFB80000143C024010B5044632
:2037800000F0B8F8082801D10148047010BD0000153C024070B515460C46064600F0AAF8BA
:2037A000082807D10449087800F00F0004432C4334430C7070BD0000143C024030B50D4695
:2037C000044600F097F8082806D1044801880DB1A14300E02143018030BD0000163C02405C
:2037E00070B50D46064600F085F80A4C082810D1206820F44070206020682060206840F0A5
:2038000001002060357000F075F8216821F00101216070BD103C0240F0B515461E4607469C
:2038200000F068F80B4C082813D1206820F440702060206840F440702060206840F001005C
:2038400020603D607E6000F055F8216821F001012160F0BD103C024070B50D46064600F024
:2038600049F80B4C082812D1206820F440702060206840F480702060206840F0010020606C
:20388000358000F037F8216821F00101216070BD103C024070B50D46064600F02BF80B4C4E
:2038A000082812D1206820F440702060206840F400702060206840F001002060356000F0BF
:2038C00019F8216821F00101216070BD103C024005480068002805DA034804490C38016006
:2038E0000349016070470000103C024023016745AB89EFCD08B508208DF80000FFF712FFA5
:203900008DF800009DF800000128F7D09DF8000008BDF0B5002201274FF0030C0B6807FA92
:2039200002F52B40AB422CD1066853000CFA03F4A64306600E79D0F800E09E4046EA0E06DD
:2039400006600E79012E01D0022E12D18668A64386604E79D0F808E09E4046EA0E0686602B
:203960004668AE43466045688E799640B6B235434560C568A543C560CC799C40C3681C430E
:20398000C460521C102AC9D3F0BD4B07DB0E9A40C90810B500EB8100016A0F249C40A1439D
:2039A0000162016A1143016210BD0246002012690A4200D001207047418370470183704728
:2039C0004FF6FF7101600021017141718171C1717047FEE7FEE770470149086270470000C5
:2039E00000000E4270470000044A0029116801D0014300E081431160704700003038024045
:203A0000044A0029116801D0014300E0814311607047000034380240044A0029116801D066
:203A2000014300E0814311607047000040380240044A0029116801D0014300E081431160A2
:203A40007047000020380240044A0029116801D0014300E081431160704700004438024086
:203A6000044A0029116801D0014300E081431160704700002438024070B5204B1968204C5A
:203A800011F00C0104D01F4E042903D0082903D004601BE0066019E0184A121F1168C1F355
:203AA0008055116801F03F0115B1B6FBF1F101E0B4FBF1F114681268C4F388146143C2F31A
:203AC0000142521C5200B1FBF2F1016019680F2202EA11110C4A545C0168E14041601C687E
:203AE000072505EA9424145D21FA04F484601B6805EA5333D25CD140C16070BD0838024084
:203B00000024F40040787D01000000200029018802D041F0400101E021F0400101807047D6
:203B200010B510498C14884209D101212046FFF797FF2046BDE810400021FFF791BF0A49FA
:203B40000C14884203D00949CC13884209D101212046FFF76DFF2046BDE810400021FFF777
:203B600067BF10BD0030014000380040003C004030B502884C8802F441530A88CD882243D4
:203B80008C882C4322430C8922434C8922438C892243CC8922431A430280828B22F4006271
:203BA0008283098A018230BD704770470E4810B5016841F0010101600B4A00210832116056
:203BC00002680A4B1A400260031D094A1A60026822F48022026004480C30016001F062FDC0
:203BE00005490448086010BD00380240FFFFF6FE103000240000060808ED00E00029018891
:203C000002D041F0010101E021F0010101807047002930F8441F02D041F4004101E0C1F3E2
:203C20000E0101807047000030B5028C22F001020284028C8388048B22F0020224F0730565
:203C40000C882C438D8915434A882A430C4DA84202D00C4DA8420DD122F00805CA8923F4F5
:203C600040732A4322F004058A882A430D8A1D434B8A2B438380048389684163028430BDBE
:203C800000000140000401404163704730B50288164C174DA0420DD0A8420BD0B0F1804F1A
:203CA00008D0144B984205D0134B984202D0134B984203D122F070034A881A43104B98421F
:203CC00006D0104B984203D022F440730A891A4302804A68C2620A880285A04201D0A8423F
:203CE00001D1897A01860121818230BD00000140000401400004004000080040000C0040F8
:203D000000100040001400400029818902D041F4005101E021F4005181817047002A828A3E
:203D200001D00A4300E08A43828270470246002012880A4200D00120704700007FB5044689
:203D4000008A0D46C98820F4405001432182A08941F20C618843A9882A8911436A890243A6
:203D60001143A181A08A20F44071A8890843A0826846FFF781FE1D48844202D01C488442F6
:203D800001D1039800E00298A1890904002900EBC00101EB0010296802DA4FEA410101E06B
:203DA0004FEA8101B0FBF1F06422B0FBF2F14FEA01114FEA11136FF018056B4300EB830068
:203DC000A3891D044FF0320306D503EBC000B0FBF2F000F0070005E003EB0010B0FBF2F0A5
:203DE00000F00F00084320817FBD000000100140001401400029818902D041F4004101E09A
:203E0000C1F30E0181817047C1F3080181807047FEE7000010B504F00DFE0D4808214183C6
:203E2000016821F0C00141F040010160094909780329C16821F4404101D841F48041C160C6
:203E4000642007F057FCBDE81040072006F020B800000240130000201CB501F031F84FF407
:203E60008050009000208DF804008DF8060001218DF807108DF8050069460748FFF749FD2C
:203E80004FF47A7007F036FC03481030006840F30030401C1CBD0000000802402DE9F047AA
:203EA000274E002535607560B560F56007F09CF908B1052400E0322407F096F918B901F0A8
:203EC0001DFD002839D01FA002F093FE7581F58104F0AAFA0746DFF8848040F28F2909E056
:203EE00002F0D4FC04F0A0FAC11B414502D9484604F0E0FE7089A042F2D319A002F079FE13
:203F0000B581F58104F090FA0546194F4FF4247809E002F0BBFC04F087FA401BB84202D9AE
:203F2000404604F0C7FEB089A042F2D311A002F060FEBDE8F04703F00DB9BDE8F0870000B0
:203F40008404002057616974696E6720666F7220627574746F6E2E2E2E0D0A00404B4C004B
:203F600062746E20707265737365640D0A000000E067350062746E2072656C6561736564AB
:203F80000D0A00004FF4C870411D04F01BB900002DE9F84F0E46044600EB84004FF49B71B0
:203FA00001EB400000903B481D4690460078182801D0222805D102EB820101EBC8004FEA83
:203FC0002018704247B2022C0DD3604240B28146282E03D80022394607F070F800223946C3
:203FE000484607F06BF860B283460DB1012200E0002271B207F062F804EB84014FF49B72E3
:2040000002EB410101F10209002828DB04EB8401134603EB410101F1010A40450BDA282E8F
:204020004FF004002FD8FCF7ADFD0099016000221949FCF7A7FE04EB84014FF49B7202EBD2
:204040004104E41C0DB1A84218DC0DB1012200E000223946584607F031F8002805DD042031
:20406000FCF790FDC0F80090E1E7C8F100018842D5DC002D0CD06942884209DA0420FCF703
:2040800081FD0460D3E7FCF77DFDC0F800A0CEE7BDE8F88F12000020DCD0060810B50446E3
:2040A0000A2007F027FB07484FF0100114B1FFF783FC01E0FFF782FCBDE810400A2007F079
:2040C00019BB00000000024070B5164C00F02EF800F0F6FE1449012008801348183801682F
:2040E00021F00301491C01600E480C38016821F440610160206820F4406040F4006020607B
:204100000A2007F0F7FA201D0068C0F34015206820F4406020604FF47A7007F0EBFA2846AD
:2041200070BD00000C080240180402402DE9F047184CDFF86480194E2078194D4FF4004743
:2041400020B304212846FFF739FCB946394647464046FFF733FC49463846FFF72DFC0120CB
:2041600007F0C8FA04213046FFF726FC02212846FFF722FC4CF2503007F0BCFA0421304628
:20418000FFF71CFC02212846FFF718FC00202070BDE8F0874402002000000240000C0240B4
:2041A000000802401CB56B4608220021862001F055FADDE9001202A002F01BFD1CBD0000A5
:2041C00064726F702C25642C25640D0A000000007CB50D46002100918DF801001446ADF8EE
:2041E0000220C020019300F02BF80821684606F0FFFB2146284606F0FBFBC02000F020F8A6
:204200007CBD000070B5054604F00EF90B4E00EB05044FF00000308007E03088800604D5C0
:204220000648001D0088C0B270BD002DF5DB04F0FBF8A042F1D34FF0FF3070BD0044004043
:2042400003490A881206FCD50149091D088070470044004005494020088004481838016829
:2042600021F4405141F48051016070471808024010B540F24C44002322467C211846FFF715
:2042800087FE002322467C210120FFF781FE144C2078162801D2002300E0124B124A5021A5
:2042A0000320FFF775FE00F087F82078172801D2002300E00D4B4EF6602250210220FFF7AF
:2042C00067FE2078172801D0212808D100232821BDE810404FF47A720220FFF759BE10BD23
:2042E000120000208038010070110100A009010010B5084C2078142808D02030C0B20021FF
:2043000002F0A4F904492078086010BD00214320F6E7000012000020E80100201CB56846D9
:20432000FFF74EFB4FF47040009000208DF8040001208DF8070069460648FFF7EAFA64200A
:2043400007F0D8F90348103000680F2121EA10301CBD0000000402401CB5164C07F070F876
:20436000FFF778FF01208DF804000021114822158DF806108DF807101A3000928DF80510C8
:20438000028069462046FFF7C4FA012007F0B2F9216821F440112160322007F0ABF94FF46F
:2043A0007A7007F0A7F9034810300068C0F380201CBD00000004024010B520488AB0017837
:2043C000162939D3182937D01D4C222934D001AB10220021852001F041F900231A4602211D
:2043E000802001F03BF900231A462B21872001F035F9204607F07EF905AB102200218520E7
:2044000001F02CF900231A460321872001F026F904990898441A21460AA002F0EAFB0D4850
:20442000844209DA0420FCF7ADFB40F25911016000220949FCF7A6FC0AB010BD1200002055
:2044400080841E00686561646C696D6974732C25640D0A0070110100DCD0060870B5184889
:2044600007F048F91748016841F0030101601648016841F44061016000252C460F2006F0EC
:20448000BDFC641C0544FF2CF8DD2C1221460FA002F0AFFBB4F5167F05DB0420FCF772FB08
:2044A00040F2122106E0B4F5967F08DA0420FCF769FB0621016000220749FCF763FC70BD1D
:2044C00020A10700000402400008024071312D6D762C25640D0A0000DCD0060870B51446CD
:2044E0000D46064607F012F8304606F0DDFA06F0E3FF284606F0D8FA06F0DEFF200A06F0D8
:20450000D3FA06F0D9FFE0B206F0CEFA06F0D4FFBDE8704006F0D8BA10B501214020FFF7CD
:204520006FFA0348016841F00401016010BD0000000806503EB50D4C01211020FFF76CFAA2
:204540003B20ADF8000000214FF6FF70ADF80810ADF8021001908DF80A1069462046FFF7D7
:2045600095FB01212046FFF749FB3EBD001000402DE9FF4F83B01D46DDE9031001EB0009D6
:204580000498DDE9116B0499C01701EB90701746019084E003F048FF0446DFF818810CE0AB
:2045A00003F042FF011B414507D903F043FC0420FCF7E8FA40F2C91122E0484600F0CAFBC9
:2045C000401CEDD139463CA002F013FB04210120039A07F0AFFA002418E055F8242026B15F
:2045E00007EB8400B04200D15A460C21012007F0A1FA012809D00420FCF7C4FA4FF4E37194
:20460000016000223549FCF7BDFB641C0198B4EBA00FE2DB4846394601F0BAFA30A002F056
:20462000E8FA03F001FF044604E003F0FDFE011B4145BAD8484600F08DFB401CF5D12BA062
:2046400002F0D7FA002423E007EB8400009055F8248000F07FFB82461EB10098B04200D11D
:20466000D84650464146C24511D00B46024623A0009902F0BEFA434652462AA0009902F002
:20468000B8FA0420FCF77EFA4FF4E471B8E7641C0198B4EBA00FD7DB0498074405441098B1
:2046A0008542FFF477AF07B025A0BDE8F04F02F0A0BA000040420F005357442073656E6425
:2046C000696E6720626C6F636B202530387820746F20737475622E2E00000000DCD0060855
:2046E00077616974696E672E2E000000766572696679696E672E2E0A0000000044617461B8
:2047000020666F756E6420617420253038782077617320253038782C206E6F742025303869
:20472000780A00006D69736D617463682C253038782C253038782C253038780D0A000000F7
:2047400053756363657373210A00000010B5012000F012FC0446FCF7F4F80F280BD30AA089
:2047600002F047FA0420FCF70DFA0921016000220B49FCF707FB21460A48FCF7A9F8BDE800
:20478000104003F057B900004C6F7420636F646520697320746F6F206C6F6E670D0A000087
:2047A000DCD006085404002010B50023822228211846FFF7EDFB0023822228210120FFF78F
:2047C000E7FB00234FF47A7228210220FFF7E0FB00232821BDE810404FF448720320FFF7F2
:2047E000D7BB000070B5084D0446C4F303112868405C00F0A1FF296804F00F00085CBDE83F
:20480000704000F099BF00001CC7060870B50A2490FBF4F50646202000F08EFF642096FBCA
:20482000F0F03030C0B200F087FF95FBF4F004FB10503030C0B200F07FFF04FB1560BDE824
:2048400070403030C0B200F077BF00002DE9F04180461E48069D1C46007816460F4610B946
:204860001BA002F0C6F9404602F0C3F90C2101F02DF8384602F0BDF9102101F027F8002EC0
:2048800004DD314613A002F0B4F905E001D113A000E013A002F0ADF90A2101F017F80CB1F1
:2048A000204600E010A002F0A4F90F2101F00EF81DB1284602F09DF900E00020002101F076
:2048C00005F8BDE8F04109A001F0B0B9C00000202020000030782530365800003000000027
:2048E00053495A45000000006E6100000D0A00000849094A01EA5001411A02EA9000081ABE
:20490000064900EBD00008403F21B0FBF1F201FB12007047DBB66DDB49922449C7711CC756
:204920000849094A01EA5001411A02EA9000081A064900EBD00008403F21B0FBF1F201FB62
:2049400012007047DBB66DDB49922449C7711CC72DE9F74F84B09246DDE9043167A002F0F6
:2049600048F904F025F96C4806F0C4FE6421084604F00EFE04460020019003F055FD81469E
:20498000A8E0049870B103F04FFDA0EB0901049843F609525043B1EB801F03D3022007B051
:2049A000BDE8F08F5D49402008805C481838016821F4405141F4805101604FF00008464608
:2049C0004446C34603F030FD029003F02DFD5449084400905EE002F0CBFB074603F024FDA5
:2049E000A0EB0B004CF2503188422CD903F01CFD8346002509E0082002F03EFD202002F029
:204A00003BFD082002F038FD6D1CA542F3DB394644A002F0EEF804463D4604E043A002F010
:204A2000E8F804440F3D002DF8DC03F0FDFC0099401A3F49884206D903F0F6FC00903DA09F
:204A400002F0D7F80024BAF1000F03D0574501DA761C00E000260A2E0ADD30494020891C38
:204A60000880514634A002F0C4F80120019018E0032F02DA08F1010000E0002080460A28EB
:204A800008DD26494020891C08802FA002F0B1F8012084E703F0C8FC0299401A3049884250
:204AA00099D324A002F0A5F803F0BEFCA0EB09012C48B1FBF0F12CA002F09BF804F078F83F
:204AC000154806F017FE6421084604F061FD0199044631B9059900293FF453AF8C42FFF4BE
:204AE00050AF03F0A1FCA0EB09011E48B1FBF0F11DA002F07EF8002051E700007265636880
:204B0000617267652C256463562C25646D412C2564730D0A0000000020A1070018080240BC
:204B200000EE85FF25303364200000003D000000809698000D0A00000D0A692D646F6E65A2
:204B40002C25646D410000000D0A726F626F74206F666620636F6E746163740D0A00000037
:204B6000804A5D0540420F006368617267652074696D653A202564730D0A000070B50D465A
:204B8000064602F095FB041E0ADD4EB1A54201DA294600E001460A4602493046FBF7F0FEF6
:204BA000204670BD0440024038B54FF0FF35002400956946202000F0F1F8641C192CF8DB63
:204BC000002469462020009400F0E8F86946202000F0E4F86946202000F0E0F869462020FD
:204BE00000F0DCF869462020009500F0D7F86946202000F0D3F86946202000F0CFF86946AF
:204C0000202000F0CBF84EF29E7000906946102000F0C4F869462020009500F0BFF869465E
:204C2000202000F0BBF86946202000F0B7F86946202000F0B3F869462020009400F0AEF860
:204C40006946202000F0AAF86946202000F0A6F86946202000F0A2F838BD38B54FF0FF3588
:204C6000002400956946202000F0D4F8641C192CF8DB002469462020009400F0CBF869462F
:204C8000202000F0C7F86946202000F0C3F86946202000F0BFF869462020009500F0BAF8CF
:204CA0006946202000F0B6F86946202000F0B2F86946202000F0AEF84EF29E7000906946CC
:204CC000102000F0A7F869462020009500F0A2F86946202000F09EF86946202000F09AF821
:204CE0006946202000F096F869462020009400F091F86946202000F08DF86946202000F008
:204D000089F86946202000F085F838BD38B502460421012006F0DCFE04466A460C2101202E
:204D200006F078FA04436A460C21002006F072FA2043012809D00420FBF724FF40F2C311C1
:204D4000016000220249FCF71DF8009838BD0000DCD0060838B502460421012006F0EAFEDD
:204D600004466A460C21012006F093FA04436A460C21002006F08DFA2043012809D004201E
:204D8000FBF700FF40F2C311016000220249FBF7F9FF009838BD0000DCD006082DE9F84FC0
:204DA0000D4606460C6804F005F9194F002239154FF00A094FF4006ABB1E25E0CC46CDF862
:204DC00000900098A0F10108CDF800800028F8D1D046A7F800A0E00701D0198000E039809C
:204DE000CDF800C05FEA0C00ACF1010CCDF800C0F8D1761E521C202A03DB55F8044F0022F5
:204E000000E06408A3F80080002ED7D1BDE8F88F1A040240F8B50D4606460C6804F0EAF833
:204E200000224FF4006C4FF00A0E4FF48057124B1FE0CDF800E00098411E00910028FAD1B4
:204E40005F83E00702D0A3F818C001E0A3F81AC0CDF800E00098411E00910028FAD1761E3A
:204E6000521C202A03DB55F8044F002200E064081F83002EDDD1F8BD0000024010B503F061
:204E800039F906F059FC00F01BF8FFF74FF902F02FF806F0D5FABDE81040FFF7DBB908B53A
:204EA0000120FFF7FBF8052006F0BAFA0121684605F090FD0020FFF7F1F89DF8000008BD6E
:204EC00005494020088004481A38016821F4405141F48051016070471A08024010B5002088
:204EE00003F072FB03F0A0FA0749062248620749012000F0EBFEBDE810404FF480620449F2
:204F0000002000F0E3BE00005802002021C70608A00400201CB56B4608220021862000F049
:204F20009DFBDDE900120AA001F063FEDDE90001401A632801DC632909DD0420FBF722FED4
:204F400040F26221016000220549FBF71BFF1CBD64726F702C25642C25640D0A00000000B0
:204F6000DCD00608034902480968016070470000880200200040000802460C4810B500788D
:204F8000824208D30420FBF7FDFD0121016000220749FBF7F7FE0021064804E003780BB9F4
:204FA000491CC9B2401C9142F8D110BD8C020020DCD006088012002070B50C4D4FF4005120
:204FC000284603F0F5F904464FF48041284603F0EFF9022803D1022C03D0012C03D00020CC
:204FE00070BD032070BD042070BD0000000802402DE9F8430F4F0646388807F104080007D3
:2050000003D53888B8F8000000904FF0FF3503F00BFA044606E03888800603D5B8F800004F
:20502000C5B204E003F000FA001BB042F3D32846BDE8F883004800402DE9F04100201E4D6D
:205040004FF400220EE0083090420BD31BA001F0D0FD0420FBF796FD0A21016000221D49DF
:20506000FBF790FE05EBD00109780029EBD005EBD00100240978012601E0641CE4B206FA06
:2050800004F20A42F9D00719FEF722FCA640F043C1B205EBD700FEF7A3FBFEF75DFB0E4849
:2050A0003A4601680DA001F0A4FD394611A001F0A0FD3846BDE8F0810000010866697874B2
:2050C00075726553657175656E63652C2D310D0A00000000DCD00608FC3F000866697874F2
:2050E00075726553657175656E63652C25692C25690D0A00416C6C6F63617465642073651F
:205100007269616C3A2025780A0000002DE9F041012196B00325404E0024404FDFF8008176
:205120000846FEF761FC0121C804FEF775FC01214805FEF759FC02208DF850008DF85240B4
:205140008DF8510013958DF8534013A93046FEF7E0FB082200213046FEF717FC08220121A2
:205160003046FEF712FC00213846FEF7CDFD2D480F90ADF844400C20ADF84040ADF84600DF
:20518000ADF84240ADF8484001213846FEF732FE0FA93846FEF7D2FD01213846FEF7B4FDB6
:2051A00046464046FEF786F94FF000600090381D01901D48CDE902048020CDE90404C00015
:2051C000CDE906048010CDE908400AA9280431C10D94694630460E94FEF714FA01224021C1
:2051E0003846FEF79BFD002210213046FEF7F4F901213046FEF754F90CA001F08DFF11489D
:20520000017819B1407808B1012000E000200E49487016B0BDE8F08100000240004C004000
:205220004060024040420F0000120020436F6E736F6C6520496E697469616C697A65640D53
:205240000A000000160000208C0200202DE9F043012787B02026414D4FF010080024DFF892
:20526000009139463846FEF7BFFB01210220FEF7BBFB0121C803FEF7CFFB8DF818708DF8C4
:2052800019708DF81A408DF81B40062205212868FEF77BFB062203216868FEF776FB0220D9
:2052A0008DF81800059605A96868FEF732FB0820059005A96868FEF72CFBE868016821F4F1
:2052C000404141F480410160A8680783016821F00301491C016028694746A0F81A8001685F
:2052E00021F4407141F480710160C8464846FEF717FCADF800404FF48270ADF802003001CB
:20530000ADF80840ADF80A00ADF80C600720ADF80440ADF81000ADF80640ADF80E4069468E
:2053200046464046FEF724FC01213046FEF7EEFB42F2107006F0DEF92869078308480830AC
:20534000048019220749012000F0C0FC00F0AEFC05A001F060FD07B0BDE8F083580200209B
:20536000003C004009C906085374617274696E672075702E2E2E00007CB54FF4807501216B
:20538000184E6C004805FEF747FB01208DF807008DF8060000218DF805108DF8040069468C
:2053A00030460095FEF7B5FA694630460094FEF7B0FA0C481830048005800D220021802051
:2053C000FFF78CF8002205218020FFF787F80D2200218820FFF782F8002205218820FFF7A8
:2053E0007DF87CBD000402400021425CFF2A01D000207047491C8029F7DB01207047000071
:2054000070B51548C16821F4407141F40071C160016821F440710160042004F039FDB0F5D1
:20542000AF6F17DD00240D4D08E00C2802D1E0B204F0C8FB962006F05DF9641C04F030FC02
:20544000A0422878F1DC0C2802D1FF2004F0BAFB012070BD002070BD00000240120000201F
:2054600010B503F0A5FB094800231A46007800F03F01072000F0F2F8054CE07818B90021BC
:20548000412001F0E3F80120E07010BDFC3F0008500100202DE9F0411646144A1D46069FE4
:2054A000D36823F44073D360102353830028106820F4407001D040F4807010600C4C206802
:2054C00040F0C0002060206840F44070206011B1084606F00FF91FB90D2005F08FFC30604D
:2054E0000E2005F08BFC2860BDE8F0810000024000080240104910B5402008800E4818382C
:20550000016821F4405141F480510160016821F4404101604FF4FA7006F0ECF803F02EFD10
:205520000649097809B1032801DC892801DD012010BD002010BD00001808024011000020DC
:205540002DE9F0471E46154689468046374FFEF7EDFD05F075FF4CF2503006F0CBF804F071
:20556000B1FDFFF721FB01F051FA31A001F041FB3449384600F0E8FA42460421012006F0A0
:20558000A7FA701B0024C01CC11700EB91760EE055F824200C21012006F09AFA012805D0C0
:2055A0000420FBF7EFFA40F2C51132E0641CB4EBA60FEDDB0021484600F0C6FA0F24454619
:2055C0003846FFF7A3FBC003FAD518482946083000F0BAFA154844F48031001D00F0B4FA7B
:2055E00018493846891E00F0AFFA17A001F001FB02F01AFF0446174D10E002F015FF001B1E
:20560000A8420BD902F084FB0420FBF7BBFA40F2C711016000221049FBF7B4FB4846FFF775
:2056200075FB401CE9D1BDE8F0870000F0ED00E05357442077726974696E6720737475621B
:205640002E2E000003005FA077616974696E672E2E0A000040420F00DCD0060838B5012436
:20566000009401F095FD38BD08B5002000900120FFF782FC6A4603A1FBF75CF8009802F0F8
:20568000D3F908BD2569000010B50120FFF774FCBDE81040014A02A1FBF74CB8BC000020EA
:2056A000256900000CB50022204900920192086840F480300860086800F400300190009872
:2056C00000F10100009001980028F4D00868800329D5012001901548083002680260026855
:2056E00042F400420260026842F4A0520260031F0F4A1A600A6842F080720A600A689201E2
:20570000FCD50C4940F203720A60016821F003010160016841F0020101600168C1F38101D6
:205720000229FAD10CBD0192FEE7000000380240193C4005003C024010B5064C01462046DC
:20574000FEF762FB80212046FEF7F0FA0028F9D010BD00000010014070B5041E01DA2D2093
:2057600000E02020FFF7E8FF0A26002C00DA644242F2107094FBF0F03030C0B2FFF7DCFF8A
:205780004FF47A7094FBF0F090FBF6F106FB11003030C0B2FFF7D0FF642094FBF0F090FBD4
:2057A000F6F106FB11003030C0B2FFF7C5FF94FBF6F595FBF6F006FB10503030C0B2FFF74B
:2057C000BBFF06FB1540BDE870403030C0B2FFF7B3BF00000F4810B500780F4C082817D024
:2057E000A07800F0FC02607800F003010BA001F000FAA078617800F0FC0001F00301084324
:20580000002341B2BDE810401A468420FFF726BF10BD00001200002050010020506C617998
:2058200020546F6E65202325642C20766F6C756D652025640D0A000070B5FEF749F80021C6
:205840000820FDF739FF074D074E0024A019295DFDF7C6FF641C042CF8D3BDE87040FDF76B
:205860007BBF0000880200200040000810B503F085FB01460246BDE8104001A001F0B9B93C
:2058800049203D2025692C2025580D0A0000000004490880081F01880906FCD50188490697
:2058A000FCD570470414014010B503F071F901460246BDE8104001A001F09BB956203D20A8
:2058C00025692C2025580D0A0000000070B5044608480D46007848B1BDE87040064800F044
:2058E000A5B90548001D00F0A1F9641CAC42F8DB70BD0000C000002078C6060804480078F8
:205900000C2803D01F2801D00020704701207047120000202DE9F041394E3A4F706830B177
:2059200002F082FD7168401A3749884247D902F07BFD7060307A401CC0B23072062801D303
:205940000020307205F050FCC8B300231A460F218820FFF783FE307A002457F820502AE060
:20596000E80726D0E1B20F200B291CD2DFE801F006080A0C0E10121416181A000B2012E0D9
:205980000A2010E009200EE005200CE004200AE0032008E0082006E0072004E0062002E08B
:2059A000022000E0012041B200231A468820FFF755FE6D08641C04F073F9A042D0DCFFF784
:2059C0009DFF00281AD0307A002457F820500CE0E80701D0204600E0FF20C0B204F0F2F82B
:2059E0006D08962005F086FE641C04F059F9A042EEDCBDE8F041FF2004F0E4B8BDE8F081F6
:205A000084040020E0C6060890D003002DE9F0410C46054605F02EFD2F68002100F00F0309
:205A2000C0F303129A4202D216461A4633469F4214DB974212DBD61A092E0FDC062B0DD8FB
:205A4000062A0BD32668A2EB060C9C4502DC1E44964203DA2B602260BDE8F081000A491CA3
:205A60000429DBDBD6E710B500231A460A218020FFF7F4FDFEF712FA00230421BDE810404E
:205A80001A468020FFF7EABD2DE9F0410C4600220646114600F010FB05460022012120461B
:205AA00000F00AFB07461EA001F0A3F80021481E04F0A0FB1E4805F01DFE0021084604F06B
:205AC00099FB1C4805F016FE1BA001F092F801220021304600F0F0FA0646012211462046CF
:205AE00000F0EAFA40F28D24052D06DB4FF42675282F0DDB7142052907DA0420FBF742F8AD
:205B0000046000220F49FBF73DF94042282804DA0420FBF737F80560F3E7BDE8F081000035
:205B20006D6F746F72206272616B652E2E2E0000A086010090D0030072656C656173650D0D
:205B40000A000000DCD0060838B50D4602460421012005F0BDFF04462A460C21012005F005
:205B6000B7FF04436A460C21002005F053FB2043012809D00420FBF705F84FF4E271016079
:205B800000220249FBF7FEF838BD0000DCD0060838B50D4602460421012005F0CBFF04462A
:205BA0002A460C21012005F0C5FF04436A460C21002005F06EFB2043012809D00420FAF752
:205BC000E1FF4FF4E271016000220249FBF7DAF838BD0000DCD0060870B500234FF4B4755A
:205BE0001A4605218020FFF739FD02F0E1FF002000F0B0FE0B4805F07DFD0021084603F09F
:205C0000C7FC0446012000F0A5FEAC4209D20420FAF7B8FF40F26D21016000220249FBF7AE
:205C2000B1F870BDA0860100DCD0060810B50146074C0020221F06E0238001F101011388D5
:205C40001B06FCD5401C0B78002BF5D110BD0000044C004014488078252822D2DFE800F0D9
:205C60002117151B1313131319171B1B1B1719191D1D1D1D1D1319191919192115191B1B00
:205C8000191919191F00FEF71FBAFEF765BBFEF7E3B8FFF72FBCFFF7B3BB00F027B903F006
:205CA0000BBA0020704700001000002010B5002001F0A4F84FF480610348FAF7E0FEBDE8C3
:205CC0001040FFF70BB90000A00400202DE9F041174E14460D468022DFF85880F1680127CB
:205CE00008B14A8300E00A83012005F003FDB0684783012005F0FEFC0E4A4046121D05E0B7
:205D000001888907FCD515F8011B1180211EA4F10104F5DC01888907FCD501880906FCD4E3
:205D2000B0680783BDE8F041012005F0E3BC000058020020083C00402DE9F04F0C46164635
:205D400001F2FF31CA1701EB92518A1204F6FF714FEAE17C01EB1C51DFF848C1ADF2445D5B
:205D60001F46DCF850C00DF5A463CDF82C056FF30B01A3E806104B49DFF824A14FF4807B5E
:205D80004FF48262583104A8FAF73FFE46480DF5A66500F16801406F0EC9CDF83C050EC525
:205DA00042480DF584630DF5A4620068CDF840050020CDE9003BCDE902A0102302213CA05B
:205DC00003F070FF0DF120094FF48068002F44D03078FF2841D142E04046844201DD454614
:205DE00000E025468046454504DA0146FF224846FAF73DFE47B1327829464846FAF737FE43
:205E000049464046EF2508E02A4631464846FAF7B7FDF5E711F8012B5540021EA0F10100FF
:205E2000F8DC0598810225A000F0E3FE0DF58462CDE9002BCDE902A54FF4826304AA0321B8
:205E400023A003F02FFF0FB1002000E0404606440598A4F58064401C0590002CBCDC0024DB
:205E60000DF58467CDE902A4CDE9007B55465E4610230DF5A662052116A003F013FFCDE995
:205E80000254CDE9007604230DF5A862062114A003F008FF0DF2445D0120BDE8F08F000093
:205EA000A08601002CCA06082CCE06082CC90608466C61736820426567696E00466C617333
:205EC0006820426C6F636B202530365820000000000000004D656D202020426567696E00C8
:205EE0004D656D202020456E6420200010B500F023FB0548054900680978884201D00120B9
:205F000010BD002010BD0000E80100201200002009480A490068884202D10948C36900E086
:205F2000084B0A490848097850F821200848016808A000F05EBE0000F4E00F081E0DB0CA64
:205F400000000608DEC0AD0B2400002012000020FC3F000873657269616C2C25692C257326
:205F60002C25690D0A00000070B51A4C02F05CFA054619A000F03DFEFEF7A2FF1B4805F060
:205F8000B9FB1448A1141A300180206820F0407040F080702060FEF75DF9154805F0AAFB47
:205FA000206820F0407020604FF0FF3000F012FB02F03AFA401B4FF47A71B0FBF1F10DA0C5
:205FC00000F017FE0FA000F014FEBDE87040124805F090BB00080240486561646C657373A9
:205FE00020426F6F742E2E2E00000000A0860100305705006F6B20696E2025646D730D0A3F
:2060000000000000737973636F6E20626F6F742064656C61790D0A00E0930400F0B5002586
:20602000224E234F87B00446012800DA214C01210420FDF7D9FC01212020FDF705FD8DF8A1
:20604000145040208DF8165004908DF8175004A93046FDF75EFC082206213046FDF795FC54
:206060008020049004A93046FDF753FC082207213046FDF78AFC00213846FDF745FEADF8C9
:2060800008500C20ADF80450ADF80A000094ADF80650ADF80C5069463846FDF74FFE0121B4
:2060A0003846FDF731FE07B0F0BD00000008024000140140A08601002DE9F74F4FF0000B6F
:2060C00086B04FF42F68C146DA465F465E465C465D460899069804F08DF85B4805F00AFBA6
:2060E00002F0A2F904900020019000200146009003AB02AA0120FFF7CDF9029840F6FC02D2
:20610000904207DD37B901270EB1012101E04FF0FF310C444FF47A73984200DA0027039989
:20612000914206DD2EB901260FB1B21E00E001221544994200DA0026584500DD834640450C
:2061400000DA8046514500DD8A46494500DA894602F06AF90198401C0190B0F5802FC4DB57
:2061600002F062F90499471A0021084604F042F8002C01DA604200E0204643F6095148432A
:20618000BE0990FBF6F38DE8100903A96211A1E820062EA0069900F02CFD43F609506043AD
:2061A00090FBF6F0002800DA4042029043F60950684390FBF6F0002800DA40420490601121
:2061C000039008986E1108B12AA100E02AA13B462AA0069A00F00DFDCDE9008BDDE90232BE
:2061E00021462FA000F005FDCDE9009A3246294637A0049B00F0FDFC601B801C05280ED3BC
:206200000420FAF7BFFC079911B140F29A2101E040F28B21016000223949FAF7B3FD08985A
:2062200048B1002C09DD0420FAF7ACFC079941B140F29B21EEE7002CF5DB039809B0BDE84C
:20624000F08F4FF42371E5E790D003006D6F746F72746573742C25642C25642C25642C2558
:20626000642C25642C25642C25642C25642C25640D0A000072657600667764006D6F746FCD
:2062800072746573742C25732C73706565643D25642C74696D653D256475730D0A00000065
:2062A0002020613A7469636B732C6E6F726D2C687A2C6D696E2C6D6178203D2025692C25B1
:2062C000692C25692C25692C25690D0A000000002020623A7469636B732C6E6F726D2C689A
:2062E0007A2C6D696E2C6D6178203D2025692C25692C25692C25692C25690D0A0000000038
:20630000DCD006082DE9F041464F47A13846FAF703FB0124A8B146A13846FAF7FDFA464D34
:206320000026E0B145A13846FAF7F6FA05F10C08C0B144A13846FAF7EFFA98B12C703C4642
:2063400036E041A0FFF772FC42F2107005F0D2F93E4802214470BDE8F04104F089B96E7027
:20636000BDE8F0813AA0FFF761FC002445463EA0FFF75CFC04EB440055F82000FFF756FC17
:2063800031A0FFF753FC641C162CF0D337A0FFF74DFC39A0FFF74AFCBDE8F0412AA0FFF7A1
:2063A00045BC202803D126702878401C2870641C20780028F5D10024254605EB450108EBD8
:2063C000810639463068FAF7A7FAD0B97068C0B1307A012410B12B48007818B1706800257A
:2063E000804709E0BDE8F04127A000F002BCFAF7F9FB0568FAF758FC294628A000F0F9FBF0
:2064000002E06D1C162DD8D3002CA9D109A13846FAF75CFB0028A3D03946BDE8F04122A05B
:2064200000F0E7BB80120020726573657400000065786974000000008C02002068656C70E4
:20644000000000003F0000000D0A000016000020417661696C61626C6520636F6D6D616E94
:2064600064733A0D0A00000020200000202072657365740D0A0000002020657869740D0A29
:2064800000000000110000204E6F206465766963652070726573656E740D0A00737461748A
:2064A00075732C25690D0A00556E6B6E6F776E20636F6D6D616E643A2025730D0A0000002B
