:020000042000DA
:1000000000980020C9040020D1040020E904002049
:1000100000000000000000000000000000000000E0
:1000200000000000000000000000000001050020AA
:100030000000000000000000190500201B05002042
:1000400099210020872200203D2F030075220020E7
:1000500001220020BD2F03009F220020AD2200209E
:10006000E31E00201D050020ED220020DD2F0300EF
:10007000A77E02001D0500201D0500201D05002093
:100080001D0500201D0500201D050020311E00203B
:10009000351E0020391E00203D1E0020411E00207C
:020000042000DA
:100160003200000035050020B318002021070020D0
:100170000000000000000000A77D0200017E0200D8
:100180000F7E02004B7E0200697E0200857E020027
:10019000AD7E0200DD1F0020590D0020B50C0020AF
:1001A000BF0C002000000000000000003F00000025
:1001B000F48B002000040000140D0800480100002A
:1001C0000809080000040000680E0800200500006F
:1001D000000000002000000048000000580000005F
:1001E00068000000260300003A0300004E030000F0
:1001F00054030000D02800008E2E000001000000F3
:10020000881300003D19002039330020F737002003
:10021000251500201326030097710200251F0020DA
:10022000030000002F1C0200210700200100000035
:1002300087450200BF440200A92500200B39002099
:10024000653A00204B3B0020577F0200C57F02002B
:10025000D44A0020BB8002009B8102004982020038
:10026000E98202000D830200738302008983020089
:100270000B8502003186020033870200E589020007
:100280001F8A0200278D02005B8A02003F8B02005A
:10029000118C02005F8C0200F30B0020ED8C020039
:1002A00033360020754D02002F4E02001000000072
:1002B00020030000803E00003F0000000D00000011
:1002C0001700000000000000000000000000000017
:020000042000DA
:1002D000504600030003983A6400F401B80B000C88
:1002E000B80B120030003000CD009A01120024003B
:1002F00030006400B0001800280012001200D0077F
:100300000000FFFF000000000000000000000000EF
:100310001F00000244413134353831000000000034
:1003200000000000000000000000000000000000CD
:0403300000000000C9
:020000042000DA
:10035000FFFF010000C201000000000000000000DB
:100360000000F4010100010000070000000000008F
:10037000000000000000000000000000000000007D
:10038000000000000000000000000000000000006D
:10039000000000000000000000000000000000005D
:1003A00000000000000000000000444131343538F6
:1003B000300000000000000000000000000000000D
:1003C000000000000000000000000000000000002D
:1003D000000000000000000000000000000000001D
:1003E0000000000000000000010000CAEA80D00701
:0403F000064064322D
:020000042000DA
:100450000348854604F084F800480047211C020048
:1004600000980020144906200880FF20134901301D
:10047000086005200007818A0906FCD541898908A2
:100480008900418141890906FCD50D4A91683E23C6
:1004900099432E31916000220280018A0F231B02B2
:1004A0001943018201210748C90404C1401E0028E4
:1004B000FBDA62B6704700000034005080E100E0D3
:1004C00000330050FF0B00001548804715480047D7
:1004D00004207146084203D0EFF30980124908470F
:1004E000EFF308801049084704207146084203D002
:1004F000EFF309800D490847EFF308800B490847DF
:1005000004207146084203D0EFF3098008490847E8
:10051000EFF3088006490847FEE7FEE7FEE7000024
:100520006504002051040020250700200109002057
:100530001111002008B500F01CFC0025052424073B
:100540000FE01420009500F09DFA0421684604F0A5
:1005500019F8002801D000F05AFB03F09FFE002894
:100560000BD02089000608D501208007006B00040D
:1005700003D404F00DF8C0070FD003F0D9FE002813
:10058000EFD172B601F010FF04280FD0022814D06A
:10059000032812D0012821D021E0042003F0FEFF1F
:1005A000064604F001F8002ED7D0CAE75348007879
:1005B000012801D0032000E0022000F012F8A08AF8
:1005C000800602D54E490820088030BF03F0BFFEE8
:1005D0004C48016904229143016100E030BF62B6DA
:1005E000BFE7F8B56946052508702D07298A04225A
:1005F0001143298204464448444EC069012701281A
:1006000011D9032C18D103F0D5FF002814D003F022
:10061000D7FF002810D0032003F0D8FF00280BD00C
:100620000220307009E0032C06D1032003F0CEFF36
:10063000002801D0377000E002246846047020468C
:1006400000F026F8324800260670204603F072FEBD
:10065000022C01D0032C1AD12E484188FF220132EE
:100660009143418069882C4A1180418839434180F7
:1006700000960098401C00901428FADB68898008D6
:100680008000401C688168894006FCD56E80F8BDFA
:1006900010B5022801D0032828D11A490B69042279
:1006A00013430B61052109074B8A2024A3434B8286
:1006B0000B8A022423430B8210230228488A16D077
:1006C000104348827F2208889201802420430880BA
:1006D0000020401CC0B20A28FBD3488A1843488235
:1006E0000E48521E42610888A043088010BD104386
:1006F0004882488A9843488210BD00007803080069
:100700000033005000ED00E0E0010020B0070800D9
:10071000CB13080020000050CC13080000800040DC
:1007200070470000052109070A8A04231A430A8238
:100730000A8A02231A430A820A8940231A430A8139
:100740001B4B01221A601B4B08221A804A8A802305
:100750001A434A82184A03681361436853618368E5
:100760009361C368D3610369136243695362836908
:100770009362C369D36210631048836A5363C36A88
:100780009363036BD363C36B0B4A40321360436BB9
:100790005360806B9060888A800608D500BE488AC6
:1007A000012280088000D203104348827047FEE790
:1007B00080E200E0003300504018080000ED00E047
:1007C0004A480178002902D0802141707047484989
:1007D000002008704749C8707047444801780029D4
:1007E00002D0812141707047414901200870414980
:1007F000C87070473D480178002902D082214170BD
:1008000070473B49022008703A490120C870704780
:10081000002804D0012803D0022802D1EAE7CFE75C
:10082000DBE77047324900200978002904D001290C
:1008300003D0022900D102207047012070472B48C5
:100840008178002904D0491E0906090E817017D14C
:1008500042780021002A04D09207920F0270417062
:1008600004E00278002A01D0521E02701206120E15
:10087000017005D0012A02D0022A01D1BAE7ACE703
:10088000704700B5194A9078401C90701078002885
:1008900005D1FFF7C7FF431CFFF792FF137000BDA0
:1008A00012490120C870704710490020C870704775
:1008B0000E48C07870470020EFF31081012282F3C8
:1008C0001088052212071289120605D40A480289E7
:1008D00001231A4302811846002900D0012181F327
:1008E000108870470548007870470000951308008D
:1008F00078030800B207080000330050C81308004E
:1009000005221207518A8023194351821249036834
:100910000B6043684B6083688B60C368CB6003697E
:100920000B6143694B6183698B61C369CB61086269
:100930000A48836A4B62C36A8B62036BCB62C36BE8
:100940000B63436B4B63806B8863908A800601D591
:1009500000BE7047FEE700000018080000ED00E050
:10096000414800214170017004218170704738B501
:10097000002403220223120204212046009401F0E5
:100980002AF90022012305211046009401F023F9E1
:1009900038BD38B50025354C0095032261782078A4
:1009A0000223120201F017F90095E178A0780123E3
:1009B000002201F010F938BD2C4B18705970987056
:1009C000DA70704710B505242407208A0221884375
:1009D0002082A08A0007FCD525484188FF220132E9
:1009E00011434180A08880210843A0800321092071
:1009F00003F0F2FD00F098FBFFF7B9FF608A2021B9
:100A00000843608210BD1B48416806229143091DBE
:100A1000416041680122114341604168382211431D
:100A20004160416840229143416041680322520283
:100A300011434160416882151143416041680722BA
:100A4000D202114341604168021491434160011593
:100A500009480160094A1068FF231B04984310608D
:100A60000748016070470000304C0020F84B002020
:100A7000200000500002004000E100E008E400E037
:100A800080E200E07CB5F94D04462878002821D0AA
:100A9000F74801884907FCD4C188009180880190FB
:100AA0000804019940180090F249204648430099F3
:100AB00003F098FD0190002028700198A86000982C
:100AC0002146800103F08EFDE860EB4844432C6131
:100AD000009868617CBDE64948800888032210437D
:100AE00008800888042210430880E049012008702B
:100AF0007047DE49AA204860704770B50521090794
:100B0000088930229043088108898023184308818E
:100B1000088980088000401C088108890822104349
:100B20000881D64804881C4304804C8A94434C8234
:100B30000D89402425430D810D8A0426B5430D827D
:100B40008D8AAD07FCD5C94EAA2575608588F0262B
:100B5000B543B0358580858803263602B543858048
:100B600085882D092D01858085880126B6023543AB
:100B70008580858876003543858085887600354375
:100B800085804D8A95434D8202885208520002802A
:100B900002889A4302800A89A2430A81408980051B
:100BA00003D5B6490520603188800120800701689F
:100BB000821591430160B24801683F22520291437D
:100BC000421489180160016802031143016070BD7D
:100BD0000321AC4809028181082242800021491C7E
:100BE0009629FCD38280704710B5A74803F000FD1A
:100BF00010BD70B5A14C6088C006050F03F0FEFC67
:100C000061881E2291436A001143618070BD70B5F6
:100C10009E490120C863C86B0028FCD101208007D1
:100C2000C1699B4800220368994200D202608F4C40
:100C300001266378974D002B04D06270016003F0A9
:100C4000E3FC11E0026819238A1ADB019A4214D3EB
:100C5000016003F0D9FC2988884201D9411A00E0DB
:100C6000091A89B2182908D32880012003F0D2FC80
:100C700003F0D6FC002800D1667070BD08B57B4932
:100C800089684843844903F0ADFC009008BD08B56D
:100C90000021009175490122D203C968904205D311
:100CA00003F0A4FE8905800A084301E04843800A56
:100CB000009008BD08B5FFF7E1FF009008BD08B53A
:100CC000FFF7E5FF009008BD40183721C00009017B
:100CD00040187047714B0020197800290DD06B49DE
:100CE0000122CA63CA6B002AFCD101218907C969A4
:100CF0006B4A1268914201D201207047002119709D
:100D000070470020704708B55C494A8801231A43A0
:100D10004A8000210091491C00911429FBDB052128
:100D200009074A8992089200521C4A814A89520650
:100D3000FCD54B89042213434B814880488990435A
:100D40004881888A0006FCD548898008800048814F
:100D500048890006FCD508BD10B55249002008603E
:100D6000FFF742FF01208007016B4900490801633A
:100D700010BD10B54949012008704B490820088072
:100D800003F054FC00F006FFFF2401343520214617
:100D9000000103F051FC01F0FAF8FFF713FE012007
:100DA00003F050FC00F0E8FCFFF7A7FE042000F081
:100DB000A3F8072000F0A0F80A2000F09DF8062014
:100DC00000F09AF80B2000F097F8012000F094F85A
:100DD000022000F091F8002000F08EF833480068FF
:100DE00003F036FC00F0E9F800F01BF900F03BFCE2
:100DF000A0050168214301601420FFF76CFE142058
:100E0000FFF740FEFFF7DCFC01F0E5FBFFF7A4FF76
:100E1000002005210907C88218494888E02290432C
:100E2000A0304880012003F019FC10BD204910B506
:100E3000884200D000BE03F017FC10BD0B4B0F49D9
:100E40005A88E031002809D0986850430A88C002C7
:100E500092099201800E02430A8070470888920628
:100E600080098001920E1043088070479C1308008F
:100E7000001600500024F40010270000200000504D
:100E80000002004020300050E2040000C00000409A
:100E9000F8050800F405080040420F00941308000C
:100EA000FC4B0020FC04080000330050F44B0020F1
:100EB0001111111130B5144A93898024A3439381F1
:100EC0000723138100239380958925439581050A83
:100ED0009580C0B2108091819089A04390810120BB
:100EE0000A4A010311600A4908630A48037603614C
:100EF000C3604360036030BDC106C90E0120884055
:100F000003490860704700000010005000E100E055
:100F100080E200E0B0050800FEB5884D019117465B
:100F20001E4600240090294603F0A4FB050005D0CE
:100F300033463A4601990098A84704462046FEBD2C
:100F4000FFB581B01F460E464D780C78002003F0A7
:100F500097FB042824D000281DD121E07848816A1D
:100F60002E206043091888880207120F130003F02F
:100F70008DFB070505050F050F050F008204920E76
:100F8000062A05D27278012A12D0072210438880DF
:100F9000641C6407640F28466D1EEDB20028DDD185
:100FA0003B463146039A019803F076FB05B0F0BD4D
:100FB000204603F077FB0020F8E770B5614803781E
:100FC000021D0021604D07E0CC00165D002E01D10E
:100FD0002418A560491CC9B29942F5D370BD70B5FB
:100FE00005460C46103C3F2003F04AFB00280FD07A
:100FF00056488068322806D955498D4201D03C2890
:1010000001D9002070BD2146504803F051FB06E095
:10101000204603F053FB01213F2003F055FB012044
:1010200070BD10B547490B780A1D002005E0C400CB
:10103000145D3F2C04D0401CC0B29842F7D310BDC1
:10104000414AC00010324018826010BDFFB586785A
:101050000446300281B00E30009003F011FB0028EE
:1010600001D0FF2652E00021442003F033FB394F2A
:10107000B5007851442103F033FB0121009803F0BF
:1010800023FB79590298888079596088C8807859FB
:1010900022792030417CD20749084900D20F114300
:1010A000417478590622A11D3B3003F01FFB78598B
:1010B000617940304170785906223430039903F049
:1010C00015FB795904982031887602980D281DD097
:1010D000214810230088009A81B2204803F00CFBBD
:1010E0000546608828806079687228460622A11D1E
:1010F0000A3003F0FBFAA0896880E089A880208A82
:10110000E880A07C2872284603F0FCFA30464DE7C0
:1011100081692039897F072905D20B4A890020324D
:10112000515881617047FEE7074A0D493C32002063
:1011300008CA401C08C11028FADB7047F4410300BC
:101140007C0408004C080800044B0020FC05080043
:1011500010340000F406080060010020013800008F
:1011600010840040F7B507461646019803F0D0FA00
:101170000546C488384603F0D1FA401E844200D2A6
:10118000204684B222460B21384603F0CDFA0746AA
:10119000002E05D033460A21019A03F0CBFAFEBD9A
:1011A00029467C8022460831381D03F09FFA3846D4
:1011B00003F0C6FAFEBDF8B50746002000900C46C5
:1011C0004A8801466B46384603F0C0FA020001D057
:1011D00061882AE0608803F0BFFA060023D03D0250
:1011E0002A460C3231890223124803F085FA6188BD
:1011F000018003F087FA36890120F2B2002103F062
:10120000B1FA0D4B0CCB1040194008430BD02A46C5
:101210000A3202233146094803F06EFA61880180E0
:1012200003F070FA04E0618800223846FFF79AFF65
:101230000020F8BD12300000B8130800022800009A
:10124000FFB50646807A81B0012805D002234F49B8
:101250000D68002D02D006E00023F8E702286CD0CC
:1012600001286DD04A4D4B4CF288A08BB18880B2DA
:1012700003F07EFA0090E0694E23042158434B04AA
:101280002268C0181152E0694E235843434B22682C
:101290004149C0181152E0694E2358433F4B717ABF
:1012A0009B1E0902C0182268553111520098E1694D
:1012B00040304E27428879431B11384F1A433F1D57
:1012C0002368C9195A52E1694E277943334F4B229B
:1012D00052010C372368C9195A52E269E16C4E2752
:1012E000049B7A4309022D4F1943BF1C2368D2196E
:1012F00099522368E1694E246143284C002214343A
:1013000009195A52264A962111632549327A4039E1
:101310000A610D62049941760299009803F02EFA51
:101320000398002803D00146009803F027FA00989C
:1013300003F02AFA009805B0F0BDFF25F53592E7D5
:10134000134DFA3D8FE710B584686168002C13D007
:10135000884203D14168616006E011464A688242D2
:10136000FBD142684A606168002906D0403040885D
:10137000A16840080818A06010BD2146094803F084
:1013800009FA204603F00CFA10BD0000B41308005F
:10139000DC050000E0010020278000000A000800B2
:1013A000C0000040E8040800FFB581B01E461446A6
:1013B0000F46150A104603F063F900280DD02D4999
:1013C000A8000858C07B002807D03346224639467B
:1013D000019803F0EBF905B0F0BD0020FBE70146F2
:1013E0000A780120042A01D9002070474978002991
:1013F000FBD00129F8D1704700B502790021130014
:1014000003F044F90C3407073535203535353535CB
:1014100027344279042A27D8C279530707D05207C4
:10142000520F012A03D0042A01D0052A1CD1827947
:10143000002A01D0012A17D1007AC01F0A2816D32A
:10144000062114E04279521E0A2A10D30822427162
:101450000DE0407942070AD04007400F012806D02E
:10146000042804D0052802D00A2100E007210846FC
:1014700000BD0000C006080070B5EFF31085012024
:1014800080F310882C4803F097F90446002D0AD009
:10149000012080F31088002C2DD0204603F092F913
:1014A000002828D101E00020F3E76189208903F0BA
:1014B0008FF905000CD021461031A389628920895B
:1014C000A847002804D0012815D0022813D103E032
:1014D000204603F083F90EE0EFF31085012080F33E
:1014E0001088154821460C3003F0E2F8002D0CD08E
:1014F000012080F31088EFF31084012080F310881E
:101500000D480068002802D004E00020F1E7012027
:1015100003F06AF9002C03D0012080F3108870BD1D
:101520000020FAE710B505480021016004490120B8
:1015300003F060F910BD0000500708004C080800D7
:1015400079140020FEB5514D019117461E46002426
:101550000090294603F08EF8050005D033463A4640
:1015600001990098A84704462046FEBD70B506467E
:1015700014460D46104603F083F8240A002836D09E
:101580004348301806D001281FD00C2821D00E283F
:1015900027D11AE02878002829D03E4DA600A85966
:1015A000428E002A23D041230121204603F028F94E
:1015B000A95900204886A8590068002817D12002A0
:1015C00001210E3003F080F811E02878002808D1BE
:1015D0000DE0204603F01AF90A2808D128780028DF
:1015E00001D0412100E00021204603F015F9002040
:1015F00070BDF8B515460C46104603F041F82F0AA9
:1016000000282CD0234DBE00A859408E0D280BD0A9
:101610002148A2780088217983B2384603F002F984
:10162000A859408E00280CD02078002819D04123DA
:10163000A8590121428E384603F0E2F8A95900204A
:101640004886384603F0E2F8012803D046213846A0
:1016500003F0E2F822796188384603F0E9F80020C7
:10166000F8BD0023E4E7F0B50D480E23021D0B4C36
:101670000578002107E0CE00975D9F4201D1361822
:10168000B460491CC9B2A942F5D3F0BD9847030024
:10169000F4FBFFFFF406080060010020C04B0020AF
:1016A0004C080800F3B50546204980000C58280274
:1016B000401C87B281B00026384602F0E1FF1528B1
:1016C00007D19520005D002803D003F0B7F800286B
:1016D00018D023464033988AD98A884200D80846D1
:1016E0004004020C99823946114803F0ADF80121FB
:1016F00094200155384602F0E7FF8034607D0028D1
:1017000005D101E01F26F8E7A07D00280CD00020BD
:101710006075A075022003F09DF8002804D02946CA
:101720003046029A03F09CF8FEBD0000B0040800A9
:10173000240400000F4A518807235B0299434002AA
:101740000143518070470520000701883022114372
:1017500001800188032211430180704705200007A2
:101760000188302291430180018889088900018025
:10177000704700008000005030B590499048CA057D
:10178000148880231C4314808E4C65892D0701D456
:10179000491EFAD28C4C012121608C4C0188218099
:1017A0008B494088088010889843108030BD002005
:1017B00070477047704770470020704701218907C4
:1017C000086B0722104308637047704730B58249A1
:1017D0008048086081494C200880804C804B203C28
:1017E000238281497F4848808148804901807F4920
:1017F00019314180222141818121890001827D4965
:1018000041827D4901837B4911314183784A7B497B
:101810002032918041227A4912018A80794ACA8015
:10182000784D1035CD810A824A82921C8A826A1FC5
:10183000CA82FF2246320A83734A4A83734A592175
:1018400011807249724D20310D8043254D80714DBC
:101850005582D5228A80FF22D3320A816E4A4A817C
:101860006E4A8A816F4A6E4911805C496E4A6039BE
:101870004A80CA8810252A43CA80654A0A3A0A81E2
:10188000564D6A4A403D6A80638208224A81504927
:101890005E4A0988403A11824C49654A098811809C
:1018A00064490978002901D03021018330BD400806
:1018B000704700B58BB0604A4262604A8262604AFB
:1018C0004261604AC262604A0260604A0262604AE3
:1018D0004260604AC261404A3E48002110603E4872
:1018E0004038026B03129A430263426B1F231B04AE
:1018F0009A4303231B04D218426357480268C31259
:101900009A430260026803139A4302606846415496
:10191000491CC9B22829FAD3014628224F4802F0AF
:10192000E5FEFFF753FF02F06FFE4D4908800020EF
:1019300002F070FE02F074FE0BB000BD10B5264937
:101940002448086024484038416B1F221204914308
:10195000032212048918416300060168C908C900FE
:10196000016005200007018989088900491C01815F
:101970000189082211430181FFF728FF3948006FD0
:101980000078002804D03848008814496039C8809D
:10199000012002F063FE10BD2648007870472549FB
:1019A0000120087012493020088370472149002027
:1019B00008700F491048088370470000A086010096
:1019C000087F040020000050008000407A030800D7
:1019D000AE0408004C05540780000040602C005005
:1019E0007F7F0000AC2900000022005009090000A0
:1019F000002400502204000030D00000EE1100004E
:101A0000002500502E020000442000004028005015
:101A10000D95000002420000E4DC0000109200007E
:101A200053780000002A00508B1000009DD5000064
:101A300000260050C0130800AF170020B317002085
:101A4000B9170020BD170020B5170020CB170020C4
:101A5000B7170020AF180020000200402000080047
:101A6000F4050800E0010020CE050800084301212C
:101A7000890303460B4343490B80434B18430880BB
:101A8000092002434A8070473E490A880F239B0180
:101A900000079A43800D02430A80704739490020AD
:101AA0000880704737483949028802231A43028068
:101AB000491E02D302889207FAD40021018140898D
:101AC00070470AE000BF00BF00BF00BF00BF00BFFB
:101AD00000BF00BF00BF00BF00BF401EF2D2704772
:101AE00070B50222510204464E003046FFF7BEFF99
:101AF0001420FFF7E6FF002C01D0092000E00720AA
:101B0000FFF7C2FFFFF7CEFF05460120FFF7D9FF21
:101B1000022200213046FFF7A9FF002C01D0092046
:101B200000E00720FFF7B0FFFFF7BCFF4019154AA0
:101B30000021118070BDF0B5124C15482080142092
:101B4000FFF7BFFF01256D02A580E5802088E90031
:101B50000843208020888E10B0432080FFF7A2FF2A
:101B60000746208830432080FFF79CFF024678001C
:101B700071424018281A52005118691AA080E18059
:101B8000F0BD00000015005001400000A0860100DB
:101B900001480000704710B5032800D10420B14C63
:101BA00040010019490008181A43C28010BD0328DB
:101BB00000D10420AB4A4001801801228A40828073
:101BC0007047032800D10420A64A40018018012252
:101BD0008A404280704770B5064604981446002833
:101BE0000D46304602D0FFF7ECFF01E0FFF7DFFFC4
:101BF000224629463046FFF7CEFF70BD10B50028BB
:101C000007D0431E974C5B0070341B19012802D08B
:101C100002E00023F6E70831188801248C40A04335
:101C20008A4002431A8010BD032800D104208D4A47
:101C300040018018008801228A40104000D0012015
:101C40007047FFB583B088A0006800901046133835
:101C5000FF2601368640019014460D9FB0B200F079
:101C6000F1F8002F01D0012100E000217F4D8140DB
:101C7000A889B0430143A9813F2000F0E3F88740E1
:101C8000A889800980010743AF81B0B200F0DAF87B
:101C90000C998140288AB043014329820126019989
:101CA00030468840074680B200F0CCF80699814063
:101CB000288AB843014329823F2000F0C3F80399E2
:101CC0006A46525C04995118814068486200403865
:101CD0001018428B9209920111434183A007C20E52
:101CE000FF21914080209040002C0BDA2207120F38
:101CF000083A93085E4A9B009A18D3698B430343C2
:101D0000D36107E0A3085B4A9B009A1813688B43D2
:101D100003431360E006C00E86405748066007B0D4
:101D2000F0BD52490A8A0121133881400A40C80790
:101D300001D0002038E0880701D5012034E04807B1
:101D400001D5022030E0080701D503202CE0C806A9
:101D500001D5042028E0880601D5052024E04806A6
:101D600001D5062020E0080601D507201CE0C805A3
:101D700001D5082018E0880501D5092014E04805A0
:101D800001D50A2010E0080501D50B200CE0C8049D
:101D900001D50C2008E0880401D50D2004E048049A
:101DA00001D50E2000E00F20C240D0B2704770B5C0
:101DB0000124133884400D46A0B200F043F885405A
:101DC0002A48018AA1430D43058270BD70B50124E4
:101DD0002146133881400D4688B200F033F8844024
:101DE0002248C189A9430C43C48170BD0246133AFD
:101DF000042A04D8214A8000801880384163704743
:101E000010B50446133804280AD82046FFF7DEFF31
:101E10001A49A00040188038406B002801D0804744
:101E200010BDE106C90E012088401549086010BDAB
:101E30001320E5E71420E3E71520E1E71620DFE7AC
:101E40001720DDE700280AD0411E4840C003010CDE
:101E5000002001E04908401C0029FBD100E01020CF
:101E600080B270470030005001090F190014005073
:101E700000ED00E000E400E000E100E02090002040
:101E800080E200E030B5224B1C680825C907AC434E
:101E9000090F0C431C6019680424D207A143520F98
:101EA0001143196019680222C0079143800F014352
:101EB000196018480168C022090A0902114301602B
:101EC00030BD154B58809980DA807047FF20134948
:101ED000013008607047FF201049013080310860F0
:101EE00070470F480068002800D00047704770B561
:101EF000054614460E46012002F0C8FD284602F0B1
:101F0000D1FD304602F0DAFD0348C48170BD000007
:101F10000034005008E400E00034005000E100E02C
:101F2000004C002070B516460C460546012802D02C
:101F30000C2D26D10DE006222149224802F096FC04
:101F400000281ED006221F49304602F0CFFB062093
:101F500012E01D4D29680878C00610D52078202889
:101F600003D200202070042070BD0A7E30463A3132
:101F700002F0BCFB2868007E2070002070BD0120AC
:101F800070BD32462146284602F076FC70BD70B521
:101F90000E480F49C405228880252A4322800D4A15
:101FA00053891B0701D4401EFAD20B4A012010604E
:101FB0000622044802F09AFB2088A843208070BDC6
:101FC000A83C0300C1130800AC070800A08601006C
:101FD000D47F0400200000500080004070B501252F
:101FE000AD07AC6B2046FEF76AFEDC4902F0FAFA58
:101FF00027221201511A00D10121D94A50601160E3
:10200000286B0821884308432863D6480460D648D3
:102010000068002802D0A04200D200BE70BDFFB50B
:1020200000256A461570D149096800297CD00A4606
:102030004032937C002B77D0CD4CCE4B012813D06F
:10204000098D26460907803E0127366FC90EFF0419
:10205000C919715A6E46890B31713179002963D0E3
:102060003179012906D011E06E46E16C3170002112
:1020700099700BE011894E267143BF4E256889196E
:10208000695A6E460D0AD17C691A3170317800297F
:102090004BD0BA4DB949203DAE6A097B2E254D4340
:1020A000B446751905E0491C4907490F2E254D43D3
:1020B00065446E463678761E37063F0E6E4637709C
:1020C000F1D1AD786E06760E6D462E712D79AE0685
:1020D000B60E6D462E722E256943A74DA469463D66
:1020E0004919615A6D46C906C90F2973012805D0DF
:1020F00000209870287B00280FD10BE0287B002857
:1021000002D1287A00280FD0107D00280CD10120A0
:102110001AE009E0287A002806D0107D002803D1B3
:10212000D07D08210843D075FFBD0128FCD0002DCB
:1021300002D09878002806D0107D002803D1D07DE9
:1021400008210843D07500209870FFBD10B5052008
:1021500000074189890708D04189890889004181A0
:1021600087494A88520852004A80018980221143D7
:102170000181018A042291430182818A8907FCD569
:1021800002F080FB012080070169490700D500BEED
:1021900001694907FCD510BDF8B5764EF0880028D6
:1021A0002DD10120F08077490820088005273F07BE
:1021B0007889800720D0B88A400701D5FEF702FC55
:1021C0006F4D28888021084328806F4CFF20608055
:1021D00004202080FFF7B7FA7D21C900E088A2889B
:1021E000000480188842F9D905202080B0887880C2
:1021F0002988802081432980644910200860F8BD27
:1022000070B5FFF7ABFAFFF7A1FF5A4C00265D4807
:10221000E680018949084900018101F0E9FA0120BD
:102220008007816904221143816102F031FB574923
:10223000102080310125086002F030FB02F034FBF1
:102240001420FEF748FC4E4826704089800510D5C2
:10225000607800280DD14E4865700088C00708D10D
:102260000120FFF73DFC8B218900884201D9022023
:10227000607070BD10B502F01DFB00F068F83D49BC
:102280000120087010BD10B501208007008A0006EB
:1022900004D500F05CF81420FEF71DFC10BD10B54D
:1022A0000120FFF7BCFE02F00BFB10BD10B50124AE
:1022B000A407208A000718D50220FFF7B0FE02F01D
:1022C00005FB20684000400861000843206020684A
:1022D000C00FFCD12248803001680906090E01D0E8
:1022E0000121016023490420087010BD70B5294800
:1022F000008886062848B60E44681D48006F00789E
:10230000002802D1304602F0E7FA24480089194D2E
:10231000C00507D520060FD5E0070DD0304602F0E6
:10232000E1FA03E0200607D5E00705D003201C49A9
:1023300028700888401C0880200407D5E00505D5D2
:102340000220184928700888401C088070BD10B50C
:1023500008490120C87002F0CBFA10BD71020000DC
:1023600040000040D4130800D0130800DC0408002B
:10237000E0010020C81308004A0008009C0408007F
:1023800020000050003300500016005000E200E032
:10239000001500500020005000020040002C0050AA
:1023A0000A4C0020164C0020F0B5714E85B0002577
:1023B000706D2F460290FEF77BFA014600206D4CAF
:1023C000002902D12179022900D10290FEF782FC76
:1023D00000280ED102F092FA00280AD065480125A3
:1023E000C0780028F9D005242407A08AC00701D0AE
:1023F0000425BAE002F0CCF80028FAD15D48017952
:10240000002901D1316D02915B498969002952D0BF
:10241000716D02910191817802A802F075FA00288D
:102420004DD0012080074069400648D4514881784A
:1024300002A802F0A7F8002841D002F06BFA0028A9
:102440003DD00198029000264C48FEF733FC0190E5
:102450004B4A01208007016A914202D2016AC829D1
:10246000F9D801208007006AC82800D80126414811
:10247000817802A802F048FA00281ED001208007C7
:102480004069400619D43B48817802A802F07AF8E6
:10249000002812D00298002803D0002E01D0401E40
:1024A00002903848FEF706FC374A0146127812308F
:1024B000022A05D005E00299ACE701F099F954E051
:1024C0001130324A5289920500D500BE019A012688
:1024D0008A1AB607F36B9B0A9B021343F363F26BF2
:1024E0002B4B80021A400243F263F06BC002C00A19
:1024F00049050843F06302980425002801D0001D17
:1025000002902449096802F071FA2349096802F02F
:1025100069F822490090086016490979002900D01D
:10252000012102F0FDF91E48C06A8047FEF7E9FB71
:10253000002808D0208830210843208020880321EB
:10254000084320800127306B0004C00FFBD01548E2
:102550000168C905FCD5002F01D0FFF7FFF802F094
:10256000E5F92089802188432081284605B0F0BD07
:1025700060020020B207080050070800540B00005A
:10258000260200001D0D0000780308002000005006
:10259000FF03E0FFAC130800B0130800D0130800DD
:1025A000080808000002004008B572B602F0C4F93D
:1025B000052109074A8A684602800088820892003D
:1025C0006846028002880120C003024368460280F8
:1025D0000088488208BD10B5FEF7F2F8FC480021DB
:1025E00001700222427081702522C27032228280E4
:1025F000C1800181418181814182C1810182F54A8D
:1026000013681403234313608182FEF7FCF910BDA5
:1026100038B5EF4C207800280BD120816081A08153
:102620006082A07869460870684602F08BF9022043
:10263000207038BD1CB5E64900220A814A818A8192
:102640004A820A8200788870FFF7E2FF0421684618
:1026500001700E214170032181700121C170DE499A
:1026600081800022062102F073F91CBD38B5D84CD8
:102670002078002816D1E080A17868460170E178C2
:1026800041706178817002F069F9D44D05E06846C7
:1026900002F064F9002800D0FEE7E86B0028F6D0CD
:1026A0000120207038BD1CB5044604216846017025
:1026B0000F214170032181700121C170C8498180BF
:1026C0000022062102F044F9C14821788170617826
:1026D000C170A17841702179E278090211438180AB
:1026E000FFF7C4FF1CBD38B5B94C207800281BD1BA
:1026F000A17868460170252141706178817002F0EF
:102700002DF9B848016AC21311430162016A02142B
:1027100091430162016A821491430162016A490A8C
:10272000490201620520207038BD1CB50446042111
:10273000684601700E214170032181700121C17032
:10274000A549002230318180062102F001F9A0481C
:102750002178817061784170FFF7C5FF1CBDFEB51F
:10276000A14D02780121A04C203589024F2A31D099
:102770009E4B8E10542A39D0522A2AD1196047789C
:102780009B480078002855D09A4821883143218001
:102790002188C05D090A0902014321800120964970
:1027A000800388800120288008202880062088490E
:1027B00008700421684601700E2141700321817068
:1027C0000121C1708449002210398180062102F064
:1027D000BFF8FEBD002020802880874B03229A800E
:1027E000824A803A1160854A1160E0E719604778B3
:1027F0007F480078002811D07E482188314321800D
:102800002188C05D090A09020143218001207A491B
:1028100080038880042028800220C6E7384602F022
:102820005BF82088304320802088000A000238436B
:102830002080EBE7384602F04FF8208830432080B4
:102840002088000A000238432080A7E710B5604CBA
:102850002078012805D02078022802D02078052889
:1028600007D15E48C06B00F0E1FE5C483C3002F0EE
:102870007BF80020207010BD1CB504216846017053
:102880000E214170032181700121C1705249002243
:1028900040318180062102F05BF8FFF7D7FF5149F4
:1028A000002008621CBD1FB50421684601700E217E
:1028B00041700B2181700121C17047491031818025
:1028C00043490A89C2804A8902818A894281098AE8
:1028D000818100220E2102F03BF8FFF7B7FF1FBDF8
:1028E0007CB504460421684601700F214170032124
:1028F000817039490125C57050318180002206213F
:1029000002F026F8227802213D48012A04D0022A4A
:1029100018D0FDF755FF7CBD6278002A02D1A2785D
:10292000002A0DD005716078364919224843A178F4
:1029300092015143411834484165FDF74EFF7CBD7B
:102940000171FAE70171FDF755FF7CBD052109070B
:1029500048807047F7B52D49CC052088802738433B
:1029600020802B484289120701D4491EFAD2C18B1C
:1029700002221143C183002550E026480021016056
:10298000009AAE00B2181204920C02614161042157
:10299000016001983018401C01F0F7FC0199000219
:1029A000895D08431B498A681205120F082AFAD06C
:1029B00088618868C206FCD581072DD5C10401D481
:1029C000800429D52088B84320800020C043FEBD64
:1029D000044C0020000200402040000000050800D8
:1029E0001E200000C00000400020005080E100E0F8
:1029F000D44A002020000800002C005080E200E0B3
:102A0000B20708000077010060020020A0860100E4
:102A100020000050008000406D1CADB2029885423D
:102A2000ABD32088B84320800020D0E7F0B505461E
:102A3000401C4178027808020026297805241043BA
:102A4000240785B0374601291FD0FE4BFD4AC03B05
:102A500002290AD003290DD0042912D0052916D045
:102A6000062919D0072917D044E00120106303205C
:102A700000020FE06188F44A121A8A423AD3081819
:102A800003E06188814235D3081A608032E0176321
:102A90000120400218612DE0687801F052F9411CD4
:102AA00005D0811C05D02978072904D018E001261B
:102AB00016E0022614E080B2009001226946E34845
:102AC000FFF748FF002800D0032610200090DF48C1
:102AD000012269461438FFF73DFF002800D0032685
:102AE000FDF745FF7D20800100970099491C00916A
:102AF0008142FADB0421684601720E2141720521F0
:102B000081720121C1722878002810D0062812D0C5
:102B1000072810D06846C7818120C0016946888196
:102B200002A80022082101F013FF05B0F0BD608863
:102B30006946C881F0E76846C681EDE77CB5044682
:102B40000078651C030001F0A1FD09060A11151C9F
:102B5000202733483800607801F0EBFA2DE06878E0
:102B600029780002084301F0CEFA26E0607801F0EF
:102B7000B7FA22E0687829780002084301F0A3FA46
:102B8000EDE7607801F0CCFA17E068782978000268
:102B9000084301F0E9FA10E0687829780002084358
:102BA00001F084FAA078002802D16078002802D0D1
:102BB00001F0EBFA01E001F0CFFA04216846017060
:102BC0000E214170032181700121C170A0498180D3
:102BD0000022062101F0BCFE7CBD6078EBE7FEB56B
:102BE0000646407800250124002805D030780128C9
:102BF00004D002282DD12AE001252AE003273F0234
:102C000010233A46002101200094FEF7E4FF012141
:102C100011233A4608460094FEF7DDFF012001F03B
:102C200019FF032001F00AFF002211460120FFF7DF
:102C300029F971787D26F600304601F0D3FC024672
:102C400011463046FFF73DF901F010FF01E001F0B9
:102C500015FF0421684601710E2141710521817122
:102C60007B49C4710D390181857201A800220821B8
:102C700001F06EFEABE61CB5042269460A700E2216
:102C80004A7005228A700122CA70714A103A8A80FD
:102C90000078C88000220821684601F059FE1CBD5A
:102CA0003EB5044622780020002A01D0032A03D131
:102CB0006178072900D90120A178002901D00329D2
:102CC00003D1E378072B00D90120012A03D16378CF
:102CD000052B00D90120012903D1E378052B00D968
:102CE0000120022A03D16278092A00D90120022991
:102CF00003D1E178092900D90120042269460A712B
:102D00000E224A7105228A710122CA71504A1D326F
:102D10000A81488101A80022082101F019FE00253E
:102D20007D20000100950099491C00918142FADB49
:102D300000231A46042118460095FEF74CFF002395
:102D40001A46052118460095FEF745FF41482178AF
:102D5000017061784170A1788170E178C170FDF7F0
:102D600018FE3EBD3C490A8A5207FCD53A4A603AF1
:102D70001082088A4007FCD5FF2001301082088BA2
:102D80000028FCD0108AC0B27047334A138A5B0710
:102D9000FCD5314B603B18821982108A4007FCD564
:102DA000108A8006FCD470472C490022488008888D
:102DB0008004FCD50120C880488880187047F8B589
:102DC0000F4604461D46164619461046FEF7EFFE0E
:102DD0002046FFF7E9FF3846FFF7E6FF2946304671
:102DE000FEF7EFFEF8BD70B50E46044615461146D7
:102DF0003046FEF7DCFE80202043FFF7D5FF0020A1
:102E0000FFF7D2FFC4B229463046FEF7DAFE20466D
:102E100070BDF0B585B004460421684601710E22EC
:102E20004271052282710A4A0126C671113202815D
:102E300001A80390207805252D0700270028A888E1
:102E400042D00DE0C0300050FFFF00008C7F00003A
:102E5000E0400000F84B00206013005000120050CA
:102E600020210843A880FB488781FA496122603904
:102E70000A800A8806239A43121D0A800A881023B2
:102E80009A430A80227B8A8086810646308A8006A1
:102E9000FCD4E178A07809230022FEF77CFE61795A
:102EA00020790A230022FEF776FE607B002807D0F7
:102EB00000970122E17BA07B00235202FEF78BFEEC
:102EC000607801287ED09DE00122D2021043A880C4
:102ED000E14802885208520002800288FF238133B1
:102EE0009A430280028840239A43028002880A4360
:102EF000028001880222114301800188520391431C
:102F000001800188182291431031018001883143EA
:102F100001800096E178A07807235201FEF75BFE5E
:102F20000096FF226179207905230132FEF753FED6
:102F300000960623E179A079DA01FEF74CFE0096AF
:102F40000322617A207A00231202FEF744FE607B9E
:102F5000002807D000970122E17BA07B00235202CA
:102F6000FEF739FE6078012805D1637A227AE17A8A
:102F7000A07AFFF724FF627A217AA07AFFF733FF65
:102F800069464881607B00280DD0FF20F53000970E
:102F90000099491C00918142FADBE17BA07BFEF79E
:102FA00043FE6946488100220821039801F0D0FCC5
:102FB00001267602E178A07800233246FEF7EBFD89
:102FC000617900E01AE0207900233246FEF7E3FD44
:102FD000E179A07900233246FEF7DDFD617A207A9F
:102FE00000237210FEF7D7FD9B480188490849006D
:102FF0000180A988B0008143A98096E5E17AA07A92
:10300000FFF7C3FEA07AFFF7ADFE69464881607BFB
:1030100000280DD0FF20F53000970099491C009141
:103020008142FADBE17BA07BFEF7FEFD6946488129
:1030300000220821039801F08BFCB781A888202189
:103040008843A88071E530B593B0042069460870C4
:103050000E204870452088700120C8707F48888005
:1030600008248C7102A87EA1054601F085F9694605
:10307000CC710AA87AA1044601F07EF90022082149
:10308000684601F065FC01F057FC0022102128463B
:1030900001F05EFC01F050FC0022102106A801F0B6
:1030A00057FC01F049FC00221021204601F050FCA1
:1030B00001F042FC002210210EA801F049FC01F0B1
:1030C0003BFC13B030BDF8B50E460121664B8904B8
:1030D0004118DC05208880252843208063484789E3
:1030E0003F0701D45B1EFAD2614B012018603046C5
:1030F00001F0FCFA2088A8432080F8BD70B586B0A6
:10310000042269460A700E224A700A228A7001223D
:10311000CA70524A574D603A8A8002788A710022FA
:10312000CA7102920A7301786B4600290ED0514C85
:10313000483402290ED04F4E143E04290ED00129E6
:1031400013D003291AD0052923D029E002221946D9
:10315000284606E006221946204602E004221946C7
:103160003046C91DFFF7AFFF1AE0817842780802A8
:1031700010430490012204A928460FE0049205920E
:10318000411C062204A801F0B1FA022204A920463B
:1031900004E010200490012204A93046FFF7DAFB76
:1031A000684600220D2101F0D3FB06B070BD10B5BA
:1031B000314CA06901F0F4FA0020A06110BDF8B50F
:1031C0004178027809021143009187780321BE00FB
:1031D00035460835284601F07DFA04460420207063
:1031E0000E206070711DA1700120E0701B48214607
:1031F0005038A0800020A071E771F2B20831009829
:10320000FFF761FF1C4920468C611C4A294601F0EA
:103210009FFBF8BD1CB5417802780B0213438478FC
:10322000C11C22461846FFF795FB04216846017031
:103230000E214170052181700121C170074940397B
:103240008180002181710A46C471082101F080FB50
:103250001CBD00006013005000120050F040000040
:10326000765F352E302E3400A086010020000050FD
:10327000008000408C7F0000044C0020AF31002013
:10328000FEB5044606780421684601700E2141709F
:10329000092181700121C1701D4981808671002141
:1032A000C171601C029101F070F8050220792D0AAD
:1032B00000060543002E06D0012E0ED0022E16D099
:1032C000032E1FD119E0286869460872020A4A7263
:1032D000020C8A72000EC87214E0601D01F055F8ED
:1032E0000002217A000A0906084328600AE02888BB
:1032F00069460872000A487204E0A0796179000208
:103300000843288000220C21684601F021FBB1E42B
:10331000C04000001649896A084710B5052001F031
:1033200063FA14480068002805D011490122C96CCD
:10333000C9B200F08BF810BD10B520210D4801F086
:10334000CFF90C4801F016FB0A480C3001F012FBD3
:1033500001F016FB0849062001F04CFA0749052048
:1033600001F048FA0649042001F044FA10BD0000BB
:10337000E0010020DC040800655C02001B33002033
:10338000A55B0200F7B586B09D48069D0090047BC2
:103390004035E87C16468019E8744A700C706889DC
:1033A000888097480F462038039036E00398816A5A
:1033B0002E206043081893490A78022A02D009781F
:1033C00004291ED1904A1188491C11804388D907CD
:1033D00003D08E4A1188491C1180190703D58C4AE5
:1033E0001188491C11808B4982790B88D2185208A8
:1033F0000A80894949880A0A88490B88D2185208E4
:103400000A80E97DC90705D08078400602D4069875
:1034100001F0BCFA641C6407640F3046761EF6B2F5
:103420000028C3D100980473287E00280CD0E87CC3
:10343000002809D003993878896A2E225043081849
:103440008078C00700D1287609B0F0BDF8B50F46E6
:103450000546734940300089C9691646884201D142
:10346000002102E00002401C81B2022206239002E9
:1034700001F042F9044601463A462846FFF782FF2A
:10348000002E02D00020A07003E02146284601F063
:1034900083FA204601F036F9F8BD30B561490A8853
:1034A000FF2381339A4380320A800C88012214431F
:1034B0000C800C881825AC4310340C8004884C8098
:1034C0000C88A404FCD5CA8044884C800C88A404D1
:1034D000FCD5CA8084884C800C88A404FCD5CA80A2
:1034E000C4884C800C88A404FCD5CA8004894C8014
:1034F0000C88A404FCD5CA8044894C800C88A404A0
:10350000FCD5CA8084894C800C88A404FCD5CA8070
:10351000C4894C800C88A404FCD5CA80048A4C80E1
:103520000C88A404FCD5CA80448A4C800C88A4046E
:10353000FCD5CA80848A4C800C88A404FCD5CA803F
:10354000C48A4C800C88A404FCD5CA80048B4C80AF
:103550000C88A404FCD5CA80448B4C800C88A4043D
:10356000FCD5CA80848B4C800C88A404FCD5CA800E
:10357000C48B4C800C88A404FCD5CA80048C4C807D
:103580000C88A404FCD5CA80448C4C800C88A4040C
:10359000FCD5CA800C889C430C80848CE4B24C809F
:1035A0000C88A404FCD5CA800C889C4380340C8011
:1035B000194C65884D800D88AD04FCD5CA800D88F6
:1035C0009D430D80801E0078488008888004FCD5CB
:1035D000CA800888984380300880208848800888FE
:1035E0008004FCD5CA801048808A488008888004FE
:1035F000FCD5CA80088840084000088030BD000023
:103600009C040800044C00200C4C00200E4C0020B0
:10361000104C0020124C002000290050144C0020B7
:10362000E001002000120050002300500749096CFF
:10363000084710B5002803D00121890601F0B2F92E
:10364000034841680120884710BD00006002002047
:103650000808080030B5A249A24B4A7E00200C7E23
:103660009D5C0346AC4205D1521CD2B24A76032A75
:1036700001D301204B7630BD70B59B4E04000ED0B7
:10368000B078022806D1F078012801D0052801D1B0
:1036900000F0F1F8012C67D1002000F003F9B078B8
:1036A00000280CD000258E4C012816D002283DD0D1
:1036B00003280BD1FFF7CEFF002855D157E0F07853
:1036C000012804D0052804D000F0ECF870BD0320D8
:1036D00000E0082000F0F3F870BDF07801280FD06A
:1036E0000528F9D17E48038CC28B818B408B01F079
:1036F00003F8014610392161C889002814D005E07B
:1037000000F000F92169C889002803D0103100F0C9
:10371000BCF870BD0889754A904203D0734A3032B4
:10372000904201D10D811BE0084605E0F0780128A8
:1037300006D00528EDD12069103000F0E3FF13E03A
:1037400000F08DF9206901890129F5D01F29F3D0F6
:103750002129F1D0202902D1C1890329ECD005818A
:103760002069C58100F087F800F004F870BD00F012
:1037700077F870BD10B55C48002181702038C068B2
:103780000121036858485A4AC01C9847042001F098
:103790000FF910BD10B5032001F010F9022001F05F
:1037A00007F910BD10B5032001F01EF84C4C6069FC
:1037B00001F014F82068002805D0204600F0FCFF36
:1037C00000F07CFF10BD00213F2000F07DFF01F0E4
:1037D000FBF80028F6D001F0FDF80028F2D108200F
:1037E00001F0FEF804223F21424801F02DF810BDFF
:1037F0004148C06A004710B54049032000F0FAFF75
:103800003748C06880688047FFF7B4FF10BD70B5C7
:10381000064614460D46022001F0E2F8681E3049C3
:103820000670C968364A4B68611C984770BD2C48C1
:10383000C0688068004710B52948C068C0688047E4
:10384000002801D0012010BD01F0C4F8002805D0E7
:10385000284802223F21401C00F0F6FF002010BD46
:103860002148032181702038C068012103681E4867
:103870001F4A0838184710B5194C2069002803D092
:1038800000F0ACFF0020206110BD30B40C4616499A
:1038900002228A702039C968154A0B680146204601
:1038A00030BC184710B50E4900224A760876FFF75B
:1038B000D1FEFFF7D5FF042001F07AF810BD10B556
:1038C000094901228A702039C968094A0B680146F2
:1038D0000548801F9847042001F082F810BD0000C1
:1038E000FC050800D04B00201C06080030400000FA
:1038F0007936002002FC0000E0010020A5370020FE
:1039000095370020AE48C06D0047FEB50026AD4893
:103910000196C17E807E0C020443AA4FAA483D7FD7
:10392000211A0095844240D012DCA848211A844212
:103930003ED007DCA648201838D0A649C84210D18E
:103940001F2614E0012935D0A348C14209D10EE059
:10395000A248102938D0302909D040292ED0D029AA
:1039600038D03F200190681C9D4EC0B20090964810
:103970001038844267D094481030844263D0924813
:10398000844260D09048303084425CD08E484030D1
:10399000844258D08C498C4B8C4881225031D201C2
:1039A0007033844219D1052D44D14CE00126DEE765
:1039B0002026DCE72126FEF749FFD8E70078052816
:1039C000D5D1FEF759FFD2E700780228CFD1FEF714
:1039D0006AFFCCE7FFF737FBC9E78C4202D1032D22
:1039E00002D130E094422ED09C422CD076488030D8
:1039F000844228D074489030844224D07248A03049
:103A0000844220D07048B03084421CD06E48C03010
:103A1000844218D06C48D030844214D06A48DD30DB
:103A2000844210D06848D13084420CD06648B3300C
:103A3000844208D03F223046009B019900F05CFE92
:103A40001038386109E03F223046009B019900F0B0
:103A500053FE1038386104813869C581FEBD58486D
:103A6000006E004710B55748574C016970340A89F9
:103A700008461030131BA24258D025DC594C131BAA
:103A8000A24241D015DC554B202A37D005DC012A53
:103A90000ED01F2A0CD1042031E0212A08D04E4B31
:103AA0002C3BDA4204D1C989052901D1FEF7FBFD7F
:103AB00010BD102B1FD0402B23D0602B27D0702B94
:103AC000F6D1FEF7B3FF10BD432B29D00ADC102B33
:103AD0002FD0202B30D0302B31D0402BF3D1FFF71B
:103AE000CAF810BD502B18D0612B1CD06D2BF8D10B
:103AF000FFF7D6F810BDFEF79DFD10BD032018702E
:103B000010BDFEF712FE10BDFEF729FE10BDC989DB
:103B10000329FBD1FEF7E4FE10BDFFF70FF810BD3F
:103B2000FFF75DF810BDFFF774F910BDFFF7E6FA77
:103B300010BDFFF744FB10BDFFF76CFB10BDFFF796
:103B40009FFB10BD1E49496E0847F0B51D4E00226F
:103B50007569032429462B890B310127432B25D076
:103B600004DC242B1BD0422B0DD11BE0442B1FD097
:103B70001B4D6D42EB4206D1124AD37E947E1A024F
:103B8000224304244F710E230B704C708F70CA7047
:103B9000120A0A71A41C047070690B30F0BD0C4A43
:103BA000524201E0094A521E0424ECE7074AFBE7AF
:103BB000064A6D8A521C06248D712D0ACD71E2E7EA
:103BC000E0010020FC050800204000001E2000004D
:103BD000FDF3FFFFE6EBFFFF0EE0FFFF044C0020CC
:103BE00001FC000010400000FE494843012102E0B2
:103BF00000BF00BF491C8142FAD97047FA49FF282B
:103C000004D8002805D0FF20013002E0884200D906
:103C100008460521090748800220E5E7F8B5002598
:103C2000F24A00955178491C51700A2100F0DAFCE3
:103C300001228A40D1B2002807D0012807D00228EB
:103C400008D0032809D00020F8BDE94807E0E8487B
:103C5000203004E0E648403001E0E5488030E64CA2
:103C6000E44E6661A561226904231A432261EFF3E1
:103C70001085012282F3108800F0F6F90090206987
:103C8000400840002061002D05D0012080F31088FD
:103C90000098301AF8BD0020F8E7F8B50D46074641
:103CA0001C46501B00F0F6FB0646781B00F0F2FBAA
:103CB000314600F0B1FB00900698001B00F0EAFBD3
:103CC000009900F06CFB009000F0EFFB0019F8BDCC
:103CD000F1B5CA4E82B002277F1C7068FFB2BD00EA
:103CE0000090A8198038C36FC4483038426828183B
:103CF0008038C16FC248FFF7D0FF0446FF2802DCBE
:103D0000FF24013403E0B848844200DD04467451C6
:103D10007059FFF773FF0298FFF780FF0146B7481D
:103D2000303841514259B1494A604159B4480A3882
:103D3000814201DA0A2FCFD3AC48002141702046DE
:103D4000FEBDF1B5AA4DAA49A94C009E0320A84A80
:103D50000002203540318034330000F097FC2614F7
:103D60001A20262C32383ED3D3444A50565C62D3B4
:103D7000D3D3D3686E747A80868C92989EA4AAB0AE
:103D8000B6BCC2C8CED3D1888143FF310131D180C6
:103D9000B8E011898143FF3101311181B2E05189CD
:103DA0008143FF3101315181ACE091898143FF3181
:103DB00001319181A6E0D1898143FF310131D18167
:103DC000A0E0118A8143FF31013111829AE0518ACA
:103DD0008143FF310131518294E0918A8143FF3167
:103DE000013191828EE0E9888143FF310131E98020
:103DF00088E029898143FF310131298182E0698985
:103E00008143FF31013169817CE0A9898143FF3120
:103E10000131A98176E0E9898143FF310131E981EE
:103E200070E0298A8143FF31013129826AE0CA8822
:103E30008243FF320132CA8064E00A898243FF3242
:103E400001320A815EE04A898243FF3201324A81AF
:103E500058E08A898243FF3201328A8152E0CA895E
:103E60008243FF320132CA814CE00A8A8243FF3228
:103E700001320A8246E04A8A8243FF3201324A8294
:103E800040E08A8A8243FF3201328A823AE0CA8A5B
:103E90008243FF320132CA8234E00A8B8243FF320E
:103EA00001320A832EE0E1888143FF310131E18054
:103EB00028E021898143FF310131218122E061899C
:103EC0008143FF31013161811CE0A1898143FF31D0
:103ED0000131A18116E0E1898143FF310131E181A6
:103EE00010E0218A8143FF31013121820AE0618A99
:103EF0008143FF310131618204E0A18A8143FF31B6
:103F00000131A1823D4D00202E46303E2C46014617
:103F100030348200A950A150B150401CC0B20A28D0
:103F2000F7D93848A860A868FFF768FE0098FFF73F
:103F300075FEE060E16832482C4F81422FDDAF20F2
:103F40008000A8602F486860A868FFF757FE0098B7
:103F5000FFF764FEA060E0687060A068B0600220B7
:103F60003870A1682648814254DDFF200130A860E6
:103F7000AF2080006860A868FFF740FE0098FFF758
:103F80004DFE6060A06870606068B06001203870AD
:103F9000A0681B49503988423CDA012044E01948A6
:103FA000A8601920800168606868FFF727FE009804
:103FB000FFF734FE206120697060E068B060032084
:103FC000387021690E48814224DA19208001A860E6
:103FD000054868606868FFF711FE0098FFF71EFE4D
:103FE000606111E0F1060000FF070000204C002096
:103FF00000300050FFFFFF0000E000E06490002070
:10400000FC117A007E040000606970602069B06075
:104010000420387039780020042905D12169114A1B
:10402000914201DD012100E00021084305D000207C
:10403000FFF7E4FD0120C043F8BD0098FFF748FEFC
:10404000084978685A39884205DA0020FFF7D6FD1A
:104050000020C043F8BD052000074088B860B8685C
:10406000F8BD00004C127A003EB50D4D6D1E14D007
:1040700002880A42FAD16D1E0FD002880A42FAD095
:10408000084A13680124234313606D1E05D002887B
:104090000A42FAD1044A10683EBD00203EBD00002D
:1040A000C0C62D0010E000E018E000E010B50446A6
:1040B000C1B2062000F0C1F8210A072000F0BDF8C7
:1040C00000F0B0F810BD10B50446C1B2002000F0F9
:1040D000B4F8210A012000F0B0F800F0A3F810BDF8
:1040E00010B50024002803D00121401E81408CB26D
:1040F000E1B2042000F0A1F8210A052000F09DF8AB
:1041000000F090F810BD10B50446C1B2022000F0D6
:1041100094F8210A032000F090F800F083F810BD15
:10412000C10710B5C90F082000F087F800F07AF831
:1041300010BD10B500F03EF80020FFF7F1FF0020A1
:10414000FFF7E1FF0020FFF7CBFF0020FFF7BBFFE9
:104150000020FFF7ABFF10BD10B501460B2000F0AB
:104160006CF800F05FF810BD10B50446002000F0B8
:1041700076F8012000F073F87D20C000604300F065
:1041800079F8002000F06BF810BD10B5002109206F
:1041900000F053F800F046F80121092000F04DF836
:1041A00000F040F80021092000F047F800F03AF84C
:1041B00010BD00002E4900220A8003200002C880A2
:1041C000088148818881C88108824882888228497C
:1041D00040390A80C880088148818881C881088266
:1041E0007047234908807047214940390A880007F1
:1041F00012091201000F02430A8070471C4A403A1C
:1042000011881023C0079943C00E014311807047E5
:10421000174A403A11882023C0079943800E014372
:104220001180704700B50020FFF7F2FF0120FFF773
:10423000EFFF0020FFF7ECFF00BD30B505460C4650
:104240000020FFF7DBFF0A4804802846FFF7CCFF79
:104250000120FFF7D3FF0020FFF7D0FF30BD00B5EE
:1042600001460A20FFF7E9FFFFF7DCFF00BD000071
:104270008030005001010748814200D901460648BC
:104280000022026141618261052101610169C90366
:10429000FCD57047FFFFFF0000E000E07CB52E4D2D
:1042A000002428782646012806D12C48C06B002817
:1042B00002D12E70FEF7DAF929480188294A1288BE
:1042C000914214D32978012911D10680042168462E
:1042D00001700E214170032181700121C1702249BA
:1042E00081800022062100F033FBFEF7AFFA00F0D8
:1042F0005BF91E4D2888012809D100F085F91C4979
:104300000880012000F086F900F08AF92E80FCF781
:1043100089FA0100174807D001684A1E0260002987
:1043200000DD012420467CBD012464210160F9E701
:1043300000207047032809D105200007418A802208
:1043400091434182418A042291434182704710B5D2
:10435000FCF736FA10BD0000044C002000050800F0
:104360000A4C0020084C002040400000184C00205F
:10437000F40508002C4C002003460A780270401C0B
:10438000491C002AF9D1184670470321001D401E20
:10439000037812021A43491EF9D5104670470246A7
:1043A00070B54A40D30FDB0740002DD04A002AD019
:1043B000010E140E000212020919400A520A841852
:1043C000E50104465443000A120A2E045043A4197E
:1043D0004219200CC543AA18120C0125AD03521C2A
:1043E000521912047F39240400D0521C104301D406
:1043F0004000491EC2B20C06C0092018401C4008EB
:10440000802A02D003E0002070BD4008400000294F
:1044100000DA0020184370BD70B502464A40D50F3F
:1044200040004A00ED0740085208002814D0002A36
:1044300012D0C40DD30D41020120C0055202490A19
:10444000520AE41A091812187D34914201D3641CEF
:1044500000E04900002C01DA002070BD00239142E9
:1044600001D3891A0343400849000028F7D10029E5
:104470000AD0914202D10121C90705E0914201D23F
:10448000012101E00121C943E005C018401900F0F5
:1044900025F870BDC217C10F504010B54018CA07AB
:1044A0009623002100F022F810BDC20F4100400207
:1044B0000123400ADB05D207090EC0187F2901DA63
:1044C00000207047962903DC9623591AC84001E062
:1044D00096398840002AF4D040427047002904DA17
:1044E000401C490001D140084000704770B40024CE
:1044F000050C05D11024000402D1002921D011247B
:10450000050E01D100020834050F01D10001241D60
:10451000850F01D18000A41C002801DB4000641C31
:10452000002908D020252E1B0D46F540A14000D0C3
:1045300001212943084301061B1B000ADB1D02D58C
:10454000002070BC7047DB05181880180029F8DAC5
:10455000401C4900F5D170BC400840007047000085
:10456000064C0125064E05E0E36807CC2B430C3CC6
:1045700098471034B442F7D3FBF76EFFD44B0020BA
:10458000F44B002003B40148019001BD7F65020097
:1045900003B40148019001BDF92B030003B40148A5
:1045A000019001BDBD1E030003B40148019001BD8F
:1045B000012C030003B40148019001BD1B3003002E
:1045C00003B40148019001BD6B30030003B40148FE
:1045D000019001BD8F1F030003B40148019001BD8C
:1045E000A17D020003B40148019001BD0739030019
:1045F00003B40148019001BD672D030003B40148D5
:10460000019001BDB18C020003B40148019001BDCD
:10461000AB8C020003B40148019001BDDF890200A8
:1046200003B40148019001BD598C020003B4014854
:10463000019001BD9D1B020003B40148019001BD22
:10464000DF29030003B40148019001BD6F39030065
:1046500003B40148019001BD032B030003B40148DA
:10466000019001BD218D020003B40148019001BDFC
:10467000F91B020003B40148019001BD9722030019
:1046800003B40148019001BDAD24030003B4014807
:10469000019001BD6F3C030003B40148019001BDCE
:1046A000437A020003B40148019001BD151D0200C8
:1046B00003B40148019001BD431D020003B4014849
:1046C000019001BD238E020003B40148019001BD99
:1046D0002924030003B40148019001BDCD1F03004C
:1046E00003B40148019001BDB339030003B401488C
:1046F000019001BD8139030003B40148019001BD5F
:104700007D21030003B40148019001BDAD210300E8
:1047100003B40148019001BD9B97020003B4014816
:10472000019001BD0FB0020003B40148019001BD2A
:10473000A3A2020003B40148019001BDFBA2020044
:1047400003B40148019001BD99A2020003B40148DD
:10475000019001BD3DA4020003B40148019001BDD8
:104760006B96020003B40148019001BDF13B0300C8
:1047700003B40148019001BDEF61020003B4014898
:10478000019001BD5350020003B40148019001BDE6
:104790002D50020003B40148019001BDE71D020045
:1047A00003B40148019001BD8F20030003B4014808
:1047B000019001BD31D2020003B40148019001BD56
:1047C000D31D020003B40148019001BD5121030033
:1047D00003B40148019001BDE524030003B401487E
:1047E000019001BD0122030003B40148019001BD05
:1047F000911E030003B40148019001BD511E030046
:1048000003B40148019001BD67E2020003B401480E
:10481000019001BD29F2020003B40148019001BDDD
:104820001DE2020003B40148019001BD3DE1020018
:1048300003B40148019001BD05F4020003B401482E
:10484000019001BD017D020003B40148019001BD4A
:104850001F26030003B40148019001BD117D020031
:1048600003B40148019001BDB925020003B4014819
:10487000019001BDD939030003B40148019001BD85
:10488000E727030003B40148019001BD9D2A0300FE
:1048900003B40148019001BD132D030003B4014886
:1048A000019001BDED1B020003B40148019001BD60
:1048B000FB2A030003B40148019001BD452F03000A
:1048C00003B40148019001BD6F62020003B40148C6
:1048D000019001BD5F62020003B40148019001BD77
:1048E000198A020003B40148019001BDE78C02005F
:1048F00003B40148019001BD4F62020003B40148B6
:10490000019001BD2D1E030003B40148019001BDBB
:104910002D27030003B40148019001BDF18D020071
:1049200003B40148019001BD1B65020003B40148B6
:10493000019001BD452A030003B40148019001BD67
:10494000457E020003B40148019001BD356C0200B0
:1049500003B40148019001BD7F7E020003B4014809
:10496000019001BD676B020003B40148019001BDD5
:10497000895B020003B40148019001BD391D0200AA
:1049800003B40148019001BDA962020003B40148CB
:10499000019001BD835D020003B40148019001BD97
:1049A0000D4F020003B40148019001BD9F5E02005B
:1049B00003B40148019001BD252D030003B4014853
:1049C000019001BD651E030003B40148019001BDC3
:1049D000772D030003B40148019001BD7F2D030032
:1049E00003B40148019001BDEF2C0300F8B5040C9D
:1049F0008BB2264682B25E430D0C1046370C5843EC
:104A0000360480190021794116466E43370C36046E
:104A10008019794126466E438919F8BD02E008C81D
:104A2000121F08C1002AFAD170477047002001E028
:104A300001C1121F002AFBD17047000004490A6817
:104A4000800792089200800F02430A6070470000BE
:104A50000400005004490A680823C0079A43000F65
:104A600002430A60704700000400005002480168D9
:104A70000122114301607047003400500248016870
:104A800049084900016070470034005004490A6831
:104A9000C00752085200C00F02430A60704700006E
:104AA0001034005004490A680423C0079A43400F99
:104AB00002430A60704700001034005004490A683D
:104AC0000223C0079A43800F02430A607047000028
:104AD000103400500101000A04280A040203AA004D
:104AE00055032A00A001FFFF2C010000FFFF00007A
:104AF000190F002000080000410F0020EC4A0020A0
:104B000002000000C4410300FC4A0020AC0508007C
:104B10000600010000000000984B0020200608005D
:104B200002000100B711002041120020DF13002015
:104B3000F91300204D100020A51600204713002077
:104B40001C4B020001DFFFB5C4A8020000DFF8B56E
:104B50007C450300A9130020E4C80200F5E702DF4A
:104B60004819030003DF01464CE0020004DF81B076
:104B70007427020062B605DF74540200FEBD06DF32
:104B8000FFFF0000DF0F002002FC0000958F0200F5
:104B900003FC0000A18F0200804B002003000000F6
:104BA000FFFF0000451500200C0400006D150020DB
:104BB00011040000F3150020A04B002003000000AA
:104BC00080470300B84B00201407080003000800CA
:104BD00052572100304C002020900020A4000000FB
:104BE0002C4A002008090800D028080030070000DF
:104BF0002C4A00200000000000000000800C000093
:104C000000000000000000000000000000000000A4
:104C10000000000000000000000000000000000094
:104C20000000000000000000000000006400000020
:040000052000045182
:00000001FF
