:020000042000DA
:1000000000980020A5040020AD040020C5040020B5
:1000100000000000000000000000000000000000E0
:10002000000000000000000000000000DD040020CF
:100030000000000000000000F5040020F70400208C
:10004000552B0020432C00200D310300312C0020C3
:10005000BD2B00208D3103005B2C0020692C00207B
:100060009F280020F9040020A92C0020AD310300B6
:1000700057810200F9040020F9040020F90400204F
:10008000F9040020F9040020F9040020ED270020E5
:10009000F1270020F5270020F9270020FD27002068
:020000042000DA
:1001600032000000110500206F220020FD06002053
:10017000000000000000000063800200BD8002005B
:10018000A50C0020FB8002001981020035810200CD
:100190005D810200992900206F0D0020910C002044
:1001A0009B0C002000000000000000003F00000049
:1001B000F48B002000040000740B080048010000CC
:1001C0006807080000040000C80C080020050000B3
:1001D000000000002000000048000000580000005F
:1001E0006800000004010000160100002801000062
:1001F0002E010000202A00008E2E000001000000C9
:1002000088130000F9220020F53C0020B3410020B3
:100210009916002019280300A5740200E128002087
:1002200003000000D5200200FD06002001000000B0
:10023000D74902000F490200652F0020C742002065
:10024000214400200745002007820200718202003D
:100250004C560020AD8302009384020041850200C9
:1002600015860200378602005F860200758602004E
:10027000F9870200258902005D8A0200D38C020002
:10028000098D02000F900200438D0200278E0200AC
:10029000F98E0200478F0200CF0B0020D58F02009D
:1002A000EF3F0020775102002F52020010000000A3
:1002B00020030000803E000000000000000000005D
:020000042000DA
:1002C000504600030003983A6400F401B80B000C98
:1002D000B80B120030003000CD009A01120024004B
:1002E00030006400B0001800280012001200D0078F
:1002F0000000FFFF00000000000000000000000000
:100300001F000002444131343538302D30310000B7
:1003100000000000000000000000000000000000DD
:0403200000000000D9
:020000042000DA
:10034000FFFF010000C201000000000000000000EB
:100350000000F4010100010000070000000000009F
:10036000000000000000000000000000000000008D
:10037000000000000000000000000000000000007D
:10038000000000000000000000000000000000006D
:100390000000000000000000000044413134353806
:1003A000300000000000000000000000000000001D
:1003B000000000000000000000000000000000003D
:1003C000000000000000000000000000000000002D
:1003D0000000000000000000010000CAEA80D00711
:0403E000064064323D
:020000042000DA
:100440000348854604F06AFD00480047C7200200C3
:10045000009800200F4906200880FF200E49013037
:1004600008600E4988683E2290432E308860002242
:10047000052000070280018A0F231B021943018215
:1004800001210748C90404C1401E0028FBDA62B6F6
:10049000704700000034005080E100E0003300505D
:1004A000FF0B00001548804715480047042071469F
:1004B000084203D0EFF3098012490847EFF30880A0
:1004C0001049084704207146084203D0EFF3098021
:1004D0000D490847EFF308800B490847042071468F
:1004E000084203D0EFF3098008490847EFF308807A
:1004F00006490847FEE7FEE7FEE700005504002036
:100500004104002001070020DD0800204F110020D9
:1005100008B500F039FC0025052424070FE014205D
:10052000009500F09DFA0421684604F009FD0028BA
:1005300001D000F05AFB04F08FFB00280BD020897B
:10054000000608D501208007006B000403D404F0E6
:10055000FDFCC0070FD004F0C9FB0028EFD172B634
:1005600002F000FC04280FD0022814D0032812D077
:10057000012821D021E0042004F0EEFC064604F01E
:10058000F1FC002ED7D0CAE753480078012801D0EB
:10059000032000E0022000F012F8A08A800602D5B5
:1005A0004E490820088030BF04F0AFFB4C48016979
:1005B00004229143016100E030BF62B6BFE7F8B5A5
:1005C0006946052508702D07298A042211432982CE
:1005D00004464448444EC0690127012811D9032C20
:1005E00018D104F0C5FC002814D004F0C7FC002882
:1005F00010D0032004F0C8FC00280BD0022030707B
:1006000009E0032C06D1032004F0BEFC002801D031
:10061000377000E0022468460470204600F026F897
:10062000324800260670204604F062FB022C01D0FE
:10063000032C1AD12E484188FF2201329143418078
:1006400069882C4A1180418839434180009600987E
:10065000401C00901428FADB688980088000401C48
:10066000688168894006FCD56E80F8BD10B5022807
:1006700001D0032828D11A490B69042213430B61C6
:10068000052109074B8A2024A3434B820B8A0224AD
:1006900023430B8210230228488A16D01043488235
:1006A0007F22088892018024204308800020401C7B
:1006B000C0B20A28FBD3488A184348820E48521E0B
:1006C00042610888A043088010BD10434882488AD0
:1006D0009843488210BD00005402080000330050C7
:1006E00000ED00E0E0010020C4060800431208000D
:1006F00020000050441208000080004070470000B5
:10070000052109070A8A04231A430A820A8A022356
:100710001A430A820A8940231A430A811B4B012289
:100720001A601B4B08221A804A8A80231A434A8285
:10073000184A036813614368536183689361C3680F
:10074000D361036913624369536283699362C36926
:10075000D36210631048836A5363C36A9363036B65
:10076000D363C36B0B4A40321360436B5360806B9F
:100770009060888A800608D500BE488A01228008D9
:100780008000D203104348827047FEE780E200E019
:10079000003300504018080000ED00E04A4801789E
:1007A000002902D08021417070474849002008701C
:1007B0004749C870704744480178002902D0812118
:1007C000417070474149012008704149C870704725
:1007D0003D480178002902D08221417070473B4991
:1007E000022008703A490120C8707047002804D0E0
:1007F000012803D0022802D1EAE7CFE7DBE7704700
:10080000324900200978002904D0012903D00229A7
:1008100000D102207047012070472B4881780029C1
:1008200004D0491E0906090E817017D142780021B3
:10083000002A04D09207920F0270417004E00278FF
:10084000002A01D0521E02701206120E017005D04D
:10085000012A02D0022A01D1BAE7ACE7704700B5FD
:10086000194A9078401C90701078002805D1FFF745
:10087000C7FF431CFFF792FF137000BD1249012010
:10088000C870704710490020C87070470E48C07883
:1008900070470020EFF31081012282F310880522B7
:1008A00012071289120605D40A48028901231A4345
:1008B00002811846002900D0012181F31088704779
:1008C0000548007870470000F51108005402080040
:1008D000C606080000330050401208000522120727
:1008E000518A802319435182124903680B6043687F
:1008F0004B6083688B60C368CB6003690B6143699D
:100900004B6183698B61C369CB6108620A48836A62
:100910004B62C36A8B62036BCB62C36B0B63436B2B
:100920004B63806B8863908A800601D500BE704758
:10093000FEE700000018080000ED00E0414800213B
:100940004170017004218170704738B50024032282
:100950000223120204212046009401F01AFE002214
:10096000012305211046009401F013FE38BD38B56F
:100970000025354C0095032261782078022312026D
:1009800001F007FE0095E178A0780123002201F034
:1009900000FE38BD2C4B187059709870DA70704793
:1009A00010B505242407208A022188432082A08ACA
:1009B0000007FCD525484188FF22013211434180C0
:1009C000A08880210843A0800321092004F0E2FAD6
:1009D00000F0C9FBFFF7B9FF608A2021084360825D
:1009E00010BD1B48416806229143091D41604168C2
:1009F000012211434160416838221143416041683E
:100A000040229143416041680322520211434160F8
:100A1000416882151143416041680722D2021143A7
:100A20004160416802149143416001150948016029
:100A3000094A1068FF231B049843106007480160AF
:100A40007047000040590020045900202000005049
:100A50000002004000E100E008E400E080E200E085
:100A60007CB5FA4D04462878002821D0F848018842
:100A70004907FCD4C188009180880190080401993D
:100A800040180090F34920464843009904F088FA42
:100A90000190002028700198A860009821468001EC
:100AA00004F07EFAE860EC4844432C6100986861E9
:100AB0007CBDE749488008880322104308800888E5
:100AC000042210430880E149012008707047DF4983
:100AD000AA204860704770B50521090708893022AF
:100AE0009043088108898023184308810889800879
:100AF0008000401C08810889082210430881D748DB
:100B000004881C4304804C8A94434C820D89402401
:100B100025430D810D8A0426B5430D828D8AAD07CC
:100B2000FCD5CA4EAA2575608588F026B543B03538
:100B30008580858803263602B543858085882D0902
:100B40002D01858085880126B602354385808588FC
:100B500076003543858085887600354385804D8ACB
:100B600095434D82028852085200028002889A43BF
:100B700002800A89A2430A814089800503D5B749CA
:100B8000052060318880012080070168821591432B
:100B90000160B34801683F22520291434214891810
:100BA0000160016802031143016070BD0321AD487B
:100BB00009028181082242800021491C9629FCD328
:100BC0008280704710B5A84804F0F0F910BD70B5E8
:100BD000A24C6088C006050F04F0EEF961881E2261
:100BE00091436A001143618070BD70B59F49012037
:100BF000C863C86B0028FCD101208007C1699C48EC
:100C000000220368994200D20260904C012663786A
:100C1000984D002B04D06270016004F0D3F911E00C
:100C2000026819238A1ADB019A4214D3016004F086
:100C3000C9F92988884201D9411A00E0091A89B204
:100C4000182908D32880012004F0C2F904F0C6F95D
:100C5000002800D1667070BD08B57C49896848439A
:100C6000854904F09DF9009008BD08B50021009168
:100C700076490122D203C968904205D304F072FC80
:100C80008905800A084301E04843800A009008BDB6
:100C900008B5FFF7E1FF009008BD08B5FFF7E5FFD5
:100CA000009008BD08B5754901204A695206D20F67
:100CB00013D04A699206D20F0FD000220A61009227
:100CC000FF225F32009B5B1C00939342FAD3496979
:100CD000C907C90F02D004F087F9002008BD4018E9
:100CE0003721C000090140187047654B0020197872
:100CF00000290DD05D490122CA63CA6B002AFCD1CC
:100D000001218907C9695F4A1268914201D2012015
:100D100070470021197070470020704708B54F498F
:100D20004A8801231A434A8000210091491C0091FE
:100D30001429FBDB052109074A8992089200521CFD
:100D40004A814A895206FCD54B89042213434B81C0
:100D50004880488990434881888A0006FCD54889A4
:100D600080088000488148890006FCD508BD10B580
:100D7000454900200860FFF725FF01208007016B2F
:100D800049004908016310BD10B53D4901200870B4
:100D90003E490820088004F02DF901F0D9FBFF241A
:100DA00001340D202146800104F02AF901F0CDFD27
:100DB000FFF7F6FD012004F029F901F0BBF9FFF778
:100DC0008AFE042000F0A7F8072000F0A4F80A200B
:100DD00000F0A1F8062000F09EF80B2000F09BF830
:100DE000012000F098F8022000F095F8002000F0B3
:100DF00092F82748006804F00FF900F0F2F800F0CC
:100E000024F901F065F800F054FA01F00AF9A005A0
:100E10000168214301601420FFF74BFE1420FFF707
:100E20001FFEFFF7BBFC02F0B4F8FFF7A0FF0020A5
:100E300005210907C88209494888E0229043A0306B
:100E40004880012004F0EEF810BD0000FC110800FD
:100E5000001600500024F40010270000200000506D
:100E60000002004020300050E2040000C0000040BA
:100E70007C0408007804080040420F000010005075
:100E8000F4110800085900208C03080000330050BA
:100E900004900020234910B5884200D000BE04F021
:100EA000C7F8D1E7204B21495A88002809D0986813
:100EB00050430A88C00292099201800E02430A80C0
:100EC00070470888920680098001920E10430880BE
:100ED000704730B5164A93898024A3439381072332
:100EE000138100239380958925439581050A958078
:100EF000C0B2108091819089A043908101200D4A59
:100F0000010311600C4908630C4803760361C36058
:100F10004360036030BDC106C90E01208840064908
:100F20000860704711111111FC11080000010050F8
:100F30000010005000E100E080E200E0340408000E
:100F4000FEB5944D019117461E4600240090294697
:100F500004F074F8050005D033463A46019900982C
:100F6000A84704462046FEBDFFB581B01F460E4689
:100F70004D780C78002004F067F8042824D000286D
:100F80001DD121E08448816E2E2060430918888895
:100F90000207120F130004F05DF8070505050F05A1
:100FA0000F050F008204920E062A05D27278012ADC
:100FB00012D0072210438880641C6407640F2846FF
:100FC0006D1EEDB20028DDD13B463146039A0198F3
:100FD00004F046F805B0F0BD204604F047F80020C4
:100FE000F8E770B56D480378021D00216C4D07E0ED
:100FF000CC00165D002E01D12418A560491CC9B291
:101000009942F5D370BD70B505460C46103C3F20A3
:1010100004F01AF800280FD062488068322806D9F8
:1010200061498D4201D03C2801D9002070BD214684
:101030005C4804F021F806E0204604F023F8012182
:101040003F2004F025F8012070BD10B553490B78FE
:101050000A1D002005E0C400145D3F2C04D0401C94
:10106000C0B29842F7D310BD4D4AC00010324018AC
:10107000826010BD028908894C49101A80B28842EA
:1010800001D90120704700207047FFB586780446DB
:10109000300281B00E30009003F0D6FF002801D05E
:1010A000FF2652E00021442003F0F8FF404FB50036
:1010B0007851442103F0F8FF0121009803F0E8FF84
:1010C00079590298888079596088C880785922793E
:1010D0002030417CD20749084900D20F11434174A6
:1010E00078590622A11D3B3003F0E4FF785961795D
:1010F00040304170785906223430039903F0DAFF0A
:10110000795904982031887602980D281DD02948F5
:1011100010230088009A81B2274803F0D1FF0546CA
:10112000608828806079687228460622A11D0A30EE
:1011300003F0C0FFA0896880E089A880208AE88049
:10114000A07C2872284603F0C1FF304642E781693F
:101150002039897F082905D2114A89002032515847
:1011600081617047FEE70E4A14494032002008CAE8
:10117000401C08C11028FADB01201149C006086094
:101180001049CA691202120ACA610D498039086001
:101190007047000084430300D802080004060800DA
:1011A00080560020800408001034000030750000D4
:1011B0005405080060010020013800001084004040
:1011C00080E100E000ED00E070B516460D461046E7
:1011D00003F03AFF00286AD0340A304603F034FFA7
:1011E000012812D0A87A1E2811D029460A310E28CB
:1011F00046D019DC801E030003F02CFF0B25592973
:10120000592D59315939593E5900022070BD314686
:10121000314803F061FF0021204603F063FF022103
:10122000304603F035FF42E018283DD006DC102898
:1012300019D012282CD0162839D131E0522823D0C9
:10124000D22834D128E0204603F052FF2FE0204678
:1012500003F054FF2BE0204603F056FF27E0204622
:1012600003F058FF23E0204603F05AFF1FE01B4A1B
:101270002046126890471AE0204603F057FF16E018
:10128000204603F059FF12E0204603F05BFF0EE01A
:10129000204603F05DFF0AE0204603F05FFF06E012
:1012A000204603F061FF02E0204603F063FF0020C8
:1012B00070BD70B50A480378021D0021094D07E092
:1012C000CC00165D0A2E01D12418A560491CC9B2B4
:1012D0009942F5D370BD000001280000645600203B
:1012E0000406080080570020F7B507461646019807
:1012F00003F046FF0546C488384603F047FF401E0A
:10130000844200D2204684B222460B21384603F0A4
:1013100043FF0746002E05D033460A21019A03F009
:1013200041FFFEBD29467C8022460831381D03F06E
:10133000C1FE384603F03CFFFEBDF8B5064600206E
:1013400000900C464A8801466B46304603F036FF53
:10135000020001D061881EE0608803F035FF00289C
:1013600017D005890120EAB2002103F033FF0C4BAE
:101370000CCB1040194008430BD0320202232946FF
:1013800008480A3203F09CFE6188018003F09EFE4B
:1013900004E0618800223046FFF7A6FF0020F8BD78
:1013A0001812080002280000F8B50D460646810014
:1013B0002B48EA884458521C20686B89018F294FBA
:1013C00051430091014640314A89C989511A8AB274
:1013D000991A89B2B94214D29A4212D0294603F01E
:1013E000FFFE2D892049009803F0DAFD2818801CA3
:1013F0004034E0823002401C80B2042103F048FEF9
:10140000F8BD2821304603F0F1FEF8BDF8B50546D9
:10141000870013480C46C059C9880068114E02461F
:1014200040325389D2899A1A92B28B1A9BB2B34234
:1014300011D20B4E8A420ED003F0DEFEF059052287
:101440005F30611C03F036FE2802401C80B205218B
:1014500003F01EFEF8BD2821284603F0C7FEF8BDA4
:101460004C030800FF7F00001027000070B5044601
:10147000007800250D2801D00A2200E002225A49F6
:101480004B7A002B06D00D2804D0637C032B01D0AF
:10149000432551E0097A8A4339D10D2809D00E2815
:1014A00002D00F2803D134E0607C032804D3402508
:1014B00042E0607C0328FAD8A07C0428F7D20A29ED
:1014C00008D0607C012822D0022820D06078032830
:1014D00009D811E003F096FE012806D160780328B0
:1014E00003D0002801D0492526E003F08BFE002818
:1014F00002D160780228F6D83020035D22462046CB
:10150000E17C3132143000F019F8054614E0422530
:1015100012E003F077FE012807D16078052804D196
:10152000A01D03F075FE0028DDD003F06BFE00283F
:1015300002D160780228D6D8284670BDFFB50020B9
:1015400086B001216A461170044605910021002CE5
:1015500006D0089D099A1F239A4234D9402032E0D0
:101560001C23069D079AF7E76B185E78330003F09B
:1015700071FD1D26101010101010101010262626B8
:10158000262626262626262626261010101010107F
:101590002600059B03E06F46FF5CB74204D05B1E4C
:1015A0005BB2002BF7DA03E0002B01DB4A2006E0F8
:1015B000059B6F46FE54059B5B1CDBB205936B5C81
:1015C000491C5918C9B2914201D20028CCD091428D
:1015D00002D04A200AB0F0BD641CE4B2022CF9D259
:1015E0000028B3D0F6E700009805080070B5EFF3C7
:1015F0001085012080F310882C4803F00FFE04466C
:10160000002D1DD0012080F31088002C2DD0204605
:101610004038C08F2649884227D16189208903F04C
:1016200003FE05000ED021461031A389628920896E
:10163000A847002806D0012817D0022815D105E0B8
:101640000020E0E7204603F0F5FD0EE0EFF3108503
:10165000012080F31088154821460C3003F00CFD62
:10166000002D0CD0012080F31088EFF310840120AE
:1016700080F310880D480068002802D004E00020A4
:10168000F1E7012003F0DCFD002C03D0012080F302
:10169000108870BD0020FAE710B5BC21054803F0A2
:1016A00003FD0549012003F0D1FD10BDA805080088
:1016B0003883000004060800ED15002000B502790B
:1016C0000021130003F0C6FC0C3407073535203524
:1016D0003535353527344279042A27D8C27953075E
:1016E00007D05207520F012A03D0042A01D0052A3D
:1016F0001CD18279002A01D0012A17D1007AC01F9B
:101700000A2816D3062114E04279521E0A2A10D361
:10171000082242710DE0407942070AD04007400F8D
:10172000012806D0042804D0052802D00A2100E0B0
:101730000721084600BDF3B581B001980C460102AF
:10174000CA1D022332480E3103F0BAFC047001991D
:10175000054602272F488E00002C06D0042C16D0F8
:10176000062C10D0072C3FD108E08159052249688A
:10177000897C114069708059C77335E0084603F0D1
:101780006BFD687030E080590F21C1732CE0044676
:1017900080594068417C012902D1007E01280FD088
:1017A000019803F05FFD01210028A0590BD0426889
:1017B000D07D00281CD001281AD004280DD00FE0BD
:1017C000002068700DE04068C27D022A01D0042A22
:1017D00006D1007C02280BD102E0107C022807D041
:1017E0006F70A1590320C873284603F06FFCFEBD3B
:1017F0006970F6E701460A780120042A01D9002021
:10180000704749780029FBD00129F8D170470000C2
:10181000021C000028050800FFB589B00D46002015
:101820006946059008720B98000A009003F01AFDB3
:1018300007460B9803F008FC00287DD00B98297808
:10184000000A8400784E012963D0042904D00629B7
:1018500048D0072968D125E03059C17B032901D040
:10186000042961D1697800291AD040681022A91C86
:1018700003F020FC002F06D03159C87B032807D085
:10188000042808D050E03059C07B032803D04BE037
:101890000B20C87348E00521009803F0E9FC43E001
:1018A0000120B6E03059C07B0E283DD1009803F0EE
:1018B000D3FC002103E02A18401C9170C0B210280C
:1018C000F9D3688A69460883294606A80822143194
:1018D000023003F0EFFB06ABAA1C3946009803F078
:1018E000CDFC21E03059C07B0F281DD1AA1C0A2154
:1018F000009803F0C9FC002F04D03946009803F08B
:10190000C9FC11E000231A463946009803F0C8FCD0
:101910000AE0012F08D10B9803F096FB01281CD098
:10192000002801D0022005906846007A002811D0D6
:1019300002AA0521009800E00CE003F0A5FC68462F
:10194000027A6020024368460272012339460098F9
:1019500003F0A6FC05980DB0F0BD3059C07B0228FD
:10196000E2D16878002851D002210B9803F090FB57
:10197000305907224068A91C173003F09BFBE87818
:10198000002804D130594068407C01283AD00098A2
:1019900003F08CFC002837D0297A009803F08CFCE7
:1019A000002833D0009803F08DFC0121009803F04B
:1019B0008FFC00282CD030594068417E00292BD064
:1019C000042929D0C17E027D1140C176305940687A
:1019D000017F427D114001776846007A0028A7D137
:1019E0003059022142680098173203F04DFC3059FB
:1019F00041684031897B002913D004210098FFF70A
:101A00009AFE91E7022004E0062002E0082000E0B0
:101A10000320694608728BE70021C176305940687F
:101A2000D9E70B21C1737FE728050800F8B5054603
:101A3000FD49123080B2496E2A2250430C1804200E
:101A40002071241D03F04AFC009020460930042236
:101A50006946064603F02EFB03F040FC009004228A
:101A60006946601C03F026FB03F038FC009004225A
:101A70006946601D03F01EFBEC4A2946964600208D
:101A80004E22EB4BB446514342006646961972789B
:101A900036781202324376463668871C76187F0005
:101AA000FF18F253401C0228EEDBE249A800085858
:101AB0000822611C783003F0FDFA2802401C80B235
:101AC0000D2103F0E5FA0D21284603F00DFCF8BDC9
:101AD000F3B5044681B0042003F00CFC0246D5495E
:101AE000A0000858002A25D00299082270300B3136
:101AF00003F0E0FA0299204613318C460022CB4BCA
:101B00004E21CB4E4843550061466F1879783F7897
:101B1000090239431F683F18AD197953521C022A34
:101B2000F1DB20460299FFF781FF2046029903F07E
:101B3000E7FBFEBD6030C17B490704D50621204686
:101B400003F0E4FBFEBD2102491C807B8DB200281E
:101B500007D07D2252012946B74803F0DDFB03215F
:101B600000E00121284603F093FA0621204603F005
:101B7000D9FBFEBDFFB581B00398070A03F064FAF4
:101B80000646102836D004DC002E37D0082E04D1AB
:101B900030E0142E32D0152E0BD0A64CBD0060596B
:101BA0006030C07BC00607D53D21384603F01EFBE0
:101BB00024E0022005B0F0BD03F0BAFB01281DD1DE
:101BC000032E07D19C48039903F086FA605901213E
:101BD00060308173605918226030C17B1143C1733A
:101BE00060598030007C002804D00721039803F05E
:101BF0004FFADEE738460299FFF76AFF0020D9E77F
:101C000010B50C4603F09AFB21888A00894989584F
:101C10000968002902D0894BC968995010BDF8B5F0
:101C20000E461046150A03F00FFAAC00814F00284B
:101C300017D0142815D0152809D038596030C07B2A
:101C4000C00606D53D21284603F0D0FA09E002205F
:101C500008E003F06DFB012803D131462846FFF769
:101C6000A3FB002039590968002902D0734AC968CA
:101C70001151F8BDFFB50F461546110A6D4A88008F
:101C8000125881B012681E46002A01D0D46803E0C1
:101C90006A4A002314581350002C18D0201F428881
:101CA000674B9A4213D10088602810D120464030FB
:101CB00002898A420BD18088002808D0A0680028B9
:101CC00002D0204603F040FB204603F043FB33469E
:101CD0002A463946019803F043FB6BE7F8B5160A2C
:101CE000544CB5006059174600281CD04030017E86
:101CF000104603F0CDF9384603F0A6F9012802D0CA
:101D000006280FD108E061596031C87B020709D568
:101D1000F7221040C87305E060598030417C30469E
:101D200003F064FA0020F8BDF0B50646050285B060
:101D3000681C009080B2014602903F4803F0CCF945
:101D40000121029803F0A4F903F0F2FA394CB7002C
:101D50000128E05903D06030C17BE72214E06030F5
:101D6000807B002809D07D2252013348029903F07C
:101D7000D3FA0321029803F08BF9304603F0F6FA08
:101D8000E0596030C17BEF221140C173E0596030EF
:101D9000C17B4A0711D5FB221140C1730098ED1D8C
:101DA00082B225480024A9B204230D3803F088F933
:101DB0004680047003F08AF9FCE6002201213046D7
:101DC00003F0DAFAF6E610B51046140A03F03CF90F
:101DD0000B280CD01749A00008586030C07BC00603
:101DE00003D53D21204603F001FA002010BD204616
:101DF000FFF79AFFF9E770B510460D46140A03F095
:101E000023F9002828D0142826D015281AD00949EB
:101E1000A00008586030C07BC00615D53D21204683
:101E200003F0E4F918E00000D8020800E001002007
:101E3000300008004C0308002404000020120800B1
:101E400038830000022070BD03F072FA012803D12C
:101E500029462046FFF7DAFA002070BDF8B507469C
:101E60001D460E461446104603F0EEF8142806D020
:101E70002B4622463146384603F084FAF8BD00204E
:101E8000F8BDF8B507461D460E461446104603F049
:101E9000DBF8142806D02B4622463146384603F09C
:101EA00077FAF8BD0020F8BDFEB5124D0191174636
:101EB0001E4600240090294603F0C0F8050005D016
:101EC00033463A4601990098A84704462046FEBD8D
:101ED00070B509480378021D0021084D07E0CC00C9
:101EE000165D012E01D12418A560491CC9B2994282
:101EF000F5D370BD8C41030004060800A0580020F3
:101F0000FEB5514D019117461E460024009029460A
:101F100003F094F8050005D033463A46019900983D
:101F2000A84704462046FEBD70B5064614460D4639
:101F3000104603F089F8240A002836D043483018A8
:101F400006D001281FD00C2821D00E2827D11AE056
:101F50002878002829D03E4DA600A859428E002A94
:101F600023D041230121204603F018FAA95900206B
:101F70004886A8590068002817D1200201210E3098
:101F800003F086F811E02878002808D10DE02046FB
:101F900003F00AFA0A2808D12878002801D0412144
:101FA00000E00021204603F005FA002070BDF8B5DE
:101FB00015460C46104603F047F82F0A00282CD08F
:101FC000234DBE00A859408E0D280BD02148A27881
:101FD0000088217983B2384603F0F2F9A859408E7F
:101FE00000280CD02078002819D04123A8590121BD
:101FF000428E384603F0D2F9A95900204886384667
:1020000003F0D2F9012803D04621384603F0D2F973
:1020100022796188384603F0D9F90020F8BD002301
:10202000E4E7F0B50D480E23021D0B4C05780021A6
:1020300007E0CE00975D9F4201D13618B460491C7D
:10204000C9B2A942F5D3F0BD28490300F4FBFFFF54
:102050005405080060010020D05800200406080044
:10206000F3B50546204980000C582802401C87B271
:1020700081B00026384602F0E7FF152807D19520E9
:10208000005D002803D003F053F9002818D0234640
:102090004033988AD98A884200D808464004020C06
:1020A00099823946114803F037F9012194200155EE
:1020B000384602F0EDFF8034607D002805D101E054
:1020C0001F26F8E7A07D00280CD000206075A075C1
:1020D000022003F00FF9002804D029463046029A66
:1020E00003F07AF9FEBD00004C0308002304000051
:1020F0000F4A518807235B029943400201435180F4
:1021000070470520000701883022114301800188B3
:102110000322114301807047052000070188302207
:10212000914301800188890889000180704700007F
:102130008000005030B590499048CA05148880232B
:102140001C4314808E4C65892D0701D4491EFAD298
:102150008C4C012121608C4C018821808B49408866
:10216000088010889843108030BD00207047704769
:10217000704770470020704701218907086B0722CC
:10218000104308637047704730B582498048086043
:1021900081494C200880804C804B203C238281491F
:1021A0007F4848808148804901807F4919314180BA
:1021B000222141818121890001827D4941827D491D
:1021C00001837B4911314183784A7B4920329180D8
:1021D00041227A4912018A80794ACA80784D1035A5
:1021E000CD810A824A82921C8A826A1FCA82FF2299
:1021F00046320A83734A4A83734A592111807249CD
:10220000724D20310D8043254D80714D5582D52270
:102210008A80FF22D3320A816E4A4A816E4A8A81BD
:102220006F4A6E4911805C496E4A60394A80CA889B
:1022300010252A43CA80654A0A3A0A81564D6A4ADD
:10224000403D6A80638208224A8150495E4A09887B
:10225000403A11824C49654A0988118064490978DD
:10226000002901D03021018330BD4008704700B5FE
:102270008BB0604A4262604A8262604A4261604A50
:10228000C262604A0260604A0262604A4260604A1A
:10229000C261404A3E48002110603E484038026B0F
:1022A00003129A430263426B1F231B049A430323C6
:1022B0001B04D218426357480268C3129A43026053
:1022C000026803139A43026068464154491CC9B22C
:1022D0002829FAD3014628224F4802F0EBFEFFF7E7
:1022E00053FF02F06FFE4D490880002002F070FE9F
:1022F00002F074FE0BB000BD10B5264924480860FA
:1023000024484038416B1F221204914303221204D7
:102310008918416300060168C908C90001600520E9
:102320000007018989088900491C01810189082267
:1023300011430181FFF728FF3948006F007800281A
:1023400004D03848008814496039C880012002F060
:1023500069FE10BD264800787047254901200870A5
:1023600012493020088370472149002008700F4926
:102370001048088370470000A0860100087F040011
:102380002000005000800040560208004A03080068
:102390004C05540780000040602C00507F7F0000F7
:1023A000AC29000000220050090900000024005060
:1023B0002204000030D00000EE1100000025005083
:1023C0002E02000044200000402800500D9500001F
:1023D00002420000E4DC000010920000537800008C
:1023E000002A00508B1000009DD5000000260050F0
:1023F000381208006B2100206F2100207521002079
:1024000079210020712100208721002073210020E4
:102410006B22002000020040200008007804080021
:10242000E00100205204080008430121890303460B
:102430000B4343490B80434B184308800920024358
:102440004A8070473E490A880F239B0100079A4340
:10245000800D02430A807047394900200880704788
:1024600037483949028802231A430280491E02D3A1
:1024700002889207FAD400210181408970470AE05E
:1024800000BF00BF00BF00BF00BF00BF00BF00BF54
:1024900000BF00BF00BF401EF2D2704770B50222DD
:1024A000510204464E003046FFF7BEFF1420FFF7EE
:1024B000E6FF002C01D0092000E00720FFF7C2FF53
:1024C000FFF7CEFF05460120FFF7D9FF02220021CA
:1024D0003046FFF7A9FF002C01D0092000E00720BB
:1024E000FFF7B0FFFFF7BCFF4019154A002111802C
:1024F00070BDF0B5124C154820801420FFF7BFFFC7
:1025000001256D02A580E5802088E9000843208030
:1025100020888E10B0432080FFF7A2FF0746208856
:1025200030432080FFF79CFF02467800714240183C
:10253000281A52005118691AA080E180F0BD0000ED
:102540000015005001400000A08601000148000075
:10255000704710B5032800D10420B14C4001001988
:10256000490008181A43C28010BD032800D1042076
:10257000AB4A4001801801228A40828070470328BC
:1025800000D10420A64A4001801801228A404280DE
:10259000704770B506460498144600280D4630462C
:1025A00002D0FFF7ECFF01E0FFF7DFFF22462946EC
:1025B0003046FFF7CEFF70BD10B5002807D0431E90
:1025C000974C5B0070341B19012802D002E00023F5
:1025D000F6E70831188801248C40A0438A40024362
:1025E0001A8010BD032800D104208D4A40018018B4
:1025F000008801228A40104000D001207047FFB5BA
:1026000083B088A00068009010461338FF2601367A
:102610008640019014460D9FB0B200F0F1F8002FF3
:1026200001D0012100E000217F4D8140A889B04305
:102630000143A9813F2000F0E3F88740A889800981
:1026400080010743AF81B0B200F0DAF80C99814005
:10265000288AB043014329820126019930468840E7
:10266000074680B200F0CCF806998140288AB8432A
:10267000014329823F2000F0C3F803996A46525C67
:102680000499511881406848620040381018428B04
:102690009209920111434183A007C20EFF2191408C
:1026A00080209040002C0BDA2207120F083A930882
:1026B0005E4A9B009A18D3698B430343D36107E0BA
:1026C000A3085B4A9B009A1813688B43034313606B
:1026D000E006C00E86405748066007B0F0BD52497C
:1026E0000A8A0121133881400A40C80701D000201E
:1026F00038E0880701D5012034E0480701D50220E1
:1027000030E0080701D503202CE0C80601D50420DD
:1027100028E0880601D5052024E0480601D50620DA
:1027200020E0080601D507201CE0C80501D50820D7
:1027300018E0880501D5092014E0480501D50A20D4
:1027400010E0080501D50B200CE0C80401D50C20D1
:1027500008E0880401D50D2004E0480401D50E20CE
:1027600000E00F20C240D0B2704770B5012413388A
:1027700084400D46A0B200F043F885402A48018A03
:10278000A1430D43058270BD70B501242146133865
:1027900081400D4688B200F033F884402248C18958
:1027A000A9430C43C48170BD0246133A042A04D8DD
:1027B000214A8000801880384163704710B5044674
:1027C000133804280AD82046FFF7DEFF1A49A00074
:1027D00040188038406B002801D0804710BDE106CA
:1027E000C90E012088401549086010BD1320E5E797
:1027F0001420E3E71520E1E71620DFE71720DDE7E7
:1028000000280AD0411E4840C003010C002001E00E
:102810004908401C0029FBD100E0102080B270471D
:102820000030005001090F190014005000ED00E0C5
:1028300000E400E000E100E02090002080E200E001
:1028400030B5224B1C680825C907AC43090F0C435F
:102850001C6019680424D207A143520F1143196068
:1028600019680222C0079143800F0143196018487C
:102870000168C022090A09021143016030BD154BED
:1028800058809980DA807047FF2013490130086032
:102890007047FF20104901308031086070470F48B1
:1028A0000068002800D00047704770B50546144600
:1028B0000E46012002F0A6FE284602F0AFFE30468A
:1028C00002F0B8FE0348C48170BD0000003400501F
:1028D00008E400E00034005000E100E00C59002062
:1028E00070B516460C460546012802D00C2D26D19F
:1028F0000DE006222149224802F074FD00281ED076
:1029000006221F49304602F0D5FB062012E01D4D7D
:1029100029680878C00610D52078202803D2002026
:102920002070042070BD0A7E30463A3102F0C2FBAE
:102930002868007E2070002070BD012070BD3246E6
:102940002146284602F054FD70BD70B50E480F496F
:10295000C405228880252A4322800D4A53891B07FB
:1029600001D4401EFAD20B4A01201060062204480E
:1029700002F0A0FB2088A843208070BD383E0300F1
:1029800039120800C0060800A0860100D47F0400A8
:10299000200000500080004070B50125AD07AC6BF1
:1029A0002046FEF77AF9DC4902F0FAFA27221201F2
:1029B000511A00D10121D94A50601160286B0821B9
:1029C000884308432863D6480460D6480068002836
:1029D00002D0A04200D200BE70BDFFB500256A46FD
:1029E0001570D149096800297CD00A464032937C91
:1029F000002B77D0CD4CCE4B012813D0098D264625
:102A00000907803E0127366FC90EFF04C919715AA4
:102A10006E46890B31713179002963D031790129F2
:102A200006D011E06E46E16C3170002199700BE028
:102A300011894E267143BF4E25688919695A6E4621
:102A40000D0AD17C691A3170317800294BD0BA4D0A
:102A5000B949603DAE6E097B2E254D43B4467519CC
:102A600005E0491C4907490F2E254D4365446E4634
:102A70003678761E37063F0E6E463770F1D1AD7848
:102A80006E06760E6D462E712D79AE06B60E6D462B
:102A90002E722E256943A74DA469463D4919615AF6
:102AA0006D46C906C90F2973012805D0002098700A
:102AB000287B00280FD10BE0287B002802D1287A40
:102AC00000280FD0107D00280CD101201AE009E069
:102AD000287A002806D0107D002803D1D07D082157
:102AE0000843D075FFBD0128FCD0002D02D0987896
:102AF000002806D0107D002803D1D07D082108438E
:102B0000D07500209870FFBD10B5052000074189E1
:102B1000890708D0418989088900418187494A8805
:102B2000520852004A800189802211430181018AA2
:102B3000042291430182818A8907FCD502F05EFC60
:102B4000012080070169490700D500BE01694907D6
:102B5000FCD510BDF8B5764EF08800282DD10120A7
:102B6000F08077490820088005273F07788980078B
:102B700020D0B88A400701D5FDF712FF6F4D288895
:102B80008021084328806F4CFF2060800420208033
:102B9000FFF7B7FA7D21C900E088A28800048018F9
:102BA0008842F9D905202080B08878802988802043
:102BB00081432980644910200860F8BD70B5FFF793
:102BC000ABFAFFF7A1FF5A4C00265D48E680018969
:102BD00049084900018101F0E9FA01208007816973
:102BE00004221143816102F00FFC5749102080310B
:102BF0000125086002F00EFC02F012FC1420FDF723
:102C000058FF4E4826704089800510D5607800280E
:102C10000DD14E4865700088C00708D10120FFF72C
:102C20003DFC8B218900884201D90220607070BD73
:102C300010B502F0FBFB00F068F83D490120087078
:102C400010BD10B501208007008A000604D500F0F1
:102C50005CF81420FDF72DFF10BD10B50120FFF723
:102C6000BCFE02F0E9FB10BD10B50124A407208AC8
:102C7000000718D50220FFF7B0FE02F0E3FB206842
:102C8000400040086100084320602068C00FFCD16C
:102C90002248803001680906090E01D00121016037
:102CA00023490420087010BD70B5294800888606A5
:102CB0002848B60E44681D48006F0078002802D1ED
:102CC000304602F0C5FB24480089194DC00507D5E0
:102CD00020060FD5E0070DD0304602F0BFFB03E021
:102CE000200607D5E00705D003201C492870088876
:102CF000401C0880200407D5E00505D502201849AE
:102D000028700888401C088070BD10B50849012053
:102D1000C87002F0A9FB10BD710200004000004025
:102D20004C120800481208006C030800E001002063
:102D3000401208004A000800380308002000005034
:102D4000003300500016005000E200E00015005073
:102D50000020005000020040002C005016590020B6
:102D600022590020F0B5714E85B00025706D2F46B8
:102D70000290FDF78BFD014600206D4C002902D129
:102D80002179022900D10290FDF7AFFF00280ED172
:102D900002F070FB00280AD065480125C0780028A1
:102DA000F9D005242407A08AC00701D00425BAE081
:102DB00002F0CCF80028FAD15D480179002901D150
:102DC000316D02915B498969002952D0716D029180
:102DD0000191817802A802F053FB00284DD0012018
:102DE00080074069400648D45148817802A802F023
:102DF000A7F8002841D002F049FB00283DD00198F7
:102E0000029000264C48FDF743FF01904B4A0120F9
:102E10008007016A914202D2016AC829F9D80120CB
:102E20008007006AC82800D801264148817802A896
:102E300002F026FB00281ED00120800740694006D2
:102E400019D43B48817802A802F07AF8002812D001
:102E50000298002803D0002E01D0401E029038486E
:102E6000FDF716FF374A014612781230022A05D0C4
:102E700005E00299ACE701F099F954E01130324ACB
:102E80005289920500D500BE019A01268A1AB6071A
:102E9000F36B9B0A9B021343F363F26B2B4B800291
:102EA0001A400243F263F06BC002C00A49050843AE
:102EB000F06302980425002801D0001D02902449E7
:102EC000096802F04FFB2349096802F069F82249BA
:102ED0000090086016490979002900D0012102F00C
:102EE000DBFA1E48C06A8047FDF716FF002808D0AD
:102EF0002088302108432080208803210843208037
:102F00000127306B0004C00FFBD015480168C905CC
:102F1000FCD5002F01D0FFF7FFF802F0C3FA20899B
:102F2000802188432081284605B0F0BD6002002042
:102F3000C6060800A8050800540B00002602000081
:102F40001D0D00005402080020000050FF03E0FFA8
:102F50000C12080010120800481208001C07080094
:102F60000002004008B572B602F0A2FA0521090776
:102F70004A8A684602800088820892006846028079
:102F800002880120C003024368460280008848820C
:102F900008BD10B5FDF702FCFC48002101700222BB
:102FA000427081702522C27032228280C1800181EC
:102FB000418181814182C1810182F54A13681403F4
:102FC000234313608182FDF70CFD10BD38B5EF4C33
:102FD000207800280BD120816081A0816082A078B8
:102FE00069460870684602F069FA0220207038BD10
:102FF0001CB5E64900220A814A818A814A820A82F6
:1030000000788870FFF7E2FF0421684601700E2106
:103010004170032181700121C170DE49818000224D
:10302000062102F051FA1CBD38B5D84C2078002892
:1030300016D1E080A17868460170E178417061782E
:10304000817002F047FAD44D05E0684602F042FA7A
:10305000002800D0FEE7686B0028F6D00120207021
:1030600038BD1CB504460421684601700F2141702B
:10307000032181700121C170C8498180002206218D
:1030800002F022FAC148217881706178C170A1787C
:1030900041702179E278090211438180FFF7C4FF72
:1030A0001CBD38B5B94C207800281BD1A1786846E2
:1030B0000170252141706178817002F00BFAB848E7
:1030C000016AC21311430162016A02149143016251
:1030D000016A821491430162016A490A490201624C
:1030E0000520207038BD1CB50446042168460170D7
:1030F0000E214170032181700121C170A549002278
:1031000030318180062102F0DFF9A04821788170FA
:1031100061784170FFF7C5FF1CBDFEB5A14D027877
:103120000121A04C203589024F2A31D09E4B8E10B0
:10313000542A39D0522A2AD1196047789B480078FE
:10314000002855D09A482188314321802188C05DCC
:10315000090A0902014321800120964980038880E1
:103160000120288008202880062088490870042132
:10317000684601700E214170032181700121C170E8
:103180008449002210398180062102F09DF9FEBD9C
:10319000002020802880874B03229A80824A803A30
:1031A0001160854A1160E0E7196047787F48007830
:1031B000002811D07E482188314321802188C05DBC
:1031C000090A09020143218001207A49800388808D
:1031D000042028800220C6E7384602F039F920880A
:1031E000304320802088000A000238432080EBE72B
:1031F000384602F02DF92088304320802088000ACC
:10320000000238432080A7E710B5604C20780128E1
:1032100005D02078022802D02078052807D15E4802
:10322000406B00F0E1FE5C48343002F059F90020B8
:10323000207010BD1CB50421684601700E2141703C
:10324000032181700121C1705249002240318180E7
:10325000062102F039F9FFF7D7FF51490020086233
:103260001CBD1FB50421684601700E2141700B2161
:1032700081700121C17047491031818043490A8919
:10328000C2804A8902818A894281098A8181002219
:103290000E2102F019F9FFF7B7FF1FBD7CB50446F8
:1032A0000421684601700F21417003218170394962
:1032B0000125C570503181800022062102F004F9F9
:1032C000227802213D48012A04D0022A18D0FDF7B5
:1032D00065FA7CBD6278002A02D1A278002A0DD05E
:1032E00005716078364919224843A178920151430B
:1032F000411834484165FDF75EFA7CBD0171FAE77B
:103300000171FDF765FA7CBD05210907488070470A
:10331000F7B52D49CC0520888027384320802B48DD
:103320004289120701D4491EFAD2C18B02221143ED
:10333000C183002550E0264800210160009AAE00BC
:10334000B2181204920C02614161042101600198DB
:103350003018401C01F0F7FC01990002895D084318
:103360001B498A681205120F082AFAD088618868FA
:10337000C206FCD581072DD5C10401D4800429D50E
:103380002088B84320800020C043FEBD1059002093
:103390000002004020400000900308001E200000B2
:1033A000C00000400020005080E100E04C560020AA
:1033B00020000800002C005080E200E0C606080053
:1033C0000077010060020020A0860100200000506C
:1033D000008000406D1CADB202988542ABD32088BE
:1033E000B84320800020D0E7F0B50546401C417866
:1033F000027808020026297805241043240785B0A6
:10340000374601291FD0FE4BFD4AC03B02290AD096
:1034100003290DD0042912D0052916D0062919D068
:10342000072917D044E001201063032000020FE0B9
:103430006188F44A121A8A423AD3081803E0618874
:10344000814235D3081A608032E0176301204002C0
:1034500018612DE0687801F052F9411C05D0811CFB
:1034600005D02978072904D018E0012616E00226A5
:1034700014E080B2009001226946E348FFF748FF5C
:10348000002800D0032610200090DF480122694662
:103490001438FFF73DFF002800D00326FDF755FA4A
:1034A0007D20800100970099491C00918142FADB40
:1034B0000421684601720E214172052181720121A9
:1034C000C1722878002810D0062812D0072810D002
:1034D0006846C7818120C0016946888102A8002210
:1034E000082101F0F1FF05B0F0BD60886946C88190
:1034F000F0E76846C681EDE77CB504460078651CB8
:10350000030001F0A7FD09060A11151C2027334806
:103510003800607801F0EBFA2DE068782978000235
:10352000084301F0CEFA26E0607801F0B7FA22E015
:10353000687829780002084301F0A3FAEDE7607883
:1035400001F0CCFA17E0687829780002084301F00E
:10355000E9FA10E0687829780002084301F084FA5B
:10356000A078002802D16078002802D001F0EBFAA0
:1035700001E001F0CFFA0421684601700E2141708C
:10358000032181700121C170A049818000220621A0
:1035900001F09AFF7CBD6078EBE7FEB50646407807
:1035A00000250124002805D03078012804D0022805
:1035B0002DD12AE001252AE003273F0210233A46B5
:1035C000002101200094FEF7E4FF012111233A4677
:1035D00008460094FEF7DDFF012001F0F7FF03200D
:1035E00001F0E8FF002211460120FFF729F9717868
:1035F0007D26F600304601F0D3FC024611463046E7
:10360000FFF73DF901F0EEFF01E001F0F3FF0421C7
:10361000684601710E214171052181717B49C47198
:103620000D390181857201A80022082101F04CFFAB
:10363000ABE61CB5042269460A700E224A700522C8
:103640008A700122CA70714A103A8A800078C88054
:1036500000220821684601F037FF1CBD3EB5044634
:1036600022780020002A01D0032A03D1617807299B
:1036700000D90120A178002901D0032903D1E378E2
:10368000072B00D90120012A03D16378052B00D92B
:103690000120012903D1E378052B00D90120022A5A
:1036A00003D16278092A00D90120022903D1E178E7
:1036B000092900D90120042269460A710E224A71A3
:1036C00005228A710122CA71504A1D320A8148813D
:1036D00001A80022082101F0F7FE00257D2000014D
:1036E00000950099491C00918142FADB00231A469B
:1036F000042118460095FEF74CFF00231A460521C9
:1037000018460095FEF745FF414821780170617821
:103710004170A1788170E178C170FDF728F93EBD54
:103720003C490A8A5207FCD53A4A603A1082088A14
:103730004007FCD5FF2001301082088B0028FCD008
:10374000108AC0B27047334A138A5B07FCD5314BED
:10375000603B18821982108A4007FCD5108A8006C7
:10376000FCD470472C490022488008888004FCD58E
:103770000120C880488880187047F8B50F46044675
:103780001D46164619461046FEF7EFFE2046FFF787
:10379000E9FF3846FFF7E6FF29463046FEF7EFFE21
:1037A000F8BD70B50E460446154611463046FEF784
:1037B000DCFE80202043FFF7D5FF0020FFF7D2FF7B
:1037C000C4B229463046FEF7DAFE204670BDF0B599
:1037D00085B004460421684601710E22427105221B
:1037E00082710A4A0126C6711132028101A8039032
:1037F000207805252D0700270028A88842D00DE055
:10380000C0300050FFFF00008C7F0000E04000004F
:10381000045900206013005000120050202108437A
:10382000A880FB488781FA49612260390A800A88AA
:1038300006239A43121D0A800A8810239A430A809D
:10384000227B8A8086810646308A8006FCD4E17815
:10385000A07809230022FEF77CFE617920790A23F3
:103860000022FEF776FE607B002807D00097012239
:10387000E17BA07B00235202FEF78BFE60780128DB
:103880007ED09DE00122D2021043A880E148028848
:103890005208520002800288FF2381339A4302803B
:1038A000028840239A43028002880A4302800188EA
:1038B0000222114301800188520391430180018853
:1038C0001822914310310180018831430180009614
:1038D000E178A07807235201FEF75BFE0096FF22F5
:1038E0006179207905230132FEF753FE0096062305
:1038F000E179A079DA01FEF74CFE00960322617AA5
:10390000207A00231202FEF744FE607B002807D0D5
:1039100000970122E17BA07B00235202FEF739FED3
:103920006078012805D1637A227AE17AA07AFFF7DC
:1039300024FF627A217AA07AFFF733FF6946488133
:10394000607B00280DD0FF20F53000970099491CBE
:1039500000918142FADBE17BA07BFEF743FE6946E2
:10396000488100220821039801F0AEFD012676026D
:10397000E178A07800233246FEF7EBFD617900E0A4
:103980001AE0207900233246FEF7E3FDE179A079C1
:1039900000233246FEF7DDFD617A207A00237210A3
:1039A000FEF7D7FD9B480188490849000180A98896
:1039B000B0008143A98096E5E17AA07AFFF7C3FEC3
:1039C000A07AFFF7ADFE69464881607B00280DD0E4
:1039D000FF20F53000970099491C00918142FADBE5
:1039E000E17BA07BFEF7FEFD6946488100220821AD
:1039F000039801F069FDB781A88820218843A88039
:103A000071E530B593B00420694608700E20487007
:103A1000452088700120C8707F48888008248C71F8
:103A200002A87EA1054601F085F96946CC710AA875
:103A30007AA1044601F07EF900220821684601F0CF
:103A400043FD01F035FD00221021284601F03CFD28
:103A500001F02EFD0022102106A801F035FD01F035
:103A600027FD00221021204601F02EFD01F020FD4F
:103A7000002210210EA801F027FD01F019FD13B05E
:103A800030BDF8B50E460121664B89044118DC05AE
:103A90002088802528432080634847893F0701D438
:103AA0005B1EFAD2614B01201860304601F002FB28
:103AB0002088A8432080F8BD70B586B004226946EE
:103AC0000A700E224A700A228A700122CA70524A73
:103AD000574D603A8A8002788A710022CA71029238
:103AE0000A7301786B4600290ED0514C48340229E4
:103AF0000ED04F4E143E04290ED0012913D00329B5
:103B00001AD0052923D029E002221946284606E0CA
:103B100006221946204602E0042219463046C91DF5
:103B2000FFF7AFFF1AE08178427808021043049053
:103B3000012204A928460FE004920592411C0622A6
:103B400004A801F0B7FA022204A9204604E01020DC
:103B50000490012204A93046FFF7DAFB68460022F0
:103B60000D2101F0B1FC06B070BD10B5314CA0695B
:103B700001F0F0FB0020A06110BDF8B5417802789B
:103B800009021143009187780321BE0035460835AC
:103B9000284601F083FA0446042020700E2060704D
:103BA000711DA1700120E0701B4821465038A08093
:103BB0000020A071E771F2B208310098FFF761FFB1
:103BC0001C4920468C611C4A294601F07DFCF8BD49
:103BD0001CB5417802780B0213438478C11C22463D
:103BE0001846FFF795FB0421684601700E214170CD
:103BF000052181700121C170074940398180002170
:103C000081710A46C471082101F05EFC1CBD0000F0
:103C10006013005000120050F0400000765F352E17
:103C2000302E3400A08601002000005000800040AB
:103C30008C7F0000105900206B3B0020FEB504462D
:103C400006780421684601700E21417009218170B7
:103C50000121C1701D49818086710021C171601CE4
:103C6000029101F070F8050220792D0A0006054343
:103C7000002E06D0012E0ED0022E16D0032E1FD1FC
:103C800019E0286869460872020A4A72020C8A72B0
:103C9000000EC87214E0601D01F055F80002217A90
:103CA000000A0906084328600AE028886946087265
:103CB000000A487204E0A079617900020843288074
:103CC00000220C21684601F0FFFBB1E4C040000077
:103CD0001649896A084710B5052001F0B1FA144861
:103CE0000068002805D011490122C96CC9B200F052
:103CF0008BF810BD10B520210D4801F0D5F90C4806
:103D000001F0F4FB0A480C3001F0F0FB01F0F4FB89
:103D10000849062001F09AFA0749052001F096FAB1
:103D20000649042001F092FA10BD0000E0010020D5
:103D30006C03080041600200D73C0020815F020054
:103D4000F7B586B09D48069D0090047B4035E87C21
:103D500016468019E8744A700C7068898880974804
:103D60000F466038039036E00398816E2E20604342
:103D7000081893490A78022A02D0097804291ED12A
:103D8000904A1188491C11804388D90703D08E4A74
:103D90001188491C1180190703D58C4A1188491CC8
:103DA00011808B4982790B88D21852080A80894980
:103DB00049880A0A88490B88D21852080A80E97D86
:103DC000C90705D08078400602D4069801F09AFB16
:103DD000641C6407640F3046761EF6B20028C3D117
:103DE00000980473287E00280CD0E87C002809D0B5
:103DF00003993878896E2E22504308188078C007BE
:103E000000D1287609B0F0BDF8B50F4605467349D4
:103E100040300089C9691646884201D1002102E07C
:103E20000002401C81B202220623900201F048F9F0
:103E3000044601463A462846FFF782FF002E02D08C
:103E40000020A07003E02146284601F061FB2046D7
:103E500001F03CF9F8BD30B561490A88FF23813390
:103E60009A4380320A800C88012214430C800C880B
:103E70001825AC4310340C8004884C800C88A404B2
:103E8000FCD5CA8044884C800C88A404FCD5CA8028
:103E900084884C800C88A404FCD5CA80C4884C80DB
:103EA0000C88A404FCD5CA8004894C800C88A40426
:103EB000FCD5CA8044894C800C88A404FCD5CA80F7
:103EC00084894C800C88A404FCD5CA80C4894C80A9
:103ED0000C88A404FCD5CA80048A4C800C88A404F5
:103EE000FCD5CA80448A4C800C88A404FCD5CA80C6
:103EF000848A4C800C88A404FCD5CA80C48A4C8077
:103F00000C88A404FCD5CA80048B4C800C88A404C3
:103F1000FCD5CA80448B4C800C88A404FCD5CA8094
:103F2000848B4C800C88A404FCD5CA80C48B4C8044
:103F30000C88A404FCD5CA80048C4C800C88A40492
:103F4000FCD5CA80448C4C800C88A404FCD5CA8063
:103F50000C889C430C80848CE4B24C800C88A404B4
:103F6000FCD5CA800C889C4380340C80194C658831
:103F70004D800D88AD04FCD5CA800D889D430D8011
:103F8000801E0078488008888004FCD5CA80088894
:103F90009843803008802088488008888004FCD5B9
:103FA000CA801048808A488008888004FCD5CA806E
:103FB000088840084000088030BD00003803080031
:103FC00010590020185900201A5900201C590020AF
:103FD0001E5900200029005020590020E001002037
:103FE00000120050002300500749096C084710B523
:103FF000002803D00121890601F090FA03484168A6
:104000000120884710BD0000600200201C07080046
:1040100030B5A249A24B4A7E00200C7E9D5C03462F
:10402000AC4205D1521CD2B24A76032A01D30120F8
:104030004B7630BD70B59B4E04000ED0B078022890
:1040400006D1F078012801D0052801D100F0F1F85F
:10405000012C67D1002000F003F9B07800280CD0C3
:1040600000258E4C012816D002283DD003280BD104
:10407000FFF7CEFF002855D157E0F078012804D093
:10408000052804D000F0ECF870BD032000E0082003
:1040900000F0F3F870BDF07801280FD00528F9D1B1
:1040A0007E48038CC28B818B408B01F009F801465E
:1040B00010392161C889002814D005E000F000F90A
:1040C0002169C889002803D0103100F0BCF870BD08
:1040D0000889754A904203D0734A3032904201D128
:1040E0000D811BE0084605E0F078012806D0052880
:1040F000EDD12069103000F0E9FF13E000F08DF9F8
:10410000206901890129F5D01F29F3D02129F1D097
:10411000202902D1C1890329ECD005812069C581FC
:1041200000F087F800F004F870BD00F077F870BD7B
:1041300010B55C48002181702038C06801210368F7
:1041400058485A4AC01C9847042001F0EDF910BDA8
:1041500010B5032001F0EEF9022001F0E5F910BDE1
:1041600010B5032001F06CF84C4C606901F062F866
:104170002068002805D0204601F050F800F082FFAA
:1041800010BD00213F2000F083FF01F0D9F9002885
:10419000F6D001F0DBF90028F2D1082001F0DCF9BB
:1041A00004223F21424801F0B7F810BD4148C06ADF
:1041B000004710B54049032001F048F83748C0686F
:1041C00080688047FFF7B4FF10BD70B506461446FF
:1041D0000D46022001F0C0F9681E30490670C9681A
:1041E000364A4B68611C984770BD2C48C06880688F
:1041F000004710B52948C068C0688047002801D032
:10420000012010BD01F0A2F9002805D028480222A3
:104210003F21401C01F080F8002010BD21480321FF
:1042200081702038C068012103681E481F4A083881
:10423000184710B5194C2069002803D000F0FAFF88
:104240000020206110BD30B40C46164902228A704D
:104250002039C968154A0B680146204630BC18470A
:1042600010B50E4900224A760876FFF7D1FEFFF717
:10427000D5FF042001F058F910BD10B509490122FD
:104280008A702039C968094A0B6801460548801FB1
:104290009847042001F060F910BD00008004080078
:1042A000E0580020A0040800304000003540002005
:1042B00002FC0000E001002061410020514100208B
:1042C000AE48C06D0047FEB50026AD480196C17EE0
:1042D000807E0C020443AA4FAA483D7F211A009514
:1042E000844240D012DCA848211A84423ED007DC28
:1042F000A648201838D0A649C84210D11F2614E07D
:10430000012935D0A348C14209D10EE0A2481029A5
:1043100038D0302909D040292ED0D02938D03F209C
:104320000190681C9D4EC0B200909648103884429F
:1043300067D094481030844263D09248844260D061
:104340009048303084425CD08E484030844258D00F
:104350008C498C4B8C4881225031D201703384427D
:1043600019D1052D44D14CE00126DEE72026DCE7FB
:104370002126FEF749FFD8E700780528D5D1FEF7BA
:1043800059FFD2E700780228CFD1FEF76AFFCCE7C9
:10439000FFF737FBC9E78C4202D1032D02D130E091
:1043A00094422ED09C422CD076488030844228D033
:1043B00074489030844224D07248A030844220D087
:1043C0007048B03084421CD06E48C030844218D04F
:1043D0006C48D030844214D06A48DD30844210D01A
:1043E0006848D13084420CD06648B330844208D04B
:1043F0003F223046009B019900F062FE1038386180
:1044000009E03F223046009B019900F059FE103828
:10441000386104813869C581FEBD5848006E004787
:1044200010B55748574C016970340A890846103056
:10443000131BA24258D025DC594C131BA24241D079
:1044400015DC554B202A37D005DC012A0ED01F2A57
:104450000CD1042031E0212A08D04E4B2C3BDA420B
:1044600004D1C989052901D1FEF7FBFD10BD102B30
:104470001FD0402B23D0602B27D0702BF6D1FEF716
:10448000B3FF10BD432B29D00ADC102B2FD0202BDB
:1044900030D0302B31D0402BF3D1FFF7CAF810BD0C
:1044A000502B18D0612B1CD06D2BF8D1FFF7D6F80C
:1044B00010BDFEF79DFD10BD0320187010BDFEF766
:1044C00012FE10BDFEF729FE10BDC9890329FBD1DC
:1044D000FEF7E4FE10BDFFF70FF810BDFFF75DF823
:1044E00010BDFFF774F910BDFFF7E6FA10BDFFF736
:1044F00044FB10BDFFF76CFB10BDFFF79FFB10BD29
:104500001E49496E0847F0B51D4E00227569032407
:1045100029462B890B310127432B25D004DC242B82
:104520001BD0422B0DD11BE0442B1FD01B4D6D42E5
:10453000EB4206D1124AD37E947E1A02224304240F
:104540004F710E230B704C708F70CA70120A0A7173
:10455000A41C047070690B30F0BD0C4A524201E09B
:10456000094A521E0424ECE7074AFBE7064A6D8A13
:10457000521C06248D712D0ACD71E2E7E001002066
:1045800080040800204000001E200000FDF3FFFF13
:10459000E6EBFFFF0EE0FFFF1059002001FC0000DA
:1045A00010400000FE494843012102E000BF00BF67
:1045B000491C8142FAD97047FA49FF2804D80028DB
:1045C00005D0FF20013002E0884200D908460521CD
:1045D000090748800220E5E7F8B50025F24A009572
:1045E0005178491C51700A2100F0DAFC01228A40FE
:1045F000D1B2002807D0012807D0022808D003280C
:1046000009D00020F8BDE94807E0E848203004E080
:10461000E648403001E0E5488030E64CE44E666113
:10462000A561226904231A432261EFF31085012258
:1046300082F3108800F0F6F90090206940084000ED
:104640002061002D05D0012080F310880098301AD9
:10465000F8BD0020F8E7F8B50D4607461C46501B8C
:1046600000F0F6FB0646781B00F0F2FB314600F046
:10467000B1FB00900698001B00F0EAFB009900F0E7
:104680006CFB009000F0EFFB0019F8BDF1B5CA4ECD
:1046900082B002277F1C7068FFB2BD000090A8198D
:1046A0008038C36FC4483038426828188038C16FDA
:1046B000C248FFF7D0FF0446FF2802DCFF24013484
:1046C00003E0B848844200DD044674517059FFF796
:1046D00073FF0298FFF780FF0146B7483038415119
:1046E0004259B1494A604159B4480A38814201DA15
:1046F0000A2FCFD3AC48002141702046FEBDF1B552
:10470000AA4DAA49A94C009E0320A84A00022035C0
:1047100040318034330000F09DFC26141A20262CF2
:1047200032383ED3D3444A50565C62D3D3D3D36895
:104730006E747A80868C92989EA4AAB0B6BCC2C8C9
:10474000CED3D1888143FF310131D180B8E01189C6
:104750008143FF3101311181B2E051898143FF3141
:1047600001315181ACE091898143FF310131918167
:10477000A6E0D1898143FF310131D181A0E0118AC6
:104780008143FF31013111829AE0518A8143FF3127
:104790000131518294E0918A8143FF31013191824C
:1047A0008EE0E9888143FF310131E98088E0298981
:1047B0008143FF310131298182E069898143FF31E1
:1047C000013169817CE0A9898143FF310131A981EF
:1047D00076E0E9898143FF310131E98170E0298A7E
:1047E0008143FF31013129826AE0CA888243FF3266
:1047F0000132CA8064E00A898243FF3201320A81B1
:104800005EE04A898243FF3201324A8158E08A8958
:104810008243FF3201328A8152E0CA898243FF32E9
:104820000132CA814CE00A8A8243FF3201320A8295
:1048300046E04A8A8243FF3201324A8240E08A8A55
:104840008243FF3201328A823AE0CA8A8243FF32CF
:104850000132CA8234E00A8B8243FF3201320A837A
:104860002EE0E1888143FF310131E18028E0218998
:104870008143FF310131218122E061898143FF3190
:10488000013161811CE0A1898143FF310131A181A6
:1048900016E0E1898143FF310131E18110E0218A95
:1048A0008143FF31013121820AE0618A8143FF3176
:1048B0000131618204E0A18A8143FF310131A1828B
:1048C0003D4D00202E46303E2C46014630348200BD
:1048D000A950A150B150401CC0B20A28F7D938489D
:1048E000A860A868FFF768FE0098FFF775FEE06013
:1048F000E16832482C4F81422FDDAF208000A86054
:104900002F486860A868FFF757FE0098FFF764FE1D
:10491000A060E0687060A068B06002203870A16894
:104920002648814254DDFF200130A860AF2080007E
:104930006860A868FFF740FE0098FFF74DFE6060D2
:10494000A06870606068B06001203870A0681B4982
:10495000503988423CDA012044E01948A860192007
:10496000800168606868FFF727FE0098FFF734FE53
:10497000206120697060E068B060032038702169B0
:104980000E48814224DA19208001A8600548686039
:104990006868FFF711FE0098FFF71EFE606111E0E6
:1049A000F1060000FF0700002C59002000300050E5
:1049B000FFFFFF0000E000E064900020FC117A009F
:1049C0007E040000606970602069B0600420387067
:1049D00039780020042905D12169114A914201DD6D
:1049E000012100E00021084305D00020FFF7E4FD8D
:1049F0000120C043F8BD0098FFF748FE08497868D9
:104A00005A39884205DA0020FFF7D6FD0020C0435E
:104A1000F8BD052000074088B860B868F8BD000000
:104A20004C127A003EB50D4D6D1E14D002880A421C
:104A3000FAD16D1E0FD002880A42FAD0084A1368D4
:104A40000124234313606D1E05D002880A42FAD167
:104A5000044A10683EBD00203EBD0000C0C62D00C7
:104A600010E000E018E000E010B50446C1B20620F6
:104A700000F0C1F8210A072000F0BDF800F0B0F8FE
:104A800010BD10B50446C1B2002000F0B4F8210AF0
:104A9000012000F0B0F800F0A3F810BD10B500241C
:104AA000002803D00121401E81408CB2E1B20420D5
:104AB00000F0A1F8210A052000F09DF800F090F820
:104AC00010BD10B50446C1B2022000F094F8210ACE
:104AD000032000F090F800F083F810BDC10710B576
:104AE000C90F082000F087F800F07AF810BD10B563
:104AF00000F03EF80020FFF7F1FF0020FFF7E1FF94
:104B00000020FFF7CBFF0020FFF7BBFF0020FFF7DF
:104B1000ABFF10BD10B501460B2000F06CF800F0A3
:104B20005FF810BD10B50446002000F076F80120B3
:104B300000F073F87D20C000604300F079F8002099
:104B400000F06BF810BD10B50021092000F053F8FB
:104B500000F046F80121092000F04DF800F040F87F
:104B60000021092000F047F800F03AF810BD0000DD
:104B70002E4900220A8003200002C8800881488153
:104B80008881C881088248828882284940390A8001
:104B9000C880088148818881C8810882704723497C
:104BA00008807047214940390A880007120912011C
:104BB000000F02430A8070471C4A403A11881023B4
:104BC000C0079943C00E014311807047174A403A0D
:104BD00011882023C0079943800E0143118070473C
:104BE00000B50020FFF7F2FF0120FFF7EFFF0020E4
:104BF000FFF7ECFF00BD30B505460C460020FFF77F
:104C0000DBFF0A4804802846FFF7CCFF0120FFF7AE
:104C1000D3FF0020FFF7D0FF30BD00B501460A20CA
:104C2000FFF7E9FFFFF7DCFF00BD00008030005018
:104C300001010748814200D901460648002202616D
:104C400041618261052101610169C903FCD5704799
:104C5000FFFFFF0000E000E07CB52E4D0024287827
:104C60002646012806D12C48406B002802D12E7020
:104C7000FEF7DAF929480188294A1288914214D3AB
:104C80002978012911D106800421684601700E217E
:104C90004170032181700121C1702249818000226D
:104CA000062100F011FCFEF7AFFA00F05BF91E4D93
:104CB0002888012809D100F085F91C4908800120C5
:104CC00000F086F900F08AF92E80FBF799FD0100CB
:104CD000174807D001684A1E0260002900DD012440
:104CE00020467CBD012464210160F9E70020704763
:104CF000032809D105200007418A8022914341827F
:104D0000418A042291434182704710B5FBF746FD6A
:104D100010BD000010590020900308001659002013
:104D20001459002040400000245900207804080055
:104D30003859002003460A780270401C491C002A9A
:104D4000F9D1184670470321001D401E0378120256
:104D50001A43491EF9D510467047024670B54A40BD
:104D6000D30FDB0740002DD04A002AD0010E140ECD
:104D7000000212020919400A520A8418E501044689
:104D80005443000A120A2E045043A4194219200C5D
:104D9000C543AA18120C0125AD03521C5219120466
:104DA0007F39240400D0521C104301D44000491E16
:104DB000C2B20C06C0092018401C4008802A02D04C
:104DC00003E0002070BD40084000002900DA002008
:104DD000184370BD70B502464A40D50F40004A00E6
:104DE000ED0740085208002814D0002A12D0C40D44
:104DF000D30D41020120C0055202490A520AE41AA9
:104E0000091812187D34914201D3641C00E0490056
:104E1000002C01DA002070BD0023914201D3891AD1
:104E20000343400849000028F7D100290AD09142E5
:104E300002D10121C90705E0914201D2012101E01F
:104E40000121C943E005C018401900F025F870BDE4
:104E5000C217C10F504010B54018CA079623002151
:104E600000F022F810BDC20F410040020123400AA9
:104E7000DB05D207090EC0187F2901DA0020704730
:104E8000962903DC9623591AC84001E096398840D8
:104E9000002AF4D040427047002904DA401C49003F
:104EA00001D140084000704770B40024050C05D1C2
:104EB0001024000402D1002921D01124050E01D1B3
:104EC00000020834050F01D10001241D850F01D116
:104ED0008000A41C002801DB4000641C002908D0CD
:104EE00020252E1B0D46F540A14000D0012129436D
:104EF000084301061B1B000ADB1D02D5002070BC05
:104F00007047DB05181880180029F8DA401C4900A2
:104F1000F5D170BC4008400070470000064C0125E8
:104F2000064E05E0E36807CC2B430C3C9847103451
:104F3000B442F7D3FBF788FAE45800200459002064
:104F400003B40148019001BD2B69020003B401487C
:104F5000019001BDC12D030003B40148019001BDC2
:104F60000921030003B40148019001BDC92D0300CC
:104F700003B40148019001BDEB31030003B40148C3
:104F8000019001BD3D32030003B40148019001BD11
:104F9000D721030003B40148019001BD5D800200E8
:104FA00003B40148019001BDA73A030003B40148CE
:104FB000019001BD2F2F030003B40148019001BDF2
:104FC000998F020003B40148019001BD938F020044
:104FD00003B40148019001BDCD8C020003B4014827
:104FE000019001BD418F020003B40148019001BD51
:104FF000B780020003B40148019001BD551B0200B7
:1050000003B40148019001BDCF2B030003B4014854
:10501000019001BD0F3B030003B40148019001BDA5
:10502000CB2C030003B40148019001BD099002009C
:1050300003B40148019001BD831D020003B401487F
:10504000019001BDBF24030003B40148019001BDDC
:10505000B326030003B40148019001BDFD3D0300E8
:1050600003B40148019001BD197D020003B4014859
:10507000019001BD0522020003B40148019001BD69
:105080002F22020003B40148019001BD0B910200E0
:1050900003B40148019001BD3126030003B4014867
:1050A000019001BD1522030003B40148019001BD28
:1050B000533B030003B40148019001BD213B0300B1
:1050C00003B40148019001BDB123030003B40148BA
:1050D000019001BDE123030003B40148019001BD2B
:1050E000A528030003B40148019001BDD5AF02001B
:1050F00003B40148019001BDA1A5020003B4014819
:10510000019001BDE3A5020003B40148019001BD77
:1051100087A8020003B40148019001BDA7A90200BD
:1051200003B40148019001BD93AA020003B40148F1
:10513000019001BDF9AB020003B40148019001BD2B
:1051400069AC020003B40148019001BD17AD020033
:1051500003B40148019001BD77AD020003B40148DA
:10516000019001BDF1AD020003B40148019001BD01
:1051700085AE020003B40148019001BD11AF0200E9
:1051800003B40148019001BD859A020003B40148AF
:10519000019001BDD3B2020003B40148019001BDEA
:1051A0007FA5020003B40148019001BDD7A502000C
:1051B00003B40148019001BD75A5020003B4014884
:1051C000019001BD19A7020003B40148019001BD7F
:1051D0005799020003B40148019001BD8D3D0300C1
:1051E00003B40148019001BD3350020003B40148EB
:1051F000019001BD5548020003B40148019001BD72
:105200001F50020003B40148019001BD7F0C030050
:1052100003B40148019001BDAB0C030003B4014885
:10522000019001BDBF22020003B40148019001BDFD
:10523000EB26030003B40148019001BD35240300AF
:1052400003B40148019001BDDD20030003B401480F
:10525000019001BD9D20030003B40148019001BDF0
:1052600049E5020003B40148019001BDF9E30200E1
:1052700003B40148019001BD4BCD020003B40148C5
:10528000019001BD99D1020003B40148019001BD14
:10529000ABD0020003B40148019001BD69D0020007
:1052A00003B40148019001BD77CF020003B4014867
:1052B000019001BD01CC020003B40148019001BD81
:1052C00029CC020003B40148019001BD15D20200AF
:1052D00003B40148019001BD8DD2020003B401481E
:1052E000019001BDFD3A030003B40148019001BDE6
:1052F000C52D020003B40148019001BDCB7F02001F
:1053000003B40148019001BDEB2A020003B4014837
:10531000019001BD1F32020003B40148019001BD9C
:105320002528030003B40148019001BDBD300200EF
:1053300003B40148019001BDBB7F020003B40148E2
:10534000019001BDB938020003B40148019001BDCC
:105350007758020003B40148019001BDD722030031
:1053600003B40148019001BD2D42020003B401487D
:10537000019001BD7B30020003B40148019001BDE2
:10538000CD2B020003B40148019001BDB93E0200DB
:1053900003B40148019001BD7F3E020003B40148FF
:1053A000019001BDBDE4020003B40148019001BDBC
:1053B00061F4020003B40148019001BD71E40200F0
:1053C00003B40148019001BD95E3020003B4014814
:1053D000019001BD3DF6020003B40148019001BDFA
:1053E000912A020003B40148019001BD773B0300FC
:1053F00003B40148019001BDD729030003B401485B
:10540000019001BD652C030003B40148019001BD6A
:10541000DB2E030003B40148019001BD231D0200EF
:1054200003B40148019001BDC32C030003B401483B
:10543000019001BD1531030003B40148019001BD85
:105440003B66020003B40148019001BD2B660200D7
:1054500003B40148019001BD038D020003B401486B
:10546000019001BDCF8F020003B40148019001BD3E
:105470001B66020003B40148019001BD79200300BE
:1054800003B40148019001BD2129030003B4014880
:10549000019001BDD990020003B40148019001BD03
:1054A000C768020003B40148019001BD0D2C030040
:1054B00003B40148019001BDF580020003B4014826
:1054C000019001BD7B6F020003B40148019001BD52
:1054D0002F81020003B40148019001BDAF6E0200AC
:1054E00003B40148019001BD655F020003B40148A7
:1054F000019001BD2522020003B40148019001BDC5
:105500005B66020003B40148019001BD5D610200C9
:1055100003B40148019001BD0D53020003B40148DA
:10552000019001BD7762020003B40148019001BD02
:10553000ED2E030003B40148019001BDB12003002A
:1055400003B40148019001BD3F2F030003B401489B
:10555000019001BD472F030003B40148019001BD34
:10556000B72E0300F8B5040C8BB2264682B25E4318
:105570000D0C1046370C5843360480190021794130
:1055800016466E43370C36048019794126466E4321
:105590008919F8BD02E008C8121F08C1002AFAD113
:1055A00070477047002001E001C1121F002AFBD1A3
:1055B0007047000004490A68800792089200800F33
:1055C00002430A60704700000400005004490A6862
:1055D0000823C0079A43000F02430A607047000087
:1055E0000400005002480168012211430160704725
:1055F00000340050024801684908490001607047C2
:105600000034005004490A68C00752085200C00F15
:1056100002430A60704700001034005004490A68D1
:105620000423C0079A43400F02430A6070470000FA
:105630001034005004490A680223C0079A43800FBF
:1056400002430A6070470000103400500101000A54
:1056500004280A040203AA0055032A00A001FFFF40
:105660002C0100003B130020FFFF0000410F002031
:1056700000080000690F00206856002002000000AA
:10568000544303007856002032040800060001004D
:105690000000000018570020A404080002000100C8
:1056A000751000208B10002037170020F517002000
:1056B00019180020BD160020612000206D14002064
:1056C0009427030062B600DFA4E2020001DF81B08C
:1056D0001CCA0200F8BD02DF40CB0200F5E703DF81
:1056E00084D4020004DF89B0941B030005DF00B5F9
:1056F0001C2C020062B606DFEC0C030070BD07DF55
:10570000FFFF00000710002002FC00007D92020055
:1057100003FC0000899202000057002003000000F3
:1057200001140000C9110020002800001FA202007F
:105730000C1C0000DDA20200001C00001FA20200E1
:1057400001280000DDA10200021400001FA40200D5
:105750000000000000000000000000000000000049
:105760000000000000000000000000000000000039
:10577000000000000000000020570020060000008C
:105780005057002078570020D0040800050006007C
:10579000FFFF0000A91E002005040000011C0020DE
:1057A00026040000DD1C002023040000831E0020CE
:1057B000240400005D1E0020290400001F1C00209E
:1057C0002A040000F71D00202C040000751B002097
:1057D0002F040000C71D002001080000751C0020D8
:1057E00000080000EF3F0200000000000000000081
:1057F00000000000000000000000000000000000A9
:105800000000000000000000000000000000000098
:105810000000000000000000000000000000000088
:105820000000000000000000000000000000000078
:105830000000000000000000000000000000000068
:105840000000000000000000000000000000000058
:105850000000000000000000000000000000000048
:105860000000000000000000000000000000000038
:105870000000000000000000000000000000000028
:105880000000000000000000D857002002000000C7
:1058900000000000000000009057002009000000F8
:1058A000E8570020985800206403080016000600FE
:1058B000FFFF0000011F00200C040000291F002032
:1058C00011040000AF1F0020B058002003000000AA
:1058D00010490300C85800206C05080003000600AA
:1058E000525721003C59002020900020A4000000C5
:1058F000A455002068070800202A0800E0050000E1
:10590000A455002000000000800C000000000000F2
:105910000000000000000000000000000000000087
:105920000000000000000000000000000000000077
:0C59300000000000000000006400000007
:040000052000044192
:00000001FF
